:4000000000200020110000004D0900004D0900001C4A1D4B70B51A601C4B1D4D1A681023134000D12B602B68802B29D1194B1C79E4B2012C14D90021052000F0CBF8012125
:400040000400052000F0C6F8E4B2C0B2002C03D0041E05D0032403E0441EA0410224241A0023210002202B6000F0B4F8002807D0012C05D82100022000F0ACF800F0FEF8A7
:4000800001F0D2F86588EDAC380003405400034088000020940000200000000000000000000000000000000000000000000000000000000000000000000000000000000091
:4000C000000000000000000000000000000000000000000000000000000000000000000078050031626E0200AF11041F00000000000000000000000000000000000000009D
:4001000010B5064C2378002B07D1054B002B02D0044800E000BF0123237010BD08010020000000002C130000084B10B5002B03D00749084800E000BF07480368002B00D1DB
:4001400010BD064B002BFBD09847F9E7000000000C0100202C130000900000200000000018234343F0B5134CE3189D689A8A002D01D10D701CE0104B8600F658C2239B0080
:40018000F7581F231F403B1C082F00D908239BB20B70D021D3189BB28900934204D97758AF54013292B2F8E7182358432418A282F0BDC0462401002030130000034A04495E
:4001C00013689BB20B4313607047C0460CED00E00400FA05013810B50B2830D80902494201F08CF806080A0C0E10141216191B20164B13E0164B16E0164B0AE0164B12E07E
:40020000164B0BE0164B09E0164B02E0164B00E0164BC91815E0164B05E0164BC9180878C0B212E0144BC9180A7848788C780002230418430300C8781343000604E001BEB5
:4002400000210B7848780002184310BDC0FF0100C1FF0100C5FF0100C9FF0100D0FF0100D1FF0100D6FF0100D2FF0100D4FF0100D8FF0100DCFF0100E0FF010000470000E9
:400280000122024B60331A707047C04624010020F7B5C37D827D1B0213430122324D01009446AB425DD182784478CB78120222431B0413431A000B791B06134351D08A7A98
:4002C0004C7ACB7A120222431B0413431A000B7B1B06134345D08A794879120202431202501CFF30214EC418B4423AD80F78040000210133FF339B180193019B834205D02B
:40030000037801309C466144C9B2F6E701234942C9B29C468F4224D1631CFF33B34220D8023B5B88AB421CD1FF34217AE37909021943607A00230A290ED080250C4CAD007F
:40034000141952195118A14204D0227801349B18DBB2F8E75B42DBB2C31A581E8341DBB29C466046FEBDC04659430000FFFF01000A020000F7B5194C194D2B590194DB03AB
:400380002AD50026FF271748330102006432D218117AC9B2FF2914D0C318986E01389866986E00280DD117720F4A5432944664461278013AD2B222701A6F002A01D01B6FD2
:4003C000984701360F2EDED1074B54331B78DBB2002B01D1019AAB50F7BDC04610D00000001000E02401002024020020134B8200D35830B51A68F821520052081A6018226F
:4004000050430F4A102510180222027100200D4A0D4C98500122090152425A501959A9431951F42109015A5080315A508021D8661A6809060A431A6030BDC0463013000060
:4004400024010020880F0000480F0000654B8200F0B5D458002385B002AAD371624B0600E25801231A4206D0604962589A436250E8221201A3505E4B0125E35800930223F7
:40048000009AFF331A4202D000231D000093009BDB063FD518277743564BDF193A790193042A0BD002ABD91D3000FFF759FE0521BA8A3B690120397198470500182373432F
:4004C000019A8020D31802221A7100229A8281239B00E25840020243E250E158464A1140E1500133FF33E1580143E150E1580A40E25001224149635893436350F823102166
:400500001B01E2503E4AA3588B43A350F42330221B01E250009B5B0639D5E82201271201A3583B43A35018237343324AD3181A79022A29D1626ED2060DD50421002219714B
:4005400010001B69984700281ED0F8231B01E7502A4BE75003E005221A71002D14D0F423302210211B01E250254A0125A3580B43A350244B1A005532925D002A01D1E56633
:4005800005E059339D5502E002230025E366F423009A1B01E250002D03D13000FFF726FF1EE0194BE758FB0709D518237343114A0421D31800221B69100098470500F82386
:4005C0001B01E750114BE758FB0704D502ABD91D3000FFF7C5FDFC231B01E750002DDCD005B0F0BD301300008C0E0000880E00004C0F000024010020FFFFFEFF880F000055
:40060000480F0000240200208C0F0000CC0F000010B50020FFF71AFF10BD0000F7B500F031FE1F4B019019001F005E31FF31CA7D5E37002A2FD04C7C002C2CD1F620844653
:400640005D33FF33DE8ABA195278BE5D0092154A9444604606706846150001260078F732107078354E74AA790F493243AA717F220D682A400A601021DA8AFF31223292B2E7
:400680008A4201D8DA8200E0DC82054B5E33FF33DA7D013ADA75019800F0F8FDF7BDC046240200202403002000010440012110B5104C084213D000220F4B5E33FF335A7480
:4006C000DB7D934209D10D4A926F137053702200783293798B43937101E0FFF79FFF7834A379002B04D07F23054A11680B40136010BDC0462403002024020020A40400201F
:4007000000010440F0B50025484BCBB0029501900395984200D984E0802245495200F8310AA800F0F5FD434B434C0893FF23434E434A08AF7B6027603260C0462268120F32
:400740000F2A03D02268120F0A2A01D025681D400295029D002D66D100F094FD394A3A4B04A97C320493059221603849324B3160C0462168090F0F2903D01968090F0A2999
:4007800001D01D68EDB20395039B002B10D1304D294925602F4D3560C04625682D0F0F2D03D00D682D0F0A2D01D00B68DBB20293029B002B16D1284908910199089D09044C
:4007C0002943264D089127601B493560C04625682D0F0F2D03D00D682D0F0A2D01D00B68DBB20293039B002B18D11D4D06A90695079221601B49104A3160C0462168090F5F
:400800000F2903D01168090F0A2901D01368DBB20393039B002B01D0039B029300F036FD01E00423029302984BB0F0BDFF01000024030020B6D7000008001040040010402B
:4008400004000080A4040020B6E9000016000080B6E8000015000080B6D8000005000080B6EA00001700008010B500F00BFD0023104964311A018A181400127A0834002AE9
:400880000BD001330F2BF5D10B4B54331B78DBB2002B0BD000F0FAFC10BDFF23064A237054321378013BDBB21370EDE7034A04498B50EFE7240100202402002010D0000087
:4008C000001000E0F8B5050000F0DCFC1E4B04001A0019001F005E32FF32D07D5D31FF315E378A8A082815D1002A02D11132FF328A8219005D33FF339A8A0025223A93B202
:4009000081225E31CA54CB1820005D7000F0BEFC280017E00026BD54551CADB27E551025223292B2FF35AA4201D88A8200E08E825E330130FF33D875FFF770FE200000F07D
:40094000A5FC0120F8BDC0462402002010B500F0A1FC03680C2B00D1FEE7FEE770B5012852D10F233F4D6C7D290026092340022A18D8012A0ED00024A64270D1022B07D1DB
:40098000394B2A7DF8339B18384A0400936166E0002B64D1344B0A7D78339B18334A012493615CE0002B13D00400002E4CD1022B4AD12D482C7D023AF830FE3392B2001923
:4009C0001B1B9A4200D91A00163100F0A1FC3AE0274B55331870002C0FD12B7D062B0CD1214BA97D78339B790B4206D0802321495B4208680343DBB20B6001241B4B023A2D
:400A000092B21C77DA831FE0002404291CD182230826194D9B00EA58EA3B1449FF3B13408C69F31ADBB220001A1CB34200D9321CD2B2A31890229200834203D00478013057
:400A4000AC50F9E78B610124084B197FC9B2002905D1812203485200143000F047FC200070BDC0462405002024030020240600202402002000010440000005400122F8B5A0
:400A80002D4C2E4D23682E4E9343236000232D489A002900032B00D8B15801338150222BF6D172B6FF220025274B284E1A60284BFC3A1D60274B1A60274B21321A60274BCC
:400AC0005C321A60264A274B1A601223336000F0D9FB0722244907000B6893430B60234B23491B78DBB20B6022490B6893430B602149224B0A6818787F239A430340134340
:400B00000B60322000F0B4FB380000F0BFFB1C4B1C4A1D601C4B1A601C4B1D601C4B1D60112333601B4B1A68AA4200D11A600122236813432360F8BD000010404D090000BC
:400B400000000000000000200000024030001040000102400000044008000440000104404000C00008010440080F034065F3FF0F0C0F0340100F0340180F03404CF3FF0FF7
:400B80000002014000FF008000000140280003400001014088000020F0B5DA4E81223400D948DA4B89B0F6345200002114309C61370000F09BFB8C228025D54878375200AE
:400BC00000215E3000F092FB2A000021380000F08DFB912308223B70CE49B4337A70FF33CB5821217B803300B43319601323BB8033002039A433197031003000C64B8831B0
:400C00000B60C6498C300160300090300360330094331960C24BC34E9C67C34BC34C1A702368C34A782013401D43256004253368C04FAB43DBB22B43336000F019FBBC4ACE
:400C40003B680192C3329B08FF320296134201D1402314E02368B64A78201340C02213432360029B029A1B68AB43DBB2136000F0FFFA01223B689B08134202D04223AA4AB2
:400C8000137000272368AA4AC12113402360A64BA94C1878A94B276080222366812389009B005202E766E2506250A54AF425A7500122FE2652422D016251A24D360467514E
:400CC000083D6251A04D6751AC46083D625145003543C426B6002268A5510825113EFF35FF3EA5510136FF36A551984D01262A4322600222964DEA702A71834A6870143269
:400D0000AA6081225200AA81924A2E702A61FE22AA70FA3AAF82E250625060588E4A10406050E1580A40E2504223854AFF33A35063468A4AE6508A4B1A608022894B920059
:400D40001A60894A894B91680B40802149040B43936062B68020FFF7B5FD854B8548DF77FFF796FA694E049401966F4EB84202D004227F4BDA778048FFF78AFA002805D017
:400D80000821019B5A1CD37F0B43D3777B4B7C481A68190092B2824208D1002201211A60019B5A1CD37F0B43D37796E01A681868019B92B20133DC7F80B2230711D4714B6A
:400DC000984212D004237048234000D011E282421AD0694A6748D469C769BC4207D202000EE00423234004D077E001230CE0012306E0654CA24207D0624A904204D05D4ABA
:400E0000928A6248824201D1002204E06048824202D0FA2292007280337173889BB20393002B04D180330B60FFF7C8F955E02A0000232800FF216032137064301A018218F3
:400E4000013311720F2BF9D10024314B514E54331C70514F514A524BF451F250514B524A1A6000F00FFA2900FF23B4460597643122018F183F7AE6B2FF2F00D133008A18F6
:400E8000127A002A07D1224A54321378013BDBB21370330004E001340F2CE9D1FF2B1AD069462A00898964321B019952ED18D31800223E4929671A72039B154AAB66130028
:400EC00054331B78DBB2002B00D180E1543213780133DBB2137000F0D9F90822002106A800F004FA074990200A00019B78320133DB7F107053705A075AD5802206AC920059
:400F00005EE0C0462403002024050020240600202402002000F0FF0F78050031626E0200A40400200001044094000020080104403FFEFFFF04010440000005408828004008
:400F4000480F0000880F0000C80F000000010080240100205D090000FFFFFEFF110600006400002000E100E000000440FFFFFFF825060020C0FF0100C0FE0100880000207E
:400F80004C420000324200003142000059430000FFFF0000001000E010D00000BF5D000014D000003C0000207503000081020000934A52681202120C01321402E03492B291
:400FC0001B0703D5802306A89B0007E08D4B5B681B021B0C01331802E0309BB20F000E00E0257837039788369C4688CD88C60D00903548CC48C5983118C818C1039B824F08
:401000001A8562465A851423019A538413227F4B7A81FB803B810393019B1B7F002B00D1BCE07B4C637D1B0900D0A1E0019B207DDA8B0638D2B2062800D9D8E000F05EF9CA
:4010400004D708D72C363E00A07DFFF72FFB8FE0012A00D8CBE0A27D0523522A00D084E0E47D002C11D0012C00D07EE0029B1A6880235B421343029ADBB2136072B6002261
:40108000644B1A60FFF79AF872E00720FFF70EFB2000FFF7ABF907E0A27D0523502A64D1019B4F3A0533DA7702235EE0A37D012B00D194E0022B57D1524891E00523032A19
:4010C00053D9A27D462A50D1E27D012A30D1019B0533DA7F0723002A47D0657E227E2D021543019A528CAA423FD8FA88AA4202D23A89AA4239D1039B9D4201D1414E04E0AE
:40110000FF235B009D420CD13D4E3000FFF7C0F80023984200D1F369EA223F49013352008B502800FFF7EEFA0223002800D00533E27D002A19D1019B0533DA7F0723002A9F
:4011400013D0617E227E090211437A898A420CD2039A914209D880222F4809025200F83000F0D6F8032300E009231800FFF7AAFB8122274852000021143000F0B7F80022E5
:40118000019B1A77254B1900593355310A701978914203D01A70049B0132DA66019B204C0533DB7F002B05D0FFF75EFB2300002260331A7060342378002B00D12CE7FFF79B
:4011C00053FB8022134B1A60FEF7F8FF24E764461449635007236146059C0B5176E60848FFF756F802230028BFD00633BDE70523BBE7824200D1F8E50123024A00E6C04667
:40120000C0FF0100C0FE010094000020FF010000240500208800002024030020240200202401002018D00000F8B500250E490F4B01394A1C14D000221F685C689E68A0189E
:40124000B24203D0B858A0500432F8E70200DE68141AA64201D020C2FAE710330139E8E700F01EF8FFF798FC01000000681300000230800804D0C0460138FDD1C046C046A1
:40128000C0467047EFF3108072B6704780F310887047C046014B18687047C046000100200E4B70B500251E000D4CE41AA410A54204D0AB00F35898470135F8E700F042F813
:4012C000084B00251E00084CE41AA410A54204D0AB00F35898470135F8E770BD5013000050130000501300005813000003008218934202D019700133FAE7704702B47146E6
:4013000049084900095C49008E4402BC7047C046002310B59A4203D0CC5CC4540133F9E710BD0000EF00000000140000000000000000054000000640000007400000084043
:4013400043000000F8B5C046F8BC08BC9E467047290100007D0A0000F8B5C046F8BC08BC9E46704701010000781300009000002078000000480500000000000008003200B1
:401380000200FF010002FF010000000000000000000000000000000000000000000000000000000000000000401300000000000000000000000000000000000000000000D6
:4013C00000000000000000000000000000000000000000000000000000000000000000000000000000000000A000002000000000000000000000000000000000000000002D
:4014000000200020011900002D8600002D860000000000000000000000000000000000000000000000000000000000000000000000000000000000000000000000000000EC
:40144000000000000000000000000000000000000000000000000000000000000000000000000000000000000000000000000000000000000000000000000000000000006C
:40148000000000000000000000000000000000000000000000000000000000000000000000000000000000000000000000000000000000000000000000000000000000002C
:4014C00000000000000000000000000000000000000000000000000000000000000000007A060132626E0200AF11041F000000000000000000000000000000000000000084
:401500005943040000200004173CB4040100010000020B000000000000000000000000000C0214000000000000000000200218000000000000000000E80300000000000086
:40154000020102000000010001040F0203070101010101000100000000000000000000002C9101272CD102002CB104002C4106000000000000000000000000005A900126F6
:401580005A30429A00000000000000000000000000000000000000005A005A00000000000000000000000000030038023C0200000000000000000000000000000000000096
:4015C0003C000000000000000000000000000000000000000000000000000000000000000000000000000000000000000000000000000000000000000000000000000000AF
:4016000000000000000000000000000000000000000000000000000000000000000000000000000000000000000000000000000000000000000000000000000000000000AA
:40164000000000000000000000000000000000000000000000000000000000000000000000000000000000000000000000000000000000000000000000000000000000006A
:40168000000000000000000000000000000000000000000000000000000000000000000000000000000000000000000000000000000000000000000000000000000000002A
:4016C00000000000000000000000000000000000000000000000000000000000000000000000000000000000000000000000000000000000000000000000000000000000EA
:40170000B404D4F6437970726573730014000000418000FFB4040092000000000000D4F6B404D4F6000000000101000000020000000000000001003C04140A0208140A0247
:401740003201000000000000000000000000000000000000000000000000000000000000000000000000000000000000000000000000000000000000000000000000000036
:401780000000000000000000000000000000000000000000000000000000000000000000000000000000000000000000000000000000000000000000000000000000000029
:4017C00000000000000000000000000000000000000000000000000000000000000000000000000000000000000000000000000000000000000000000000000000000000E9
:4018000000000000000000000000000000000000000000000000000000000000000000000000000000000000000000000000000000000000000000000000000000000000A8
:401840000000000000000000000000000000000000000000000000000000000000000000000000000000000000000000000000000000000000000000000000000000000068
:401880000000000000000000000000000000000000000000000000000000000000000000000000000000000000000000000000000000000000000000000000000000000028
:4018C00000000000000000000000000000000000000000000000000000000000000000000000000000000000000000000000000000000000000000000000000000000000E8
:4019000010B5044B83F30888034A044B1A6007F0A3F8C046002000206588EDAC3800034010B5064C2378002B07D1054B002B02D0044800E000BF0123237010BD28010020E4
:4019400000000000ACFE0000084B10B5002B03D00749084800E000BF07480368002B00D110BD064B002BFBD09847F9E7000000002C010020ACFE0000900000200000000038
:401980001322F0B5EA4B93B01A60EA4AEA4BEB4D9A4201D8012300E00223E94C2B70200004F052FE00281BD12300AA331A782300AB331B781B021343E318002B10D0DB78A2
:4019C000E0490B702300AC331A782300AD331B781B021343E418002C02D0E3788B7009E02B78012B01D000F076FED74804F012FE06F0CCFC002401220826D44B06211C7041
:401A0000D34B15201A70D34BD34D1C70D34B1C70D34B5A6204329A62013ADA62023ADA6104F092FDCF4AD04B2E601A6008F039F8CE4A13689B009B08136008F036F8CC4BF2
:401A4000CC4A1E601268CC4A0C201268FF22CB490393030063430134CB189A721F2CF8D10020B84B012118725872802380245B002B60C34AC34B24069A63DA6C0A43DA6417
:401A8000DA6A2243DA625964BF4AC049C04C1160C04AC14950501051C04CC14814501000DC6BA4B2DA6B92B29442FBD0B54AD46B052242508022A5B2520246581642FCD08A
:401AC000DA6B93B29D4202D9802252021343B54A1B1B13800023435062B6B34CB34A2368042513408022B24E1343236033680520AB43DBB22B43336006F042FC4022AD4F74
:401B00003B68049601925B0717D52368A74A05201340C02213432360049B049A1B68AB43DBB2136006F02CFC42223B6801929B08413A134201D10823019323689B4A814E2F
:401B4000134023606B4680221B799202B3729A4B13271A6080220025984B52001A80984B984A1F80984B29001D70984B98481A60902252000EF0FDF8964C1822290020002A
:401B80000EF0F7F8944B0B36E3608823266020265B002382914A3533A680FF33904CD35820008022290002930EF0E3F86B461B89A780638023003A331E708A4B2C3423612D
:401BC00001232370884B1D70884B1D705C4B53331B78AB4200D025705022002184480EF0C8F8574B7E4F47331A78D8235B00FA54534B002154331A78BA23FF33FA54B93BF7
:401C0000FF3B9C466246B433FF33FA546A466C4B127980249A70774B774A1960C1201A668122800092006402D9669C501C50734CF42519510124FE2664422D015C51704D01
:401C400036045951083D5C516E4D5951083D5C51019D1C686D003543C426B60002949D51C0240825113EFF35FF3EA4009D511D51029C654D2C4365461C60644C25700225E9
:401C8000E5702571524DA182A56090256D00A5815F4D25616D462D796570FE25A57004249C501C501D585B4C25401D50985804409C5042225148FF321A506046514A564C89
:401CC00098508020554A564B40041A60039B554A1E603D4B1B78E35C9B009A5893680343936007A808220EF044F8154A134B01921B78334A029703920594012B00D09DE0D5
:401D0000494804F0CFFC8122431E9841474B52001A80FE22464BFF321A80464B01321A80454BEC3AFF3A1A80C00091239CE0C04630001040E0140000FF7F0000A0000020ED
:401D40000015000044010020FF01000085090020B90000208409002080E100E0B8000020FC000140199A00004C00002000E400E000E100E0E80F00F0EC0F00F0480A002077
:401D80006588EDAC00000340600000201D68000018D00000001000E010D000007FBB000014D00000BC0B0020080104403FFEFFFF0001044004010440A4000020A8000020F6
:401DC0009400002042030020BE0200202C0700209C010020E80900203407002000F0FF0FC40200202203000044080020450800204C0400200000054088280040480F000090
:401E0000880F0000C80F00000001008088090020597A0000FFFFFEFFB0FE00009998000064000020C8000100C0FE0100AA000020AC000020AE000020B0000020DB4804F0FE
:401E400031FC1421431E9841D94BDA4A5B681180D94A1B0A1380D94AD94B80001A80D94BED3AFF3A1A809223029A13705070430708D4CE4B5A681202120C01321502E035AA
:401E800092B202E0802207AD92000823184208D1C74B5B681B021B0C01331902E0319BB202E0802307A99B00C74FE0203E0090C890C6300050CD50C030C930C00299C34832
:401EC0000A854B85039AC24BC24953601A008B4201D801C3FBE79B1ABF4D9BB2AB85AB8D029ABE48D386BE4ABE4B11681A600023814206D1BC4E5168936889194C424C4108
:401F00001B1900219360516003991060B74A0A810A8902998A86FF2B00D9FF23029A32203232137007F086FE019B0333DA7F019B0433DB7F1B021343042B05D92A00043B1C
:401F40002E329B10137003E02B0000222E331A70019B0133DA7F019B0233DB7F1B021343019A0433D3182B6313000733DA7F019B0833DB7F1B0213432A003432042B02D9C2
:401F8000043B9B1000E000231370019B05990533DA7F019B04310633DB7F00201B021343019A0433D318AB6313002A331A78019B64242B331B781B021343AB87019B283371
:401FC0001A78019B29331B781B021343019AD3182B6407F06DFD002380211A00180005F0B9FF834B1B78002B01D001F039FE814B1B78002B26D00121112004F0B7FA3822E1
:40200000049B00219B6811209343083A1343049A936004F099FAFA22774B9200C021002004F096FC754B764AC221002004F090FC029B2C331B78DB0700D48BE0002007F065
:4020400083FD87E09620013C0002E4B207F020FD002CC6D1CFE76B4A0321002008F014F90F2808D002222378934323702378823A1343DBB223702B0038331B78002B74D1C6
:402080005B4B1B78002B01D001F0EAFD039B5E4E1F89356807F076F95C4C594B6543ED18BFB22D18AF4200D88CE2356807F06AF96C43534BE41800190024039B80B2188152
:4020C0001B89029AC22120009386346004F018FA4A4B4B4AC221200004F03AFC039B3B4A59680B003B48834200D86EE23A4A5B1A908D1400984200D8938D9BB29385938DB3
:40210000029AD38607F0CDFC414B04901A003C3210780222104000D0E1E238331B78002B00D058E22C4DAB6C2C00002B00D087E2029B2D331B78002B00D195E20124002513
:40214000049807F0B2FC002D01D007F03DFD002C00D09EE2002007F03DFD2D4D02222C003C342378134286D075E7002007F054FD284B1B78002B06D12821002004F09EF9E2
:40218000002849D07CE7037C002B03D079300378002B03D02B00012239331A702B0039331B78002B00D16BE7E6E7C046C0FF0100C0FE0100AA000020AC000020FF01000038
:4021C000AE000020B0000020D4020020005555000C1C00207F1F002044010020EFBEADDE001C0020B4000020F4CFFC3FDC050000A006002028060020C56A0000519A0000E1
:40220000EE02000015520000D40B002012FDFFFFA805002024110020BC4C26782700701E062800D92CE70DF079FC0700130066008701C601DB00B201002002F037FD00236C
:402240006370B34B1A780223002A00D0C6E050E06578002007F0E0FC002D02D0012D12D0BBE01F22290091430A000121A94B0A436384631CDA77A21DD577621DD5778022B2
:402280005B18DA7795E0A24B1B78002B00D1A4E02200002345321370220046321370636BA360A36A6360437D002B1BD123002B331A7838231340282B04D1230034331B780B
:4022C000DB060FD4030079331B78002B05D00300B9331A7818231A4204D170300178002006F094FA3B002B331B785B0775D500236370033372E00020667807F08DFC050055
:40230000012E07D0002E02D0022E62D065E0310030004CE07E4B1A780523002A5ED0E218D27F0492002A2FD1A26A013256D07A49049806F0A5FF002830D02B0079331B788D
:40234000002B27D02B00BC331B78002B22D02B007D331B78002B1DD0049802F0FDFA061E09D17035297802F027FB330037222821300004F0EDFA3B000020453318703B0098
:4023800046331870012112E0A36A013308D1238B002B10D00023637004331FE0010006E05E49002006F06CFF0028F0D1310002F013FC062312E06B7D002BEBD12B00B933DE
:4023C000187818231840E5D17035297806F01EFAE0E7631DDB7F012BDCD0052323704FE64F4D631DDA7F2B00290034331A70A31DDB7F383101330B70236A6B64A31CDB7FE6
:40240000424CDB092BD03F23791CC87F44350340CB77002A03D1434B3A331A7804E0002007F0FAFB7C3002780323602113405A016B788B4313436B70631CDA7F384BD206E8
:40244000D20E4033052A03D0062A04D0042A04D12D221A7006E00022FBE71922F9E7192340352B70A31DDB7F002B09D09A0000232B4DE018806A5919043388649A42F8D167
:40248000234B1B78012B2BD1254B34331B78022B26D1254B44331B78012B33D0002B01D0022B1DD1022307AA13700F230020137308211E4B1071906007F0ACFE1A4B002843
:4024C00007D009DB0E38C0B2012805D84433022204E04433012201E0032244331A7011E0443423780C21093B5A1E93410D4A0020413213700E4B0F4A07F08CFE431E9841A8
:4025000040420640014B1E70BAE5C046000A00202411002000FFFFFF100A0020180A00202C060020A8050020440100202D4900005D52000060060020874B1978874B0800F0
:40254000421E90411A0030321070854ADA66854A108A002910D00521002814D082493B35D96001215970002168331970019B0731C2331B782B7006E00521002803D104399B
:4025800068331970063100231170537078E5734B627868331B7800209B009B18734A9B00D3181B6E984720700638012800D967E50023637064E5002002F09EFB01233E3580
:4025C0002B705DE5039B188976E51868904200D08CE5043386E5282103F070FF00287ED1604B1B78072B7AD15C4A130068331B78002B74D04C342378DBB2002B6FD11100D8
:4026000030310C7801210E00D569D8B2844213D92800D84030420DD098008018006A0778012F06D10530C77F784278414042014000E000210133E8E7002900D072E54EE029
:402640002B004D33197801238B4289412320494203F08CFF464B1B78002B00D168E50021232003F071FF63E5424B1B78FF2B00D064E5414B1B78052B00D05FE53F4B1B78B8
:40268000002B00D05AE53E4E3378002B00D055E527E03C4B9A6C002A00D15BE5344A4D331B781278DBB2002A00D153E5364C374A012B01D9364B00E0364BA3670520E26767
:4026C00005F05EFEA26F344B0F211340A367232003F03AFF3EE5FF204000FFF787F900242DE507F04DFA002800D127E56B7A002B09D02A4B4E341B6C22889BB2934202D087
:40270000322005F03DFE33780124002B22D10124234B1978234B8A00D258536E234219D118234B432049CB181B79022B12D11F4953582343535007F0B4F904211C4B1D4A67
:402740001B889BB213601C4A13680B43136030BF07F0ABF92500F3E4241100202C060020200A0020000A0020040A0020B0FE00007C090020B2000020B3000020A4050020C4
:40278000A006002044010020FC000A40AFF44A01C2F14A41C2F14A40FFFFFFBF00000340BE020020B800010088090020880E000052F2FF0F0400034010ED00E07423F7B5A7
:4027C000002543430F4C104EE31830331B7801932B00019FECB2BC4210D2375C002F03D00A4FEB00DB1901E0002B05D01F888F4202D19F78974203D00135EAE7FF2000E0E5
:402800002000FEBD2C06002024110020DC0001007422424370B5154DAA18130030331978546993699C430023D36101228B421BD22600DE40164215D00D4A9B009B18742246
:402840005043002428180125A2009A5A002A04D02A00A240C6693243C2610134A142F3D8012002E00133E1E7002070BD2C060020DC000100742330B5002458430D4B1818B3
:40288000C36E1C60C56870300078021D1F205200AA189288197107215A801A785C7182431C3802431A705A788A4387390A435A7030BDC0462C0600207423F7B5060000259E
:4028C0001D2743430193019B164AD018030030331B78AB4220D93B0073435B1908339B009C58002C15D0104B9B5D002B01D1013300E004231F222370237A300093431A3A21
:4029000013432372E36998473022002120000DF030FA0135EDB2D6E7742200210DF029FA0520FEBD2C0600202411002074235843244B70B518180023C46E1600227163710F
:402940008B680D0023609300CB18DA68002A0BD08A19117E002907D020006171127ED968920008300DF0FCF9EB1CDB7F002B26D18022072163785242134363706B790B4052
:402980001A0063788B43134363701F232A7A1340062B0AD1AB1CDB7F002B06D06B7A0B401A0063788B4313436370002E07D00721AB790B401A0063788B43134363700120FF
:4029C00070BDC0462C0600207423F0B54343304A85B0D218D26E0700019209220026039202932B4A029BD318190030310978B1424BD9DB690121F3400B4243D01D237B439C
:402A00009B1908339B009D582B78042B3AD10522019B06311B79EB185A70019B5B780B401A006B7A8B4313436B72019B1B79002B01D1083303936B89EA79A4B21B04E4B2C5
:402A400012021C431443FE220021039B94435B001C43104BFD3ADB5D944313401C430C4A029B3800D31859661C66029B063160339A1805F0EFFA05232B70EB69002B01D068
:402A8000380098470136F6B2ABE7072005B0F0BD2C0600202411002074210A00F0B54243604B89B09B18DB6E060001930023059303930733049300230127029307910692E9
:402AC000069B58490298CA18130030331B78834200D8A4E0D3690298C3403B4200D199E01D2373431B1808339B005C58E369002B00D194E02378042B00D08BE00720019B17
:402B00001B79E3185F70019BD16E1B799C464B7803401A00637A8343134363724A79002A11D0634602339B00E318586800280AD06346E3181A764A792379934203D3920024
:402B400008310DF00DF9019B1B79002B50D1E36930009847019B5B78DB095BD0019B1A781F231340042B09D1503373432E4AD3183D331F70631CDF7702230393019B1A789F
:402B80001F231340052B04D10022631CDA7703230393631DDA7F002A06D0A26A05920022DA770C23039302E0039B002B32D06389E279ADB21B04EDB212021D431543FE221C
:402BC000039B95435B001D43184BBD439B5D15493B401D43069B059ACB181D665A66079B300073436033CA18062105F033FA11E0E3780222032B03D06378032B07D10022F0
:402C000021003000FFF792FE0623049302E0E36930009847029B0133DBB2029350E7049809B0F0BD2C060020A80500202411002074230722F0B5050043432B4985B0CC18A3
:402C4000E270E26803930192230070331A780198131D5B00C3189F88002F24D0234B5E5D3000431E9841C3B221480293844600230298834231D201236745F9D17422002445
:402C80006A4333401B4E88183343603203668A1844660621280005F0DDF928002100FFF7E9FD06201EE063690520002B1AD0012608220E4B67665B5D280033401343039A08
:402CC000236660328A18062105F0C4F968342800FFF79EFD2670072004E02300013270331A70B1E705B0F0BD2C0600202411002001FF00000C0001FFF8B574264643104AEE
:402D00000C279619F36E5C88B378002900D1377C7F251B0224043D401C430A4B6D002C431D5C01232B401C4374234343D518603369662C66D218062105F08CF9F8BDC046F3
:402D40002C0600202411002070B50500042913D100220A4B84001A5481235B041943084B084AE358A1501600002B00D0984732190721280005F06EF970BDC046900100200D
:402D80008C0100209401002010B5052905D100223B4B1A5405F0EAFC41E03A4B1A5C00239A426BD099423CD1354B1954364B1A5C002A34D1354A364C81008C5001221A54B7
:402DC00000280AD1334A344B916823300B40C02109010B4393600F2109E0304A304B916834200B40C021C9010B430F21936003F0ABFB80202B4B2C4A40009A672B4A2C49FF
:402E0000DA6718659A6D02439A650868294A0240294802430A60996F284A0A409A6701232CE004292AD80123154AC9B21354244A115480201B4A8005946F0442EFD102292A
:402E40000CD0032910D0994218D1946F1D4B23409367936F184390670B000FE0946F194921408024240504E0946F164921408024640521439167916F08439067180010BDC6
:402E800090010020241100207C09002080090020492D000000020440FFF1FFFF00030440FF8FFFFFFC000A40C2F14A40AFF44A0100000A40F7FFFF9F08000040FFFFFFBFEE
:402EC00091010020FFFFFFE75C23434310B5074AD3189A1C42331B78002B06D0D18F023B194103231940FFF74FFF10BDA806002089B210B504290FD15C234343074AD318D4
:402F00005A1CD27F002A07D042331A78002A03D0023A1A70FFF7D8FF10BDC046A80600205C23434370B5204DEB189A1C42331C78062C37D8D38F0322C9091140022909D049
:402F400091420DD0013A01291FD19900130089B20B4302E09B009BB21343A21CD2B216E0002C06D01E00A21E164122003140012905D102229B009BB21343A218D2B29B00BA
:402F800099B2032302320B43E8E7012300245C2141436D18A91C4235CB872A70002C01D1FFF792FF70BDC046A80600205C2343430C4A10B5D0184C1C03D10023037643763A
:402FC0000EE0012302000163037654321278002A07D00200816543764C321278022A00D1837610BDA806002070B55C2444430F4B00251C1923003C331D70DD70A31CDD8726
:4030000040331D700E3BA56365641D702900FFF7CDFF23004A331D70013B1D702565013B54341D701D71257070BDC046A806002010B50400FFF7D8FF0022074B20001A5570
:4030400005F094FB002C01D1044B1C605C2307225C43034BE25410BD900100208C010020A80600205C235843064B181803003E303D3302781B78012013400B4201D1484299
:4030800048417047A8060020F7B55C214143174C6218130034331E78002E26D01F250023354093601572FF2501276D4255814C3212780092321FD2B29742924152420192DB
:4030C0006A4665181279ED182A7603226A70002B02D0102E00D16F700133009ADBB29A42EED25C235843593B2354F7BDA8060020F0B50A7A87B0D2060190D70E48894A7AA8
:403100008B68520702906148520F140203402343039018040FD5032F01DC0026B3E07420019C019D60435A4C20185A4C3030665D741EA64106707420019C6043844654484B
:403140001402604430300078049405900020059DC4B2A542E1D986004D4C66443419246A002C70D06689029DAE426CD16679964204D1601CC67F002E12D1CEE7A61CF67FA2
:40318000002EF6D1E61CF67F002E5CD0039D2B40049D2B437F251E04360EAE4353D1E8E71F2083433B4307273A401502AC46039D2B4065462B43029D9BB22D042B43A3605B
:4031C0004D781840AC4601256D42AC4465462576062809D1A01CC07F002805D01B0403D5637ABB431A4362724A78012A0AD9237901339A4206D8284B0C31D2189200E068E4
:403200000CF0AEFD012301982370E36998472378052B82D05420019D204B4543ED18637ADB0901D1A3682B612A00237E2C3201331370227E002A26D028009200E168143034
:403240000CF08EFD1FE01F25AB43039D3B432B40049D134E2B43134D1E40AE4211D16689029DAE420DD1661CF67F002E09D01F22237A01989343183A13432372E3699847FE
:4032800001E0013063E7300007B0F0BDFFF8FFFF2C06002024110020FFFFFF3FA80500201F8700000587000073B504000D0005293ED806F073FD0600002C11D05023634338
:4032C0001C4AD318AD33FF331B685B0330D50122A41801ABE0B2B8211A7004F03BFE27E0002D05D0144AC30112782B439342E5D0002301AA13703301DBB2042DDED828000A
:403300000CF040FD03DC05090700032104E0202102E0402100E060210B431000537006F0AFF80028CAD0F601034B35431D7000E0002076BDC40200200C0700205C2242435A
:40334000F8B54F4E0400B31819004B310F783500012F0ED10220591DCF7726310870196B0902080A996A090E090601439962975585E03032B15C0322186B89079043020051
:403380000020890F0A435A649863D2B26030024205D0520666D5012248331A7062E018003C30007800280BD1012962DDD20603D54A331B78FF2B1DD15C236343EB1817E0C5
:4033C00001294FDD10210A4008D019003F310978002903D14A331B78FF2B0BD15C236343EB1819003F310978002942D0002A40D149331B785C226243AA18110039310B7075
:40340000112334321370002220001100FFF74CFF5C236343EB1819009A6B3831002A19D03C200A7882433838024301388243013802430A701A0054321278002A0AD01A0083
:403440004D321178143A12780A4203D1052234331A7014E05C236343ED18A96B2000FFF7A5FD0CE05C2311226343EB1834331A70C9E75C235C4300232D1934352B70F8BD22
:40348000A80600205C231A0070B542437D4D0400505D0138062800D9F3E00CF035FBB104F21CCCF2E20063437749EA18D16201211171190030316918D160110004263431D3
:4034C0000E700021101DC17758337049ED18D16115615561D2E06343EE183000327A3430D206D20ED1B202700122EA54052900D1A8E002D8042905D0C3E0102918D0112914
:403500001CD0BEE000212000FFF73EFC0023B21C4236D38733709C4202D15D4A5D4B1A605C236343ED18102334352B700121A2E020004B36FFF702FF337879E033004B335E
:403540001B78012B0CD1721DD377330002222B331A70B36AFF321B0E1B06FF321343B3625C236343EB181A0039321278082A16D004D8002A1ED0042A05D020E0102A02D011
:40358000202A0CD01BE05C236343EB18190001203C31087000213F331970043110E05C236343EB18180001213C303F3301701970023105E019003F333C310A701A700221F1
:4035C0005C266643AE193300353319702000FFF76BFEB16B002900D0716C2000FFF7A0FC5C2301226343EA54ED182B0048331A78002A46D0052234352A7000221A703DE09C
:403600001F226343EB18197A0A40062A39D11A003C321278002A03D0196B2000FFF780FC2000FFF78BFE5C236343ED184B352B78012B23D125E06343EA1834321178081F95
:40364000012803D82000FFF7F3FC1AE01039012902D80523137011E0002111700122EA540FE06343ED182B00112234331A700123002148352B702000FFF798FC2000FFF755
:4036800003FD70BDA8060020194A000085340000F12E00008C010020FF23F7B58B700023CD7A07000C0000939D4200D009E10B780193012B1FD15B334343834E30229B1997
:4036C0001800290000930CF054FBA5703800FFF78BFC009B01964B331D70E3689B68002B66D01A68002A63D01A78072313405FD10A2222745AE0019B0095022B00D0E0E0ED
:403700008B794E798D701E43CB78072B36D03100FFF7A8FC00282FD00C231E422CD05C257D43694B5D192B004C3300930123009A13700322AA702A00543213702B004D3362
:403740001E702B6D9B681B68002B11D0380006F063FA7B300378042B0AD12B6D9B681B781B0705D503236A46EB701279009B1A700723E370237401E00723E3705C237B431C
:40378000514A9B1812E01A003E32117808224A33114243D105225C237B434B49CB1834331A70052A50D10B2323740023009388E05C237B43019AA168D3181D000022493520
:4037C000C9B2667AA07A2A706A70CA07E2D5F0227A433E4DAA18C03215781A003D3215703E334A0601D5187000E01E7004213800FFF738FC344E002805D05C237B43F318D4
:40380000493304220AE010213800FFF72BFC5C237B43F3180028B6D0102249335C257D4375191A702B003E331A7808234A351A4207D120213800FFF715FC2023002800D1B1
:40384000FF232B700422A6E7380006F0E5F97B300378E268042B0FD100211D480B0008335B00D3189B88002B27D0834202D00131C9B2F3E70123E3705C207843019B00216D
:403880001B181A651A004C321170190001245D1D0E3A3D3112780978EC7726352C7011409A6A1C71120E12060A439A620223019A13543800FFF7E6FD03E00723E3702374D8
:4038C000DAE70098FEBDC046A80600200015000001FF00007423F0B585B00191190041432C4A04005718F86E0025009002200393019B8854AB423DD00723FB70390020000F
:40390000FFF7CAFE061E1DD1039B224A6343D31802939A78009B20005988FEF74FFFFF2815D01D2363431B181A4A08339B009E5001238340029A5169994351610722029BB8
:40394000DA7004E0019B002B01D16B1C8371039B104E6343F618337C1036002B05D000212000FFF7C9F900233370019B002B0FD10135EDB2009B5B79AB4209D9039B054AFA
:4039800063430099D318AA1C920052585A60B5E705B0F0BD2C06002070B57423040063430948C318DB6E05001979012902D12000FFF790FF742060432818703003780133F7
:4039C0000370072070BDC0462C060020F0B574254543454A85B05519EE6E040033790292002B69D1303571882A78404893426FD0814202D00133DBB2F8E7FF2B68D07423E1
:403A00000122634302990393CA54002201927379019A934247D9029B039A20009F18019B390002339B009B59BB60FFF735FEBB780500FF2B32D03B7C002B05D000212000F3
:403A4000FFF75AF900233B74002D27D0029B039A6F1D9B189B78EB71019B01336B71FB7F002B05D0A96A2000FFF746F90023FB77039A1D4B71889F18BA782000FEF79EFE64
:403A8000FF280BD01D2363431B18174A08339B00D550012383407A6913437B61019B0133DBB20193B3E7742363430F4A0121D318DB78072B0CD006E00021FFF70BFFEB789A
:403AC000072B05D002212000FEF7D4FE062008E0742307205C43044B1C19703423780133237005B0F0BDC0462C06002001FF00007423F7B506000027434300935548009B45
:403B0000C3181A00303211780200B94200D89FE0D96901240B00FB40234200D195E01D237343DB1908339B00C45820780138062800D98AE00BF0E8FF5E89040489863E00BD
:403B40001F23227A1A40042A09D1353373434248C3183B331B7801203B41034275D1A3780125032B04D0E578033D684268414500043A012A0BD8231DDB7F002B07D00123D5
:403B8000BB40994303D10A003000FFF78DFB631CDB7F002B05D1227A1F3313400620042B57D12A0021003000FEF7C0FE0423062023704EE0294B9B5D002B46D0009BD2189C
:403BC0000123BB409943D1610021217091690B439361D269002A38D1542373431E493000CB183D331A700221FFF75EFB3000FEF70FFE2AE0631D0193DB7F002B25D0638973
:403C0000E079A16AACB21B04E5B21D43FE230002054301209D43E63B1D43104B85439B5D03401D43009B3000D31859661D66742373436033D218062104F00CFA0023019A60
:403C4000D37702E0E369300098470137FFB255E70720FEBD2C060020A805002024110020F0B5BC4E8BB07078BB4C03090493049B3578002B00D0F3E1228CEBB2D2B22C2B85
:403C800000D127E112D8082B54D005D8062B2BD0072B2CD000F008FE0B2B7DD00C2B00D19BE00A2B01D000F0FFFD5FE0302B00D189E108D82E2B00D17EE10A2555342E2B76
:403CC00000D8BDE1C7E1332B00D1A7E13B2B00D1B5E1312B01D000F0E7FD2300B27859331A705634217895E1B07800F0D4FD994B05259B784A2B03D1984804F053FB0500AB
:403D0000944B9B78412B00D0A0E1954A1378012B05D153681089403B181A924C02E05068914C403802F0BEFC002801D000F0B6FD200088E1012A01D800F0B6FDB3780525CD
:403D4000522B00D087E1F378002B04D00498012B00D178E17FE1032004F050F80334072004F0B6F8E07F05F049FB07E0B178221D0123502904D10534D377E37702256AE1CB
:403D8000D27F05251A4200D165E10023221D6419D377E377033D5EE1714BB6781B78049DB34217D0012E04D00725022E12D16F4800E06F4802F076FC002801D000F051FDEE
:403DC000012E01D000F043FD042205000634E37F9343E3770235EDB23DE10525032A00D839E15C4B9B78462B00D034E1594BDB78012B44D1574B0E205D791B792D021D434E
:403E0000231DDB7F002B3ED0554B59891A00A94238D89989A94202D2DB89AB4232D1554B9D422FD80AD11378022B05D04F4802F039FC0023984210D14C4B0DE0FF235B0058
:403E40009D420ED11378012B05D0494802F02AFC0023984201D1464BDB69C62201335200A350631DDB7F002B01D105200BE021002800B03102F090FB0028F6D103E00220C8
:403E8000052501E007200225324BDB78002B1CD1304B072559791B7909021943231DDB7F002B00D1D7E02E4B1B8A8B4200D3D2E0304B994200D9CEE020008022B030090206
:403EC00052000BF04DFF043DC5E0002801D000F0E8FCC0E0B3780925012B00D9BBE0264F3E7AF6B2002E00D0B4E0543403942278534000D142E71A403A723A7A01245542BA
:403F000055416D00234200D1A0E0387A204007D105F01AFE039B1B781C43039B1C7095E02E21300002F0CAFA051E27D0752348373A782E2113403B70300002F0E1FA31000F
:403F4000300004F083FC2100300004F07FFC2100300023E09C0100209C0200204C420000A00000203242000031420000C0FE0100C0FF0100FF0100009C05002005F04CFE5B
:403F8000873000782100002808D0BE4A0321280006F07AF9002805D100F079FC04F0CAF900F075FCB84BB84A1B7AA3431372137A002B4FD000F032FC2300B1785633197021
:403FC0005934227826E0B3780925432B43D1AF4B1A78A31DDB7F012A03D15B070BD4AC4B02E01B070AD4AB4B5B681B021B0C1B020133FF3304E0A0235B0101E081235B0295
:40400000B034C03307CB07C4250007CB07C506CB06C5B3E6049806F087F9AFE6B378522B04D1FA20800004F0ABF9FAE70925502B11D1B11C802298480BF092FE0BE06334F6
:40404000B37823709AE604F0ADF90500002D00D1E4E300E01225002329001A001800DBE3049B581E238CC7B2DBB23800059305F0D3FD0390242D00D187E215D8052D00D1DE
:4040800067E106D8002D2DD0042D00D108E100F00EFC1C2D00D1C3E2202D00D161E3062D01D000F004FCADE12A2D00D191E30BD8282D00D182E3292D01D000F0F8FB5020A4
:4040C00078432418DA349DE3302D00D186E3312D00D188E32C2D00D0E9E3502078432418DD348FE3543423783B41DB0700D4DEE30C20F178B378090219439B090A0A1B0219
:404100001343CDB29AB2054205D0032B01DC09247EE3043A92B28907890FCBB2032BF6D082235B009A42F2D808242C4003D19307EDD11C2AEBD8059B012B00D8B7E32C2091
:40414000514B78431E0060368155002130180173E90601D41B210173002C49D02C211A004E4C7943200060325118FE003A022830B21882181000D930FF3000784870100072
:40418000DC30FF30DB320078FF32127800021043032248801540039A01D1943200E096321278012AB3D92C227A439A186032D278D20907D0002D0CD1039A99321278002A5E
:4041C000A5D106E0002DA2D1039A99321278002A9DD02C227A439B183A02B6188122A6199200B6189E66294BF83ADB19FF3A24E02C21680726D518007943603045189608BF
:404200005B182E71254D9C66FB003C021C1910312835401829192C19DD31D934FF31FF340BF09EFD2278194B052A04D0062A06D1DB19112201E01022DB199A741AE0DB19C7
:40424000FF22FAE71D00794360356818960806710C205B189C660D4B1031DB1998743B026818F900C9180D4B591880239B00C9180BF076FD054BDB199B7CFF2B00D07FE15D
:4042800015E3C046358300009C050020A0000020C0FF0100C0FE0100000001209C0200203B02F800C018802324189B00E4182268BB4B00209A420ED1221D130001001868A8
:4042C000002804D00131C9B204330729F7D1380005F0C6FC012000232360B24B99784B0600D114E7039B5A7A01235B4293400B405B0600D00BE7039B9D7A002802D18D4212
:4043000000D1D6E2380005F0C1FC039B72331B78002B00D1CDE2039B67331B78012B00D0C7E2A14B0022603319002C237B435A54CB181A711A739D4B3800DB199A7404F093
:4043400053F9041E00D169E22900380005F09EFC5EE23B02F800C018802324189B00E4182268934B00209A420ED1221D130001001868002804D00131C9B204330729F7D112
:40438000380005F08DFC012000232360854B99784B0600D1BBE6039BDA7A01235B4293400B405B0600D0B2E6039B1D7B002802D18D4200D17DE2380005F088FC039B75331B
:4043C0001B78002B00D174E2039B67331A78002A00D06EE2744B3800603319002C237B435A54CB181A711A73704B0132DB199A7404F0FAF8041E00D110E22900380005F05A
:4044000065FC05E2FF22694DEB199A74B278252A4BD810000BF078FB17171749493D3D2A363D3D3D3D3D3D3D134B3D3D93AE3D3D3D494949AEAEAEAE4E5C6A717E880122C4
:404440005C4B1A7396E05C4B0A24995C039B5B7B0B41DB0700D48EE0EB19584A3800D97405F012FF00285DD00D2484E0039B72331B78002BF8D0039B38007033197800F006
:404480009BFA77E0039B38007033197804F0BEF970E02C20484B7843D91C8C5C4249233360319B5C4454E9198B740A2463E0EB190321D2E70024039B0994039A5B7A20321D
:4044C00000929B0009AA1021049804F071FE52E001230993039B039ADB7A3C3200929B0009AA1021049804F063FE1BE0039A039BD27A58335200132111E03B02FA00D21815
:404500008023A4189B00E218039B3800D97A05F0E7FB2FE018221421039B6D33FF33049803F018FD002426E03B02F900C918802364189B00E118380005F0BAFF1AE02600FB
:404540005434237828363B410524DB0713D43A02FB009B18D933FF33F018837842780178C07804340090380005F0D0FB002802D1073C00E00224ED19AB7CFF2B00D145E164
:40458000380004F031F8040040E1059B032B17D818000BF0C3FA8E0138002B001E00C046504352539C0100209C050020A0000020504B4E531C06002030FF0000098300002F
:4045C00050237B43BD4AE3185279D533FF3312061A6050237B43E318D533FF331A68120E1106B64A127912040A431A6050237B43E318D533FF331A68120C1104AF4AD2780C
:4046000012020A431A605020FF2378432418D534FF3422689A43A94B9B781343236048E125005434237828353B410524DB0700D4EEE0F278B0783379120202431B04134390
:404640001A00737974261B0613433902FA0052187E43D9329A48FF32AA58841994462200002140321278079006921A0C03921A04120E05920A00069DC8B2A84213D2656A69
:404680000120CD4005420CD0079D8A009219AA18126B03985589854203D1D5790598854203D00131E7E7002000E00120854CE55D002D2ED00124DEB226422AD0A643022E69
:4046C00006D153347C43804B1C19473463469BE0062E1ED1002842D0D369002B3FD0531CDB7F002B3BD12300C9B28B40742519007D43734B38005D19EB6A0B43EB62AB6ADF
:404700008B43AB62022378351370D36998472C70CFE0002823D0511CCC7F002C1FD0107801281CD1D907C90FC9B2A94217D18343DBB20A2B05D1D36A6146380098470400F4
:404740000AE0082B0BD1002D09D0013B1370D369002B04D038009847002C00D0A9E00D2456E05434237805243B41DB0750D5F378B07831791B02034309041A000B007179B2
:404780001343090619434F4B0A0EDB5D9A42E6D10B021B0E012B06D0022BE0D189B23800FEF7F2FA07E089B20429D8D8C9B200223800FEF779FD00287BD1D0E750207843BC
:4047C0002418B178D934FF342170380005F03EFA6FE0502078432418DB3413E0502078432418E1340EE0502001237843B1782418E234FF344A0821701A401940380005F03C
:404800002FFE56E0B378FF34237052E0002C05D0002321001A00049803F09CFB90220021520026480BF0A5FA0022284B28491A71284B0333DB7FCA542749C85C90423AD01E
:40484000CA54264A9B009B580122DA6633E00500022E01D0FFF7BEFA08220634E37F934312E0012E07D104220634E37F06251343E377FFF7AFFA0625022E01D0FFF7AAFA5B
:4048800008226419E37F1343E377FFF7A3FA012003F0B4FA022003F01BFBBFE70825FFF7DAFB0725FFF7D7FB0525FFF7D4FB0524AEE70224ACE70BB0F0BDC0469C0100209C
:4048C0001C060020241100209C0500209C060020C10B00209C020020C50B0020B80001004823434330B5104C8A68E3181A624A789D1D013AEA770A780533DA774B78012B9E
:404900000FD91222002350434A789A4209D9DA1C92005558C2180A3292000133A550DBB2F2E7012030BDC046000A002003290DD0074A042906D007490B5C0133DBB20B5447
:40494000022B01D9032300E0022313547047C04688010020A406002010B505F05DF9D02370300178044A5B00D058002901D1800700E04007C00F10BD00000A4010B5040029
:40498000012104F0CBF900220121200004F060F903009A2040006043044A10180B22FE30008B50435843000A80B210BD4808002010B503F02BFF10BDD02310B50A4A04000A
:4049C0005B00002902D1D158022001E00420D1580143D1502000012105F078FD0221200005F074FD10BDC04600000A4010B50400042905D1074B1B18597805F0A3FD08E071
:404A0000032906D105F008F9024B9C301C190378637010BDA4060020F7B50F0E09020600090A012F0AD15C235E43264B01399E194B4259414F3631703D0040E00025022FD0
:404A40003DD15C2444431F4B1C1923004F331B78AB4234D0062906D12300112238331A70E563290025E0062929D801238B4000936B461B7819000193FEF7F4FA051E1ED0FB
:404A800023003D331A7800990025914217D0220011213832117069460979E56319703C2113798B4338390B4301398B431F431771E16B3000FEF77AFA3000FEF7E5FA28009F
:404AC000FEBDC046A4060020F7B50F0015001E00040005F0A1F8012341790200194009068C4629001940890680790191614618404006084307210F4001993F0701430020AA
:404B00003943854200D1300003401248DB0601401943114BA400E5581048AD05AD0DAB02014019430E4B890AE35889029B059B0D1943080104D49D4202DD890A890229434C
:404B400094321378012B02D980231B0419430800FEBDC046FFFFFFF718070020FF03F0FF24070020F0B585B00D000600039204F098FFF0237343144A07009B188A331A883A
:404B8000124B6421D31828005C780BF005F980B260430F4B4019984201DC00240D4D63B22A000121300003F0B7FD0121039A0300019200910022300004F0D0F8380004F01E
:404BC00074FF05B0F0BDC04620150000001500006319000064190000482358430C4B30B51818002402001F250A4B0462203243841378AB431D3D2B43451DE9770721137039
:404C0000537806308B4387390B43C477537030BD000A002000FFFFFFF0B5160004000D0085B0012104F07AF82A0033000121200003F072FDC425040004F033FF8027194EDA
:404C400003906D007359BF003C4301930A20745103F096FB01227359134CDB0B9A43019B02920A207351276203F08AFB236B3B4212D0019B002B0FDBA3697259DB009B0FF9
:404C8000120407D5022B07D18022A36A92001343A36201E0012BF7D0039804F006FF029805B0F0BD00000A40FC000A4070B5482444430E4B00251C192300060044331D7075
:404CC0005D709D7029001C22201D0BF052F8300004F0A2FF064BB8309D55064BE060282130009D5501F00CFC70BDC046000A002088010020A4060020F8B5542545431F4B24
:404D000000265D192B002F003E331E7038373B780400B34230D0FFF7C9FF74236343184A3D35D31868331B78164A1B01D318DB683E702E7020009847200004F06DFF723064
:404D40000378B3420DD0200004F066FFA13002780221D2B2B24201D0320031002000FEF7A3FA200003F002FD0023074A1355074A1355074AA400A350F8BDC046A80500208A
:404D80002C06002010FF000090010020910100208C0100208B1E5A1E93410722F0B5D31A85B00D000400019305F0B4FB224A234B1700E6006037BF199819795D405D029256
:404DC0000393884212D9200005F09AFB7B5D01990133DBB220007B5505F0DCFB002820D000220421200005F04FFA1AE0200004F013FF030072331B78002B03D067300378A7
:404E0000002B08D15423022163430D4AD3183C331A780A431A70200005F05CFB2000FFF76BFF029B60339B19585D039B9E19735D181A05B0F0BDC046A406002044010020A1
:404E4000A8050020F0B58FB015000400009104F0E3FE0023009A0700501E0293252800D9B4E10AF05BFE900077009000DA00DA00B301B301B301B30190008100B301B30199
:404E8000E600B301B30100018300B301B30183000A013D013B01B30190002600B301B3014401B301B301B301B3015E00B301B3017601CA4ACA48CB4913600860CA49CB4851
:404EC0000860CB490B608021136809060B431360002C21D1032303AF38003C707B7004F0CFFA002818D0C34B68331C70C24B5A1C16000D3301933300013B1B7838003B70C6
:404F000033787B7004F0BCFA002805D03300019A02331E009342EED154236343B74AD31883E0002202212000FEF7BEF9B14B6F37190069313A78095D914208D01900E000F1
:404F400060310F18BC4600276646B770475469331A553BE154236343A84AD318190000223E310A70393362E0012300E0002376371E003B780122002B03D0009F153F7A427A
:404F80007A41170001E000273E002000FFF7B4FE002E05D0002202212000FEF785F90AE0002F08D139003A002000FEF77DF92921200001F0A5FA009B012B11D10023904AA6
:404FC0008C49E00082186031D75C002F04D00E18F65CB74200D8F9E00133082BF4D1E9E0009B032B01D01A2B12D154236343834AD3183C331B785BB2002B02DB200005F0C1
:4050000095FA00217B4BE200603398188170D154009B122B00D0D9E0CCE054236343774A0121D3181A003932117000223E331A70CCE02B78032B00D0C8E02000FFF75CFE3F
:40504000542363436D4AD3181F0038373878002800D0BBE04822012162436A4E3E33915539701870B2E054236343644AD31841331B78002B00D0AEE0A8E0542363439437E7
:405080005E4A3978D3183A33012901D9012100E00021197002212B798B43012B00D095E0594B1B5D002B07D054236343D3183E331B78002B00D089E054236343D2181700DD
:4050C00038373878002800D080E04823012163434C4E3E3299553970107077E0022100E000212000FFF756FE02AD02906EE050236343464AD318B333FF33197802231940B6
:4051000069D1EB79DA091DD01A205B061B0F01335843EA88D205D20D824213D9287803AA1070A87851800F310B40DB0075310B43D370304B50706C3393601B2377391373F9
:40514000334B02E0002312211A00200004F0F2FF41E06878012839D10222AB681B0E1A4002D113000F2121E000268446AA7A214913071B0E1209A7001343CA191667002BF1
:4051800007D06046034204D1106F5B0801301067F5E70120703103AAC919002391600D2150801A301073173813705070200005F031F80BE054236343104AD3183C331B78A3
:4051C0005BB2002B02DB200005F0B0F92A000099200002F03FFF0FB0F0BDC046000008407708008060000840000208400701008004020840A406002078FF0000A80500203A
:4052000044010020000A002024110020C4020020ED490000C82110B5002289000400FFF7FBFC002805D1200003F0F8FBFA22520009E0542308216343064AD3183C331A7847
:405240000A431A706422044B2E21200001F080FB10BDC046A805002071540000F8B50B00040011007F4D042B00D099E0577A7B333E009E4300D189E0167A0B78B609F2B2E3
:40528000002B10D1784B7F069C4654231800604360443A300078BF0FB84200DD3800634363443A331870012A03D04823032A2AD04FE0742363436D4AD31840331B790A7AB8
:4052C000DB06D206D80E9A420AD12000FFF708FB482300226343EB185E7044331A70AEE048236343EB181A0000211F26443211700231597020331A78B24310431870072049
:405300005A7882433FE06343EA181000443001780131C9B20170092916D9002303701F20023353707233634350492032CB1840331B7903401900137883430B430721137040
:4053400053788B4353707AE00622EA5400232C326BE06343EB181A0000214432117002221F205A7072326243404920338A1840321279024011001A7882430A4307211A70D0
:405380005A788A4304390A435A7058E0FFF7A8FA482301226343EB185A7044331E704EE048224243AE1830001F21203007780F40062F10D1032B0BD1AF5C002F50D10931FE
:4053C000200001F09DF8012373704436377036E0002B34D044E05F1E012F2BD84427BC46B444674661463F780137FFB20F70092F17D900220A701F2102327270723262438B
:405400001A4EB218403212790A40160002788A433243027007224178134091430B4343700DE00623AB54002364222821200001F08FFA15E0002B13D10633AB5410E048236D
:405440005C432B1920331B78DB06DB0E012B03D0022B03D1032302E0022300E007232B55F8BDC046000A0020A80500202C060020C82170B5002289000400FFF7CDFB00283B
:4054800024D1542308216343144AD3183C331D780D4008D01A7820008A431A7003F0BEFAFA22520013E07F22197820000A401A7005F03CF82900200003F0C8F9200001219C
:4054C00003F0C4F9200004F03FFB05E06422044B2E21200001F03CFA70BDC046A8050020715400007047704770B554244443044D6359002B02D098470023635170BDC04614
:40550000A8050020002804D1DF23024A11680B401360704700020440002806D1034920300A688243D3B203430B6070470002044054235843014B1818C1867047A8050020C1
:4055400010B5040004F0ADFA002C3DD12049214B0A8E9A4238D006D81F4B9A4211D01F4B9A4226D130E01E4B9A422DD01D4C1E4BA24212D01D4CA2421BD1FE2219680A40EC
:4055800010E00121184C22688A43D3B20B432360BF2322681340236016E001241968A143CAB2224340241A601968A143CAB2224309E0FE220E4B0B860B4B19680A401A6073
:4055C000BF2219680A401A6004F06FFA10BDC046A8050020C832000028230000E02E0000384A0000204E000000030440983A00008813000070B5040004F053FA0500200002
:40560000FFF780FF200004F007FB87300378002B0DD0200004F000FBA1300378002B06D1002C04D1044AFD3311680B401360280004F03BFA70BDC0460003044010B50400FE
:4056400020221F2100F014FF2000FFF74DFF2000012101F09FF880212000C90404F044FF002218212000FFF7EDFB10BD10B5041E06D1022008490A688243D3B203430B60F0
:4056800080212000C90504F02FFF002217212000FFF7D8FB10BDC04600030440F8B554244443104B0E001C192186050004F0B4FA0700280001F054F8C823218E628E9B00B3
:4056C000914205D39E4208D0280001F031F804E09E4202D03800723003782800FFF730FFF8BDC046A8050020542343430A4A70B5D318998604000D00FFF704FFF023634302
:40570000064AD318A8331B78DB0704D5044A29002000FFF727FA70BDA8050020001500006D56000070B50400150004F00FFB54236343074A0321D318002800D00421197323
:4057400054216143083151182000A84770BDC046A8050020F0B591B0009001910E9204F05BFA019B06905B780C93019B1B899B059B0D099303002C33FF331B78DB06DB0FB4
:405780000D930023089307930593069B059A7F331B78934200D89FE1002302936B461B7A0A930A9A0C9B934200D891E1009804F033FA059C05004A34A40003190393DE7819
:4057C000019AB3090393059B7C335B00C3189888029B800502339B00D118CA78860D9209012A00D17BE0002A03D0022A00D1DAE06BE1019A142198580003830D18001330C7
:4058000004930AF0C9FA049B1F1A1818039B012B2FD0002B02D0022B08D056E16359049A1B039B0D9A4200D04FE10CE063591B039B0D9F4200D248E12B195B889B049B0D56
:40584000984200D941E1635B31009B059B0D9E4200D21900029A019802329200125A9205920D914200D930E1009AC949920053500DE163591B039B0D9F4200D225E12B19A9
:405880005B889B049B0D984200D91EE1FA23605B5B008005800D584301383900C0190AF07BFA0400FA20400070437B1EC01839000AF072FA22000600844200D20200029BF2
:4058C000019902339B005B5A9B059B0D9A4200D9FBE0009BAE4A9B009C500497D7E0019A4F889B58039ABF041B03BF0D9B0D012A36D0022A00D0E8E062591203920D9342B5
:4059000000D2E2E02B195B889B049B0D9F4200D9DBE0FA21605B49008005800D7843F430FF300AF039FA04003000FA217843F430FF3049000AF030FA22000600844200D2FA
:405940000200029B019902339B005B5A9B059B0D9A4200D9B9E0009B8D4A9B009C50F2E062591203920D934200D2AEE02B195B889B049B0D9F4200D9A7E0635B31009B0526
:405980009B0D9E4200D21900029A019802329200125A9205920D914200D996E0009A7C4992005350CFE04A889204920D0492019A9858039B0003870D012B32D0022B00D0EA
:4059C00083E063591B039B0D9F4200D27DE02B195B88049A9B049B0D9A4276D8645B3200A405A40DA64200D22200029B019902339B005B5A9B059B0D9A4266D83800FA21E4
:405A00006043009B624D9B00F4300393FF30EB1849000F930AF0C0F90F9B5860039B5C519AE063591B039B0D9F424ED32B195B88049A9B049B0D9A4247D8FA20645B400089
:405A4000A405A30D58437D1E3900401903930AF0A3F90400FA2040007043390040190AF09BF922000600844200D20200029B019902339B005B5A9B059B0D9A4225D8009A6F
:405A8000434B9200039899184860D45064E0009A3F4B92000499D0589C18A1604843FA21F430FF3049000AF077F9E6606060009B374A9B00D3185C68079AA24205D80D9A19
:405AC000002A51D09B68642B4ED1029B013364E6059B0133DBB257E6089B002B25D1FA21069E2B4DFC36F36A49001803009B800D9C00B38D2F199B059B0DB8605843F43098
:405B00006351FF3001930AF047F9019B099A7860934200D96251012233882C19E360110000230098FEF7D0FF0B905423009A194953430B98CA1808339060591800980E9B40
:405B4000984711B0F0BD009B114A990053188A589F60DE605A60AAE7009B0D4A9B00D318049ADE609A60A2E7059B069A7C335B00D3180A999B880131DB0BC9B20022009855
:405B8000FEF7A2FF01230B90079408939DE7C04618070020A8050020F7B504000D0003F080FFF02301216343224A0600D318A8331B780B4206D00022200001920092130052
:405BC00003F0CCF8002C06D102201B490A688243D3B203430B602000FFF794FC27222621200000F045FC154F002D1AD0200004F013F887300378002B13D02000FFF78CFCF9
:405C000054236343FB185D600D4DFA222B002621200000F09DFE2B0001222721200000F097FE54235C43074B3C193000A38603F03CFFF7BD0015000000030440A805002088
:405C4000595F000088130000F7B50E0024221E21040000F00DFC542363431F4D1F49EB185B8E8B4207D82000002100F093FD142002F086FB02E02000FFF710FD03F011FF9C
:405C80005423C822634392001F00EB1801905A86002E19D0200003F0BFFF87300378002B12D02000FFF738FC9622EE510C4D92002B002121200000F04BFE2B00032222210C
:405CC000200000F045FE03E00121200000F062FD019803F0EAFEF7BDA805002088130000355E0000542343430B4A10B5D318C822040092001A86FFF723FC2000012100F051
:405D000049FD002220001721FFF79CF803492000FFF79AFF10BDC046A8050020E7540000F8B50D00040003F077FF070003F0B9FE242206001E21200000F09AFB3B00873346
:405D40001B78002B62D03B00A1331B78002B5DD176373B78F02363432E4A20339B181A0002208832127802420ED02B4FA200BC4661462A4F8C33D1511B88264A9B189A7808
:405D8000274B1A5503F0F0FA2000FFF7BBFB54236343244FFB183F331A78002A14D101321A70002C10D102201F490A688243D3B203430B60083002F0E3FA40201B490A68A5
:405DC0008243D3B203430B60002D1FD054236343FB181A00012142321170598E1B8E994204D9002320001370FFF796FB54236343FD500F4DFA222B001E21200000F0A8FD95
:405E00002B0001221F21200000F0A2FD300003F04CFEF8BD001500003D560000CC0B0020D00B0020A80500200003044000020440355E00001E3970B504000800062900D9EC
:405E400082E009F061FE04113C515A81770020221F21200000F00CFB542363433B4AD318C82292005A8643E054226243374B384D9A181100423109781E00002908D154235F
:405E80006343F3181A0042321278002A0CD012E0118E142220005242FEF7BEFE0028EED02B000A22202141E0198E14222000FEF7B3FE0028F4D02B0001221F2136E054259C
:405EC00065431E21200000F01BFB204B20005D192B8E6B864235FFF715FB2B78002B30D1200000F025FC2CE02221200000F008FB0121200000F04EFC26E016490A222000DE
:405F0000FEF78AFE011E02D1200000F043FC1422C821524289002000FEF77EFE0C4B002802D10A22242101E003222221200000F00FFD09E02000212100F0E2FA2000FFF781
:405F4000E1FA2000FFF7D0FA70BDC046A8050020355E00008813000070B504000D00262902D0272907D021E0272100F0C9FA2000FFF7C8FA1AE000220D49FEF74DFE00280C
:405F80000ED12621200000F0BBFA2000FFF7BAFA54236343074A2000D3185B68984705E0054B01222900200000F0D2FC70BDC04688130000A8050020595F00000122014BF0
:405FC0001A707047C00B00200C2359436933FF334343C9180C4B0D4A5918FF238B72135C013BDBB213540A4A1378013BDBB213701378002B07D1074B1B78002B03D1802259
:40600000054B52001A607047480A00204C0100204D0100202807002080E100E0542370B5032543430A000349CC18083325735918904770BDA8050020F0B585B00E0004002B
:40604000039203F0E9FD94300378A94D009354236343EB181A0000212D3211703089A549014080200002814200D027E1B2681A61727A3A335206920F1B78D0B2191C834294
:4060800000D9111C54236343EB181A003A321170CFB201210E3A11703F22197C0A40802149420A431A74944A125D0192002A03D0009A012A00D8DEE07378012B00D0B0E051
:4060C000307AC006C00E0138052800D9A9E009F01BFD03385E9393A2FF2372891B029A4200D09EE0854B1A5D002A00D199E05421834BA000C35861439C469300029300233A
:406100006D182C352A707A4D62465818D25840190261029A043328009A42F5D1002F06D154236343EB18D98A764A0A40DA8254236343C0183F23027C134040221343037437
:406140006FE0FF2372891B029A426AD16E4B1B5D002B66D0542161436D182C356B4A2B70A0009B0087589C460022614D8818BB584019043203616245F8D154236343ED189A
:406180003F232A7C1340402213432B7449E0604A6300D25C042A44D95E4BA0007189C058C58803788D420ED154256543504A043B51199B102C310B70DBB201339B000293D5
:4061C0000021944605E0D21AD2B2C018002AE7D127E0029B04318B4204D06F1843586744FB60F6E754236343D2183F23117C0B4040210B43137414E050236343464AD31817
:40620000B333FF331B78DB070BD554236343ED182D35022304E054236343ED1801232D352B70009B012B39D9019B314D002B12D01F23327A1A40111F3533012929D9062AE5
:4062400004D16343ED1801232D352B7031002000FCF74EFF22E031002000FCF749FF00281CD054236343ED183F232A7C1340402213432B7412E01F22317A0A40062A07D146
:4062800038331B78012B03D131002000FCF730FF54236343ED1801232D352B7054236343134A6020D31819003A331A78032313405A014B7C834313434B740FE00223137020
:4062C0004E3363431449CB18B333FF331B78DB0704D4009B012B01D903231370542363430349103359182000039B984705B0F0BDA8050020C080FFFF241100207201002079
:40630000740100207FFCFFFF780100207C0100208001002084010020C402002010B50C0003F07AFC0423032C01D8054B1B5D94300278012A02D8102B00D10C3B180010BD41
:4063400084FF000070B504000D0003F065FCC17906008906890F2000FFF7E0FF042801D0102804D17D363378012B00D10320542363430449CA180833107359182000A847A2
:4063800070BDC046A8050020F7B50500019103F043FC070067373B780400012B01D1867A00E0067B280003F037FC943003780420012B03D92378022B00D00C3023006A3360
:4063C0001B78002B0ED12378022B0BD176B2002E02DA3B78002B05D1E17928000907890FFFF79CFF54236B430449CA180833107359182800019B9847F7BDC046A80500200E
:4064000070B504000D0003F007FC542262430C498A183D3213780E000122002B06D1C179033319402000FFF779FF020054236343F11808330A732000F118A84770BDC0466F
:40644000A8050020F0235843014B2030C0187047001500000048704700150000002310B59200934203D0CC58C4500433F9E710BDF7B505000F00009203F013FBBA230600D9
:4064800000245B006B4301930C236343019AE1B29B18094AD3189B7ADBB2BB4205D3009A934202D82800FFF78FFD01341F2CEBD1300003F0FAFAF7BD480A002030B500233C
:4064C000FF2911D0BA220C2552005043074C2A005A431218A218927A914204D001331F2BF5D1002300E00123180030BD480A002010B5914203D2FF2A01D0FFF7B9FF10BD2C
:40650000F8B504000D0003F0CCFA0600FF2D11D00C22BA200023944640006043094F62465A431218BA18927AD9B2954206D001331F2BF4D1300003F0B8FAF8BD2000FFF729
:4065400043FDF7E7480A0020074A03099B00D3180F22104080008240814010B55C68236893431943216010BD84FF00000F2203099B001040074A002905D0D1580123834086
:406580000A68134304E0D158012282400B6893430B607047C800010030B53024174B9A6AA243203C22430C009A62154A083C2260FF2204390A60134A134994605160C0464F
:4065C000C046C04695682D0F29070A2D0FD10F4D0004284320600E4894605060C046C046C04692680020120F12078A4200D00C2030219A6A8A439A6230BDC0460000034048
:40660000B6D700000000104004000080B6D8000005000080842210B5C2B0040052000021684609F0A6FB074B1B78002B01D1052005E002A92000FFF7AFFF0028F7D142B00D
:4066400010BDC046C0020020144B020030B506209A4222D853781178114C1B020B43A3421BD11000D1799379090219430A30147A0A39031E0DD000231000994209D0851ADA
:406680008D4204D2857A01305B19DBB2F7E75B42DBB206209C4200D1002030BDFFFF0100594300000200F8B5817A447AD37A090221431B040B431900137B06201B060B43B2
:4066C00032D09479517924020C432402611CFF31CD18AC46154DAC4526D89678557836022E43D5782D0435432E0015792D063543A94219D8AC4517D915780A1E0CD0002200
:406700000133FF331B19994204D0087801311218D2B2F8E75242D2B20620954204D180239B00E018FFF790FFF8BDC046FFFF0100F023434310B5074AD318A8331B78DB0788
:4067400007D554234343044AD318198E034AFEF709FA10BD00150000A8050020E55C0000F023434370B5084A0400D318A8331B789B0708D50025054BA4001D54280002F09B
:40678000F3FD034BE55070BD00150000D00B0020CC0B002054234343134A13B5D31800223F3304001A70904204D1BF230F4A106803401360002902D02000FEF7A3FEF0232F
:4067C000012163430A4AD318A8331B780B4206D00022200001920092130002F0BFFA2000FFF7BEFF13BDC046A8050020000204400015000070B5074D074A2B6C11889BB2C4
:40680000040016008B4202D0642001F0B9FD2C64348070BD00000340920100200122F0B5434B444C85B062641A7002940393029B414EDB6B328899B292B21B041B0C9142A2
:4068400002D8802040021B1800259B1A9BB2019331800C226A43394B9918897A1F00C9B2FF2926D09858844601980530844503D99858019C001B00E0002098500C226A435A
:406880009858002815D1BB18FF229A722C4A944664461278013AD2B222702A4A944664461278013AD2B222705A68002A01D05B68984701351F2DCCD1224D2B78DBB2002BEA
:4068C0001DD0002320480C225A43B918897AFF2903D0B958814200D2B85801331F2BF2D1029A3388D26B9BB291B21204120C8B4202D3802149025218D31A9BB200E01248CB
:406900000533834293D8039B80B258800A4B1B88C01880B2FFF76EFF0023039A13702B78002B03D18022094B52001A6005B0F0BD2807002000000340BE0B0020480A0020EC
:406940004C0100204D010020C0FF000080E100E0F0B585B007000C00160001930020FF2900D19BE0824200D198E003F09AF8BA25FF226D000092F33A94462A001E237A4351
:40698000029003922A0060467A435843444982188A18927AFF2A01D1DAB200920C225A430398121889188A7A94420CD13D4ADBB20093D35D013BDBB2D3553B4A1378013B9E
:4069C000DBB2137005E0013BDCD2009B0025FF2B60D00C22009B324D5A43BA235B007B430199D218AB181E8159609C722F4B30491B882D4C5E4356510B782E000191002B51
:406A00003ED12C4BDB6B207899B2002826D02A4A1B0412881B0C92B2914202D8802149025B189B1A0C2200999BB24A431100BA2252007A438A18B1585B18B3501C4BB05803
:406A4000598888421CD2B25892B25A801A4A10885B88C01880B2FFF7CDFE11E0164B19805059164B984200D91800019B80B25880081880B2FFF7BEFE8022114B52001A6077
:406A80000125084AD35D0133DBB2D35523780133DBB22370029803F008F8280005B0F0BD480A00204C0100204D010020BC0B00202807002000000340BE0B0020C0FF0000D1
:406AC00000E100E0012110B5074B11205B685B089943FFF74BFDFA22044B9200C0210020FFF736FF10BDC04600010440C56A000010B50023FFF72CFF10BD00009A235B00CD
:406B00004343F7B51C4CE3181A003132FF3215781E00EDB229003036FF362A00083291421DDA1A002F32FF3237781278974221D20F00327818370192104ABF00BF584D22EB
:406B400042439446019A0131624402329200A21857603278C9B20132D2B23270DDE79A235B00584324183134FF3423785A425341DB002370F7BDC0464808002000000A4096
:406B8000F0B51E4B1E4C1A689A235B004343E3182933FF331B78002B01D100202DE0002906D11F2308241340072B03D8210001E0102400219A220B0052005043104A1018A4
:406BC0000A19934218DA050006002A35FF352A78FC367669920097591A1D0A4E920097512A78013D0132D2B26A706A782D789542D3D90133DBB2E3E70120F0BDA0000A4011
:406C00004808002000000A40C6220E4B520098580D490140E020995099580003014399501A00FC3290690949014091619069084901409161CE21142049005A5882435A50A6
:406C40000020704700000A40FFFFF1CFFFFFF3FFFFFF7FFB054B01201A68054B1A4203D1044BDB695B0A18407047C046A4000A4007001000FC000A409A235B005843024B02
:406C8000C01804307047C046480800209A235B005843074B074A1B1800202D33FF331870054BD96A0A40DA62044ADA617047C04648080020771FAEFFFC000A4088E05100C7
:406CC000054B064A196800200A401A601968044A0A401A607047C046F4000A40FFFFFEFFFFFFEFFF134B144A986D02409A65E02212011A65002908D11049114A086802401C
:406D00000A60D96A0F4A0A400FE001290ED10B490B4A086802408020C00102430A60D96A084A0A40802189000A43DA62064A0020DA617047FC000A40FFF9FFFFE4000A4042
:406D4000FF00F8FFFFF5DDEF000A22109A235B0043430F4A10B5D31800222E33FF331A700C4C0D4BE36103F023F8E0231B012365943002782300012A04D98021A26D8900F0
:406D80000A43A265DA6A054900200A43DA6210BD48080020FC000A407F0A2210000A2210F7B53E4B3E4AD96A04000A409A2149006143DA623B483C4A1D00DA6142181700C6
:406DC0002C37FF3794463A78019152B20600002A05DA80215A6AC9010A435A625BE0334A12681100324A0A400ED080253A78AD01013A52B23A70DA6A00212A43DA62019B12
:406E00001B582000984746E063462A33FF331A7001212000FFF7B4FE002804D08022EB6A52031343EB62EB6A224A23491343EB629A235B001A006243B2182B32FF3212789A
:406E40000220012A02D14A68024301E04A6882436343F3184A602C331849FF330A681B78002B03D080231B031A4301E0144B1A4080239B021A439A235B005C4336193300C5
:406E800000202D33FF332C361870FF363378013B5BB233700A600120FEBDC046FC000A40FFDFFFFF4808002098E05100A4000A400100100088C0010000000A40F4000A40F3
:406EC000FFFFF7FFF0B59A2464006043134C079F24182000FC3047612C300370230005AD40CD2B332D78FF331D700D4D0D4B8800C0582B00F8331860E02301201B013340B9
:406F000001310343090419432B002C34D03352B2FF341960EE602270F0BDC0464808002000000A409CFF00000221024A53688B435360704700000A40F7B502F039FF66263C
:406F40002E4A2F4B11680700194082230500B44675373C78DB010B43019267358444002C04D12C78012C08D1862304E064462478012C02D18E23DB010B43010094310E787C
:406F8000204C2149012E1CD9A66C204A1643A66401264C6834434C6001007D310978002902D0017C002902D119490B4011E03978002902D1297801290BD1C021C9000B436C
:406FC00007E0A66C13483040A06403244868A0434860019A1049136041220B681B0C1B041A432B78180263461B785B01034313430B600A4A0A4B1A60F7BDC046E4000A4020
:40700000FF00F8FFFC000A4000000A4000001080FFF9FFFFFFFFEF7FF4000A4041004100F0000A40022300293AD03F223333FF3358431C4BC1501C4B1C491A601C4B423A51
:407040001A6001235B420B601A490A601A490B601A490A601A4A1B4913601B4A51601B4A13601B4A13601B4A13601B4A1B4B1A600F221B4B1A601B4B1E32FF325A601A4ACE
:407080009A60D96A194A0A40DA629A6C184992B29A649A6C0A439A64164B174A1A6000231800704748080020A8000A40B0000A40AC000A40C4000A40C8000A40B8000A400E
:4070C000BC000A40000FF10300000A40B4000A40CC000A40C0000A400F021000D8000A40E4000A40FC000A400A404101000408C002000F7EF0000A4041004100022210B5DC
:40710000064CFF32E36B05201343E36301F038F9E26B034B1340E36310BDC046FC000A40FEFEFFFF70B5144B144CDC61DA6A2243DA62134A8C00A2581A60052907D080214B
:40714000104AC902136800200B43136013E0FFF7D5FF0A240C4B0D4E1A681D00324206D0013C0A20E4B201F00BF9002CF2D12B680F203342E3D070BDFC000A4000010400C5
:407180009CFF0000F4000A40A4000A400700100010B504000021FFF7A5FD2000FFF7AEFF044B054AD96A00200A40DA62034ADA6110BDC046FC000A40771EAAFF88E1550088
:4071C000802210B5074C5203236832201343236001F0D6F880222368520213430020236010BDC046F4000A4013B5002002F0E0FD030087331B78002B39D070211D4B1A6BC7
:407200008A431A631962030071331A78012A11D1020067321278002A0CD19E300078002825D1154B0200197801900090030001F095FD1CE01B78002B19D167300378012B37
