:4000000000200020110000001D0900001D0900001C4A1D4B70B51A601C4B1D4D1A681023134000D12B602B68802B29D1194B1C79E4B2012C14D90021052000F0CBF8012185
:400040000400052000F0C6F8E4B2C0B2002C03D0041E05D0032403E0441EA0410224241A0023210002202B6000F0B4F8002807D0012C05D82100022000F0ACF800F0FEF8A7
:4000800001F0DAF86588EDAC3800034054000340900000209C0000200000000000000000000000000000000000000000000000000000000000000000000000000000000079
:4000C000000000000000000000000000000000000000000000000000000000000000000088030031626E0100B1110021000000000000000000000000000000000000000090
:4001000010B5064C2378002B07D1054B002B02D0044800E000BF0123237010BD10010020000000003C130000084B10B5002B03D00749084800E000BF07480368002B00D1C3
:4001400010BD064B002BFBD09847F9E700000000140100203C130000980000200000000018234343F0B5134CE3189D689A8A002D01D10D701CE0104B8600F658C2239B0060
:40018000F7581F231F403B1C082F00D908239BB20B70D021D3189BB28900934204D97758AF54013292B2F8E7182358432418A282F0BDC0462C01002040130000034A044946
:4001C00013689BB20B4313607047C0460CED00E00400FA05013810B50B2830D80902494201F094F806080A0C0E10141216191B20164B13E0164B16E0164B0AE0164B12E076
:40020000164B0BE0164B09E0164B02E0164B00E0164BC91815E0164B05E0164BC9180878C0B212E0144BC9180A7848788C780002230418430300C8781343000604E001BEB5
:4002400000210B7848780002184310BDC0FF0100C1FF0100C5FF0100C9FF0100D0FF0100D1FF0100D6FF0100D2FF0100D4FF0100D8FF0100DCFF0100E0FF010000470000E9
:400280000122024B60331A707047C0462C010020F7B5C37D827D1B0213430122324D01009446AB425DD182784478CB78120222431B0413431A000B791B06134351D08A7A90
:4002C0004C7ACB7A120222431B0413431A000B7B1B06134345D08A794879120202431202501CFF30214EC418B4423AD80F78040000210133FF339B180193019B834205D02B
:40030000037801309C466144C9B2F6E701234942C9B29C468F4224D1631CFF33B34220D8023B5B88AB421CD1FF34217AE37909021943607A00230A290ED080250C4CAD007F
:40034000141952195118A14204D0227801349B18DBB2F8E75B42DBB2C31A581E8341DBB29C466046FEBDC04659430000FFFF01000A020000F0B5214A214B85B0D1580192AC
:400380000293CB0338D50024FF272600E3B200930F230025634303931A48039B02005B1964321B01D218117AC9B2FF2913D0C318986E01389866986E00280CD11248177279
:4003C0004430025D013AD2B202551A6F002A02D01B6F0098984701350F2DDDD10A4B44331B5D002B00D001260134022CCED1002E02D1019B029A9E5005B0F0BD001000E08D
:4004000010D000002C0100202C030020134B8200D35830B51A68F821520052081A60182250430F4A102510180222027100200D4A0D4C98500122090152425A501959A943F4
:400440001951F42109015A5080315A508021D8661A6809060A431A6030BDC046401300002C010020880F0000480F0000654B8200F0B5D458002385B002AAD371624B060038
:40048000E25801231A4206D0604962589A436250E8221201A3505E4B0125E35800930223009AFF331A4202D000231D000093009BDB063FD518277743564BDF193A790193B2
:4004C000042A0BD002ABD91D3000FFF749FE0521BA8A3B69012039719847050018237343019A8020D31802221A7100229A8281239B00E25840020243E250E158464A1140D6
:40050000E1500133FF33E1580143E150E1580A40E25001224149635893436350F82310211B01E2503E4AA3588B43A350F42330221B01E250009B5B0639D5E82201271201EC
:40054000A3583B43A35018237343324AD3181A79022A29D1626ED2060DD504210022197110001B69984700281ED0F8231B01E7502A4BE75003E005221A71002D14D0F42343
:40058000302210211B01E250254A0125A3580B43A350244B1A004632925D002A01D1E56605E04A339D5502E002230025E366F423009A1B01E250002D03D13000FFF726FF4E
:4005C0001EE0194BE758FB0709D518237343114A0421D31800221B69100098470500F8231B01E750114BE758FB0704D502ABD91D3000FFF7B5FDFC231B01E750002DDCD0DA
:4006000005B0F0BD401300008C0E0000880E00004C0F00002C010020FFFFFEFF880F0000480F00002C0300208C0F0000CC0F000010B50020FFF71AFF10BD0000F7B500F022
:4006400029FE1F4B019019001F004E31FF31CA7D4E37002A2FD04C7C002C2CD1E62084464D33FF33DE8ABA195278BE5D0092154A9444604606706846150001260078E73289
:40068000107068354E74AA790F493243AA71DF220D682A400A601021DA8AFF31223292B28A4201D8DA8200E0DC82054B4E33FF33DA7D013ADA75019800F0F0FDF7BDC04656
:4006C0002C0300202C04002000020440012110B5104C084213D000220F4B4E33FF335A74DB7D934209D10D4A926E137053702200683293798B43937101E0FFF79FFF683459
:40070000A379002B04D0DF23054A11680B40136010BDC0462C0400202C030020AC05002000020440F0B500254B4BCBB0029501900395984200D98AE0802248495200E83137
:400740000AA800F0EDFDFF22454B464C0893464E464B08AF7A6027603360C04623681B0F0F2B03D1236813401D0004E023681B0F0A2B00D025680295029D002D69D100F0C3
:4007800089FD3B4A3B4B04A96C320493059221603949344B3160C0462168090F0F2902D11D68EDB204E01968090F0A2900D01D680395039B002B12D1304D2A492560304D0B
:4007C0003560C04625682D0F0F2D02D10B68DBB204E00D682D0F0A2D00D00B680293029B002B18D1274908910199089D09042943254D089127601B493560C04625682D0F16
:400800000F2D02D10B68DBB204E00D682D0F0A2D00D00B680293039B002B15D11B4D06A90695079221601A490E4A3160C0462168090F0F2902D11368DBB204E01168090F0F
:400840000A2900D01368039300F028FD01E00423029302984BB0F0BDFF0100002C040020B6D70000080010400400104004000080AC050020B6E9000016000080B6E80000BF
:4008800015000080B6D8000005000080B6EA000017000080F8B5050000F0FCFC1E4B04001A0019001F004E32FF32D07D4D31FF314E378A8A082815D1002A02D11132FF3234
:4008C0008A8219004D33FF339A8A0025223A93B281224E31CA54CB1820005D7000F0DEFC280017E00026BD54551CADB27E551025223292B2FF35AA4201D88A8200E08E82A2
:400900004E330130FF33D875FFF798FE200000F0C5FC0120F8BDC0462C03002010B500F0C1FC03680C2B00D1FEE7FEE770B5012852D10F233F4D6C79290026092340022A54
:4009400018D8012A0ED00024A64270D1022B07D1394B2A79E8339B18384A0400936066E0002B64D1344B0A7968339B18334A012493605CE0002B13D00400002E4CD1022B6D
:400980004AD12D482C79023AE830FE3392B200191B1B9A4200D91A00063100F0C1FC3AE0274B46331870002C0FD12B79062B0CD1214BA97968339B790B4206D021482034CF
:4009C0000168A143CBB22343036001241B4B023A92B21C73DA811FE0002404291CD182230826194D9B00EA58EA3B1449FF3B13408C68F31ADBB220001A1CB34200D9321C0D
:400A0000D2B2A31890229200834203D004780130AC50F9E78B600124084B197BC9B2002905D1812203485200043000F067FC200070BDC0462C0600202C0400202C07002092
:400A40002C0300200002044000000540F7B50122374C384D2368384E93432360002337489A002900032B00D8B15801338150232BF6D172B6FF22324B01271A600022314BC7
:400A800007261A60304B20321F60304B304D1A608022304B92021A6003222F4B1A602F4B21321A602E4B123A1A6000F0F3FB2B680190B3432B602B4B2B4A1B782B49DBB205
:400AC00013602B4A1368B34313602A4B0A6818787F239A43034013430B60322000F0D0FB05222B683220B34313432B6000F0C8FB06222B680198B34313432B6000F0CEFBA9
:400B000080221D4B52001A601C4A1D4B1A6040221C4B1A6000221C4B1A601C4A3B001168002900D11160226813432360F7BDC046000010401D090000000000000000002019
:400B400000050240000102400801044000020440080F0340080204400005044008050440300010407DF3FF0F0C0F0340180F0340100F034064F3FF0F0002014000FF0080C7
:400B800000000140280003400001014090000020F0B5D84C81222500D748D84B87B0E6355200002104309D60260000F0A7FB8C22D3486836520000214E3000F09FFB802292
:400BC0000021300000F09AFB952391223370CD498D3B737092008A58212172802200A43211601322B2802200200094321E391170C54A0830E267C267C44AC5499566C54A19
:400C0000012513700722A1670434E167C24CC34E2368C34F9343053A1343236033687820AB43DBB22B43336000F02AFB3B682B4201D1402310E00722236878209343043A57
:400C4000134323603368AB43DBB2336000F018FB3B682B4202D04223AE4A137007222368802193432360AB4BAE4C1E780023AE4A2360C12022668122800092004902E366A9
:400C8000A1502150A949F42563500121FE2749422D016151A64D3F046351083D6151A54D6351083D615175003D43C427BF002168E5510825113FFF35FF3FE5510137FF37F3
:400CC000E5519D4D04272943216001219B4D8C4629700221E970297187496E700431A96081214900A9819649AB822961FE21A970A7502750265893490E402650A05801409D
:400D0000A15042228949FF3262506146894AA1508D498E4A116080218D4AC90011608D498D4A886802408020400402438A6062B6724E8A483374FFF7ABFA00960294754EA0
:400D40000195002801D0009B1F748548FFF7A0FA002805D00822009B1B7C1343009A1374804B81481A68190092B2824208D100221A60009B01321B7C1343009A137495E08C
:400D80001A681868009B92B21C7C80B2230711D4764B984212D004237548234000D02BE282421AD06E4A6D48D469C569AC4207D202000EE00423234004D077E001230CE0D6
:400DC000012306E06A4CA24207D0684A904204D0624A928A6748824201D1002204E06648824202D0FA229200728033717788BFB2002F04D180230B60FFF7E0F956E00023DB
:400E0000FF21019A01986032137064301A018218013311720F2BF9D10024394B574D44331C70574E574A584BAC51EA50574B584A1A6000F02FFAFF23AC460396019E643619
:400E40002201B5182D7AE1B2FF2D00D10B00B218127A002A07D12A4A44321378013BDBB213700B0004E001340F2CE9D1FF2B1BD0019A019964321B019F52CD18D31800222F
:400E8000444929671A721E4AAF66130044331978002904D15B78DBB2002B00D18DE1443213780133DBB2137000F0F8F98020FFF7F1FC0822002104A800F020FA0D49942075
:400EC0000A00009B68321B7C107053705A0703D5802204AC920007E0204A52681202120C01321402E03492B21B0755D5802304A89B0059E02C0400202C0600202C0700207A
:400F00002C03002000F0FF0F626E0100AC050020880300319C0000200801044000010440040104400000054088280040480F0000880F0000C80F0000000100802C010020A7
:400F40002D090000FFFFFEFF310600006800002000E100E000050440FFFFFFF8C0FF0100C0FE0100900000204C420000324200003142000059430000FFFF0000001000E054
:400F800010D00000BF5D000014D000003C00002075030000810200009A4B5B681B021B0C01331802E0309BB20F000E00E0256837019778369C4688CD88C60D00803548CC01
:400FC00048C5883118C818C1019B8F4F1A8562465A851423009A538213228C4B7A81FB803B810193009B1B7B002B00D1B7E0884C63791B0900D09CE0009B2079DA890638A1
:40100000D2B2062800D9E8E000F080F904E708E72A333B00A079FFF759FB8AE0012A00D8DBE0A2790523522A00D07FE0E479002C0FD0012C7AD1202076490A688243D3B26E
:4010400003430B6072B60022734B1A60FFF7B6F86FE00720FFF73AFB2000FFF7D7F906E0A2790523502A61D1009B4F3A1A7502235CE0A379012B00D1A7E0022B55D161488D
:40108000A4E00523032A51D9A279462A4ED1E279012A2FD1009B1A7D0723002A46D0657A227A2D021543009A528AAA423ED8FA88AA4202D23A89AA4238D1019B9D4201D1A0
:4010C000504E04E0FF235B009D420CD1534E3000FFF7DEF80023984200D1F369E2225049013352008B502800FFF71CFB0223002800D00533E279002A18D1009B1A7D07231C
:40110000002A13D0617A227A090211437A898A420CD2019A914209D88022414809025200E83000F0FDF8032300E009231800FFF7B1FB8122364B5200181D002100F0DEF8CD
:401140000022009B1A73374B19004A3346310A701978914203D01A70029B0132DA66009B314C1B7D002B1DD000F094F82100002264311301CB181D001B7A0835002B2ED020
:4011800001320F2AF5D1274B44331A78002A03D15B78DBB2002B2BD000F080F82300002260331A7060342378002B00D11AE78022194B1A60FFF702F814E764461B496350DC
:4011C00007236146039C0B5169E61448FFF760F802230028AAD00633A8E70523A6E7FF23104A2B7044321378013BDBB21370CAE70F4A10498B50CFE7824200D1DEE5012312
:40120000004AE6E5C0FE01009C000020FF0100002C0600200002044090000020C0FF01002C0400202C0300202C01002018D0000010D00000001000E0F8B500250E490F4BEF
:4012400001394A1C14D000221F685C689E68A018B24203D0B858A0500432F8E70200DE68141AA64201D020C2FAE710330139E8E700F01EF8FFF78CFC010000007813000095
:401280000230800804D0C0460138FDD1C046C046C0467047EFF3108072B6704780F310887047C046014B18687047C046080100200E4B70B500251E000D4CE41AA410A5424C
:4012C00004D0AB00F35898470135F8E700F042F8084B00251E00084CE41AA410A54204D0AB00F35898470135F8E770BD601300006013000060130000681300000300821827
:40130000934202D019700133FAE7704702B4714649084900095C49008E4402BC7047C046002310B59A4203D0CC5CC4540133F9E710BD00001A0000000014000000000000C9
:401340000000054000000640000007400000084043000000F8B5C046F8BC08BC9E467047290100004D0A0000F8B5C046F8BC08BC9E467047010100008813000098000020AE
:40138000780000003806000000000000080032000200FF010002FF0100000000000000000000000000000000000000000000000000000000000000005013000000000000D6
:4013C0000000000000000000000000000000000000000000000000000000000000000000000000000000000000000000000000000000000000000000A80000200000000025
:4014000000000000000000000000000000000000000000000000000000000000000000000000000000000000000000000000000000000000000000000000000000000000AC
:40144000000000000000000000000000000000000000000000000000000000000000000000000000000000000000000000000000000000000000000000000000000000006C
:40148000000000000000000000000000000000000000000000000000000000000000000000000000000000000000000000000000000000000000000000000000000000002C
:4014C00000000000000000000000000000000000000000000000000000000000000000000000000000000000000000000000000000000000000000000000000000000000EC
:020000040001F9
:40FFC00000000000000000000000000000000000000000000200000000000000000000000000000000000000000000000000000000000000000000000000000000000000FF
:0200000490303A
:0200000037DDEA
:0200000490402A
:4000000000000000000000000000000000000000000000000000000000000000000000000000000000000000000000000000000000000000000000000000000000000000C0
:0200000490501A
:0C0000000002210011B100002106498E11
:0200000490600A
:0100000001FE
:00000001FF