:400000000030002011000000750900007509000010B50C4A0C4B1A600C4B1A68102313400B4A00D113601368802B09D10023136000F096F8002803D000F092F800F017FAF5
:4000400000F098FF6588EDAC3800034054000340900000200000000000000000000000000000000000000000000000000000000000000000000000000000000000000000B1
:400080000000000000000000000000000000000000000000000000000000000000000000000000000000000000000000000000000000000000000000000000000000000040
:4000C0000000000000000000000000000000000000000000000000000000000000000000000000000000000000000000000000000000000000000000000000000000000000
:4001000010B5064C2378002B07D1054B002B02D0044800E000BF0123237010BD100100200000000078100000084B10B5002B03D00749084800E000BF07480368002B00D18A
:4001400010BD064B002BFBD09847F9E70000000014010020781000009800002000000000074B1A78074B1878074B000219780B04184303001343054A1078000618437047DA
:40018000C1FF0100C2FF0100C3FF0100C4FF01001823F0B54343184C0500E3189E689A8A002E02D10E70300024E0144B8000C758C2239B00F8581F231840031C082800D9FE
:4001C00008239BB20B70182169436118D31889899BB2002099420DD3D0218900934204D97858B054013292B2F8E7182045436419A2821738F0BDC0462C0100207C100000F7
:4002000030B5134B8200D35812491A681025520052081A60182250430F4A104C10180222027100225A5082820121F8204942000119501859A8431851F42000011950803063
:4002400019508021DA661A6809060A431A6030BD7C100000880F00002C010020480F0000F0B5764B820085B0D45802ABD91D00230B70734B0600E25801231A4206D0714891
:4002800022589A432250E8221201A3506E4B0125E35800930223009AFF331A4202D000231D000093009BDB0645D518277743674BDF193879019304280CD03000FFF768FFB3
:4002C000051E0CD00521BA8A3B69012039719847050004E001003B6900220220984718237343019A8020D31802221A7100229A8281229200A35840020343A350A158544B4F
:400300001940A1500132FF32A1580143A150A1580B40A35001224F49635893436350F82310211B01E2504C4AA3588B43A350F42330221B01E250009B5B063AD5E8220127CB
:400340001201A3583B43A350182373433F4AD31819790192022929D1626ED2060DD500220231197110001B69984700281ED0F8231B01E750374BE75003E005221A71002D74
:4003800014D0F423302210211B01E250324A0125A3580B43A350019B60339B5D002B01D1E56606E0019B64339D5502E002230025E366F423009A1B01E250002D03D1300074
:4003C000FFF71EFF38E00127244BE35800933B421FD0182373431D4A0421D31800221B6910009847002814D11A4A8021A3584902BB43A350F82381221B01E7509200A3581D
:4004000005000B43A350A158114B0B40A3500223E366F823009A1B01E250114BE758FB0705D502ABD91D3000FFF7B2FE0500FC231B01E750002DC2D005B0F0BD7C1000005E
:400440008C0E0000880E00004C0F00002C010020FFFFFEFF880F0000480F00008C0F0000CC0F000010B50020FFF7FAFE10BD004770B582784478C378120222431B0413435A
:400480001A00037906261B06134349D0827A447AC37A120222431B0413431A00037B1B0613433DD08279417912020A431202511CFF311C4CCD18A54232D80578080000213E
:4004C0000133FF339B18834204D0067801308919C9B2F8E74942C9B206268D4220D180239B00D518A5421BD80F4B2988994217D1E979AB7909021943287A00230A290BD01A
:400500000A4C49191219914204D0147801321B19DBB2F8E75B42DBB20626984200D10026300070BDFFFF0100594300000A020000F0B500254B4BCBB0029501900395984232
:4005400000D98AE0802248495200E8310AA800F085FDFF22454B464C0893464E464B08AF7A6027603360C04623681B0F0F2B03D1236813401D0004E023681B0F0A2B00D066
:4005800025680295029D002D69D100F022FD3B4A3B4B04A968320493059221603949344B3160C0462168090F0F2902D11D68EDB204E01968090F0A2900D01D680395039B5E
:4005C000002B12D1304D2A492560304D3560C04625682D0F0F2D02D10B68DBB204E00D682D0F0A2D00D00B680293029B002B18D1274908910199089D09042943254D089167
:4006000027601B493560C04625682D0F0F2D02D10B68DBB204E00D682D0F0A2D00D00B680293039B002B15D11B4D06A90695079221601A490E4A3160C0462168090F0F2912
:4006400002D11368DBB204E01168090F0A2900D01368029300F0C1FC01E00423029302984BB0F0BDFF0100002C010020B6D70000080010400400104004000080AC020020B3
:40068000B6E9000016000080B6E8000015000080B6D8000005000080B6EA00001700008070B500F096FC1549154BCA8892B2002A15D01C000A68E63415781A002570002476
:4006C000E7331C7004230B810121683293790B439371DF230B4A11680B4013600AE01C001900E634E73322701A70012268318B7993438B7100F071FC70BDC0462C03002019
:400700002C0100200002044070B5040000F061FC1D4AD3889188D5889BB24D1B072D18DCD488091B0024032927DD81211568E9541568591C89B26C541568991C89B26C5451
:40074000033311689BB2CC54D38804339BB2D38013E01168CC54002115685C1CA4B2295515689C1CA4B22955146803339BB2E1540124D38804339BB2D38000F02EFCFFF711
:400780008FFF200070BDC0462C03002070B5C3071BD500F01EFC144C05002389002B0FD02189E38822899A1A23685918180000F055FC2289E3889B1A9BB2E38000232381FA
:4007C000280000F00AFCFFF76BFF00F002FC074B68339B79002B04D0DF23054A11680B40136000F0FAFB70BD2C0300202C01002000020440F8B5594C01286BD10F23584E82
:40080000757B31002F092B40022A2AD80025E5622563012A16D0AF4200D09CE0022B0ED1504B317B1B88994200D394E04E4A0833E8325118D318E162236305008BE0002BC7
:4008400000D088E000250A7B53B2AB4200DA82E0454B0135190068318A18F033E262236379E0002B14D0002F69D1022B67D13D4B3D48357B1B88023AE83092B240195B1B64
:40088000934200DD13009AB20E3100F0E7FB56E0002F54D1344B21001F003431097860377854002D0ED1317B06290BD16833B17B9B790B4206D02D4820350168A943CBB227
:4008C0002B43036023000121023A353392B21970E28634E00025A84232D1E36AAB422FD0226B050093422BD2D21A082A01D9082201E0002A24D02100343109781C48890031
:400900000D58822189006858EA39FF3901400820411AD2B2FD30C9B2FF308A4202D20121295002E004222A500A0090219A1889009A4203D0187801336850F9E7E2620125C4
:4009400035342178C9B2002905D19022044852000C3000F071FB2800F8BDC0462C0400202C0300209C0000202C010020000204407C10000010B500F033FB03680C2B00D160
:40098000FEE7FEE7F7B50122364C374D2368374E93432360002336489A002900032B00D8B15801338150232BF6D172B6FF220027304B07261A60304BFE3A1F602F4B304DE7
:4009C0001A60304B1F321A60C0222F4B92021A6003222E4B1A602E4B21321A602D4B123A1A6000F0F6FA01902B682B4AB3432B602A4B2B491B78DBB213602A4A1368B343D6
:400A00001360294B0A6818787F239A43034013430B60322000F0D4FA05222B683220B34313432B6000F0CCFA06222B68B34313432B60019800F0D1FA80221C4B52001A60E6
:400A40001B4A1C4B1A601C4B1C4A1F601C4B1F6011680123B94200D11160226813432360F7BDC0460000104075090000000000000000002000060240000102400801044041
:400A8000080F034000020440080204400006044008060440300010400C0F03407DF3FF0F180F0340100F034064F3FF0F0002014000FF008000000140280003409000002001
:400AC000000101408023D04A5B00F0B51380130013220025CD4C5A80CD4BCE4A1D702300E633D3629022CC4E85B029005200CB4800F0A2FA29000C22300000F09DFAC54B9D
:400B00002700383333602023B3809123C44A68379B00D65829008022380000F08DFA1323BB80B94BBF4A1B797E800093BE4B81271D60C1211A668022BF0089005202DD66C2
:400B4000DA515A50B94AF4209D500122FE26524200011A50B64836041D5008381A50B5481D50844608381A5000981A6840003043C426B60098510820113EFF30FF3E985107
:400B80000136FF369851AC48012602431A600222E2702271A14A2670A26090225200A281A64AA58222616A4612786270FE22A270FA3ADA515A505858A14A10405850D959AD
:400BC0000A40DA5142229949FF325A5062469E509C4A9D4B1A6080229C4BD2001A609C4A8B4B11001B782831CB5C80219B00D3181A69490493680B43936062B68020FFF7EB
:400C000083FD844E934858363570FFF731FC7E4F804D002801D0042333702B00082158331A788D4E0A431A708C4A1168100089B2B14206D1002111601A7801310A431A7020
:400C40001CE01978042312680B4092B2002B15D183498A4205D07F4A8249928A8A4200D06FE1FB802B00002259331A7080237E4A036013687D499BB20B4313600822002157
:400C800002A800F0D9F92B002200942158331B786832117053705B0703D5802302AA9B0007E06C4B5B681B021B0C01331A02E0329BB220002600E0216830009078369C4653
:400CC00009C909C62100803109CA09C1210002AA883109CA09C16246009B1A858023009A9B0053852B0014225A331A80604B013A3B817B81BA8101935E4B1B78002BFBD008
:400D0000454E737B1B0900D005E1307BEB8E0638DBB2062800D923E100F096F9070022010B00220155006900B200B07BFFF72EFDF1E0012B00D813E1B37B0520522B00D062
:400D4000E7E0F37B0093002B29D0012B00D0E0E049491B300A688243D3B203430B602B002200002134331B786032D15422006432D05C884205D0D154354A9B009B58009A13
:400D8000DA66F02000F01CF972B60022334B37491A60354A13689BB20B431360BBE0B2880099306800F048F96B461B88072033816B461B88F380FFF7E9FC2B0034331878EA
:400DC000FFF71EFA06E0B37B0122502B04D12B005C331A7002209CE02B005C3319780520114200D195E0002203381A7091E0B37B012B00D1ACE0022B01D12048A9E007234A
:400E00000233D8B285E0C0469C0000202C010020600400202C0400202C0300203803002000F0FF0F8828004000000540480F0000880F0000C80F000000010080F50700008C
:400E4000FFFFFEFF650400006800002000E100E07C100000C0FF01004C4200009000002031420000594300000CED00E00400FA05FF0100006104002000020440C0FE0100C6
:400E80000520032B45D9B37B462B42D1F27B443B012A1FD12B005C331B78002B16D0707C337C000218432B005A331B8883420FD83B89834202D27B89834209D1FFF738FB82
:400EC0000523002805D10300023003E00E2300E007230220F27B002A18D12B005C331B780720002B15D0717C337C09021943BB898B420ED2019B99420BD820000132E8309A
:400F00000902FF3200F0AAF8032002E0002B00D00720FFF7F9FB0022124B21001A702B0034331B786031CA5421006431C85C904200D1E1E6CA540C4A9B009B580122DA662B
:400F4000DAE60A4B9A4200D18CE6FA239B0088E60748FFF78DFA031E00D151E706234FE70520D6E7610400207C100000FFFF0000C0FF0100F8B500250E490F4B01394A1CEE
:400F800014D000221F685C689E68A018B24203D0B858A0500432F8E70200DE68141AA64201D020C2FAE710330139E8E700F01EF8FFF788FD01000000D010000000000000A6
:400FC0000230800803D00138FDD1C046C046C0467047EFF3108072B6704780F310887047014B18687047C0460C0100200E4B70B500251E000D4CE41AA410A54204D0AB0099
:40100000F35898470135F8E700F050F8084B00251E00084CE41AA410A54204D0AB00F35898470135F8E770BDB8100000B8100000B8100000C010000003008218934202D05F
:4010400019700133FAE7704703B47146490840004900095A49008E4403BC7047002310B59A4203D0CC5CC4540133F9E710BD0000660000000012000000000000000005406A
:401080000000064000000740000008400000044000010440000204400003044000040440000504400501030243000000F8B5C046F8BC08BC9E4670472901000085090000E8
:4010C000F8B5C046F8BC08BC9E46704701010000E0100000980000207800000088060000000000000001130008003200FF010002FF0100000000000000000000000000002A
:401100000000000000000000000000000000000000000000A810000000000000000000000000000000000000000000000000000000000000000000000000000000000000F7
:401140000000000000000000000000000000000000000000AC00002000000000000000000000000000000000000000000000000000000000000000000000000000000000A3
:40118000000000000000000000000000000000000000000000000000000000000000000000000000000000000000000000000000000000000000000000000000000000002F
:4011C00000000000000000000000000000000000000000000000000000000000000000000000000000000000000000000000000000000000000000000000000000000000EF
:4012000000000000000000000000000000000000000000000000000000000000000000000000000000000000000000000000000000000000000000000000000000000000AE
:40124000000000000000000000000000000000000000000000000000000000000000000000000000000000000000000000000000000000000000000000000000000000006E
:020000040001F9
:40FFC0000000000000000000000000000000000000000000010000000000000000000000000000000000000000000000000000000000000000000000000000000000000000
:0200000490303A
:020000002D9B36
:0200000490402A
:4000000000000000000000000000000000000000000000000000000000000000000000000000000000000000000000000000000000000000000000000000000000000000C0
:0200000490501A
:0C0000000002210011B1000021053F4C5E
:0200000490600A
:0100000001FE
:00000001FF