:400000000020002011000000670200006702000038B51C4A1C4B1D4D1A601D4B1A681023134000D12B602B68802B29D1194B1C79E4B2012C14D90021052000F0BFF8012143
:40004000041C052000F0BAF8E4B2C0B2002C03D0041E05D0032403E0441EA0410224241A00230220211C2B6000F0A8F8002807D0012C05D8211C022000F0A0F800F0F2F883
:4000800001F0AEF86588EDAC3800034088000020540003409C00002000000000000000000000000000000000000000000000000000000000000000000000000000000000AD
:4000C000000000000000000000000000000000000000000000000000000000000000000065020030626E0200AF12011F0000000000000000000000000000000000000000B6
:4001000010B5064C2378002B07D1054B002B02D0044800E000BF0123237010BDA800002000000000DC12000008B5084B002B03D00748084900E000BF07480368002B00D195
:4001400008BD064B002BFBD09847F9E700000000DC120000AC000020980000200000000018234343F0B5134CE3189D689A8A002D01D10D701CE0104B8600F658C2239B0032
:40018000F7581F231F403B1C082F00D908239BB20B709B189BB29A4206D2D02189007158A954013292B2F6E7182358432418A282F0BDC046C4000020E0120000013800B500
:4001C0000B282FD80902494201F02EF806080A0C0E10141216191B20164B13E0164B16E0164B0AE0164B12E0164B0BE0164B09E0164B02E0164B00E0164BC91814E0164B4C
:4002000005E0164BC9180878C0B211E0144BC9180A7848788B7800021B041843CB7810431B0604E001BE00210B7848780002184300BDC046C0FF0100C1FF0100C5FF01008F
:40024000C9FF0100D0FF0100D1FF0100D6FF0100D2FF0100D4FF0100D8FF0100DCFF0100E0FF01000047FEE70122024B60331A707047C046C4000020021CF0B58179437931
:40028000457A0902807A1943D37A000228431B040343181C137BD47D1B0603432B4E907D240204430120B4424FD1957854782D022543D47824042C43251C147924062C43A1
:4002C00043D0002B41D009024C1CFF34204FE518BD423AD81278251C944600220133FF335B189C4204D0207801341218D2B2F8E75242D2B20120944527D12C1C0135FF3425
:40030000FF35227AE379BD421FD8A57867782D023D43B54219D112021A43607A00230A2A0ED080250B4CAD000C1949198A18944204D0217801345B18DBB2F8E75B42DBB23C
:40034000C01A031C581E8341D8B2F0BD59430000FFFF01000A020000F8B5184D184C2B59DB032AD5002617483301021C6432D218117AC9B2FF2916D0C318181C9F6E64307A
:40038000013F9F66406800280DD1FF2717720E4F6C3354373A78013AD2B23A705A68002A01D05B68984701360F2EDCD1064B54331B78DBB2002B00D12B51F8BD001000E064
:4003C00010D00000C4000020C4010020134B8200D35830B51A68F821520052081A60182250430F4A102510180222027100200D4A0D4C98500122090152425A501959A94308
:400400001951F42109015A5080315A508021D8661A6809060A431A6030BDC046E0120000C4000020880F0000480F0000644B8200F0B5D458002385B002AAD371614B061C28
:40044000E25801231A4206D05F4962589A436250E8221201A3505D4B0125E7580223FF331F4201D000273D1CFB0641D518237343574AD31800931B790192042B0CD002ABCF
:40048000D91D301CFFF76CFE0521009B012019719A8A1B699847051C18237343019A8020D31802221A7100229A8281239B00E25840020243E250E158464A1140E1500133D1
:4004C000FF33E1580143E150E1580A40E25001224149635893436350F82310211B01E2503E4AA3588B43A350F42330221B01E2507B063AD5E82201211201A3580B43A350D6
:4005000018237343324AD3181A79022A2AD1626ED2060ED5002003311971021C1B69984700281FD0F82301221B01E2502A4BE25003E005221A71002D14D0F4233022102135
:400540001B01E250254A0125A3580B43A350244B1A1C5532925D002A01D1E56605E059339D5502E002230025E366F4231B01E750002D03D1301CFFF729FF1EE0194BE758AC
:40058000FB0709D5182300207343114A0421D3181B69021C9847051CF8231B01E750124BE758FB0704D502AB301CD91DFFF7D8FDFC231B01E750002DDCD005B0F0BDC046EB
:4005C000E01200008C0E0000880E00004C0F0000C4000020FFFFFEFF880F0000480F0000C40100208C0F0000CC0F000008B50020FFF71CFF08BD0000F7B500F033FE1F4B6C
:400600000190191C1F1C5E31FF31CA7D5E37002A2FD04C7C002C2CD1F62084465D33FF33DE8ABA195278BE5D0092154A9444604606706846151C01260078F7321070783589
:400640004E74AA790F493243AA71FB220D682A400A601021DA8AFF31223292B28A4201D8DA8200E0DC82054B5E33FF33DA7D013ADA75019800F0FAFDF7BDC046C401002098
:40068000C402002000020440F0B500253B4BCBB00295039598426CD8802239490190F8310AA8520000F0CAFD364B08AF0893FF23354C7B60354E364B2760336023681B0F39
:4006C0000A2B02D00F2325681D400295029D002D51D100F0C7FD2F4A04AB04922E4A7832059223602D4B336023681B0F0A2B03D0254B1D680F231D400395039B002B0CD11A
:4007000027492160274931602168090F0A2903D01D4B19680F230B400293029B002B12D12149019D089108992D04294308911F49276031602168090F0A2903D0124B1968FD
:400740000F230B400293039B002B0FD1184D06A906950792174A216032602268120F0A2A03D0094B1A680F231340039300F07EFD01E00423029302984BB0F0BDFF01000015
:40078000C4020020B6D70000080010400400104004000080B6E900004404002016000080B6E8000015000080B6D8000005000080B6EA00001700008008B500F053FD00215E
:4007C000104B0A0164339B181A1C1B7A0832002B08D1FF3313700C4A54321378013BDBB2137002E001310F29EAD1074B54331B78DBB2002B02D1054A05498B5000F036FD3F
:4008000008BDC046C4000020C401002010D00000001000E0F8B5051C00F024FD1E4B041C1A1C191C1F1C5E32FF32D07D5D31FF315E378A8A082815D1002A02D11132FF324A
:400840008A82191C5D33FF339A8A0025223A93B281225E31CA54CB18201C5D7000F006FD281C17E00026BD54551CADB27E551025223292B2FF35AA4201D88A8200E08E8285
:400880005E330130FF33D875FFF7B6FE201C00F0EDFC0120F8BDC046C4010020012170B5144D084213D00022134B5E33FF335A74DB7D934209D1114A1269137053702A1C28
:4008C000783293798B43937101E0FFF795FE04260B4C78352368B343DBB233432360AB79002B06D0782000F0B3FC2368B343DBB2236070BDC4020020C4010020C404002004
:4009000000020440F8B5384E757D341C01283BD10F232F092B40022A15D8012A0BD00025AF425ED1022B04D1337D304AD318F83305E0002B55D12D4B227D78339B182C4A2B
:40094000012593614DE0002B15D0317D051C002F3CD1022B3AD12548023A4018FE3392B2F830591A8A4200D90A1C211C163100F065FC01252AE01F4B023A553318701C4BDF
:4009800092B21877DA83F4E7002504291ED1822319499B00CD58EA3BFF3B2B400825144AEB1ADBB290691E1CAB4200D92E1CF3B2061C351AEDB29D4205D290253778AD007E
:4009C0004F510136F5E7C3189361D2E7084B197FC9B2002905D1201C81221430520000F071FC281CF8BDC046C4040020C4020020C4050020C401002000000540F7B50122D6
:400A0000314C23689343236000239A002F49032B01D82F4989582F4801338150222BF4D172B6FF27002503222B4B2C4E1F602C4B1D602C4B1A602C4B21321A602B4B1C323E
:400A40001A602B4B3C3A1A602A4B7D32FF321A601223336000F006FC0722274901900B68264893430B6026490B680078BB4303437F200B6023490B6893430B60224A234921
:400A80000B6812788343024013430B604D3800F0DFFB019800F0EAFB1D4B1E4A1D601E4B1A601E4B1D601E4B1D60112333601D4B1D601D4B1A68AA4200D11A60012223683C
:400AC00013432360F7BDC046000010406702000000000000000000200000024030001040000102400000044008000440080104400002044008020440080F034065F3FF0F54
:400B00000C0F0340100F03404CF3FF0F180F03400002014000FF00800000014028000340000101409000002088000020F0B5C74CC74E251C301C8122C64B87B0F6350021A5
:400B4000520014309D6100F0BDFB8C22C248271C002152005E3000F0B5FB912378373B70BE4B08227B801323BB800023A118CB67211C0120A4310870211CF7310B70211C1A
:400B80007A70BB71FB71BB72FB723B813B857B85271CB34888310860B2498C373960271C90373860201C94300160211C9C3498312B7023600B60AC4BAC4C1A702368AC4A8B
:400BC00035611340802204251343AA4E23603368A94FAB43DBB22B433360782000F038FB3B68A34A01922B4201D1402310E02368019A78201340C022134323603368AB439C
:400C0000DBB2336000F024FB3B682B4202D04223954A13702368019AC12113402360924B964C187800232360954B802223660023E366812300259B0089005202E25062506D
:400C4000904A0026A5509446F42501222D01524262518D4DC0276651083D62518B4DBF006651FE26083D6251360445003543C426B6002268A5510825113EFF3EFF35A55120
:400C8000E551834D834F2A4322600222FA703A710022BA826E4A01251432BA6081225200BA817D4A78703A61FE22BA70FA3A3D70E25062506058794A10406050E1580A4011
:400CC000E25042236246FF33A350704B744AE550744B1A60744B754A1E609168744B0B40802149040B43936062B68020FFF792FD0023584D6F486E1CF377FFF7BDFA019588
:400D00000394594D002801D00423F3776A48FFF7B3FA002805D00821019B5A1CD37F0B43D377664B66491A68181C92B28A4208D1002201211A60019B5A1CD37F0B43D377BC
:400D4000FEE01B685F4A9BB29B18594259410368CAB25D499BB25B185C425C41019BE6B20133DB7F19070FD4002E15D104210B400FD1002A1ED150494E4CCB69E669B342BF
:400D800000D30DE2131C10E004242340191E05D0D6E0002A00D103E201230BE0002A00D0F0E1131C002E05D1331C424A928A47498A4201D1002204E045498A4202D0FA22A5
:400DC00092006A802B716B889BB20293002B08D18033404A036013683F499BB20B431360AEE03A1C002360321370391CFF241A0164318A18013314720F2BF6D10025164B2A
:400E0000364E54331D70364B364AF550364BF250364B374A1A6000F025FA314B9C463A1C2B016432D218127AE9B2FF2A00D10C1C3A1C6432D3181B7A002B5BD1064A0C1CA2
:400E400054321378013BDBB2137058E0C4020020C4040020C4050020C4010020011F000065020030626E02009C000020080104403FFEFFFF000104400401044000000540A1
:400E800088280040480F0000880F0000C80F000000010080C400002005090000FFFFFEFFED0500006400002000E100E000000440FFFFFFF8C0FF0100C0FE01008800002078
:400EC0004C420000CFBDFFFFCEBDFFFF59430000FFFF00000CED00E00400FA05001000E010D00000BF5D000014D000003C0000205903000001350F2D91D1FF2C1ED06A46B6
:400F00003B1C128964332401E2523F191C190023A54939672372029BBB66A44B1A1C54321278D2B2002A04D1A149725061460732725054331A780132D2B21A7000F096F95F
:400F400000239C4990200A1C04930593019B78320133DB7F107053705A0703D5802204AC920007E0944A52681202120C01321402E03492B21B0703D5802304A89B0007E013
:400F80008E4B5B681B021B0C01331802E0309BB20F1C0E1CE0257837029788369C4688CD88C60D1C903548CC48C5983118C818C1029B834D1A8562465A851423019A5384F4
:400FC0001322804B6A81EB802B810293019B1B7F002B00D1B9E07C4C637D1B0900D09EE0019B207DDB8B0638DBB2062800D9D5E000F01AF904D408D430394200A07DFFF7DA
:401000004DFC8CE0012B00D8C8E0A37D0522522B00D081E0E47D002C14D0012C00D07BE004206A490A688243D3B203430B6072B60022674B67491A60674A13689BB20B4360
:4010400013606CE00720FFF729FC201CFFF7BEF9022261E0A37D0522502B5DD1019B9B18043ADA77F4E7A37D012B00D18CE00922022B51D1514888E00522032B4CD9A37DDA
:40108000462B49D1E37D012B2FD1019A667E0532D27F237E002A00D17EE036021E43019B5B8CB34278D8EB88B34202D22B89B34272D1029B9E4201D1404F04E0FF235B0050
:4010C0009E420CD13C4F381CFFF7D6F80023984200D1FB69EA223749013352008B50301CFFF7D2FA002857D10222E37D002B13D1019A617E0532D07F237E072200280BD0B3
:40110000090219436B898B4206D22A48F9320902F83000F093F80322101CFFF77BFB8122294800215200143000F0CCF80022019B1A771E4B191C593355310A70197891424B
:4011400003D01A700123039AD366019B234C0533DB7F002B05D0FFF72FFB231C002260331A7060342378002B00D12FE7FFF724FB8022174B17491A60174A13689BB20B4332
:40118000136023E70B1C15E60B48FFF775F802220028C1D00632BFE70722A6E70522BBE70123064A02E6C04669020000C401002018D00000C4020020C0FF0100C0FE0100A1
:4011C0009C000020FF010000C404002000020440880000200400FA050CED00E0C400002070B50F490F4B01394A1C15D000221E685C689D68A018AA4203D0B058A05004322B
:40120000F8E7021CDC68151AA54202D0002520C2F9E710330139E7E700F02EF8FFF786FC010000001413000002B4714649084900095C49008E4402BC7047C046002310B5B3
:40124000934203D0CC5CC4540133F9E710BD00000230800804D0C0460138FDD1C046C046C0467047EFF3108072B6704780F310887047C046C046C0460E4B70B500251E1C3F
:401280000D4CE41AA410A54204D0AB00F35898470135F8E700F02CF8084B00251E1C084CE41AA410A54204D0AB00F35898470135F8E770BDFC120000FC120000FC120000B6
:4012C00004130000031C8218934202D019700133FAE77047001400003B0000000000000000000540000006400000074000000840F8B5C046F8BC08BC9E46704729010000C9
:40130000FD090000F8B5C046F8BC08BC9E46704701010000281300009800002010000000480500000000000000000000080032000200FF010002FF01000000000000000051
:40134000000000000000000000000000000000000000000000000000000000000000000000000000000000000000000000000000000000000000000000000000000000006D
:40138000000000000000000000000000000000000000000000000000000000000000000000000000000000000000000000000000000000000000000000000000000000002D
:4013C00000000000000000000000000000000000000000000000000000000000000000000000000000000000000000000000000000000000000000000000000000000000ED
:4014000000000000000000000000000000000000000000000000000000000000000000000000000000000000000000000000000000000000000000000000000000000000AC
:020000040001F9
:40FFC00000000000000000000000000000000000000000000200000000000000000000000000000000000000000000000000000000000000000000000000000000000000FF
:0200000490303A
:02000000360FB9
:0200000490402A
:4000000000000000000000000000000000000000000000000000000000000000000000000000000000000000000000000000000000000000000000000000000000000000C0
:0200000490501A
:0C00000000021F0111AF00001F0747BEE7
:0200000490600A
:0100000001FE
:00000001FF