:400000000020002011000000670200006702000038B51C4A1C4B1D4D1A601D4B1A681023134000D12B602B68802B29D1194B1C79E4B2012C14D90021052000F0BFF8012143
:40004000041C052000F0BAF8E4B2C0B2002C03D0041E05D0032403E0441EA0410224241A00230220211C2B6000F0A8F8002807D0012C05D8211C022000F0A0F800F0F2F883
:4000800001F0AEF86588EDAC3800034088000020540003409C00002000000000000000000000000000000000000000000000000000000000000000000000000000000000AD
:4000C000000000000000000000000000000000000000000000000000000000000000000065020030626E0200AF12011F0000000000000000000000000000000000000000B6
:4001000010B5064C2378002B07D1054B002B02D0044800E000BF0123237010BDA800002000000000DC12000008B5084B002B03D00748084900E000BF07480368002B00D195
:4001400008BD064B002BFBD09847F9E700000000DC120000AC000020980000200000000018234343F0B5134CE3189D689A8A002D01D10D701CE0104B8600F658C2239B0032
:40018000F7581F231F403B1C082F00D908239BB20B709B189BB29A4206D2D02189007158A954013292B2F6E7182358432418A282F0BDC046C4000020E0120000013800B500
:4001C0000B282FD80902494201F02EF806080A0C0E10141216191B20164B13E0164B16E0164B0AE0164B12E0164B0BE0164B09E0164B02E0164B00E0164BC91814E0164B4C
:4002000005E0164BC9180878C0B211E0144BC9180A7848788B7800021B041843CB7810431B0604E001BE00210B7848780002184300BDC046C0FF0100C1FF0100C5FF01008F
:40024000C9FF0100D0FF0100D1FF0100D6FF0100D2FF0100D4FF0100D8FF0100DCFF0100E0FF01000047FEE70122024B60331A707047C046C4000020021CF0B58179437931
:40028000457A0902807A1943D37A000228431B040343181C137BD47D1B0603432B4E907D240204430120B4424FD1957854782D022543D47824042C43251C147924062C43A1
:4002C00043D0002B41D009024C1CFF34204FE518BD423AD81278251C944600220133FF335B189C4204D0207801341218D2B2F8E75242D2B20120944527D12C1C0135FF3425
:40030000FF35227AE379BD421FD8A57867782D023D43B54219D112021A43607A00230A2A0ED080250B4CAD000C1949198A18944204D0217801345B18DBB2F8E75B42DBB23C
:40034000C01A031C581E8341D8B2F0BD59430000FFFF01000A020000F8B5184D184C2B59DB032AD5002617483301021C6432D218117AC9B2FF2916D0C318181C9F6E64307A
:40038000013F9F66406800280DD1FF2717720E4F6C3354373A78013AD2B23A705A68002A01D05B68984701360F2EDCD1064B54331B78DBB2002B00D12B51F8BD001000E064
:4003C00010D00000C4000020C4010020134B8200D35830B51A68F821520052081A60182250430F4A102510180222027100200D4A0D4C98500122090152425A501959A94308
:400400001951F42109015A5080315A508021D8661A6809060A431A6030BDC046E0120000C4000020880F0000480F0000644B8200F0B5D458002385B002AAD371614B061C28
:40044000E25801231A4206D05F4962589A436250E8221201A3505D4B0125E7580223FF331F4201D000273D1CFB0641D518237343574AD31800931B790192042B0CD002ABCF
:40048000D91D301CFFF76CFE0521009B012019719A8A1B699847051C18237343019A8020D31802221A7100229A8281239B00E25840020243E250E158464A1140E1500133D1
:4004C000FF33E1580143E150E1580A40E25001224149635893436350F82310211B01E2503E4AA3588B43A350F42330221B01E2507B063AD5E82201211201A3580B43A350D6
:4005000018237343324AD3181A79022A2AD1626ED2060ED5002003311971021C1B69984700281FD0F82301221B01E2502A4BE25003E005221A71002D14D0F4233022102135
:400540001B01E250254A0125A3580B43A350244B1A1C5532925D002A01D1E56605E059339D5502E002230025E366F4231B01E750002D03D1301CFFF729FF1EE0194BE758AC
:40058000FB0709D5182300207343114A0421D3181B69021C9847051CF8231B01E750124BE758FB0704D502AB301CD91DFFF7D8FDFC231B01E750002DDCD005B0F0BDC046EB
:4005C000E01200008C0E0000880E00004C0F0000C4000020FFFFFEFF880F0000480F0000C40100208C0F0000CC0F000008B50020FFF71CFF08BD0000F7B500F033FE1F4B6C
:400600000190191C1F1C5E31FF31CA7D5E37002A2FD04C7C002C2CD1F62084465D33FF33DE8ABA195278BE5D0092154A9444604606706846151C01260078F7321070783589
:400640004E74AA790F493243AA71FB220D682A400A601021DA8AFF31223292B28A4201D8DA8200E0DC82054B5E33FF33DA7D013ADA75019800F0FAFDF7BDC046C401002098
:40068000C402002000020440F0B500253B4BCBB00295039598426CD8802239490190F8310AA8520000F0CAFD364B08AF0893FF23354C7B60354E364B2760336023681B0F39
:4006C0000A2B02D00F2325681D400295029D002D51D100F0C7FD2F4A04AB04922E4A7832059223602D4B336023681B0F0A2B03D0254B1D680F231D400395039B002B0CD11A
:4007000027492160274931602168090F0A2903D01D4B19680F230B400293029B002B12D12149019D089108992D04294308911F49276031602168090F0A2903D0124B1968FD
:400740000F230B400293039B002B0FD1184D06A906950792174A216032602268120F0A2A03D0094B1A680F231340039300F07EFD01E00423029302984BB0F0BDFF01000015
:40078000C4020020B6D70000080010400400104004000080B6E900004404002016000080B6E8000015000080B6D8000005000080B6EA00001700008008B500F053FD00215E
:4007C000104B0A0164339B181A1C1B7A0832002B08D1FF3313700C4A54321378013BDBB2137002E001310F29EAD1074B54331B78DBB2002B02D1054A05498B5000F036FD3F
:4008000008BDC046C4000020C401002010D00000001000E0F8B5051C00F024FD1E4B041C1A1C191C1F1C5E32FF32D07D5D31FF315E378A8A082815D1002A02D11132FF324A
:400840008A82191C5D33FF339A8A0025223A93B281225E31CA54CB18201C5D7000F006FD281C17E00026BD54551CADB27E551025223292B2FF35AA4201D88A8200E08E8285
:400880005E330130FF33D875FFF7B6FE201C00F0EDFC0120F8BDC046C4010020012170B5144D084213D00022134B5E33FF335A74DB7D934209D1114A1269137053702A1C28
:4008C000783293798B43937101E0FFF795FE04260B4C78352368B343DBB233432360AB79002B06D0782000F0B3FC2368B343DBB2236070BDC4020020C4010020C404002004
:4009000000020440F8B5384E757D341C01283BD10F232F092B40022A15D8012A0BD00025AF425ED1022B04D1337D304AD318F83305E0002B55D12D4B227D78339B182C4A2B
:40094000012593614DE0002B15D0317D051C002F3CD1022B3AD12548023A4018FE3392B2F830591A8A4200D90A1C211C163100F065FC01252AE01F4B023A553318701C4BDF
:4009800092B21877DA83F4E7002504291ED1822319499B00CD58EA3BFF3B2B400825144AEB1ADBB290691E1CAB4200D92E1CF3B2061C351AEDB29D4205D290253778AD007E
:4009C0004F510136F5E7C3189361D2E7084B197FC9B2002905D1201C81221430520000F071FC281CF8BDC046C4040020C4020020C4050020C401002000000540F7B50122D6
:400A0000314C23689343236000239A002F49032B01D82F4989582F4801338150222BF4D172B6FF27002503222B4B2C4E1F602C4B1D602C4B1A602C4B21321A602B4B1C323E
:400A40001A602B4B3C3A1A602A4B7D32FF321A601223336000F006FC0722274901900B68264893430B6026490B680078BB4303437F200B6023490B6893430B60224A234921
:400A80000B6812788343024013430B604D3800F0DFFB019800F0EAFB1D4B1E4A1D601E4B1A601E4B1D601E4B1D60112333601D4B1D601D4B1A68AA4200D11A60012223683C
:400AC00013432360F7BDC046000010406702000000000000000000200000024030001040000102400000044008000440080104400002044008020440080F034065F3FF0F54
:400B00000C0F0340100F03404CF3FF0F180F03400002014000FF00800000014028000340000101409000002088000020F0B5C74CC74E251C301C8122C64B87B0F6350021A5
:400B4000520014309D6100F0BDFB8C22C248271C002152005E3000F0B5FB912378373B70BE4B08227B801323BB800023A118CB67211C0120A4310870211CF7310B70211C1A
:400B80007A70BB71FB71BB72FB723B813B857B85271CB34888310860B2498C373960271C90373860201C94300160211C9C3498312B7023600B60AC4BAC4C1A702368AC4A8B
:400BC00035611340802204251343AA4E23603368A94FAB43DBB22B433360782000F038FB3B68A34A01922B4201D1402310E02368019A78201340C022134323603368AB439C
:400C0000DBB2336000F024FB3B682B4202D04223954A13702368019AC12113402360924B964C187800232360954B802223660023E366812300259B0089005202E25062506D
:400C4000904A0026A5509446F42501222D01524262518D4DC0276651083D62518B4DBF006651FE26083D6251360445003543C426B6002268A5510825113EFF3EFF35A55120
:400C8000E551834D834F2A4322600222FA703A710022BA826E4A01251432BA6081225200BA817D4A78703A61FE22BA70FA3A3D70E25062506058794A10406050E1580A4011
:400CC000E25042236246FF33A350704B744AE550744B1A60744B754A1E609168744B0B40802149040B43936062B68020FFF792FD0023584D6F486E1CF377FFF7BDFA019588
:400D00000394594D002801D00423F3776A48FFF7B3FA002805D00821019B5A1CD37F0B43D377664B66491A68181C92B28A4208D1002201211A60019B5A1CD37F0B43D377BC
:400D4000FEE01B685F4A9BB29B18594259410368CAB25D499BB25B185C425C41019BE6B20133DB7F19070FD4002E15D104210B400FD1002A1ED150494E4CCB69E669B342BF
:400D800000D30DE2131C10E004242340191E05D0D6E0002A00D103E201230BE0002A00D0F0E1131C002E05D1331C424A928A47498A4201D1002204E045498A4202D0FA22A5
:400DC00092006A802B716B889BB20293002B08D18033404A036013683F499BB20B431360AEE03A1C002360321370391CFF241A0164318A18013314720F2BF6D10025164B2A
:400E0000364E54331D70364B364AF550364BF250364B374A1A6000F025FA314B9C463A1C2B016432D218127AE9B2FF2A00D10C1C3A1C6432D3181B7A002B5BD1064A0C1CA2
:400E400054321378013BDBB2137058E0C4020020C4040020C4050020C4010020011F000065020030626E02009C000020080104403FFEFFFF000104400401044000000540A1
:400E800088280040480F0000880F0000C80F000000010080C400002005090000FFFFFEFFED0500006400002000E100E000000440FFFFFFF8C0FF0100C0FE01008800002078
:400EC0004C420000CFBDFFFFCEBDFFFF59430000FFFF00000CED00E00400FA05001000E010D00000BF5D000014D000003C0000205903000001350F2D91D1FF2C1ED06A46B6
:400F00003B1C128964332401E2523F191C190023A54939672372029BBB66A44B1A1C54321278D2B2002A04D1A149725061460732725054331A780132D2B21A7000F096F95F
:400F400000239C4990200A1C04930593019B78320133DB7F107053705A0703D5802204AC920007E0944A52681202120C01321402E03492B21B0703D5802304A89B0007E013
:400F80008E4B5B681B021B0C01331802E0309BB20F1C0E1CE0257837029788369C4688CD88C60D1C903548CC48C5983118C818C1029B834D1A8562465A851423019A5384F4
:400FC0001322804B6A81EB802B810293019B1B7F002B00D1B9E07C4C637D1B0900D09EE0019B207DDB8B0638DBB2062800D9D5E000F01AF904D408D430394200A07DFFF7DA
:401000004DFC8CE0012B00D8C8E0A37D0522522B00D081E0E47D002C14D0012C00D07BE004206A490A688243D3B203430B6072B60022674B67491A60674A13689BB20B4360
:4010400013606CE00720FFF729FC201CFFF7BEF9022261E0A37D0522502B5DD1019B9B18043ADA77F4E7A37D012B00D18CE00922022B51D1514888E00522032B4CD9A37DDA
:40108000462B49D1E37D012B2FD1019A667E0532D27F237E002A00D17EE036021E43019B5B8CB34278D8EB88B34202D22B89B34272D1029B9E4201D1404F04E0FF235B0050
:4010C0009E420CD13C4F381CFFF7D6F80023984200D1FB69EA223749013352008B50301CFFF7D2FA002857D10222E37D002B13D1019A617E0532D07F237E072200280BD0B3
:40110000090219436B898B4206D22A48F9320902F83000F093F80322101CFFF77BFB8122294800215200143000F0CCF80022019B1A771E4B191C593355310A70197891424B
:4011400003D01A700123039AD366019B234C0533DB7F002B05D0FFF72FFB231C002260331A7060342378002B00D12FE7FFF724FB8022174B17491A60174A13689BB20B4332
:40118000136023E70B1C15E60B48FFF775F802220028C1D00632BFE70722A6E70522BBE70123064A02E6C04669020000C401002018D00000C4020020C0FF0100C0FE0100A1
:4011C0009C000020FF010000C404002000020440880000200400FA050CED00E0C400002070B50F490F4B01394A1C15D000221E685C689D68A018AA4203D0B058A05004322B
:40120000F8E7021CDC68151AA54202D0002520C2F9E710330139E7E700F02EF8FFF786FC010000001413000002B4714649084900095C49008E4402BC7047C046002310B5B3
:40124000934203D0CC5CC4540133F9E710BD00000230800804D0C0460138FDD1C046C046C0467047EFF3108072B6704780F310887047C046C046C0460E4B70B500251E1C3F
:401280000D4CE41AA410A54204D0AB00F35898470135F8E700F02CF8084B00251E1C084CE41AA410A54204D0AB00F35898470135F8E770BDFC120000FC120000FC120000B6
:4012C00004130000031C8218934202D019700133FAE77047001400003B0000000000000000000540000006400000074000000840F8B5C046F8BC08BC9E46704729010000C9
:40130000FD090000F8B5C046F8BC08BC9E46704701010000281300009800002010000000480500000000000000000000080032000200FF010002FF01000000000000000051
:40134000000000000000000000000000000000000000000000000000000000000000000000000000000000000000000000000000000000000000000000000000000000006D
:40138000000000000000000000000000000000000000000000000000000000000000000000000000000000000000000000000000000000000000000000000000000000002D
:4013C00000000000000000000000000000000000000000000000000000000000000000000000000000000000000000000000000000000000000000000000000000000000ED
:4014000000000000000000000000000000000000000000000000000000000000000000000000000000000000000000000000000000000000000000000000000000000000AC
:020000040001F9
:4009000000200020010E0100916101009161010000000000000000000000000000000000000000000000000000000000000000000000000000000000000000000000000081
:400940000000000000000000000000000000000000000000000000000000000000000000000000000000000000000000000000000000000000000000000000000000000077
:400980000000000000000000000000000000000000000000000000000000000000000000000000000000000000000000000000000000000000000000000000000000000037
:4009C00000000000000000000000000000000000000000000000000000000000000000007A060132626E0200AF11011F000000000000000000000000000000000000000092
:400A00005943040000200004203CB4040100010000020B000000000000000000000000000C0214000000000000000000200218000000000000000000E80300000000000088
:400A4000020102000000010001040F0203070101010101000100000000000000000000002C9101272CD102002CB104002C4106000000000000000000000000005A90012601
:400A80005A30429A00000000000000000000000000000000000000005A005A00000000000000000000000000030038023C02000000000000000000000000000000000000A1
:400AC0003C000000000000000000000000000000000000000000000000000000000000000000000000000000000000000000000000000000000000000000000000000000BA
:400B000000000000000000000000000000000000000000000000000000000000000000000000000000000000000000000000000000000000000000000000000000000000B5
:400B40000000000000000000000000000000000000000000000000000000000000000000000000000000000000000000000000000000000000000000000000000000000075
:400B80000000000000000000000000000000000000000000000000000000000000000000000000000000000000000000000000000000000000000000000000000000000035
:400BC00000000000000000000000000000000000000000000000000000000000000000000000000000000000000000000000000000000000000000000000000000000000F5
:400C0000B404D1F6437970726573730014000000418000FFB4040092000000000000D1F6B404D1F6000000000101000000020000000000000001003C04140A0208140A025B
:400C40003201000000000000000000000000000000000000000000000000000000000000000000000000000000000000000000000000000000000000000000000000000041
:400C80000000000000000000000000000000000000000000000000000000000000000000000000000000000000000000000000000000000000000000000000000000000034
:400CC00000000000000000000000000000000000000000000000000000000000000000000000000000000000000000000000000000000000000000000000000000000000F4
:400D000000000000000000000000000000000000000000000000000000000000000000000000000000000000000000000000000000000000000000000000000000000000B3
:400D40000000000000000000000000000000000000000000000000000000000000000000000000000000000000000000000000000000000000000000000000000000000073
:400D80000000000000000000000000000000000000000000000000000000000000000000000000000000000000000000000000000000000000000000000000000000000033
:400DC00000000000000000000000000000000000000000000000000000000000000000000000000000000000000000000000000000000000000000000000000000000000F3
:400E000010B5044B83F30888034A044B1A6005F063FEC046002000206588EDAC3800034010B5064C2378002B07D1054B002B02D0044800E000BF0123237010BD280100202B
:400E4000000000005CF40100084B10B5002B03D00749084800E000BF07480368002B00D110BD064B002BFBD09847F9E7000000002C0100205CF401009000002000000000F5
:400E80001322F0B5EA4B93B01A60EA4AEA4BEB4D9A4201D8012300E00223E94C2B70200004F066FE00281BD12300AA331A782300AB331B781B021343E318002B10D0DB7899
:400EC000E0490B702300AC331A782300AD331B781B021343E418002C02D0E3788B7009E02B78012B01D000F078FED74804F026FE05F042F9002501220226D44B06211D70C8
:400F0000D34B20201A70D34BD34C1D70D34B1A70D34B5A6204329A62013ADA62DE6104F0A7FDD04AD04B26601A6008F092F8CF4ACF4B11680B40136008F08FF8FF21CD4A26
:400F4000CD4B16601B68CD4BCD481B682B0003920C352A005A430133821891721F2BF8D10020B84B01211872587280235B0023608024C44BC44A24069A63DA6C0A43DA6431
:400F8000DA6A2243DA625964C04AC149C14C1160C14AC24950501051C14CC24814501000DC6BA4B2DA6B92B29442FBD0B54AD46B052242508022A5B2520246581642FCD08E
:400FC000DA6B93B29D4202D9802252021343B64A1B1B13800023435062B6B44CB44A2368042513408022B34E1343236033680520AB43DBB22B43336005F0B8F84022AE4F09
:401000003B68049601925B0717D52368A84A05201340C02213432360049B049A1B68AB43DBB2136005F0A2F842223B6801929B08413A134201D10823019323689C4A814EC7
:40104000134023606B4680221B799202B3729B4B13271A6080220025994B52001A80994B994A1F80994B29001D70994B99481A60902252000EF055F9974C182229002000D4
:401080000EF04FF9954B0B36E3608823266020265B002382924A3533A680FF33914CD35820008022290002930EF03BF96B461B89A780638023003A331E708B4B2C34236182
:4010C00001232370894B1D70894B1D705C4B53331B78AB4200D025705022002185480EF020F9574B7F4F47331A78D8235B00FA54534B002154331A78BA23FF33FA54B93BA5
:40110000FF3B9C466246B433FF33FA546A466D4B127980249A70784B784A1960C1201A668122800092006402D9669C501C50744CF42519510124FE2664422D015C51714D07
:4011400036045951083D5C516F4D5951083D5C51019D1C686D003543C426B60002949D51C0240825113EFF35FF3EA4009D511D51029C664D2C4365461C60654C25700225F1
:40118000E5702571534DA182A56090256D00A581604D25616D462D796570FE25A57004249C501C501D585C4C25401D50985804409C5042225248FF321A506046524A574C8E
:4011C00098508020564A574B40041A60039B564A1E603E4B1B78E35C9B009A5893680343936007A808220EF09CF8154A134B01921B78344A029703920594012B00D09FE081
:401200004A4804F0E3FC8122431E9841484B52001A80FE22474BFF321A80474B01321A80464BEC3AFF3A1A80C00091239EE0C04630001040E0090100FF7F0000A0000020E7
:40124000000A010044010020FF01000061080020B90000206008002080E100E0B8000020FC000140E17401004400002000E400E0FF3FFFFF00E100E0E80F00F0EC0F00F071
:40128000500A0020000003406588EDAC60000020E55C010018D00000001000E010D000007FBB000014D00000C40B0020080104403FFEFFFF0001044004010440A40000208A
:4012C000A80000209400002042030020BE020020740800209C010020F00900207C08002000F0FF0FC4020020220300008C0900208D0900204C0400200000054088280040FE
:40130000480F0000880F0000C80F0000000100809009002059750100FFFFFEFF60F40100359001006400002070F60100C0FE0100AA000020AC000020AE000020B0000020EB
:40134000DB4804F043FC1421431E9841D94BDA4A5B681180D94A1B0A1380D94AD94B80001A80D94BED3AFF3A1A809223029A13705070430708D4CE4B5A681202120C0132B8
:401380001502E03592B202E0802207AD92000823184208D1C74B5B681B021B0C01331902E0319BB202E0802307A99B00C74FE0203E0090C890C6300050CD50C030C930C0B7
:4013C0000299C3480A854B85039AC24BC24953601A008B4201D801C3FBE79B1ABF4D9BB2AB85AB8D029ABE48D386BE4ABE4B11681A600023814206D1BC4E51689368891988
:401400004C424C411B1900219360516003991060B74A0A810A8902998A86FF2B00D9FF23029A32203232137007F0DCFE019B0333DA7F019B0433DB7F1B021343042B05D91F
:401440002A00043B2E329B10137003E02B0000222E331A70019B0133DA7F019B0233DB7F1B021343019A0433D3182B6313000733DA7F019B0833DB7F1B0213432A0034326E
:40148000042B02D9043B9B1000E000231370019B05990533DA7F019B04310633DB7F00201B021343019A0433D318AB6313002A331A78019B64242B331B781B021343AB8769
:4014C000019B28331A78019B29331B781B021343019AD3182B6407F0C3FD002380211A00180006F06BFA834B1B78002B01D001F039FE814B1B78002B26D00121112004F0FC
:40150000C9FA3822049B00219B6811209343083A1343049A936004F0ABFAFA22774B9200C021002004F078FC754B764AC221002004F072FC029B2C331B78DB0700D48BE094
:40154000002007F0D9FD87E09620013C0002E4B207F076FD002CC6D1CFE76B4A0321002008F06AF90F2808D002222378934323702378823A1343DBB223702B0038331B7828
:40158000002B74D15B4B1B78002B01D001F0EAFD039B5E4E1F89356807F09EFA5C4C594B6543ED18BFB22D18AF4200D88CE2356807F092FA6C43534BE41800190024039B66
:4015C00080B218811B89029AC22120009386346004F02AFA4A4B4B4AC221200004F01CFC039B3B4A59680B003B48834200D86EE23A4A5B1A908D1400984200D8938D9BB237
:401600009385938D029AD38607F023FD414B04901A003C3210780222104000D0E1E238331B78002B00D058E22C4DAB6C2C00002B00D087E2029B2D331B78002B00D195E2D9
:4016400001240025049807F008FD002D01D007F093FD002C00D09EE2002007F093FD2D4D02222C003C342378134286D075E7002007F0AAFD284B1B78002B06D128210020D5
:4016800004F0B0F9002849D07CE7037C002B03D079300378002B03D02B00012239331A702B0039331B78002B00D16BE7E6E7C046C0FF0100C0FE0100AA000020AC000020A6
:4016C000FF010000AE000020B0000020D4020020005555000C1C00207F1F002044010020EFBEADDE001C0020B4000020F4CFFC3FDC050000A0060020280600208D5F010019
:4017000019750100EE020000114701007008002012FDFFFFA80500201C110020BC4C26782700701E062800D92CE70DF0CFFC0700130066008701C601DB00B201002002F066
:4017400033FD00236370B34B1A780223002A00D0C6E050E06578002007F036FD002D02D0012D12D0BBE01F22290091430A000121A94B0A436384631CDA77A21DD577621D01
:40178000D57780225B18DA7795E0A24B1B78002B00D1A4E02200002345321370220046321370636BA360A36A6360437D002B1BD123002B331A7838231340282B04D1230022
:4017C00034331B78DB060FD4030079331B78002B05D00300B9331A7818231A4204D170300178002005F0DCF83B002B331B785B0775D500236370033372E00020667807F0AF
:40180000E3FC0500012E07D0002E02D0022E62D065E0310030004CE07E4B1A780523002A5ED0E218D27F0492002A2FD1A26A013256D07A49049807F0CDF8002830D02B00D1
:4018400079331B78002B27D02B00BC331B78002B22D02B007D331B78002B1DD0049802F0FDFA061E09D17035297802F027FB330037222821300004F0CFFA3B000020453345
:4018800018703B0046331870012112E0A36A013308D1238B002B10D00023637004331FE0010006E05E49002007F094F80028F0D1310002F013FC062312E06B7D002BEBD11B
:4018C0002B00B933187818231840E5D17035297805F066F8E0E7631DDB7F012BDCD0052323704FE64F4D631DDA7F2B00290034331A70A31DDB7F383101330B70236A6B64AE
:40190000A31CDB7F424CDB092BD03F23791CC87F44350340CB77002A03D1434B3A331A7804E0002007F050FC7C3002780323602113405A016B788B4313436B70631CDA7FDE
:40194000384BD206D20E4033052A03D0062A04D0042A04D12D221A7006E00022FBE71922F9E7192340352B70A31DDB7F002B09D09A0000232B4DE018806A591904338864BC
:401980009A42F8D1234B1B78012B2BD1254B34331B78022B26D1254B44331B78012B33D0002B01D0022B1DD1022307AA13700F230020137308211E4B1071906007F002FFDF
:4019C0001A4B002807D009DB0E38C0B2012805D84433022204E04433012201E0032244331A7011E0443423780C21093B5A1E93410D4A0020413213700E4B0F4A07F0E2FE0A
:401A0000431E984140420640014B1E70BAE5C046080A00201C11002000FFFFFF180A0020200A00202C060020A805002044010020313E01005947010060060020874B19789F
:401A4000874B0800421E90411A0030321070854ADA66854A108A002910D00521002814D082493B35D96001215970002168331970019B0731C2331B782B7006E005210028DD
:401A800003D1043968331970063100231170537078E5734B627868331B7800209B009B18734A9B00D3181B6E984720700638012800D967E50023637064E5002002F09AFB15
:401AC00001233E352B705DE5039B188976E51868904200D08CE5043386E5282103F082FF00287ED1604B1B78072B7AD15C4A130068331B78002B74D04C342378DBB2002B8B
:401B00006FD1110030310C7801210E00D569D8B2844213D92800D84030420DD098008018006A0778012F06D10530C77F784278414042014000E000210133E8E7002900D068
:401B400072E54EE02B004D33197801238B4289412320494203F09EFF464B1B78002B00D168E50021232003F083FF63E5424B1B78FF2B00D064E5414B1B78052B00D05FE537
:401B80003F4B1B78002B00D05AE53E4E3378002B00D055E527E03C4B9A6C002A00D15BE5344A4D331B781278DBB2002A00D153E5364C374A012B01D9364B00E0364BA367C3
:401BC0000520E26704F0D2FAA26F344B0F211340A367232003F04CFF3EE5FF204000FFF785F900242DE507F0A3FA002800D127E56B7A002B09D02A4B4E341B6C22889BB2F6
:401C0000934202D0322004F0B1FA33780124002B22D10124234B1978234B8A00D258536E234219D118234B432049CB181B79022B12D11F4953582343535007F00AFA0421D3
:401C40001C4B1D4A1B889BB213601C4A13680B43136030BF07F001FA2500F3E41C1100202C060020280A0020080A00200C0A002060F4010062080020B2000020B3000020D7
:401C8000A4050020A006002044010020FC000A40AFF44A01C2F14A41C2F14A40FFFFFFBF00000340BE02002060F6010090090020880E000052F2FF0F0400034010ED00E086
:401CC0007423F7B5002543430F4C104EE31830331B7801932B00019FECB2BC4210D2375C002F03D00A4FEB00DB1901E0002B05D01F888F4202D19F78974203D00135EAE7AC
:401D0000FF2000E02000FEBD2C0600201C1100208CF601007422424370B5154DAA18130030331978546993699C430023D36101228B421BD22600DE40164215D00D4A9B00FD
:401D40009B1874225043002428180125A2009A5A002A04D02A00A240C6693243C2610134A142F3D8012002E00133E1E7002070BD2C0600208CF60100742330B50024584357
:401D80000D4B1818C36E1C60C56870300078021D1F205200AA189288197107215A801A785C7182431C3802431A705A788A4387390A435A7030BDC0462C0600207423F7B54C
:401DC000060000251D2743430193019B164AD018030030331B78AB4220D93B0073435B1908339B009C58002C15D0104B9B5D002B01D1013300E004231F222370237A30002B
:401E000093431A3A13432372E36998473022002120000DF086FA0135EDB2D6E7742200210DF07FFA0520FEBD2C0600201C11002074235843244B70B518180023C46E1600B3
:401E4000227163718B680D0023609300CB18DA68002A0BD08A19117E002907D020006171127ED968920008300DF052FAEB1CDB7F002B26D1802207216378524213436370CE
:401E80006B790B401A0063788B43134363701F232A7A1340062B0AD1AB1CDB7F002B06D06B7A0B401A0063788B4313436370002E07D00721AB790B401A0063788B431343CF
:401EC0006370012070BDC0462C0600207423F0B54343304A85B0D218D26E0700019209220026039202932B4A029BD318190030310978B1424BD9DB690121F3400B4243D0B1
:401F00001D237B439B1908339B009D582B78042B3AD10522019B06311B79EB185A70019B5B780B401A006B7A8B4313436B72019B1B79002B01D1083303936B89EA79A4B287
:401F40001B04E4B212021C431443FE220021039B94435B001C43104BFD3ADB5D944313401C430C4A029B3800D31859661C66029B063160339A1805F0A1FD05232B70EB6905
:401F8000002B01D0380098470136F6B2ABE7072005B0F0BD2C0600201C11002074210A00F0B54243604B89B09B18DB6E060001930023059303930733049300230127029330
:401FC00007910692069B58490298CA18130030331B78834200D8A4E0D3690298C3403B4200D199E01D2373431B1808339B005C58E369002B00D194E02378042B00D08BE0B5
:402000000720019B1B79E3185F70019BD16E1B799C464B7803401A00637A8343134363724A79002A11D0634602339B00E318586800280AD06346E3181A764A7923799342D4
:4020400003D3920008310DF063F9019B1B79002B50D1E36930009847019B5B78DB095BD0019B1A781F231340042B09D1503373432E4AD3183D331F70631CDF77022303931A
:40208000019B1A781F231340052B04D10022631CDA7703230393631DDA7F002A06D0A26A05920022DA770C23039302E0039B002B32D06389E279ADB21B04EDB212021D4371
:4020C0001543FE22039B95435B001D43184BBD439B5D15493B401D43069B059ACB181D665A66079B300073436033CA18062105F0E5FC11E0E3780222032B03D06378032BC9
:4021000007D1002221003000FFF792FE0623049302E0E36930009847029B0133DBB2029350E7049809B0F0BD2C060020A80500201C11002074230722F0B5050043432B49D5
:4021400085B0CC18E270E26803930192230070331A780198131D5B00C3189F88002F24D0234B5E5D3000431E9841C3B221480293844600230298834231D201236745F9D1F1
:40218000742200246A4333401B4E88183343603203668A1844660621280005F08FFC28002100FFF7E9FD06201EE063690520002B1AD0012608220E4B67665B5D2800334097
:4021C0001343039A236660328A18062105F076FC68342800FFF79EFD2670072004E02300013270331A70B1E705B0F0BD2C0600201C11002001FF00000C0001FFF8B574263C
:402200004643104A0C279619F36E5C88B378002900D1377C7F251B0224043D401C430A4B6D002C431D5C01232B401C4374234343D518603369662C66D218062105F03EFC21
:40224000F8BDC0462C0600201C11002070B50500042913D100220A4B84001A5481235B041943084B084AE358A1501600002B00D0984732190721280005F020FC70BDC04661
:40228000900100208C0100209401002010B5052905D100223B4B1A5404F032FB41E03A4B1A5C00239A426BD099423CD1354B1954364B1A5C002A34D1354A364C81008C505C
:4022C00001221A5400280AD1334A344B916823300B40C02109010B4393600F2109E0304A304B916834200B40C021C9010B430F21936003F0BDFB80202B4B2C4A40009A6751
:402300002B4A2C49DA6718659A6D02439A650868294A0240294802430A60996F284A0A409A6701232CE004292AD80123154AC9B21354244A115480201B4A8005946F044236
:40234000EFD102290CD0032910D0994218D1946F1D4B23409367936F184390670B000FE0946F194921408024240504E0946F164921408024640521439167916F08439067CB
:40238000180010BD900100201C11002062080020640800204D22010000020440FFF1FFFF00030440FF8FFFFFFC000A40C2F14A40AFF44A0100000A40F7FFFF9F0800004016
:4023C000FFFFFFBF91010020FFFFFFE75C23434310B5074AD3189A1C42331B78002B06D0D18F023B194103231940FFF74FFF10BDA806002089B210B504290FD15C2343435F
:40240000074AD3185A1CD27F002A07D042331A78002A03D0023A1A70FFF7D8FF10BDC046A80600205C23434370B5204DEB189A1C42331C78062C37D8D38F0322C90911401C
:40244000022909D091420DD0013A01291FD19900130089B20B4302E09B009BB21343A21CD2B216E0002C06D01E00A21E164122003140012905D102229B009BB21343A218E0
:40248000D2B29B0099B2032302320B43E8E7012300245C2141436D18A91C4235CB872A70002C01D1FFF792FF70BDC046A80600205C2343430C4A10B5D0184C1C03D1002358
:4024C000037643760EE0012302000163037654321278002A07D00200816543764C321278022A00D1837610BDA806002070B55C2444430F4B00251C1923003C331D70DD7022
:40250000A31CDD8740331D700E3BA56365641D702900FFF7CDFF23004A331D70013B1D702565013B54341D701D71257070BDC046A806002010B50400FFF7D8FF0022074BE7
:4025400020001A5504F0DCF9002C01D1044B1C605C2307225C43034BE25410BD900100208C010020A80600205C235843064B181803003E303D3302781B78012013400B422C
:4025800001D1484248417047A8060020F7B55C214143174C6218130034331E78002E26D01F250023354093601572FF2501276D4255814C3212780092321FD2B297429241B1
:4025C000524201926A4665181279ED182A7603226A70002B02D0102E00D16F700133009ADBB29A42EED25C235843593B2354F7BDA8060020F0B50A7A87B0D2060190D70E21
:4026000048894A7A8B68520702906148520F140203402343039018040FD5032F01DC0026B3E07420019C019D60435A4C20185A4C3030665D741EA64106707420019C604327
:40264000844654481402604430300078049405900020059DC4B2A542E1D986004D4C66443419246A002C70D06689029DAE426CD16679964204D1601CC67F002E12D1CEE77E
:40268000A61CF67F002EF6D1E61CF67F002E5CD0039D2B40049D2B437F251E04360EAE4353D1E8E71F2083433B4307273A401502AC46039D2B4065462B43029D9BB22D04A0
:4026C0002B43A3604D781840AC4601256D42AC4465462576062809D1A01CC07F002805D01B0403D5637ABB431A4362724A78012A0AD9237901339A4206D8284B0C31D21858
:402700009200E0680CF004FE012301982370E36998472378052B82D05420019D204B4543ED18637ADB0901D1A3682B612A00237E2C3201331370227E002A26D0280092009B
:40274000E16814300CF0E4FD1FE01F25AB43039D3B432B40049D134E2B43134D1E40AE4211D16689029DAE420DD1661CF67F002E09D01F22237A01989343183A1343237251
:40278000E369984701E0013063E7300007B0F0BDFFF8FFFF2C0600201C110020FFFFFF3FA80500201F8700000587000073B504000D0005293ED806F0C9FD0600002C11D0E3
:4027C000502363431C4AD318AD33FF331B685B0330D50122A41801ABE0B2B8211A7005F0EDF827E0002D05D0144AC30112782B439342E5D0002301AA13703301DBB2042D2D
:40280000DED828000CF096FD03DC05090700032104E0202102E0402100E060210B431000537006F0D7F90028CAD0F601034B35431D7000E0002076BDC40200200C0700200B
:402840005C224243F8B54F4E0400B31819004B310F783500012F0ED10220591DCF7726310870196B0902080A996A090E090601439962975585E03032B15C0322186B89072E
:40288000904302000020890F0A435A649863D2B26030024205D0520666D5012248331A7062E018003C30007800280BD1012962DDD20603D54A331B78FF2B1DD15C236343F5
:4028C000EB1817E001294FDD10210A4008D019003F310978002903D14A331B78FF2B0BD15C236343EB1819003F310978002942D0002A40D149331B785C226243AA1811006B
:4029000039310B70112334321370002220001100FFF74CFF5C236343EB1819009A6B3831002A19D03C200A7882433838024301388243013802430A701A0054321278002A9D
:402940000AD01A004D321178143A12780A4203D1052234331A7014E05C236343ED18A96B2000FFF7A5FD0CE05C2311226343EB1834331A70C9E75C235C4300232D19343589
:402980002B70F8BDA80600205C231A0070B542437D4D0400505D0138062800D9F3E00CF08BFBB104F21CCCF2E20063437749EA18D16201211171190030316918D1601100C7
:4029C000042634310E700021101DC17758337049ED18D16115615561D2E06343EE183000327A3430D206D20ED1B202700122EA54052900D1A8E002D8042905D0C3E01029B2
:402A000018D011291CD0BEE000212000FFF73EFC0023B21C4236D38733709C4202D15D4A5D4B1A605C236343ED18102334352B700121A2E020004B36FFF702FF337879E0F8
:402A400033004B331B78012B0CD1721DD377330002222B331A70B36AFF321B0E1B06FF321343B3625C236343EB181A0039321278082A16D004D8002A1ED0042A05D020E077
:402A8000102A02D0202A0CD01BE05C236343EB18190001203C31087000213F331970043110E05C236343EB18180001213C303F3301701970023105E019003F333C310A709D
:402AC0001A7002215C266643AE193300353319702000FFF76BFEB16B002900D0716C2000FFF7A0FC5C2301226343EA54ED182B0048331A78002A46D0052234352A700022A1
:402B00001A703DE01F226343EB18197A0A40062A39D11A003C321278002A03D0196B2000FFF780FC2000FFF78BFE5C236343ED184B352B78012B23D125E06343EA183432A9
:402B40001178081F012803D82000FFF7F3FC1AE01039012902D80523137011E0002111700122EA540FE06343ED182B00112234331A700123002148352B702000FFF798FCC6
:402B80002000FFF703FD70BDA80600201D3F010089290100F52301008C010020FF23F7B58B700023CD7A07000C0000939D4200D009E10B780193012B1FD15B334343834EA4
:402BC00030229B191800290000930CF0AAFBA5703800FFF78BFC009B01964B331D70E3689B68002B66D01A68002A63D01A78072313405FD10A2222745AE0019B0095022B2C
:402C000000D0E0E08B794E798D701E43CB78072B36D03100FFF7A8FC00282FD00C231E422CD05C257D43694B5D192B004C3300930123009A13700322AA702A005432137088
:402C40002B004D331E702B6D9B681B68002B11D0380006F0B9FA7B300378042B0AD12B6D9B681B781B0705D503236A46EB701279009B1A700723E370237401E00723E37063
:402C80005C237B43514A9B1812E01A003E32117808224A33114243D105225C237B434B49CB1834331A70052A50D10B2323740023009388E05C237B43019AA168D3181D008E
:402CC00000224935C9B2667AA07A2A706A70CA07E2D5F0227A433E4DAA18C03215781A003D3215703E334A0601D5187000E01E7004213800FFF738FC344E002805D05C2308
:402D00007B43F318493304220AE010213800FFF72BFC5C237B43F3180028B6D0102249335C257D4375191A702B003E331A7808234A351A4207D120213800FFF715FC2023EC
:402D4000002800D1FF232B700422A6E7380006F03BFA7B300378E268042B0FD100211D480B0008335B00D3189B88002B27D0834202D00131C9B2F3E70123E3705C207843E5
:402D8000019B00211B181A651A004C321170190001245D1D0E3A3D3112780978EC7726352C7011409A6A1C71120E12060A439A620223019A13543800FFF7E6FD03E0072310
:402DC000E3702374DAE70098FEBDC046A8060020000A010001FF00007423F0B585B00191190041432C4A04005718F86E0025009002200393019B8854AB423DD00723FB7093
:402E000039002000FFF7CAFE061E1DD1039B224A6343D31802939A78009B20005988FEF74FFFFF2815D01D2363431B181A4A08339B009E5001238340029A51699943516130
:402E40000722029BDA7004E0019B002B01D16B1C8371039B104E6343F618337C1036002B05D000212000FFF7C9F900233370019B002B0FD10135EDB2009B5B79AB4209D92C
:402E8000039B054A63430099D318AA1C920052585A60B5E705B0F0BD2C06002070B57423040063430948C318DB6E05001979012902D12000FFF790FF7420604328187030C4
:402EC000037801330370072070BDC0462C060020F0B574254543454A85B05519EE6E040033790292002B69D1303571882A78404893426FD0814202D00133DBB2F8E7FF2B0C
:402F000068D074230122634302990393CA54002201927379019A934247D9029B039A20009F18019B390002339B009B59BB60FFF735FEBB780500FF2B32D03B7C002B05D070
:402F400000212000FFF75AF900233B74002D27D0029B039A6F1D9B189B78EB71019B01336B71FB7F002B05D0A96A2000FFF746F90023FB77039A1D4B71889F18BA782000BF
:402F8000FEF79EFEFF280BD01D2363431B18174A08339B00D550012383407A6913437B61019B0133DBB20193B3E7742363430F4A0121D318DB78072B0CD006E00021FFF781
:402FC0000BFFEB78072B05D002212000FEF7D4FE062008E0742307205C43044B1C19703423780133237005B0F0BDC0462C06002001FF00007423F7B506000027434300931B
:403000005548009BC3181A00303211780200B94200D89FE0D96901240B00FB40234200D195E01D237343DB1908339B00C45820780138062800D98AE00CF03EF85E8904048D
:4030400089863E001F23227A1A40042A09D1353373434248C3183B331B7801203B41034275D1A3780125032B04D0E578033D684268414500043A012A0BD8231DDB7F002B8E
:4030800007D00123BB40994303D10A003000FFF78DFB631CDB7F002B05D1227A1F3313400620042B57D12A0021003000FEF7C0FE0423062023704EE0294B9B5D002B46D031
:4030C000009BD2180123BB409943D1610021217091690B439361D269002A38D1542373431E493000CB183D331A700221FFF75EFB3000FEF70FFE2AE0631D0193DB7F002BDA
:4031000025D06389E079A16AACB21B04E5B21D43FE230002054301209D43E63B1D43104B85439B5D03401D43009B3000D31859661D66742373436033D218062104F0BEFC94
:403140000023019AD37702E0E369300098470137FFB255E70720FEBD2C060020A80500201C110020F0B5BC4E8BB07078BB4C03090493049B3578002B00D0F3E1228CEBB2B5
:40318000D2B22C2B00D127E112D8082B54D005D8062B2BD0072B2CD000F008FE0B2B7DD00C2B00D19BE00A2B01D000F0FFFD5FE0302B00D189E108D82E2B00D17EE10A2588
:4031C00055342E2B00D8BDE1C7E1332B00D1A7E13B2B00D1B5E1312B01D000F0E7FD2300B27859331A705634217895E1B07800F0D4FD994B05259B784A2B03D1984804F027
:40320000D9FD0500944B9B78412B00D0A0E1954A1378012B05D153681089403B181A924C02E05068914C403802F0D0FC002801D000F0B6FD200088E1012A01D800F0B6FD40
:40324000B3780525522B00D087E1F378002B04D00498012B00D178E17FE1032004F04EFB0334072004F068FBE07F05F071FC07E0B178221D0123502904D10534D377E37714
:4032800002256AE1D27F05251A4200D165E10023221D6419D377E377033D5EE1714BB6781B78049DB34217D0012E04D00725022E12D16F4800E06F4802F088FC002801D0B3
:4032C00000F051FD012E01D000F043FD042205000634E37F9343E3770235EDB23DE10525032A00D839E15C4B9B78462B00D034E1594BDB78012B44D1574B0E205D791B79AA
:403300002D021D43231DDB7F002B3ED0554B59891A00A94238D89989A94202D2DB89AB4232D1554B9D422FD80AD11378022B05D04F4802F04BFC0023984210D14C4B0DE03F
:40334000FF235B009D420ED11378012B05D0494802F03CFC0023984201D1464BDB69C62201335200A350631DDB7F002B01D105200BE021002800B03102F0A2FB0028F6D137
:4033800003E00220052501E007200225324BDB78002B1CD1304B072559791B7909021943231DDB7F002B00D1D7E02E4B1B8A8B4200D3D2E0304B994200D9CEE020008022F7
:4033C000B030090252000BF0A3FF043DC5E0002801D000F0E8FCC0E0B3780925012B00D9BBE0264F3E7AF6B2002E00D0B4E0543403942278534000D142E71A403A723A7A40
:403400000124554255416D00234200D1A0E0387A204007D105F070FE039B1B781C43039B1C7095E02E21300002F0DCFA051E27D0752348373A782E2113403B70300002F002
:40344000F3FA3100300004F0EBFC2100300004F0E7FC2100300023E09C0100209C0200204C420000A00000203242000031420000C0FE0100C0FF0100FF0100009C050020B7
:4034800005F0A2FE873000782100002808D0BE4A0321280006F0D0F9002805D100F079FC02F0F2FD00F075FCB84BB84A1B7AA3431372137A002B4FD000F032FC2300B17829
:4034C000563319705934227826E0B3780925432B43D1AF4B1A78A31DDB7F012A03D15B070BD4AC4B02E01B070AD4AB4B5B681B021B0C1B020133FF3304E0A0235B0101E08F
:4035000081235B02B034C03307CB07C4250007CB07C506CB06C5B3E6049806F0DDF9AFE6B378522B04D1FA20800002F01FFEFAE70925502B11D1B11C802298480BF0E8FE5F
:403540000BE06334B37823709AE604F033FC0500002D00D1E4E300E01225002329001A001800DBE3049B581E238CC7B2DBB23800059305F029FE0390242D00D187E215D88A
:40358000052D00D167E106D8002D2DD0042D00D108E100F00EFC1C2D00D1C3E2202D00D161E3062D01D000F004FCADE12A2D00D191E30BD8282D00D182E3292D01D000F00F
:4035C000F8FB502078432418DA349DE3302D00D186E3312D00D188E32C2D00D0E9E3502078432418DD348FE3543423783B41DB0700D4DEE30C20F178B378090219439B09F2
:403600000A0A1B021343CDB29AB2054205D0032B01DC09247EE3043A92B28907890FCBB2032BF6D082235B009A42F2D808242C4003D19307EDD11C2AEBD8059B012B00D851
:40364000B7E32C20514B78431E0060368155002130180173E90601D41B210173002C49D02C211A004E4C7943200060325118FE003A022830B21882181000D930FF3000785F
:4036800048701000DC30FF30DB320078FF32127800021043032248801540039A01D1943200E096321278012AB3D92C227A439A186032D278D20907D0002D0CD1039A993255
:4036C0001278002AA5D106E0002DA2D1039A99321278002A9DD02C227A439B183A02B6188122A6199200B6189E66294BF83ADB19FF3A24E02C21680726D518007943603011
:40370000451896085B182E71254D9C66FB003C021C1910312835401829192C19DD31D934FF31FF340BF0F4FD2278194B052A04D0062A06D1DB19112201E01022DB199A746F
:403740001AE0DB19FF22FAE71D00794360356818960806710C205B189C660D4B1031DB1998743B026818F900C9180D4B591880239B00C9180BF0CCFD054BDB199B7CFF2B54
:4037800000D07FE115E3C046896001009C050020A0000020C0FF0100C0FE0100000001209C0200203B02F800C018802324189B00E4182268BB4B00209A420ED1221D1300D2
:4037C00001001868002804D00131C9B204330729F7D1380005F01CFD012000232360B24B99784B0600D114E7039B5A7A01235B4293400B405B0600D00BE7039B9D7A0028E7
:4038000002D18D4200D1D6E2380005F017FD039B72331B78002B00D1CDE2039B67331B78012B00D0C7E2A14B0022603319002C237B435A54CB181A711A739D4B3800DB19A7
:403840009A7404F095FA041E00D169E22900380005F0F4FC5EE23B02F800C018802324189B00E4182268934B00209A420ED1221D130001001868002804D00131C9B204337A
:403880000729F7D1380005F0E3FC012000232360854B99784B0600D1BBE6039BDA7A01235B4293400B405B0600D0B2E6039B1D7B002802D18D4200D17DE2380005F0DEFCC8
:4038C000039B75331B78002B00D174E2039B67331A78002A00D06EE2744B3800603319002C237B435A54CB181A711A73704B0132DB199A7404F03CFA041E00D110E2290008
:40390000380005F0BBFC05E2FF22694DEB199A74B278252A4BD810000BF0CEFB17171749493D3D2A363D3D3D3D3D3D3D134B3D3D93AE3D3D3D494949AEAEAEAE4E5C6A711F
:403940007E8801225C4B1A7396E05C4B0A24995C039B5B7B0B41DB0700D48EE0EB19584A3800D97405F068FF00285DD00D2484E0039B72331B78002BF8D0039B3800703313
:40398000197800F09BFA77E0039B38007033197803F006F870E02C20484B7843D91C8C5C4249233360319B5C4454E9198B740A2463E0EB190321D2E70024039B0994039A88
:4039C0005B7A203200929B0009AA1021049804F099FF52E001230993039B039ADB7A3C3200929B0009AA1021049804F08BFF1BE0039A039BD27A58335200132111E03B028B
:403A0000FA00D2188023A4189B00E218039B3800D97A05F03DFC2FE018221421039B6D33FF33049803F0CAFF002426E03B02F900C918802364189B00E118380006F010F8E7
:403A40001AE026005434237828363B410524DB0713D43A02FB009B18D933FF33F018837842780178C07804340090380005F026FC002802D1073C00E00224ED19AB7CFF2BEF
:403A800000D145E1380004F073F9040040E1059B032B17D818000BF019FB8E0138002B001E00C046504352539C0100209C050020A0000020504B4E531C060020E0F401008F
:403AC0005D60010050237B43BD4AE3185279D533FF3312061A6050237B43E318D533FF331A68120E1106B64A127912040A431A6050237B43E318D533FF331A68120C11049C
:403B0000AF4AD27812020A431A605020FF2378432418D534FF3422689A43A94B9B781343236048E125005434237828353B410524DB0700D4EEE0F278B078337912020243CD
:403B40001B0413431A00737974261B0613433902FA0052187E43D9329A48FF32AA58841994462200002140321278079006921A0C03921A04120E05920A00069DC8B2A842B3
:403B800013D2656A0120CD4005420CD0079D8A009219AA18126B03985589854203D1D5790598854203D00131E7E7002000E00120854CE55D002D2ED00124DEB226422AD0D9
:403BC000A643022E06D153347C43804B1C19473463469BE0062E1ED1002842D0D369002B3FD0531CDB7F002B3BD12300C9B28B40742519007D43734B38005D19EB6A0B4333
:403C0000EB62AB6A8B43AB62022378351370D36998472C70CFE0002823D0511CCC7F002C1FD0107801281CD1D907C90FC9B2A94217D18343DBB20A2B05D1D36A6146380080
:403C4000984704000AE0082B0BD1002D09D0013B1370D369002B04D038009847002C00D0A9E00D2456E05434237805243B41DB0750D5F378B07831791B02034309041A00CF
:403C80000B0071791343090619434F4B0A0EDB5D9A42E6D10B021B0E012B06D0022BE0D189B23800FEF7F2FA07E089B20429D8D8C9B200223800FEF779FD00287BD1D0E7FD
:403CC000502078432418B178D934FF342170380005F094FA6FE0502078432418DB3413E0502078432418E1340EE0502001237843B1782418E234FF344A0821701A401940F3
:403D0000380005F085FE56E0B378FF34237052E0002C05D0002321001A00049803F04EFE90220021520026480BF0FBFA0022284B28491A71284B0333DB7FCA542749C85C77
:403D400090423AD0CA54264A9B009B580122DA6633E00500022E01D0FFF7BEFA08220634E37F934312E0012E07D104220634E37F06251343E377FFF7AFFA0625022E01D024
:403D8000FFF7AAFA08226419E37F1343E377FFF7A3FA012003F0B2FD022003F0CDFDBFE70825FFF7DAFB0725FFF7D7FB0525FFF7D4FB0524AEE70224ACE70BB0F0BDC04615
:403DC0009C0100201C0600201C1100209C0500209C060020C90B00209C020020CD0B002060F601004823434330B5104C8A68E3181A624A789D1D013AEA770A780533DA7735
:403E00004B78012B0FD91222002350434A789A4209D9DA1C92005558C2180A3292000133A550DBB2F2E7012030BDC046080A002003290DD0074A042906D007490B5C013347
:403E4000DBB20B54022B01D9032300E0022313547047C04688010020A406002010B505F0B3F9D02370300178044A5B00D058002901D1800700E04007C00F10BD00000A40BB
:403E800010B50021040002F049FB00222000110002F0DEFA03009A2040006043044A10180B22FE30C08A50435843000A80B210BD2C07002010B502F073FD10BDD02310B5D4
:403EC0000A4A04005B00002902D1D158022001E00420D1580143D1502000012105F0CEFD0221200005F0CAFD10BDC04600000A4010B50400042905D1074B1B18597805F000
:403F0000F9FD08E0032906D105F05EF9024B9C301C190378637010BDA4060020F7B50F0E09020600090A012F0AD15C235E43264B01399E194B4259414F3631703D0040E0FD
:403F40000025022F3DD15C2444431F4B1C1923004F331B78AB4234D0062906D12300112238331A70E563290025E0062929D801238B4000936B461B7819000193FEF7F4FAC1
:403F8000051E1ED023003D331A7800990025914217D0220011213832117069460979E56319703C2113798B4338390B4301398B431F431771E16B3000FEF77AFA3000FEF7A0
:403FC000E5FA2800FEBDC046A4060020F7B50F0015001E00040005F0F7F8012341790200194009068C4629001940890680790191614618404006084307210F4001993F07BC
:40400000014300203943854200D1300003401248DB0601401943114BA400E5581048AD05AD0DAB02014019430E4B890AE35889029B059B0D1943080104D49D4202DD890AEA
:404040008902294394321378012B02D980231B0419430800FEBDC046FFFFFFF718070020FF03F0FF24070020F0B585B00D000600039204F0EEFFF0237343144A07009B1857
:404080008A331A88124B6421D31828005C780BF05BF980B260430F4B4019984201DC00240D4D63B22A000021300002F025FB039A030001920122009200223000110002F0ED
:4040C0004DFA380004F0C9FF05B0F0BD200A0100000A01006319000064190000482358430C4B30B51818002402001F250A4B0462203243841378AB431D3D2B43451DE97741
:4041000007211370537806308B4387390B43C477537030BD080A002000FFFFFFF7B5160004000D00002102F0F9F92A0000213300200002F0E1FA060004F08BFF8023C0248F
:40414000174D9B00019064001E432F592E5101260A2002F00BF82B590A20DB0B2F519E4302F004F880220F4B52001A62196B114211D0002F0FDB9A6929599201920F090459
:4041800007D5022A07D180219A6A49000A439A6201E0012AF7D0019804F05FFF3000FEBD00000A40FC000A4070B5482444430E4B00251C192300060044331D705D709D70DD
:4041C00029001C22201D0BF0ACF8300004F0FCFF064BB8309D55064BE060282130009D5501F022FC70BDC046080A002088010020A4060020F8B5542545431F4B00265D199B
:404200002B002F003E331E7038373B780400B34230D0FFF7C9FF74236343184A3D35D31868331B78164A1B01D318DB683E702E7020009847200004F0C7FF72300378B34241
:404240000DD0200004F0C0FFA13002780221D2B2B24201D0320031002000FEF7A7FA200002F04EFB0023074A1355074A1355074AA400A350F8BDC046A80500202C0600200C
:40428000C0F4010090010020910100208C0100208B1E5A1E93410722F0B5D31A85B00D000400019305F00EFC224A234B1700E6006037BF199819795D405D02920393884252
:4042C00012D9200005F0F4FB7B5D01990133DBB220007B5505F036FC002820D000220421200005F0A9FA1AE0200004F06DFF030072331B78002B03D067300378002B08D1A5
:404300005423022163430D4AD3183C331A780A431A70200005F0B6FB2000FFF76BFF029B60339B19585D039B9E19735D181A05B0F0BDC046A406002044010020A805002089
:40434000F0B58FB015000400009104F03DFF0023009A0700501E0293252800D9B4E10AF0B5FE900077009000DA00DA00B301B301B301B30190008100B301B301E600B30122
:40438000B30100018300B301B30183000A013D013B01B30190002600B301B3014401B301B301B301B3015E00B301B3017601CA4ACA48CB4913600860CA49CB480860CB497A
:4043C0000B608021136809060B431360002C21D1032303AF38003C707B7004F0FBFB002818D0C34B68331C70C24B5A1C16000D3301933300013B1B7838003B7033787B708A
:4044000004F0E8FB002805D03300019A02331E009342EED154236343B74AD31883E0002202212000FEF7C2F9B14B6F37190069313A78095D914208D01900E00060310F18A9
:40444000BC4600276646B770475469331A553BE154236343A84AD318190000223E310A70393362E0012300E0002376371E003B780122002B03D0009F153F7A427A4117006B
:4044800001E000273E002000FFF7B4FE002E05D0002202212000FEF789F90AE0002F08D139003A002000FEF781F92921200001F0BBFA009B012B11D10023904A8C49E000B0
:4044C00082186031D75C002F04D00E18F65CB74200D8F9E00133082BF4D1E9E0009B032B01D01A2B12D154236343834AD3183C331B785BB2002B02DB200005F0EFFA002177
:404500007B4BE200603398188170D154009B122B00D0D9E0CCE054236343774A0121D3181A003932117000223E331A70CCE02B78032B00D0C8E02000FFF75CFE54236343DD
:404540006D4AD3181F0038373878002800D0BBE04822012162436A4E3E33915539701870B2E054236343644AD31841331B78002B00D0AEE0A8E05423634394375E4A3978B6
:40458000D3183A33012901D9012100E00021197002212B798B43012B00D095E0594B1B5D002B07D054236343D3183E331B78002B00D089E054236343D21817003837387822
:4045C000002800D080E04823012163434C4E3E3299553970107077E0022100E000212000FFF756FE02AD02906EE050236343464AD318B333FF3319780223194069D1EB7942
:40460000DA091DD01A205B061B0F01335843EA88D205D20D824213D9287803AA1070A87851800F310B40DB0075310B43D370304B50706C3393601B2377391373334B02E042
:40464000002312211A00200005F04CF841E06878012839D10222AB681B0E1A4002D113000F2121E000268446AA7A214913071B0E1209A7001343CA191667002B07D060468B
:40468000034204D1106F5B0801301067F5E70120703103AAC919002391600D2150801A301073173813705070200005F08BF80BE054236343104AD3183C331B785BB2002B99
:4046C00002DB200005F00AFA2A000099200003F0F5F90FB0F0BDC046000008407708008060000840000208400701008004020840A406002028F50100A80500204401002065
:40470000080A00201C110020C4020020F13E0100C82110B5002289000400FFF7FFFC002805D1200003F064FCFA22520009E0542308216343064AD3183C331A780A431A7075
:404740006422044B2E21200001F066FB10BDC046A80500206D490100F8B50B00040011007F4D042B00D099E0577A7B333E009E4300D189E0167A0B78B609F2B2002B10D1E1
:40478000784B7F069C4654231800604360443A300078BF0FB84200DD3800634363443A331870012A03D04823032A2AD04FE0742363436D4AD31840331B790A7ADB06D20616
:4047C000D80E9A420AD12000FFF70CFB482300226343EB185E7044331A70AEE048236343EB181A0000211F26443211700231597020331A78B2431043187007205A78824372
:404800003FE06343EA181000443001780131C9B20170092916D9002303701F20023353707233634350492032CB1840331B7903401900137883430B430721137053788B4349
:4048400053707AE00622EA5400232C326BE06343EB181A0000214432117002221F205A7072326243404920338A1840321279024011001A7882430A4307211A705A788A43D5
:4048800004390A435A7058E0FFF7ACFA482301226343EB185A7044331E704EE048224243AE1830001F21203007780F40062F10D1032B0BD1AF5C002F50D10931200001F093
:4048C000B3F8012373704436377036E0002B34D044E05F1E012F2BD84427BC46B444674661463F780137FFB20F70092F17D900220A701F2102327270723262431A4EB2185F
:40490000403212790A40160002788A433243027007224178134091430B4343700DE00623AB54002364222821200001F075FA15E0002B13D10633AB5410E048235C432B19E1
:4049400020331B78DB06DB0E012B03D0022B03D1032302E0022300E007232B55F8BDC046080A0020A80500202C060020C82170B5002289000400FFF7D1FB002824D15423B1
:4049800008216343144AD3183C331D780D4008D01A7820008A431A7003F02AFBFA22520013E07F22197820000A401A7005F096F82900200003F034FA2000012103F030FAC2
:4049C000200004F099FB05E06422044B2E21200001F022FA70BDC046A80500206D4901007047704770B554244443044D6359002B02D098470023635170BDC046A8050020D0
:404A0000002804D1DF23024A11680B401360704700020440002806D1034920300A688243D3B203430B6070470002044054235843014B1818C1867047A805002070B5040070
:404A400004F007FB002C3DD12049214A0B8E0D00934237D006D81F4A934212D01E4A934224D12FE01D4A93422CD01D4A1D4C1E4993420ED01D4A934218D1F7232268134033
:404A80000CE0082417490A68A243D3B223430B6013E008252268AA43D3B22B43236040240A68A243D3B223430B600BE0104B0D4A2B86F72311680B401360BF230A4A116865
:404AC0000B40136004F0C9FA70BDC046A8050020C832000028230000E02E0000384A0000204E00000001044000020440983A00008813000010B5040020221F2100F04CFF80
:404B00002000FFF76FFF2000012101F05BFA80212000C90404F0C0FF002218212000FFF70FFC10BD10B5041E01D104F0D5F880212000C90504F0B0FF002217212000FFF7C3
:404B4000FFFB10BDF8B554244443104B0E001C192186050004F038FB0700280001F094F8C823218E628E9B00914205D39E4208D0280001F071F804E09E4202D0380072302B
:404B800003782800FFF75AFFF8BDC046A8050020542343430A4A70B5D318998604000D00FFF72EFFF0236343064AD318A8331B78DB0704D5044A29002000FFF755FA70BDA1
:404BC000A8050020000A0100254B010070B50400150004F093FB54236343074A0321D318002800D00421197354216143083151182000A84770BDC046A8050020F0B591B0D6
:404C0000009001910E9204F0DFFA019B06905B780C93019B1B899B059B0D099303002C33FF331B78DB06DB0F0D930023089307930593069B059A7F331B78934200D89FE1E9
:404C4000002302936B461B7A0A930A9A0C9B934200D891E1009804F0B7FA059C05004A34A40003190393DE78019AB3090393059B7C335B00C3189888029B800502339B009E
:404C8000D118CA78860D9209012A00D17BE0002A03D0022A00D1DAE06BE1019A142198580003830D1800133004930AF04DFB049B1F1A1818039B012B2FD0002B02D0022BC2
:404CC00008D056E16359049A1B039B0D9A4200D04FE10CE063591B039B0D9F4200D248E12B195B889B049B0D984200D941E1635B31009B059B0D9E4200D21900029A0198E5
:404D000002329200125A9205920D914200D930E1009AC949920053500DE163591B039B0D9F4200D225E12B195B889B049B0D984200D91EE1FA23605B5B008005800D584344
:404D400001383900C0190AF0FFFA0400FA20400070437B1EC01839000AF0F6FA22000600844200D20200029B019902339B005B5A9B059B0D9A4200D9FBE0009BAE4A9B00CC
:404D80009C500497D7E0019A4F889B58039ABF041B03BF0D9B0D012A36D0022A00D0E8E062591203920D934200D2E2E02B195B889B049B0D9F4200D9DBE0FA21605B49008F
:404DC0008005800D7843F430FF300AF0BDFA04003000FA217843F430FF3049000AF0B4FA22000600844200D20200029B019902339B005B5A9B059B0D9A4200D9B9E0009BE5
:404E00008D4A9B009C50F2E062591203920D934200D2AEE02B195B889B049B0D9F4200D9A7E0635B31009B059B0D9E4200D21900029A019802329200125A9205920D91427D
:404E400000D996E0009A7C4992005350CFE04A889204920D0492019A9858039B0003870D012B32D0022B00D083E063591B039B0D9F4200D27DE02B195B88049A9B049B0D17
:404E80009A4276D8645B3200A405A40DA64200D22200029B019902339B005B5A9B059B0D9A4266D83800FA216043009B624D9B00F4300393FF30EB1849000F930AF044FA99
:404EC0000F9B5860039B5C519AE063591B039B0D9F424ED32B195B88049A9B049B0D9A4247D8FA20645B4000A405A30D58437D1E3900401903930AF027FA0400FA204000B7
:404F00007043390040190AF01FFA22000600844200D20200029B019902339B005B5A9B059B0D9A4225D8009A434B9200039899184860D45064E0009A3F4B92000499D058E9
:404F40009C18A1604843FA21F430FF3049000AF0FBF9E6606060009B374A9B00D3185C68079AA24205D80D9A002A51D09B68642B4ED1029B013364E6059B0133DBB257E622
:404F8000089B002B25D1FA21069E2B4DFC36F36A49001803009B800D9C00B38D2F199B059B0DB8605843F4306351FF3001930AF0CBF9019B099A7860934200D962510122C8
:404FC00033882C19E360110000230098FEF7FEFF0B905423009A194953430B98CA1808339060591800980E9B984711B0F0BD009B114A990053188A589F60DE605A60AAE7F9
:40500000009B0D4A9B00D318049ADE609A60A2E7059B069A7C335B00D3180A999B880131DB0BC9B200220098FEF7D0FF01230B90079408939DE7C04618070020A805002002
:40504000F7B504000D0004F004F8F0236343214A0600D318A8331B78DB0707D500212000019100910B000A0001F078FA002C01D103F032FE2000FFF7C3FC272226212000C0
:4050800000F08AFC144F002D1AD0200004F09CF887300378002B13D02000FFF7BBFC54236343FB185D600D4DFA222B002621200000F0B2FE2B0001222721200000F0ACFE66
:4050C00054235C43064B3C193000A38603F0C5FFF7BDC046000A0100A80500208154010088130000F7B50E0024221E21040000F053FC542363431F4D1F49EB185B8E8B42B5
:4051000007D82000002100F05DFF142001F02EF802E02000FFF716FD03F09BFF5423C822634392001F00EB1801905A86002E19D0200004F049F887300378002B12D0200029
:40514000FFF768FC9622EE510C4D92002B002121200000F061FE2B0003222221200000F05BFE03E00121200000F02CFF019803F074FFF7BDA8050020881300005D5301000F
:40518000542343430B4A10B5D318C822040092001A86FFF753FC2000012100F013FF002220001721FFF7CCF803492000FFF79AFF10BDC046A8050020E3490100F8B50D008E
:4051C000040004F001F8070003F043FF242206001E21200000F0E0FB3B0087331B78002B6ED03B00A1331B78002B69D176373B78F0236343344A20339B181A000220883281
:40520000127802420ED0314FA200BC466146304F8C33D1511B882C4A9B189A782D4B1A5503F04CFC2000FFF7EBFB542363432A4FFB183F331A78002A20D101321A70002CEA
:405240001CD103F049FD0A2000F090FFE4212348234A007849005358002803D18020C001034301E01F4803405350E82302205B00D1580143D150D1588143D150002D1FD005
:4052800054236343FB181A00012142321170598E1B8E994204D9002320001370FFF7BAFB54236343FD50104DFA222B001E21200000F0B2FD2B0001221F21200000F0ACFD81
:4052C000300003F0CAFEF8BD000A0100F54A0100680800206C080020A80500206108002000000A40FFBFFFFF5D53010070B5050003F0AFFE04002800FFF782FB280003F00E
:4053000063FF87300378002B1FD0280003F05CFFA1300378002B18D1002D16D1E4220D4B52000D4998580E7801002035A943002E01D1290001439950E62202205200995854
:4053400001439950995881439950200003F085FE70BDC04600000A40B90000201E3970B504000800062900D982E009F0A5FE04113C515A81770020221F21200000F00CFB5B
:40538000542363433B4AD318C82292005A8643E054226243374B384D9A181100423109781E00002908D154236343F3181A0042321278002A0CD012E0118E14222000524227
:4053C000FEF7ACFE0028EED02B000A22202141E0198E14222000FEF7A1FE0028F4D02B0001221F2136E0542565431E21200000F01BFB204B20005D192B8E6B864235FFF7B0
:40540000FFFA2B78002B30D1200000F025FC2CE02221200000F008FB0121200000F0D2FD26E016490A222000FEF778FE011E02D1200000F0C7FD1422C821524289002000D2
:40544000FEF76CFE0C4B002802D10A22242101E003222221200000F0DFFC09E02000212100F0E2FA2000FFF7CBFA2000FFF7BAFA70BDC046A80500205D53010088130000CE
:4054800070B504000D00262902D0272907D021E0272100F0C9FA2000FFF7B2FA1AE000220D49FEF73BFE00280ED12621200000F0BBFA2000FFF7A4FA54236343074A2000BB
:4054C000D3185B68984705E0054B01222900200000F0A2FC70BDC04688130000A8050020815401000122014B1A707047C80B00200C2359436933FF334343C9180C4B0D4A2E
:405500005918FF238B72135C013BDBB213540A4A1378013BDBB213701378002B07D1074B1B78002B03D18022054B52001A607047500A00204C0100204D0100202807002086
:4055400080E100E0542370B5032543430A000349CC18083325735918904770BDA8050020F0B585B00E000400039203F02DFE94300378A94D009354236343EB181A0000218F
:405580002D3211703089A549014080200002814200D027E1B2681A61727A3A335206920F1B78D0B2191C834200D9111C54236343EB181A003A321170CFB201210E3A117057
:4055C0003F22197C0A40802149420A431A74944A125D0192002A03D0009A012A00D8DEE07378012B00D0B0E0307AC006C00E0138052800D9A9E009F05FFD03385E9393A2F9
:40560000FF2372891B029A4200D09EE0854B1A5D002A00D199E05421834BA000C35861439C469300029300236D182C352A707A4D62465818D25840190261029A043328003C
:405640009A42F5D1002F06D154236343EB18D98A764A0A40DA8254236343C0183F23027C13404022134303746FE0FF2372891B029A426AD16E4B1B5D002B66D054216143F7
:405680006D182C356B4A2B70A0009B0087589C460022614D8818BB584019043203616245F8D154236343ED183F232A7C1340402213432B7449E0604A6300D25C042A44D94F
:4056C0005E4BA0007189C058C58803788D420ED154256543504A043B51199B102C310B70DBB201339B0002930021944605E0D21AD2B2C018002AE7D127E0029B04318B4251
:4057000004D06F1843586744FB60F6E754236343D2183F23117C0B4040210B43137414E050236343464AD318B333FF331B78DB070BD554236343ED182D35022304E0542320
:405740006343ED1801232D352B70009B012B39D9019B314D002B12D01F23327A1A40111F3533012929D9062A04D16343ED1801232D352B7031002000FCF73CFF22E03100CE
:405780002000FCF737FF00281CD054236343ED183F232A7C1340402213432B7412E01F22317A0A40062A07D138331B78012B03D131002000FCF71EFF54236343ED180123E3
:4057C0002D352B7054236343134A6020D31819003A331A78032313405A014B7C834313434B740FE0022313704E3363431449CB18B333FF331B78DB0704D4009B012B01D935
:4058000003231370542363430349103359182000039B984705B0F0BDA8050020C080FFFF1C11002072010020740100207FFCFFFF780100207C01002080010020840100202E
:40584000C402002010B50C0003F0BEFC0423032C01D8054B1B5D94300278012A02D8102B00D10C3B180010BD34F5010070B504000D0003F0A9FCC17906008906890F2000D3
:40588000FFF7E0FF042801D0102804D17D363378012B00D10320542363430449CA180833107359182000A84770BDC046A8050020F7B50500019103F087FC070067373B78F0
:4058C0000400012B01D1867A00E0067B280003F07BFC943003780420012B03D92378022B00D00C3023006A331B78002B0ED12378022B0BD176B2002E02DA3B78002B05D18D
:40590000E17928000907890FFFF79CFF54236B430449CA180833107359182800019B9847F7BDC046A805002070B504000D0003F04BFC542262430C498A183D3213780E0075
:405940000122002B06D1C179033319402000FFF779FF020054236343F11808330A732000F118A84770BDC046A8050020F0235843014B2030C0187047000A010000487047D0
:40598000000A0100002310B59200934203D0CC58C4500433F9E710BDF7B505000F00009203F057FBBA23060000245B006B4301930C236343019AE1B29B18094AD3189B7A5A
:4059C000DBB2BB4205D3009A934202D82800FFF78FFD01341F2CEBD1300003F03EFBF7BD500A002030B50023FF2911D0BA220C2552005043074C2A005A431218A218927A7F
:405A0000914204D001331F2BF5D1002300E00123180030BD500A002010B5914203D2FF2A01D0FFF7B9FF10BDF8B504000D0003F010FB0600FF2D11D00C22BA20002394461F
:405A400040006043094F62465A431218BA18927AD9B2954206D001331F2BF4D1300003F0FCFAF8BD2000FFF743FDF7E7500A0020074A03099B00D3180F2210408000824001
:405A8000814010B55C68236893431943216010BD34F501000F2203099B001040074A002905D0D158012383400A68134304E0D158012282400B6893430B60704770F6010054
:405AC00030B53024174B9A6AA243203C22430C009A62154A083C2260FF2204390A60134A134994605160C046C046C04695682D0F29070A2D0FD10F4D0004284320600E48DB
:405B000094605060C046C046C04692680020120F12078A4200D00C2030219A6A8A439A6230BDC04600000340B6D700000000104004000080B6D8000005000080842210B560
:405B4000C2B0040052000021684609F0EAFB074B1B78002B01D1052005E002A92000FFF7AFFF0028F7D142B010BDC046C0020020144B020030B506209A4222D85378117828
:405B8000114C1B020B43A3421BD11000D1799379090219430A30147A0A39031E0DD000231000994209D0851A8D4204D2857A01305B19DBB2F7E75B42DBB206209C4200D13D
:405BC000002030BDFFFF0100594300000200F8B5817A447AD37A090221431B040B431900137B06201B060B4332D09479517924020C432402611CFF31CD18AC46154DAC45E5
:405C000026D89678557836022E43D5782D0435432E0015792D063543A94219D8AC4517D915780A1E0CD000220133FF331B19994204D0087801311218D2B2F8E75242D2B275
:405C40000620954204D180239B00E018FFF790FFF8BDC046FFFF0100F023434310B5074AD318A8331B78DB0707D554234343044AD318198E034AFEF7F7F910BD000A010030
:405C8000A805002081510100F023434370B5084A0400D318A8331B789B0708D50025054BA4001D54280002F009FF034BE55070BD000A01006C0800206808002070B5074D54
:405CC000074A2B6C11889BB2040016008B4202D0642000F04BFA2C64348070BD00000340920100200122F0B5434B444C85B062641A7002940393029B414EDB6B328899B2EF
:405D000092B21B041B0C914202D8802040021B1800259B1A9BB2019331800C226A43394B9918897A1F00C9B2FF2926D09858844601980530844503D99858019C001B00E02B
:405D4000002098500C226A439858002815D1BB18FF229A722C4A944664461278013AD2B222702A4A944664461278013AD2B222705A68002A01D05B68984701351F2DCCD11C
:405D8000224D2B78DBB2002B1DD0002320480C225A43B918897AFF2903D0B958814200D2B85801331F2BF2D1029A3388D26B9BB291B21204120C8B4202D3802149025218C0
:405DC000D31A9BB200E012480533834293D8039B80B258800A4B1B88C01880B2FFF76EFF0023039A13702B78002B03D18022094B52001A6005B0F0BD28070020000003401F
:405E0000C60B0020500A00204C0100204D010020C0FF000080E100E0F0B585B007000C00160001930020FF2900D19BE0824200D198E003F00EF9BA25FF226D000092F33ABE
:405E400094462A001E237A43029003922A0060467A435843444982188A18927AFF2A01D1DAB200920C225A430398121889188A7A94420CD13D4ADBB20093D35D013BDBB25B
:405E8000D3553B4A1378013BDBB2137005E0013BDCD2009B0025FF2B60D00C22009B324D5A43BA235B007B430199D218AB181E8159609C722F4B30491B882D4C5E43565196
:405EC0000B782E000191002B3ED12C4BDB6B207899B2002826D02A4A1B0412881B0C92B2914202D8802149025B189B1A0C2200999BB24A431100BA2252007A438A18B158C6
:405F00005B18B3501C4BB058598888421CD2B25892B25A801A4A10885B88C01880B2FFF7CDFE11E0164B19805059164B984200D91800019B80B25880081880B2FFF7BEFEA7
:405F40008022114B52001A600125084AD35D0133DBB2D35523780133DBB22370029803F07CF8280005B0F0BD500A00204C0100204D010020C40B0020280700200000034076
:405F8000C60B0020C0FF000000E100E0012110B5074B11205B685B089943FFF77BFDFA22044B9200C0210020FFF736FF10BDC046000104408D5F010010B50023FFF72CFF5F
:405FC00010BD00005423434337B51E4A0400D31800223F331A7090421BD1E4201A4D1B4B2D7840001A58002D02D1194D2A4002E08025ED012A431A50E82252009D581548C6
:406000002840022598509858284398509858A8439850002902D02000FEF7F2FCF02363430D4AD318A8331B78DB0707D500212000019100910B000A0000F090FA2000FFF7B5
:4060400023FE37BDA80500206108002000000A40FFBFFFFFFEF7FFFF000A010070B5094C0500225C0B00052A09D00221012B00D00B310023681CC0B21A0001F09FFC05235F
:40608000635570BDB300002010B5040002F0E1FF0123A340DB430D495BB20A781A400A700B4A2C32147823400C781370E4B2002C08D102F0D2FF230022000221200001F02F
:4060C0007DFC01E002F0C9FF10BDC046A4050020C4020020F8B5050002F0BBFF0C236B431F4F0600FA18D188380089B21D4C002920D0002D08D12200DB597E3219781170DD
:406100005A7823007F331A700C226A4381588218CB7889781B020B4304339BB213810123AB40A2791343A371FB230F4A11680B40136010E09288D85909F0F3F8002D05D1B5
:4061400023007E331D7023007F331D700122AA40A3799343A371300002F07FFFF8BDC046F0090020C402002000020440302310B5584302F065FF10BD034A044913689BB271
:406180000B4313607047C0460CED00E00400FA0510B509F091F803680C2B00D1FEE7034B034A1B685A60FFF7E7FFFEE7B40000200C3003C0F7B501224B4C4C4D23684C4E56
:4061C0009343236000234B489A002900032B00D8B15801338150222BF6D172B6FF22464B00271A60FF22454B12021A600322444B07261F60434B444D1A60444B21321A6096
:40620000434A444B1A600622434B1A60434A444B1A600C22434B1A609022434B12011A601222424B1A6002F014FF01902B68404AB3432B603F4B40491B78DBB213603F4A61
:406240001368B34313603E4B0A6818787F239A43034013430B60322002F0F2FE05222B683220B34313432B6002F0EAFE06222B68B34313432B60019802F0EFFE9E22BC2194
:40628000304BD2011A60304B304A89011A60304A116090212F4A09011A602F4A1160C0212E4A89001A602E4A1160E8212D4A49011A602D4A116080212C4A49001A602C4AD9
:4062C00011602C4A1A6003222B4B1F602B4B1A602B4B1F602B4B1A68BA4200D11A600122236813432360F7BD000010409161010000090100000000200000024000030240D0
:406300000001024000000440080F034008000440401AD800080104400002044081091700080204400003044008030440300010400C0F03407DF3FF0F180F0340100F0340BE
:4063400064F3FF0F140201400000014005FF00801002014004FF00800802014002FF00800402014001FF00800C02014003FF00800002014000FF0080280003400C010140E7
:406380000001014088000020F8B52A4C0600A76B2762002F4DD00125FB0514D5226B264B13402363C023254A5B00D358244ADB0B9D439A235B004343D318FC331B6A002B89
:4063C00001D029009847BB051AD5226B1D4B13402363C423194A5B00D25880231B0213405A4253415B421D409A235B007343144AD318FC335B6A002B02D0290030009847FB
:406400001021A36B0B4A0B4202D0136B8B4313632021A36B074A0B4202D0136B8B4313634021A36B034A0B4202D0136B8B431363A36BF8BDFC000A40FFFEFFFF00000A407B
:406440002C070020FFFDFFFF01207047012070470023F0B587B002920593994208D1C02380269B04284C294D18270093760007E0C02380261B275B05254C264D0093B600A7
:4064800002F0E7FD236803900193029B5A04C023DB021340802292001343236001232A681A432A602A681A4206D0059AC72A03D8059A01320592F5E70220FFF757FE019B1F
:4064C0002D680A202360FFF751FE134A2D0C1662136BEDB2334211D0019B002B0EDB936900990B402168FB40090405D4012B05D1936A1E43966201E0022BF9D0039802F09E
:40650000ACFD280007B0F0BD80010A407C010A4088010A4084010A40FC000A4070B502220C000600FFF794FF0B4D011E0BD09620C00208F009FF9A2373431B1988335B0041
:4065400080B2EB1898809A235E433419883464002C19A08880B270BD2C070020F7B51F0008AB06000D0000921C7802F072FD4D2373435B19414A46339B00D318099A019074
:406580005A60002A45D0002D20D13D4D3D4BAA693D4E134022061343AB61009B0A205A04C023DB021340802292003A43C02713437F00F351FFF7DAFD80235B002B622A6B63
:4065C0001A432A63F25912044BD444E0012D3ED12B4D2E4BAA6980261340E2061343C022AB61009BD2025B0413403A00C427B60032431343244A7F00D3510A20FFF7B6FDFC
:406600002E622B6B33432B631F4BDB591B0431D42AE0002D0CD1C0231D491B4A5B00D150174B1C4A196B0A401A63802252000DE0012D0CD1C4231649134A5B00D150104BB7
:40664000154A196B0A401A63802292001A62019802F003FDF7BD012CF9D1AA6A1343AB62F5E7022CF9D0F2E7012CF0D1AB6A1E43AE62ECE7022CF9D0E9E7C0462C07002000
:40668000FC000A40FFFFFFFC00000A40FFFFFFE700020080FFFEFFFFFFFDFFFF37B5124D124B2C00FC34626C134000226364104B1979019200921300FFF750FFD4228021E7
:4066C0005200AB5809060B43AB50043AAB5801205B005B08AB50A26D064B1340A365B0231B0423653EBDC04600000A40FFFFFFFBB4000020FFFF4FFFF8B51E0005000C005E
