:4000000000200020110000001D0900001D0900001C4A1D4B70B51A601C4B1D4D1A681023134000D12B602B68802B29D1194B1C79E4B2012C14D90021052000F0CBF8012185
:400040000400052000F0C6F8E4B2C0B2002C03D0041E05D0032403E0441EA0410224241A0023210002202B6000F0B4F8002807D0012C05D82100022000F0ACF800F0FEF8A7
:4000800001F0DAF86588EDAC3800034054000340900000209C0000200000000000000000000000000000000000000000000000000000000000000000000000000000000079
:4000C000000000000000000000000000000000000000000000000000000000000000000088030031626E0100B1110021000000000000000000000000000000000000000090
:4001000010B5064C2378002B07D1054B002B02D0044800E000BF0123237010BD10010020000000003C130000084B10B5002B03D00749084800E000BF07480368002B00D1C3
:4001400010BD064B002BFBD09847F9E700000000140100203C130000980000200000000018234343F0B5134CE3189D689A8A002D01D10D701CE0104B8600F658C2239B0060
:40018000F7581F231F403B1C082F00D908239BB20B70D021D3189BB28900934204D97758AF54013292B2F8E7182358432418A282F0BDC0462C01002040130000034A044946
:4001C00013689BB20B4313607047C0460CED00E00400FA05013810B50B2830D80902494201F094F806080A0C0E10141216191B20164B13E0164B16E0164B0AE0164B12E076
:40020000164B0BE0164B09E0164B02E0164B00E0164BC91815E0164B05E0164BC9180878C0B212E0144BC9180A7848788C780002230418430300C8781343000604E001BEB5
:4002400000210B7848780002184310BDC0FF0100C1FF0100C5FF0100C9FF0100D0FF0100D1FF0100D6FF0100D2FF0100D4FF0100D8FF0100DCFF0100E0FF010000470000E9
:400280000122024B60331A707047C0462C010020F7B5C37D827D1B0213430122324D01009446AB425DD182784478CB78120222431B0413431A000B791B06134351D08A7A90
:4002C0004C7ACB7A120222431B0413431A000B7B1B06134345D08A794879120202431202501CFF30214EC418B4423AD80F78040000210133FF339B180193019B834205D02B
:40030000037801309C466144C9B2F6E701234942C9B29C468F4224D1631CFF33B34220D8023B5B88AB421CD1FF34217AE37909021943607A00230A290ED080250C4CAD007F
:40034000141952195118A14204D0227801349B18DBB2F8E75B42DBB2C31A581E8341DBB29C466046FEBDC04659430000FFFF01000A020000F0B5214A214B85B0D1580192AC
:400380000293CB0338D50024FF272600E3B200930F230025634303931A48039B02005B1964321B01D218117AC9B2FF2913D0C318986E01389866986E00280CD11248177279
:4003C0004430025D013AD2B202551A6F002A02D01B6F0098984701350F2DDDD10A4B44331B5D002B00D001260134022CCED1002E02D1019B029A9E5005B0F0BD001000E08D
:4004000010D000002C0100202C030020134B8200D35830B51A68F821520052081A60182250430F4A102510180222027100200D4A0D4C98500122090152425A501959A943F4
:400440001951F42109015A5080315A508021D8661A6809060A431A6030BDC046401300002C010020880F0000480F0000654B8200F0B5D458002385B002AAD371624B060038
:40048000E25801231A4206D0604962589A436250E8221201A3505E4B0125E35800930223009AFF331A4202D000231D000093009BDB063FD518277743564BDF193A790193B2
:4004C000042A0BD002ABD91D3000FFF749FE0521BA8A3B69012039719847050018237343019A8020D31802221A7100229A8281239B00E25840020243E250E158464A1140D6
:40050000E1500133FF33E1580143E150E1580A40E25001224149635893436350F82310211B01E2503E4AA3588B43A350F42330221B01E250009B5B0639D5E82201271201EC
:40054000A3583B43A35018237343324AD3181A79022A29D1626ED2060DD504210022197110001B69984700281ED0F8231B01E7502A4BE75003E005221A71002D14D0F42343
:40058000302210211B01E250254A0125A3580B43A350244B1A004632925D002A01D1E56605E04A339D5502E002230025E366F423009A1B01E250002D03D13000FFF726FF4E
:4005C0001EE0194BE758FB0709D518237343114A0421D31800221B69100098470500F8231B01E750114BE758FB0704D502ABD91D3000FFF7B5FDFC231B01E750002DDCD0DA
:4006000005B0F0BD401300008C0E0000880E00004C0F00002C010020FFFFFEFF880F0000480F00002C0300208C0F0000CC0F000010B50020FFF71AFF10BD0000F7B500F022
:4006400029FE1F4B019019001F004E31FF31CA7D4E37002A2FD04C7C002C2CD1E62084464D33FF33DE8ABA195278BE5D0092154A9444604606706846150001260078E73289
:40068000107068354E74AA790F493243AA71DF220D682A400A601021DA8AFF31223292B28A4201D8DA8200E0DC82054B4E33FF33DA7D013ADA75019800F0F0FDF7BDC04656
:4006C0002C0300202C04002000020440012110B5104C084213D000220F4B4E33FF335A74DB7D934209D10D4A926E137053702200683293798B43937101E0FFF79FFF683459
:40070000A379002B04D0DF23054A11680B40136010BDC0462C0400202C030020AC05002000020440F0B500254B4BCBB0029501900395984200D98AE0802248495200E83137
:400740000AA800F0EDFDFF22454B464C0893464E464B08AF7A6027603360C04623681B0F0F2B03D1236813401D0004E023681B0F0A2B00D025680295029D002D69D100F0C3
:4007800089FD3B4A3B4B04A96C320493059221603949344B3160C0462168090F0F2902D11D68EDB204E01968090F0A2900D01D680395039B002B12D1304D2A492560304D0B
:4007C0003560C04625682D0F0F2D02D10B68DBB204E00D682D0F0A2D00D00B680293029B002B18D1274908910199089D09042943254D089127601B493560C04625682D0F16
:400800000F2D02D10B68DBB204E00D682D0F0A2D00D00B680293039B002B15D11B4D06A90695079221601A490E4A3160C0462168090F0F2902D11368DBB204E01168090F0F
:400840000A2900D01368039300F028FD01E00423029302984BB0F0BDFF0100002C040020B6D70000080010400400104004000080AC050020B6E9000016000080B6E80000BF
:4008800015000080B6D8000005000080B6EA000017000080F8B5050000F0FCFC1E4B04001A0019001F004E32FF32D07D4D31FF314E378A8A082815D1002A02D11132FF3234
:4008C0008A8219004D33FF339A8A0025223A93B281224E31CA54CB1820005D7000F0DEFC280017E00026BD54551CADB27E551025223292B2FF35AA4201D88A8200E08E82A2
:400900004E330130FF33D875FFF798FE200000F0C5FC0120F8BDC0462C03002010B500F0C1FC03680C2B00D1FEE7FEE770B5012852D10F233F4D6C79290026092340022A54
:4009400018D8012A0ED00024A64270D1022B07D1394B2A79E8339B18384A0400936066E0002B64D1344B0A7968339B18334A012493605CE0002B13D00400002E4CD1022B6D
:400980004AD12D482C79023AE830FE3392B200191B1B9A4200D91A00063100F0C1FC3AE0274B46331870002C0FD12B79062B0CD1214BA97968339B790B4206D021482034CF
:4009C0000168A143CBB22343036001241B4B023A92B21C73DA811FE0002404291CD182230826194D9B00EA58EA3B1449FF3B13408C68F31ADBB220001A1CB34200D9321C0D
:400A0000D2B2A31890229200834203D004780130AC50F9E78B600124084B197BC9B2002905D1812203485200043000F067FC200070BDC0462C0600202C0400202C07002092
:400A40002C0300200002044000000540F7B50122374C384D2368384E93432360002337489A002900032B00D8B15801338150232BF6D172B6FF22324B01271A600022314BC7
:400A800007261A60304B20321F60304B304D1A608022304B92021A6003222F4B1A602F4B21321A602E4B123A1A6000F0F3FB2B680190B3432B602B4B2B4A1B782B49DBB205
:400AC00013602B4A1368B34313602A4B0A6818787F239A43034013430B60322000F0D0FB05222B683220B34313432B6000F0C8FB06222B680198B34313432B6000F0CEFBA9
:400B000080221D4B52001A601C4A1D4B1A6040221C4B1A6000221C4B1A601C4A3B001168002900D11160226813432360F7BDC046000010401D090000000000000000002019
:400B400000050240000102400801044000020440080F0340080204400005044008050440300010407DF3FF0F0C0F0340180F0340100F034064F3FF0F0002014000FF0080C7
:400B800000000140280003400001014090000020F0B5D84C81222500D748D84B87B0E6355200002104309D60260000F0A7FB8C22D3486836520000214E3000F09FFB802292
:400BC0000021300000F09AFB952391223370CD498D3B737092008A58212172802200A43211601322B2802200200094321E391170C54A0830E267C267C44AC5499566C54A19
:400C0000012513700722A1670434E167C24CC34E2368C34F9343053A1343236033687820AB43DBB22B43336000F02AFB3B682B4201D1402310E00722236878209343043A57
:400C4000134323603368AB43DBB2336000F018FB3B682B4202D04223AE4A137007222368802193432360AB4BAE4C1E780023AE4A2360C12022668122800092004902E366A9
:400C8000A1502150A949F42563500121FE2749422D016151A64D3F046351083D6151A54D6351083D615175003D43C427BF002168E5510825113FFF35FF3FE5510137FF37F3
:400CC000E5519D4D04272943216001219B4D8C4629700221E970297187496E700431A96081214900A9819649AB822961FE21A970A7502750265893490E402650A05801409D
:400D0000A15042228949FF3262506146894AA1508D498E4A116080218D4AC90011608D498D4A886802408020400402438A6062B6724E8A483374FFF7ABFA00960294754EA0
:400D40000195002801D0009B1F748548FFF7A0FA002805D00822009B1B7C1343009A1374804B81481A68190092B2824208D100221A60009B01321B7C1343009A137495E08C
:400D80001A681868009B92B21C7C80B2230711D4764B984212D004237548234000D02BE282421AD06E4A6D48D469C569AC4207D202000EE00423234004D077E001230CE0D6
:400DC000012306E06A4CA24207D0684A904204D0624A928A6748824201D1002204E06648824202D0FA229200728033717788BFB2002F04D180230B60FFF7E0F956E00023DB
:400E0000FF21019A01986032137064301A018218013311720F2BF9D10024394B574D44331C70574E574A584BAC51EA50574B584A1A6000F02FFAFF23AC460396019E643619
:400E40002201B5182D7AE1B2FF2D00D10B00B218127A002A07D12A4A44321378013BDBB213700B0004E001340F2CE9D1FF2B1BD0019A019964321B019F52CD18D31800222F
:400E8000444929671A721E4AAF66130044331978002904D15B78DBB2002B00D18DE1443213780133DBB2137000F0F8F98020FFF7F1FC0822002104A800F020FA0D49942075
:400EC0000A00009B68321B7C107053705A0703D5802204AC920007E0204A52681202120C01321402E03492B21B0755D5802304A89B0059E02C0400202C0600202C0700207A
:400F00002C03002000F0FF0F626E0100AC050020880300319C0000200801044000010440040104400000054088280040480F0000880F0000C80F0000000100802C010020A7
:400F40002D090000FFFFFEFF310600006800002000E100E000050440FFFFFFF8C0FF0100C0FE0100900000204C420000324200003142000059430000FFFF0000001000E054
:400F800010D00000BF5D000014D000003C00002075030000810200009A4B5B681B021B0C01331802E0309BB20F000E00E0256837019778369C4688CD88C60D00803548CC01
:400FC00048C5883118C818C1019B8F4F1A8562465A851423009A538213228C4B7A81FB803B810193009B1B7B002B00D1B7E0884C63791B0900D09CE0009B2079DA890638A1
:40100000D2B2062800D9E8E000F080F904E708E72A333B00A079FFF759FB8AE0012A00D8DBE0A2790523522A00D07FE0E479002C0FD0012C7AD1202076490A688243D3B26E
:4010400003430B6072B60022734B1A60FFF7B6F86FE00720FFF73AFB2000FFF7D7F906E0A2790523502A61D1009B4F3A1A7502235CE0A379012B00D1A7E0022B55D161488D
:40108000A4E00523032A51D9A279462A4ED1E279012A2FD1009B1A7D0723002A46D0657A227A2D021543009A528AAA423ED8FA88AA4202D23A89AA4238D1019B9D4201D1A0
:4010C000504E04E0FF235B009D420CD1534E3000FFF7DEF80023984200D1F369E2225049013352008B502800FFF71CFB0223002800D00533E279002A18D1009B1A7D07231C
:40110000002A13D0617A227A090211437A898A420CD2019A914209D88022414809025200E83000F0FDF8032300E009231800FFF7B1FB8122364B5200181D002100F0DEF8CD
:401140000022009B1A73374B19004A3346310A701978914203D01A70029B0132DA66009B314C1B7D002B1DD000F094F82100002264311301CB181D001B7A0835002B2ED020
:4011800001320F2AF5D1274B44331A78002A03D15B78DBB2002B2BD000F080F82300002260331A7060342378002B00D11AE78022194B1A60FFF702F814E764461B496350DC
:4011C00007236146039C0B5169E61448FFF760F802230028AAD00633A8E70523A6E7FF23104A2B7044321378013BDBB21370CAE70F4A10498B50CFE7824200D1DEE5012312
:40120000004AE6E5C0FE01009C000020FF0100002C0600200002044090000020C0FF01002C0400202C0300202C01002018D0000010D00000001000E0F8B500250E490F4BEF
:4012400001394A1C14D000221F685C689E68A018B24203D0B858A0500432F8E70200DE68141AA64201D020C2FAE710330139E8E700F01EF8FFF78CFC010000007813000095
:401280000230800804D0C0460138FDD1C046C046C0467047EFF3108072B6704780F310887047C046014B18687047C046080100200E4B70B500251E000D4CE41AA410A5424C
:4012C00004D0AB00F35898470135F8E700F042F8084B00251E00084CE41AA410A54204D0AB00F35898470135F8E770BD601300006013000060130000681300000300821827
:40130000934202D019700133FAE7704702B4714649084900095C49008E4402BC7047C046002310B59A4203D0CC5CC4540133F9E710BD00001A0000000014000000000000C9
:401340000000054000000640000007400000084043000000F8B5C046F8BC08BC9E467047290100004D0A0000F8B5C046F8BC08BC9E467047010100008813000098000020AE
:40138000780000003806000000000000080032000200FF010002FF0100000000000000000000000000000000000000000000000000000000000000005013000000000000D6
:4013C0000000000000000000000000000000000000000000000000000000000000000000000000000000000000000000000000000000000000000000A80000200000000025
:401400000030002001190000396700003967000000000000000000000000000000000000000000000000000000000000000000000000000000000000000000000000000002
:40144000000000000000000000000000000000000000000000000000000000000000000000000000000000000000000000000000000000000000000000000000000000006C
:40148000000000000000000000000000000000000000000000000000000000000000000000000000000000000000000000000000000000000000000000000000000000002C
:4014C00000000000000000000000000000000000000000000000000000000000000000007A060132626E0200B1110021000000000000000000000000000000000000000084
:401500005943040000200004B33CB4040100020000020B000000000000000000000000000C0214000000000000000000200218000000000000000000E803000000000000E9
:40154000020102000000010001040F0203070101010101000100000000000000000000002C9101262CD102002CB104002C4106000000000000000000000000005A900126F7
:401580005A30429A00000000000000000000000000000000000000005A005A00000000000000000000000000130038023C02440248024C0250020000000000000000000056
:4015C0003C000000000000000000000000000000000000000000000000000000000000000000000000000000000000000000000000000000000000000000000000000000AF
:40160000000000000000000000000000000000005C0214000000000000000000700218000000000000000000E803000000000000020102000000010001040F02030701019B
:40164000010101000100000000000000000000002C9101262CD102002CB104002C4106000000000000000000000000005A9001265A30429A000000000000000000000000B8
:4016800000000000000000005A005A00000000000000000000000000130088028C02940298029C02A002000000000000000000003C0000000000000000000000000000009F
:4016C00000000000000000000000000000000000000000000000000000000000000000000000000000000000000000000000000000000000000000000000000000000000EA
:40170000B404E0F6437970726573730014000000418000FFB4040090000000000000E0F6B404E0F6000000000101000000020000000000000001003C04140A0208140A0225
:4017400032010A000446010004320100041E01000C000000000000000000000014000000418000FFB4040090000000000000E0F6B404E0F6000000000101000000020000F7
:40178000000000000001003C04140A0208140A0232010A000446010004320100041E01000C00000000000000000000000000000000000000000000000000000000000000B2
:4017C00000000000000000000000000000000000000000000000000000000000000000000000000000000000000000000000000000000000000000000000000000000000E9
:4018000000000000000000000000000000000000000000000000000000000000000000000000000000000000000000000000000000000000000000000000000000000000A8
:401840000000000000000000000000000000000000000000000000000000000000000000000000000000000000000000000000000000000000000000000000000000000068
:401880000000000000000000000000000000000000000000000000000000000000000000000000000000000000000000000000000000000000000000000000000000000028
:4018C00000000000000000000000000000000000000000000000000000000000000000000000000000000000000000000000000000000000000000000000000000000000E8
:4019000010B5044B83F30888034A044B1A6006F02DF9C046003000206588EDAC3800034010B5064C2378002B07D1054B002B02D0044800E000BF0123237010BD380100203A
:401940000000000084D00000084B10B5002B03D00749084800E000BF07480368002B00D110BD064B002BFBD09847F9E7000000003C01002084D000009800002000000000CC
:401980000122014B1A7070471C0A00200C2359436933FF334343C9180E4B5918FF238B720D4B190068310A5C013AD2B20A5419006A310A78013AD2B20A700A78002A07D1C8
:4019C0006B331B78002B03D18022044B92001A607047C04654010020D403002080E100E0144B020030B506209A4222D853781178114C1B020B43A3421BD11000D1799379BB
:401A0000090219430A30147A0A39031E0DD000231000994209D0851A8D4204D2857A01305B19DBB2F7E75B42DBB206209C4200D1002030BDFFFF010059430000F0235843A7
:401A4000014B2030C018704700150000002310B59200934203D0CC58C4500433F9E710BDF7B505000F00009206F0AFF8BA23060000245B006B4301930C236343019AE1B252
:401A80009B18094AD3189B7ADBB2BB4205D3009A934202D82800FFF779FF01341F2CEBD1300006F096F8F7BD5401002030B50023FF2911D0BA220C2552005043074C2A0046
:401AC0005A431218A218927A914204D001331F2BF5D1002300E00123180030BD5401002010B5914203D2FF2A01D0FFF7B9FF10BDF8B504000D0006F068F80600FF2D11D0C4
:401B00000C22BA200023944640006043094F62465A431218BA18927AD9B2954206D001331F2BF4D1300006F054F8F8BD2000FFF72DFFF7E75401002030B53024174B9A6A42
:401B4000A243203C22430C009A62154A083C2260FF2204390A60134A134994605160C046C046C04695682D0F29070A2D0FD10F4D0004284320600E4894605060C046C04689
:401B8000C04692680020120F12078A4200D00C2030219A6A8A439A6230BDC04600000340B6D700000000104004000080B6D8000005000080842210B5C2B0040052000021E7
:401BC00068460BF0C2F9074B1B78002B01D1052005E002A92000FFF7AFFF0028F7D142B010BDC046480900200200F8B5817A447AD37A090221431B040B431900137B0620A2
:401C00001B060B4332D09479517924020C432402611CFF31CD18AC46154DAC4526D89678557836022E43D5782D0435432E0015792D063543A94219D8AC4517D915780A1E99
:401C40000CD000220133FF331B19994204D0087801311218D2B2F8E75242D2B20620954204D180239B00E018FFF7BAFEF8BDC046FFFF0100094B70B51900094D6C312A6C3B
:401C8000098892B204001E008A4202D0642005F02FFE33006C332C641C8070BDD403002000000340554B01211800F0B5544A85B06B3051640170009203930399009B6E3173
:401CC000DB6B09889AB289B21B041B0C8A4202D8802040021B1800245B1A9BB21F00494B1A80E3B20293BA2300255B00634301930C226A430199444B52189918897A180057
:401D0000C9B2FF2926D09E58B4463E000536B44502D99E58F61B00E000269E500C226A43019E92199B58002B14D18018FF338372324B1E006836325D6A33013AD2B2325540
:401D40001A78013AD2B21A704368002B02D043680298984701351F2DCAD10134022CC0D1264C23006A331B78DBB2002B01D1274827E000222548244DBA26002176005643D6
:401D80000C234B439B19EF18BF7AFF2F03D05F59874200D2585901311F29F1D10132022AEAD12300009A6E331B88D26B9BB291B21204120C8B4202D3802149025218D31A30
:401DC0009BB20533834200D977E7230080B27033188023006E331B88C01880B2FFF74AFF230000226B331A706A342378934203D18022074B92001A6005B0F0BDD40300207A
:401E0000000003404204002054010020C0FF000080E100E0F0B585B005000C00170001930020FF2900D1A7E0824200D1A4E005F0CCFEFF2202901E230C20944675326A4328
:401E40000392BA22060052006A435E434B49B2188A18927AFF2A01D1DAB294460C225A43039E921989188A7A94420ED1DBB29C46434B190068314A5D6A33013AD2B24A551C
:401E80001A78013AD2B21A7005E0013BD9D263460026FF2B6CD063460C225A43BA235B006B433649D21801988B181F8158609C72334C0E00230072331B885F43230057507D
:401EC0006B331B78002B47D120002E4B6A30DB6B00789FB2039020006E3001900398002827D0019A1B0412881B0C92B2974202D8802149025B189B1A61460C225143693206
:401F0000FF326A438A18B1589BB25B18B3501C4BB75819007031088887421DD2B2586E3392B20A8018880B88C01880B2FFF7A2FE12E0019B1F805058134B984200D9180093
:401F4000230080B270331880381880B2FFF792FE80220E4B92001A60220001266832535D6A340133DBB2535523780133DBB22370029805F02EFE300005B0F0BD5401002077
:401F8000D403002000000340C0FF000000E100E0402110B5094B5A680A4203D11A681143196002E01A688A431A60FA22044B9200C0210020FFF72EFF10BDC04600010440D8
:401FC000911F0000F0B5044A044B87B0044D9A4208D8012307E0C046E0140000FF7F0000A40000200223EB4C2B702000FFF7F8FC270000283DD12300AA331A782300AB3373
:402000001B781B0213431B19002B32D0E24CDB78237002F047F800282BD0C378A3703B00B2331A783B00B3331B781B021343DB19002B1ED0CD235B00FA5C9C23FF33FB5CB4
:402040001B021343DB19002B13D0DB780120237202F028F800280CD0C378A372D1235B00FA5CA423FF33FB5C1B021343DB19002B09D12B78012B01D000F02AFCC748FFF760
:4020800099FD05F03BFC0421022405200322C44BDC61186259625A633D32DA629C63D86319649A64BF4B313A1B689343D9B2BE4B1B681B091A400B001343113BBB4ADBB289
:4020C0001370002B09D0BA4BBA4A1B30D1580143D150B949CA580243CA5000230C25FF24B6492A005A4301338A18947208001F2BF7D1B34900230A000C25FF246832137027
:402100002A005A4382187F32FF32013314701F2BF6D10B000020683358700B008022012480256A331870A74B92001A60A64BA74A2D069A63DA6C2243DA64DA6A2A43DA6283
:402140005C64A34AA34CA44D1460A44AA44C10515051A44DA4481550DD6B0093ADB2009BD86B80B28542FAD09748C56B0520AEB21051802310595B021842FAD0009BD86B01
:4021800083B29E4202D98020400203435B1B72310B800023135162B607220125934C944E236805209343053A134323603368AB43DBB22B43336005F09BFB40228D4B1B68B7
:4021C000019600922B4216D02368393A9343043A13432360019B019A1B680520AB43DBB2136005F085FB0822824B1B6800922B4201D04223009307222368714E93436A46FB
:4022000023603300127874331A7080227A4B92021A6080220024794B52001A80784BED3A1A80784B784A1C70784B21001A609022774852000AF089FE764D242221002800B9
:402240000AF083FE744B7536AB6188232E602026724A5B00AB83EA602B82714A3533AE80FF33704DD35828008022210002930AF06CFE6B461B896B801323AB802B003A332A
:402280001E7091235B00EB63203B2C35FF3B2B705B4B654D0293D0360023644A28001355634A2838135533006343FB1853331B78002B06D00121A1405A4B2C331A788A436D
:4022C0001A70502200210AF040FE33006343FB181A005433473212781B7801346B7201232A702B715035022CD6D16A460021029B127880259A704F4B4F4A1960C1201A66EC
:402300008122800092006D02D9669D501D504B4DF42659510125FE276D4236019D51484E3F049951083E9D51464E9951B446083E9D51009E1D6876003E43C427BF00DE51CF
:402340000826113FFF36FF3FDE510137FF37DE513D4E35431D603D4D0126EC702C712C4C2E70AC6090246400AC81394CA9822C616C4624786C70FE24AC70FA3C9C501C50DC
:402380001D58344C25401D5098581E4D04409C50422261E000150000080A0020FF010000FC000140E80F00F0EC0F00F0D60C00206808000000000A4000000B405401002054
:4023C000D403002080E100E0000003406588EDAC64000020A51C000018D00000001000E010D00000BF5D000014D00000080104400001044004010440A8000020AC00002070
:402400009C0000204609002072050020F80C002024080020240F0020100E0020000D002000F0FF0FF4040020A4060020200F00201F0A00200000054088280040480F0000A8
:40244000880F0000C80F0000000100809404002011730000FFFFFEFFD348FF321A50624601209850D14AD24B80201A608022D14BD2001A60D04C2B784004E3181B7E9B0041
:402480001A5993680343936004A808220AF05DFDCA4B02951B780394C94ECA4D012B14D1C948FFF7A1FB431E9841E0233380FE23FF22FF332B80C54B52001A80EC3AC44B53
:4024C000FF3A1A80C000823213E0C248FFF78CFB1422431E9841BC4B80005B6832801B0ABD4A2B80B94B1A80ED3AB94BFF3A1A808332BA4B1A705870430708D4B54B5A6848
:402500001202120C01321502E03592B202E0802204AD92000823184208D1AB4B5B681B021B0C01331902E0319BB202E0802304A99B00AB4FE0203E0090C890C6300050CDF7
:4025400050C030C930C0A549A6480A854B85CA6BA54B00911340C022D2011343A34ACB631568A34B1A600023854206D1A14D5168936849194C424C411B190021936051603A
:4025800010609D499D4A9180928800998A86FF2B00D9FF23009A0025323213700122984B32201A70974B1D7005F0D6FB964A974B1A60974BDA1CD17F1A1DD27F12020A43DB
:4025C0009449042A01D80D7002E0043A92100A705A1CD17F9A1CD27F12020A4304328E499A180A60DA1DD17F1A000832D27F12020A438A49042A01D8002201E0043A9210DD
:402600000A705A1DD17F9A1DD27F12020A43043283499A180A601A002A3211781A002B32127812020A437F490A801A00283211781A002932127812020A437B499A180A60E2
:402640001A00FF32D17C127D12020A437149042A01D8002201E0043A92104A701900FF318A7C487C1202024304329B186A4A53600B7ECA7D1B021343684A042B01D8002398
:4026800001E0043B9B10624953700A00FF32937D507D1B020343043361485B184360137FD07E1B0203435F48039C4380937E507E1B02034359185C4B1C3459600020210080
:4026C00005F08AFA2100012005F086FA002380211A00180005F08EF86424544B1B78002B01D001F095F9524B1B78002B29D04022019B00201B681343019A1360019B9A680D
:402700004C4B1340C02252031343019A93604A4A4A4B11680B401360FA22494B9200C021FFF778FB474B484AD0210020FFF772FB009B2C331B78DB070CD5002005F080FA31
:4027400008E09620013CC001E4B205F035FA002CC3D1CCE7009B2C331B789B0702D5012005F06EFA00240127032604AB1F70002304AA5370354B02221D5D04A9280001F0E1
:40278000E3FC002800D18CE0022204AB190028001A705E7001F0D8FC002800D181E00134022CE2D17DE0C046480F0000053A00006800002000E100E088D00000A4000020D6
:4027C000AE000020B0000020C0FE0100B2000020B4000020C0FF0100FF010000F404002004050020EFBEADDEFF1FFFFF00280020BC000020F4CFFC3FDC0500009C000020C2
:40280000460A0020B800002017520000DC0C00200015000070040020740400207C04002080040020880400208C040020F6090020F5090020FFFFE3FF00010240FFFFFFF0B1
:40284000911F000009410000EE02000020D100005424EEB2300005F04DFA02226C43424F3C193C34237813421DD1404C2378002B01D001F0CDF800223D4B01351A60022D90
:40288000E6D105F0A2F93B003C331B7806002B4219D00024300005F09CF9002C01D005F023FA0025D4E7334A0321300005F0BAFC0F28DAD0022223789343237080232278A9
:4028C00013432370D1E790373B782B4204D0E0E7FF204000FFF7D3FB009B2D331B78002BD7D1254B1B78002BD3D12378002BD0D105F0C6F90028CCD0204B1A006A321278D5
:40290000002A09D01E4A6C33126C198893B28B4202D0322004F0ECFF23780124002BB9D1029B1978174B8A00D258536E2342B1D118234B431449CB181B79022BAAD1134957
:4029400053582343535005F040F90421104B114A1B889BB21360104A13680B43136030BF05F037F996E7C0464C090020F6090020180A0020C14000004A090020D4030020C9
:402980000000034004D1000094040020880E000052F2FF0F0400034010ED00E010B50023FFF738FA10BD7047F7B50300542058436E4C0025201806002D3635700F896C4D73
:4029C00001923D4080273F02BD4200D0C3E08D6801270561AC4605002C3562462F703F25154080225242154305746248C05C002800D0A0E04878B84200D09DE0087AC006FE
:402A0000C00E0138052800D996E00AF069F9032A4C7E7E8D4889FF210902884200D08BE0554FFD5C002D00D186E054265E4399007918A0194A682C300570944600204B4F3E
:402A4000AD00624631181258C91904300A618542F7D1542159437918C88A800A8002C8824CE04889FF210902884265D1424FF918087B002860D054265E4399007918A5194C
:402A80000A692C35287094460025384F8000624671195259C91904350A618542F7D15421594379182AE0344F58003818057E042D42D94E8999007918C969CF880878B74209
:402AC0000BD154255D430438661980102C363070C0B201308000002605E00918281AC5B2002DEAD128E00436B04204D077198A59E719FA60F7E75421594361183F200D7C7F
:402B0000284040252843087416E0502159431B484118B331FF310978CA070DD55421594361182D31022004E054210120594361182D31087000E037705421594361180D004D
:402B40003A3108780321602601404801697CB1430143697401E00221317054215943103118006118019B9847F7BDC0464C090020C080FFFFC819002070040020F40400201F
:402B80007047704770B554244443044D6359002B02D098470023635170BDC0464C09002010B5002003F0FEF810BD10B5012003F0F9F810BD10B5002004F02AFA10BD10B55A
:402BC000012004F025FA10BD70B504000D0005F0B5F80323C2797D3012091A4002D00933022A14D102780D49002A07D15420604308183C300278D20700D50423542262437B
:402C000088180832037389182000A84770BD0378013B5A425A4104239B1AE3E74C09002070B50D00040005F089F8030067331978012901D1827A00E0027B03006A331E78F9
:402C40000423002E10D10678022E0DD152B2002A01DA002908D10323C27992081A4003D00933022A00D0083B54226243034988180832037351182000A84770BD4C09002013
:402C800070B504000D0005F059F8542262430C498A183D3213780122002B07D1C3790232134003D00932022B00D0083A54236343C81808330273C9182000A84770BDC04686
:402CC0004C090020F0234343084A10B5D3180122A8331B78134207D0542343430449CB18198E044B02F002FC10BDC046001500004C090020513200005423C82110B5434369
:402D0000094A8900D3181C8E8C4201D107491986002801D1118E04E0542358431018018E012001F091FA10BD4C0900208813000010B5002801D0012801D104F0B1F810BDB0
:402D400010B5002801D0012801D104F0C3F810BD704700009C235B005843074B1B181A003332FF3212780120002A04D13433FF331878431E98417047600A00209C235B0015
:402D80005843034B18183230FF3001707047C046600A0020F7B5874E87000500BC590196854A864B802100280CD1854809028446664684481160066019608021824811606C
:402DC000824A0CE0824849028446664681481160066019608021490011607F487F4A106080221960236812061343C0222360D200A35808215B005B08A350C123DB00E25803
:402E000064208A43E250E25807390A43E25004F06FFDD222D200A35832205B005B08A350D4236F4ADB00E2506E4A1033E2506E4A1033E250902210331201E25004F058FD58
:402E4000002D72D1694B1B78002B2DD1684B694A197812788A18684909785218002A0AD1664B674A197812788A18664909785218002A00D1644B654A1360654B654A197839
:402E800012788A18644909785218002A0AD1634B634A197812788A18624909785218002A00D1594B604A1360C021604B4900986C9A6C52000A4094463F22664610403043BA
:402EC0009864186D1E6D104076000E4030431865986D9E6D0240760031400A439A65F322196F0A4004210A431A67514A0339A3580B43A350A3588B40CB40A350CF224D4B03
:402F0000E25000F0B9FB8823DB00E3589B0506D400F0B2FB484A494BA1580B40A3500221474AA3580B43A35024E0464B464947489A0012181878013310608B42F7D1C02274
:402F4000520094466646424B986C996C49001140423AFF3A104001439964186D196D0240490031400A431A65F322196F0A4004210A431A67102223683648134323600F3AF9
:402F8000042316005B1B9E4003235D1B1300AB40215833430B43C6212350C9006358002013436350019B2C49DA59D023DB00D150FEBDC04614D1000080E100E000E100E0C5
:402FC000A12B00007C000020B52B00005C000020AB2B000080000020BF2B0000600000201636141C5F6B3D00143D0000D60C002036F5FF0F37F5FF0F38F5FF0F79F0FF0F32
:403000007AF0FF0F7BF0FF0F00D10000C000002042F5FF0F43F5FF0F44F5FF0F85F0FF0F86F0FF0F87F0FF0FC400002000FF0A40DC070000240400001C060000FFFFFEFF3B
:403040004C04000002F5FF0F1FF5FF0FF82A0C0000FF0B402C06000000020080F8B5F02343431F4A0500D318A8331B789B0736D51C4B8600F45804F0A8FDCA23D4211A4ADB
:40308000DB00E250202289006358070093436350D2239B00E250154B5B5D022B13D1852304219B00E2588A43E25089229200A258002A0ED1E1580E4A11420AD10121E25806
:4030C0008A43E25005E0032B03D119212800FEF70FFD380004F07DFD0022064B9A51F8BD0015000014D1000040000080F40C0020DCFF0F00540A0020542343430D4A70B513
:40310000D31800223F3304000D001A70904201D0012802D1200000F043FA002D02D02000FFF706FE0121200002F0C2F82000FFF795FF70BD4C09002010B5040020221F21EB
:40314000FEF78EFC2000FFF71DFD20000121FFF7D3FF80212000C90405F016F900221821200001F08DFA10BDF8B554244443104B0E001C192186050004F0E0FD070028004E
:40318000FFF76CFFC823218E628E9B00914205D39E4208D02800FFF795FD04E09E4202D03800723003782800FFF7A6FDF8BDC0464C090020F7B50E0024221E210400FEF762
:4031C0004FFC542363431F4D1F49EB185B8E8B4207D820000021FFF78FFF142004F088FB02E02000FFF7C0FF04F0EFFC5423C822634392001F00EB1801905A86002E19D0B2
:40320000200004F09BFD87300378002B12D02000FFF796FD9622EE510C4D92002B0021212000FEF7F7FD2B00012222212000FEF7F1FD03E001212000FFF75EFF019804F009
:40324000C8FCF7BD4C090020881300009D320000542343430F4A70B5D318C822040092001A860D00FFF748FD01212000FFF744FF002D09D020000022172101F001FA0649F3
:403280002000FFF797FF04E02A001F21200001F0F7F970BD4C090020832B00001E3970B504000800062900D982E009F019FD04113C515A81770020221F212000FEF7D0FB6C
:4032C000542363433B4AD318C82292005A8643E054226243374B384D9A181100423109781E00002908D154236343F3181A0042321278002A0CD012E0118E14222000524208
:4033000002F02CFA0028EED02B000522202141E0198E0A22200002F021FA0028F4D02B0001221F2136E0542565431E212000FEF7DFFB204B20005D192B8E6B864235FFF7E4
:40334000F7FC2B78002B30D12000FFF7BBFC2CE022212000FEF7CCFB01212000FFF7CCFE26E016490A22200002F0F8F9011E02D12000FFF7C1FE1422C821524289002000DA
:4033800002F0ECF90C4B002802D10A22242101E0012222212000FEF73DFD09E020002121FEF7A6FB2000FFF7C3FC2000FFF7EAFB70BDC0464C0900209D320000881300001A
:4033C000F8B504000F0004F000FC00210500200001F06EFF200001F053FF2000FFF7A8FC272226212000FEF73BFB134E002F1AD0200004F0A3FC87300378002B13D02000F4
:40340000FFF79EFC54236343F3185F600B4FFA223B0026212000FEF7FDFC3B00012227212000FEF7F7FC54235C43054B34192800A38604F0CEFBF8BD4C090020D957000046
:4034400088130000F0B518264643194D0400AE19B38AB0689BB2002801D1107027E01548A6003658C220800037581F200740081CB94200D9381C81B2117059188AB2182103
:40348000614369188F890020974210D3D02080008446934206D2604637588868C75401339BB2F6E7182044432D19AB821738F0BD9404002004D1000030B5134B8200D358C3
:4034C00012491A681025520052081A60182250430F4A104C101802220271002282825A50F82001210001494219501859A8431851F42000011950803019508021DA661A6895
:4035000009060A431A6030BD04D10000880F000094040020480F0000783110B5CCB22000FFF7CAFF18206043034900220818017903690320984710BD9404002088220021E1
:40354000074B80001818036992009950103A98580449014099509858034901409950704704D100002200F0FFDFFFCFFF70B50500094A8300D3181C69FFF7E0FF2800012173
:4035800003F018F985229200A158A3580B4303490B43A35070BDC04604D100002000200089220021074B80001818036992009950103A9858044901409950985803490140D4
:4035C0009950704704D100002200F0FFDFFFCFFF37B504000D00052901D900251BE004F0FDFB29000200200000F070FF051E12D150236343094AD318832292009B181B6814
:403600005B03EAD501226B46A4180733E0B2B8211A7004F0EFF828003EBDC0469404002070B50500104A8300D3181C69FFF7B8FF2800002103F0BEF804F0C7FA05231A00E5
:403640000A4E0B4D31681942FCD129681142F9D184229200A158A3580B4306490B43A35004F0B7FA70BDC04604D10000A4000A40A4000B402000200010B5024804F09CFABE
:4036800010BDC046C05D0000F7B5184A8300D3181C6900230500019304F097FAD023144ADB00E758E250E02301215B00E25806000A43E2501A00A3580B4206D0019BC72B36
:4036C00003D8019B01330193F5E7022004F010F9E0235B00E4583900280003F005FA240C300004F076FAE0B2FEBDC04604D1000000020200B74B8200F0B5D458002287B005
:4037000004ABDA71B44B0600E25801231A4206D0B24962589A436250E8221201A350B04B0122E358019202930223029AFF331A4208D031007839C9B20020FEF7D9F9002397
:4037400002930193029BDB0600D485E018237343A44AD3189B780392FE2B1AD0C2239B00E7581F2301221F40636E0025134212D0142004F0BDF8F4231B01E3585B060AD5A9
:40378000C2239B00E7581F231F40013FFFB2013501E00827002518237343924AD318197904292CD004ABDA1D39003000FFF74AFE019000281ED0002D10D0142004F098F821
:4037C000C2239B00E1581F231940012906D9013904ABC9B2DA1D3000FFF734FE182305217343039A0120D3189A8A197192B21B6998470190FC2301221B01E25003E01B691C
:4038000000220220984718237343039A0020D318022298821A71812380219B00E25849020A43E250E158704A0A40E25001226F49635893436350F82310211B01E2506C4A41
:40384000A3588B43A3503100F42330221B017839E250C9B2FEF74CF9029B5B0662D53500FA22783DEDB2634B520029000020FEF7D1FAE82201211201A3580B4317317143D7
:40388000A350584A53181979022940D1616EC90622D59B78FE2B0DD04E4BB100C958C12380279B00C8587F023843C850CF584E483840C850182373430421D31800221971CD
:4038C00010001B699847002821D0F82201231201A350464AA35004E005221A71019B002B15D0F423302210211B01E250404AA3580B43A350404A01239219117A002904D1A3
:40390000344AB1008A58D3660BE0137309E0314BB200D35802222900DA660020FEF7E8F800230193F423029A1B01E250019B002B09D13000FFF7C0FD31007839C9B200204F
:40394000FEF7D6F843E001272C4BE35802933B4228D018237343234A0421D31800221B6910009847051E1DD1204A8020A3584002BB43A350F8231B01E750164BB200D35885
:40398000812292009958014399509858164901409950310002227839DA66C9B22800FEF7A7F80195F823029A1B01E250144BE558EB0706D504ABDA1D08213000FFF742FD86
:4039C0000190FC231B01E550019B002BB1D007B0F0BDC04604D100008C0E0000880E00004C0F000094040020FFFFFEFF880F0000480F000019350000140800208C0F0000EE
:403A0000CC0F000010B50020FFF774FE10BD0000F7B5B949B94E4F7C0D003F090B7C002F00D031E2328EDBB2D2B22D2B00D19CE115D80A2B70D00AD8072B32D0082B50D0E1
:403A4000062B00D0C5E2887C03F092FE73E20C2B00D193E074D32C2B00D101E1B9E2312B00D1AFE113D80A242F2B00D107E2897C2F2B00D97DE1A24C380023008E33197048
:403A80009134227804F006FC2278A97CA6E1342B00D1B8E13B2B00D1E8E1332B00D098E2A0E18B7C05244A2B03D1964803F032FF0400AB7C412B00D0DFE1934A1378012B43
:403AC00005D153681089403B181A904C02E050688F4C4038FEF788F8002800D06FE22000C8E1012A00D874E28B7C0524522B00D0C5E1CB7C002B04D00020012B00D1B9E126
:403B000067E2032003F0CAFD3236072003F030FE3078FFF7D1FC5AE23300897C33330122502903D134361A70327050E219780524114200D1A3E134361F703770033C9EE172
:403B4000714B8C7C1B78A34215D0012C04D0022C00D026E26F4800E06F48FEF745F8002800D00BE2012C00D0FFE10422070035363378934333700237FCB280E10524032A81
:403B800000D87CE18B7C462B00D078E1CB7C0220012B42D14C7D0B7D24021C43330033331B780E20002B37D0574B59891A00A14231D89989A14202D2DB89A3422BD1574BDB
:403BC0009C4228D804D100214D4A3B3BD15013E0FF235B009C420FD11378012B05D04E48FEF702F80023984201D14B4BDB69E2224349013352008B50330034331B78002B92
:403C000001D1052008E03E492000E831FDF794FF0028F6D100E007200224EB7C002B1BD1697D2B7D09023336194333780724002B00D124E1344B1B8A8B4200D31FE1374B49
:403C4000994200D91BE180222D4809025200E83009F072F9043C12E1002800D0B1E10EE18A7C032A00D9AEE1330036331B78002B00D0AAE1224B8C331B785A40019200D1EB
:403C8000A5E1134036363370337800275C425C416400019B01223B41FEB2134261D0204B1B783B4113420AD1300003F0C9FF0123BB40134A8C3211780B43137051E02E2191
:403CC0003000FDF7F3FE041E2CD054237B430B4A3000D3187522743319780A401A702E21FDF706FF3000002102F0AAFD0121300002F0A6FD25E0C0461408002014090020AC
:403D0000940400204C420000A40000203242000031420000C0FE0100C0FF0100FF0100004A090020300004F009F887300378002B07D0A94A0321300004F074FA002805D1A0
:403D400031E10121300003F0ADFD2CE10122BA40A24B1B789343A14A13701378002B00D112240137022F94D187E09D4B8A7C8D3361E00924432900D081E09A4B35361B78C6
:403D8000012B04D133785B070CD4974B03E033781B070AD4954B5B681B021B0C1B020133FF3304E0A0235B0101E0E0231B028C49C033E8310A0013CB13C213CB13C203CB18
:403DC00003C204E1864C8A7C230091331A708E342178380004F05EFAAA7C2178012004F059FAF4E08B7C522B04D1FA20800003F07FFDFAE70924502B41D1123180227C4850
:403E000009F09AF83BE0887C7A4B5038072829D808F066FF0428130F2828281B704A0224E8321168744A914229D1012260331A7025E0002260331A70C9E0694B1A00E8320A
:403E40001268EC3312681A60C1E060331B780224002B14D0624B1A00E833EC3212681B681A600CE0002260331A70B2E05C4B8A7C9B33E0E703F04EFD0400002C5BD0002387
:403E800021001A00180054E0308EDBB280B2062B02D0242B09D046E08B7C0A21102B45D10122544B61331A703FE07B1EC0B2DBB2032803D808F014FF39281A0C50225A43EC
:403EC00047498A18832189005218697D0906116050225A4342498A188321890052181168090E0806297D09040143116050225A433B498A188321890052181168090C080454
:403F0000E97C09020143116050225343344AD318832292009B1819680E3AFF3A9143AA7C0A431A6001E0052100E00221002338001A0003F05FFC28009022002152001030E4
:403F400009F003F800222B4B62331A702B4B32331B78ED182A72297B91423CD02A73284A9B009B580122DA6635E00700022C00D001E6082235363378934310E0012C06D1F9
:403F8000042235363378062713433370F3E50627022C00D0EFE508223536337813433370E9E50727E7E50136F0B203F077FB01207B1C9840C0B203F0DBFB0024D1E60824B7
:403FC0005DE707245BE7092459E7122457E7022455E7052453E7F7BDA57800004A09002094040020A4000020C0FF0100C0FE01000000012094090020EFBEADDE14090020D8
:4040000004D10000704710B5FFF7D4F810BD00008B1EF7B55A1E9341072205000C00D31A009304F0CBF91D4BEE009F1939193A5D097C01932800914211D904F0B5F93B5D5E
:4040400000990133DBB228003B5504F0F3F900281CD000220421280004F0E4F816E003F06DFE030072331B78002B03D067300378002B08D1542302216B43094AD3183C3363
:404080001A780A431A70280004F074F9019B9E19305D3419237C181AFEBDC046F80900204C090020F0235843034BC0188C300088024BC0187047C046201500000015000075
:4040C000C82110B500228900040001F047FB002805D1200002F0B4FCFA22520009E0542308216343064AD3183C331A780A431A706422044B2E212000FDF78CFE10BDC0462B
:404100004C0900207142000010B50A4B1A6A01321A621B6A012B05D9074B084A1B685A6003F0ECFB064B074AD0210020FDF772FE10BDC046F8090020BC0000200C3003C0DA
:4041400009410000EE020000F0B50025364C85B001910292354B0A22C1210700661D2800F577FDF757FE324B32491A689C46324BD2072AD4314A32487F0017600825186029
:404180000220FF35086003921868284202D1F07F0028F9D004260198029D45190195651DEF7F002F10D1019A90420DD01E600778039A176008221F68FF32174202D1EF7F62
:4041C000002FF7D00130EBE70125624610681022800600D5083212200A60FF30611D1A68024202D1CA7F002AF9D01A680423FF331A4206D10534E37F002B02D10124002DA2
:404200000AD1802100240F4A090613685B005B08136013680B431360C1210020FDF768FC200005B0F0BDC046F8090020811900006400064068000640000F064040020640BC
:404240001703000000000640012337B5050001AC08006421237008F08BFE044B013060700222585D2100FFF76FFF3EBD20D10000C82170B500228900040001F06FFA0028A2
:4042800024D1542308216343144AD3183C331D780D4008D01A7820008A431A7002F0D0FBFA22520013E07F22197820000A401A7004F094F82900200002F0C2FA200001214B
:4042C00002F0BEFA200003F0BBFC05E06422044B2E212000FDF79EFD70BDC0464C09002071420000F0B5040085B00E00002803D1684908200A6802E0022067490A68824319
:40430000D3B203430B60200003F018FD050003F05CFC242203901E212000FDF7A1FB2B0087331B78002B00D1AFE02B00A1331B78002B00D0A9E02B0076331B78002B05D087
:40434000AC235B00ED5AAD05AD0D04E0AB78534A9B00D3185D68F0236343514AD318A8331B789B0755D54F494F4AA30020009950FFF798FE070040786421684308F0F8FDB3
:404380004519B8796421684308F0F2FD482801D9482002E00023092801D90A3843003F48A200C018037C0193437C02933F4BBF78D55803F00AFC03223D4B1A553D4B023AE1
:4043C0001F553D4BC0271A55CA22D200A9583B4BFF050B40C0210B43019989080B43029909030B430199490739400B43AB50C5229200AB5832499B0A9B020B43AB50D22317
:4044000020219B00E9503C32AB580B43AB5003F0E0FB2000FEF78CFC54236343294DEB183F331A78002A0ED101321A70002C01D0012C08D12000FFF781F80A2003F058FAE1
:404440002000FFF793F8002E1FD054236343EB181A00012142321170598E1B8E994204D9002320001370FEF76BFC54236343EE50154DFA222B001E212000FDF7CBFC2B007A
:4044800001221F212000FDF7C5FC039803F0A1FB05B0F0BD000104400002044020D100000015000039310000540A002014D10000F40C0020F60C0020500A0020F80FFC1FFC
:4044C000450500004C0900209D320000F0B50500002089B0029101920790012D00D9C3E0D301DBB20493614B5A5D7F230B4004990B43934200D1B7E0029B07A9981E019BB5
:404500005B4A5C4F002B00D099E0032862D90224611BAB00C9B22800D65801F0FBFE2000002403F0E5F9F4512600514BAA00D75803F04BFB23003343059003930FD1012155
:40454000491BC9B2280001F0E5FE022003F0D0F99223039A9B00FA502033FA501FE0013EF6B20023032E03D8434BB6009E193369013CE4B20022032C02D8404AA400A258DC
:40458000922189007B509A239B000520FA5003F0AFF90121491BC9B2280001F09FFE059803F017FB022207A9CB781343019A12011343CB70304B042201335B19D87FFFF7F7
:4045C000C3FD7F23029A1A401300049A1343274A535549E008F084FB022F0A13992300E0662340200024C87026000FE0992300E066232020C8700199002930D12AE0992338
:404600000424032602E0662303240426A9005158F022C859D20202408020400002431343CB51FE3803F064F90221491BC9B2280001F054FE79E76023CB7039330AE00328A9
:4046400000D964E708F08AFCCC02D4DF6023CB70063304E0A900515802240126D8E7A900515801240226D3E709B0F0BDB600002014D100008C080000A0D10000B0D10000DE
:40468000F0B58BB00D000400009203F057FB00270600681E0697242800D91FE108F02AFB700054007000AE00AE001E011E011E011E0170005E001E011E011E011E011E012B
:4046C000B80060001E011E016000C200CB00C900D100700025001E011E011E011E011E011E011E014000DB00DB00C04BC049C14A1F601160C049C14A20001160C04A08397A
:4047000017601A68FF390A431A6006210022FFF7DDFE54236343BB4AD3183E331F70DDE002212000FEF754FFB74B6F36190025313278095D914204D00020E1005E18B070AE
:40474000C85425331A55C9E054236343AD4AD318190000223E310A7039337AE0012300E0002376363278002A00D1B8E2002B04D002212000FEF72CFF0AE0152D00D1ADE0C6
:4047800000212000FEF724FF29212000FDF7B0F9012D12D19C49002308000E001030E2008018C15C002904D0B718FF5CB94200D894E00133082BF4D184E0032D01D01A2D4D
:4047C00019D15426330063438E4FFB183C331B785BB2002B02DB200003F000FE012200216643BF193C373B7893433B70864BE20098188170D154122D70D163E0542363439F
:40480000804A0121D3181A00393211703E330EE0542363437B4AD31841331B78002B00D061E25BE054236343764AD3183A3300220FE0022100E000212000FFF7E9FB0690F5
:404840003DE05423012163436E4AD3183C331A780A431A7042E0330070331978200000F0EDFF330072331B78002B16D0330067331F78012F11D16F363178200002F022F870
:404880009C235B006343614A6149D3183533FF331F702000FEF78EFC03E000212000FEF78FFD54236343574AD3187D223C331B78934300D017E204212000FFF7A9FB06AB12
:4048C00000930BE0542363434E4AD3183C331B785BB2002B02DB200003F080FD08AE08220021300008F031FB012C00D9FBE1252D00D9F8E1474F01213B002C331B7801933F
:4049000023410B4200D1EEE1434B1B7823410B4200D0E8E1A81F162800D9A1E108F0EAF939014101A001A001A001A00117004B014B014B01A001A001A0017A01A001A001E5
:404940008201A001A001A001A001A0014B01009B5B79DB096DD1009B009A5B789078002B26D102380E2800D9BDE108F0C3F91200AB010F00BC011B00BC01BC01BC01BC014C
:40498000BC01AE01BC01BC01BC011E0000228D259DE10122214B8B251A551B4B27331A55002294E100228A2591E10022A4258EE101380E2800D996E108F09CF98B01950165
:4049C00095010F00140032009501950195019501950195019501950137008023012292259B007AE10122A2251CE0C0460000064096080080600006400701008000020640AC
:404A0000040206404C090020F8090020600A002005400000F40400204A090020200F00200122A32580239B0257E101229025802353E1009B1A78AD4B22339D5C002D00D168
:404A400051E1012180230A009B02502060433F18AD37FF373868184200D144E107AE0134002A00D191E0009B009A5B6800291AD0D279D20909D01A21009A52780191072A62
:404A80000DD89200023A92B208E08221009A4900D2880191D205D20D8A4200D801921A0CB2701A0E0AE01C2152780191072A01D892000192009A1278B270002233701B0A66
:404AC0007370E3B20C240493019BF27004339BB2029303F07AF8049B854F5C4302993B193A1905900393D8889B88D288073180B29A1A914218DB3A19D2889B1A032B3DDD11
:404B00008123E25913540023E159421C92B28B54E159821C92B28B540330E25980B21354039BDB88043326E0E3591D546B46E1591A7A431C9BB2CA54E159831C9BB2CA54D7
:404B4000029AE159C31C9BB2120ACA54E359051DADB258190422310008F0EEF9E05900990435019A4019083108F0E6F9039B029ADB880433D318039A9BB2D380059803F0FA
:404B800028F8049802F0A8FDADE0E0B23300290095E000990822300008F0CEF90820B02106E000990422300008F0C6F90420B1218023DB0077E04D4AAB00D3184D4A009854
:404BC000110000786632525D403101389B6A495D12090F2811D808F083F80C101208101010101010100A1010100E102006E0202004E0402002E0502000E0302002433270F1
:404C000001200D2D4DD100253B4A15553B4A2732155546E0009B01201B789B21337080231B0140E0009B1B793370009B1B681A0A72711A0CB271314A337127321B0EF371A7
:404C4000135DDBB2002B05D00023082013558621203328E0284A082013558621202322E022492448AB00CB18010066304031495D455D9B6AEA0707D50020844662461E4815
:404C800002551E482730025500206A0709D5009A824206D10125A540019AAA433D002C352A7000291FD050226243BF18AD37FF373A681A4217D03300013482B2E0B202F0F5
:404CC00099FD10E000228C2501E000228E25402303E08023012291255B000021B5E6002B00D155E544E50BB0F0BDC046A0D10000240F002020D20000200F0020F8090020D9
:404D000054235843014B1818C18670474C090020F8B50F0015001E00040003F00FF801234279807929001A4018404006120602430720194089060A430740100000223F0714
:404D40003843954200D1320013400E4A0E4DDB061040A400184363592C199A050B4B920D18409602A36830439B05800A9B0D80021843040104D49A4202DD800A80021043FF
:404D8000F8BDC046FFFFFFF7240A0020FF03F0FFF0B591B0009001910E9202F0CFFF019B06905B780C93019B1B899B059B0D099303002C33FF331B78DB06DB0F0D93002320
:404DC000089307930593069B059A7F331B78934200D89FE1002302936B461B7A0A930A9A0C9B934200D891E1009802F0A7FF059C05004A34A40003190393DE78019AB309D8
:404E00000393059B7C335B00C3189888029B800502339B00D118CA78860D9209012A00D17BE0002A03D0022A00D1DAE06BE1019A142198580003830D18001330049308F058
:404E400097F8049B1F1A1818039B012B2FD0002B02D0022B08D056E16359049A1B039B0D9A4200D04FE10CE063591B039B0D9F4200D248E12B195B889B049B0D984200D932
:404E800041E1635B31009B059B0D9E4200D21900029A019802329200125A9205920D914200D930E1009AC949920053500DE163591B039B0D9F4200D225E12B195B889B04A4
:404EC0009B0D984200D91EE1FA23605B5B008005800D584301383900C01908F049F80400FA20400070437B1EC018390008F040F822000600844200D20200029B01990233DB
:404F00009B005B5A9B059B0D9A4200D9FBE0009BAE4A9B009C500497D7E0019A4F889B58039ABF041B03BF0D9B0D012A36D0022A00D0E8E062591203920D934200D2E2E0B9
:404F40002B195B889B049B0D9F4200D9DBE0FA21605B49008005800D7843F430FF3008F007F804003000FA217843F430FF30490007F0FEFF22000600844200D20200029B1F
:404F8000019902339B005B5A9B059B0D9A4200D9B9E0009B8D4A9B009C50F2E062591203920D934200D2AEE02B195B889B049B0D9F4200D9A7E0635B31009B059B0D9E4207
:404FC00000D21900029A019802329200125A9205920D914200D996E0009A7C4992005350CFE04A889204920D0492019A9858039B0003870D012B32D0022B00D083E063591D
:405000001B039B0D9F4200D27DE02B195B88049A9B049B0D9A4276D8645B3200A405A40DA64200D22200029B019902339B005B5A9B059B0D9A4266D83800FA216043009B8E
:40504000624D9B00F4300393FF30EB1849000F9307F08EFF0F9B1861039B5C519AE063591B039B0D9F424ED32B195B88049A9B049B0D9A4247D8FA20645B4000A405A30DA6
:4050800058437D1E39004019039307F071FF0400FA20400070433900401907F069FF22000600844200D20200029B019902339B005B5A9B059B0D9A4225D8009A434B9200D0
:4050C000039899180861D45064E0009A3F4B92000499D0589C18A1614843FA21F430FF30490007F045FFA6602061009B374A9B00D3181C69079AA24205D80D9A002A51D0E3
:405100009B69642B4ED1029B013364E6059B0133DBB257E6089B002B25D1FA21069E2B4DFC36F36A49001803009B800D9C00B38D2F199B059B0DB8615843F4306351FF30C7
:40514000019307F015FF019B099A3861934200D96251012233882C19A360110000230098FFF7D6FD0B905423009A194953430B98CA1808339060591800980E9B984711B0F6
:40518000F0BD009B114A990053188A589F619E601A61AAE7009B0D4A9B00D318049A9E609A61A2E7059B069A7C335B00D3180A999B880131DB0BC9B200220098FFF7A8FDE1
:4051C00001230B90079408939DE7C046240A00204C09002070B5040002F0F7FC05002000FDF7A6FD200002F0A9FD87300378002B0DD0200002F0A2FDA1300378002B06D1B2
:40520000002C01D0012C02D12000FEF709FA280002F0DFFC70BD4B1E994110B524310022FFF72EFA10BD000070B50400150002F09FFD54236343074A0321D318002800D08C
:405240000421197354216143083151182000A84770BDC0464C09002010B5FEF715FA024B5843400A80B210BD50C3000010B5040002F064FD70300178200001F0BFFA10BD32
:4052800010B5002801D0012801D1FEF757F910BD10B50400FFF7F4FF80212000C90503F073F8002217212000FFF7EAF910BD0000F023F7B501264343384A0400D318A833AC
:4052C0001B780F00334267D0354B8200D558B04206D1344B1B78002B05D00090060004E00223009301E01E00009302F06EFC2E4B019001331B19DB7F022B04D1F2B239008B
:40530000200001F02BFAFA2101228027B300EB18C90058583F0690435850585838435850E02080001F582149394019501100B14070302B588B432B50FA2300989B008240CD
:40534000E9501B496B581A436A50012C14D1154B184A1B78002B05D0FF20943153588343D73806E0D421C9005058134B0340A02080030343535008E0D422A021D200AB585E
:4053800089051B021B0A0B43AB5000220B4BA4000198E25002F01DFCF7BDC0460015000014D10000D60C0020240A002008F8FFFF2C06000000000A40FFFF00FFEC0C00204F
:4053C00054234343F7B53D4A0500D3183C331E7801230F001E4070D1EF334343384A9B1892331A88374BD3189B7882000093364BD45802F0EAFB6A46344B1278A9005A5548
:40540000334A344B0190CA50AB239B00E650280002F0EEFC6F3001782F4A304B002909D10131515504218026E258F6000A43E2502B4B07E0022156558026E258B6000A43B3
:40544000E250284BAB229200A3501B212800FCF74FFBC022AE23D2009B00E2500833E25801981643E65002F0B4FBAD239B00E3585B041AD53900280001F0C0F9002814D1F8
:40548000194A8C23002F00D08E2302209B00E1581143E150E1580143E150E1588143E150902189006358134363500121280002F05DFF0221280002F059FFF7BD4C0900207F
:4054C000201500000015000014D10000D90C0020ED580000480A0020D70C0020680800000028240085040000200C2000F0B587B005000F000292049302F067FBF02320216A
:405500006B43754A05909B188A331A88734BD21893780191402B03D801335B10DBB201930123D356AA0003936D4BD458002D05D06C4B1E78002E05D0012603E001230226F3
:40554000009300E00096684B01335B19DB7F022B05D16B4602991A78280001F0FFF80222614B049901335B19DA77604AAB00995069465F4A097A039851555E4A00997843C0
:405580009950642107F0C0FB5B4B3F18B8B2984204D85A4B984202D8594800E01800594FE3590393012D07D14E4B1B78002B03D10A2107F0DDFC04E00A237D21584307F0D5
:4055C000A3FB0123B340039A80B29A43E251C8380A2107F0CDFC80B2031CC72800D9C7239BB2012D1BD13F4A47491278002A0DD0D820FF220733C0009EB20B5893431A0062
:40560000331CC72E00D9C7239BB205E0D420C0000E583E4A1B04324013430B5007E0D421C90062581B061202120A13436350FA220127009BD2009E00A619B3580A203B43D3
:40564000B350B358BB40FB40B35002F051F9E02189007358BB43735072582D4B1A40019B002B07D0F820013B80005B0103402948034300E010231343735001210A00009B3A
:40568000FC209A40FA239B00E2508000235813432350154B5B185D19EB7F022B16D102981D4B002807D08525AD00605903400B436351892106E08420800025582B400B433F
:4056C00088212350890063581A436250059802F080FA07B0F0BDC046201500000015000014D10000D60C0020240A0020EC0C0020E80C0020E00C0020C05D00006F1700006E
:40570000701700002C06000000000A40FFFF00FF01F8FFFF05040000FFFFEFFF542343430B4A70B5D318998604000D00FDF700FBF0236343074AD318A8331B78DB0705D5DD
:40574000054B002229002000FFF7D0FE70BDC0464C0900200015000091520000F7B54A430C0007006421100007F0CEFA2018C343DB1718401921400007F0C6FAFA21000294
:40578000C90007F0F5FB0400032803D9FE2802D9FE2400E00424D0250D4BBA00D65802F014FAED007359019000930A4B0A201C43745102F09DF838000099745901F094F9AB
:4057C000019802F006FA0120E40BA043FEBDC04614D100000002020070B504000D00262902D0272907D021E02721FCF781F92000FDF79EFA1AE000220D49FFF7AFFF002863
:405800000ED126212000FCF773F92000FDF790FA54236343074A2000D3185B68984705E0054B012229002000FCF7F4FA70BDC046881300004C090020D9570000F8B5224BFB
:40584000860005000F00F45800F0D8FF00281CD090229200A1581D4B0A200B40A35002F047F8002F04D18C239B00E158184A03E08E239B00E158174A0A400221E250E2589E
:405880000A43E250E2588A43E2500621124A0027A35828008B43A350AB23B0229B00E7509200A1580D4B0B40A350C022AE23D2009B00E2501B21FCF71BF9094B5F55094B1E
:4058C0009F51094B5F55F8BD14D10000DFF3DFFFDFFBDFFFDFF7DFFF68080000FFF9FFFFD90C0020480A0020D70C002010B5040002F024FA703001782000FFF79FFF002252
:4059000019212000FEF7BCFE10BD0000204B8200F0B5D4581F4D2300A0331A689C235B004343EB182933FF331B78002B01D100202CE0002906D11F2308251340072B03D833
:40594000290001E0102500219C220B0052005043104A10184A19934217DA060007002A36FF363278FC377F699200D7591A1D920017513278013E0132D2B2727072783678FA
:405980009642D4D90133DBB2E4E70120F0BDC04614D10000600A0020074B8000C35801201A00A4321168054A114204D1A022D2009B585B0A1840704714D10000072000009E
:4059C0009C235B005843024BC01804307047C046600A00200B4B8200D2589C235B005843094BA1211B18002010B52D33FF331870C9005458054B23405350A0230449DB009D
:405A0000D15010BD14D10000600A0020770FEBFF88F01400064B8000C358064AC433196800200A401A601968034A0A401A60704714D10000FFFFFEFFFFFFEFFF154B800080
:405A4000C35800290BD11900BC310868124A02400A60A121C9005858104A024012E0012911D11900BC3108680B4A02408020C00102430A60A121C9005858084A0240802027
:405A8000800002435A50A0220549D200002099507047C04614D10000FF80FFFFFFF9FEFB000601040B4B8200D2589C235B005843094B10B51B1800202E33FF331870A02370
:405AC0000649DB00D150A121C9005358044C2343535010BD14D10000600A00207F06090400060104094B10B582000021D458FFF7A5FFA122D200A158054B00200B40A35035
:405B0000A023044ADB00E25010BDC04614D10000770EE9FF88F11600F7B5A126414B8200D458F600A259404B40491340A351A0233F4ADB00E2509C22520042438B18050004
:405B400018002C30FF309C46037801925BB20F00002B06DA8021374A8901A3580B43A3505DE02300A4331B681A00334B13400ED00378013B5BB203708020A35940010343A6
:405B8000A351019B28005B580021984747E062462A32FF32137001212800FFF7B7FE002804D08022A359D2021343A351A122D200A35822490B43A3509C235B001A006A43D1
:405BC000BA182B32FF3212780221012A02D162680A4301E062688A436B43FB182C336260FF33C43422681B78002B03D080231B031A4301E0124B1A4080239B021A439C23D2
:405C00005B005D437F193B0000212D33FF332C371970FF373B78013B5BB23B7022600120FEBDC04614D10000FFEFFFFF600A002098F01400040500000120000088E000002D
:405C4000FFFFF7FFF0B505AC40CC85002778154C9C462D599C2464006043134C079B24182000FC30436163462C30037023002B33FF331F700D4B8800C0582B00C83318609D
:405C8000E02301201B01334001310343090419432B002C34AC3352B2FF341960EE602270F0BDC04614D10000600A0020ACD200000221034B8000C25853688B4353607047B8
:405CC00014D10000174B820070B5D55802F090F82900BC310A68144B04001A40822375342678DB0113430E3C6630002E04D12678012E07D1862303E00678012E02D18E2367
:405D0000DB0113430B6029004122C4310B681B0C1B041A4323781C0203785B01234313430B6070BD14D10000FF80FFFF10B50223002927D0144B8200D3589C225200504330
:405D4000124A81501A0000201149A8321060D1600F2151611E31FF3191620E49D162A121C9005C580C4A22405A501A00E83211680A4C89B211601168C03321431160084A26
:405D80001A600300180010BD14D10000600A00200F0200000A404101000408C002000F7E41004100F7B5964B8200D458954B0500E2580193002A00D1B3E1E3589B0511D55A
:405DC0009C235B00434300208F49CA182D32FF3210705B582800082198478822A0239200DB00E250019BE25880231A420AD0A022D200A350B8336B43834AD31801222D3320
:405E0000FF331A70019BE3585B0172D5A021C9006658330725D530233340102B21D17A4B9C469C2362465B006B43D2182D32FF321078012815D10020107020008027AC3052
:405E400002683F033A430260A120C00027586F4A3A4022506E4A28006250624603219B589847F30741D520231E403ED11933FF336B43654A9C46D3181900A1202D31FF31F2
:405E80000E70C00027586349394021508020A0214001C90060502100A43109688906490F01391971E06D5C4901409960597A4906490FCFB25971197AC8068906C00EC90FDB
:405EC0009871D971BE4209D2330018339B001959B3006344D318D9600136F3E79C235B006B430621D35828009847A0234B4ADB00E2508026019BF600E35833420AD09C2353
:405F00005B006B43404A07219B5828009847A023DB00E6508026019B7602E35833420AD09C235B006B43384A07219B5828009847A023DB00E6508022019B5201E358134233
:405F400010D0A121C9006058324B03406350A023DB00E2509C235B006B432B4A01219B58280098478026019BF602E35833420ED000212800FFF7CAFC002805D1A122D20002
:405F8000A158274B0B40A350A023DB00E650019BE3589B045CD59C2252006A431A4900268B1818002D30FF302C330670FF33187840B2B0420ADAA120C0002658134B334001
:405FC000235053582800022198473CE01B78002B2ED0A023802226008027DB005203E2500520C43601F084FC33683F033B4219D0A1228021D200A35849030B43A35017E065
:4060000014D100000C050000600A0020771FFFFF88E00000FFEFFFFFEF7FFFFF7F000804FFFFFBFF052001F063FC33681F4337609C235B006B43494AD3182C33FF331A7897
:40604000013A52B21A708022A0239201DB00E2508026019B7603E358334212D0052001F047FC22008021C432136809030B431360A122D200A1583A4B0B40A350A023DB00BC
:40608000E650019BE258C0231B021A4213D09C235B006B43314A00219B5828009847D022A0231202DB00E250A1228021D200A35849010B43A350019BE358DB0516D59C2344
:4060C00000205B006B432549CA182D32FF3210705B58280005219847A122D200A158214B0B40A350A023204ADB00E250019BE3589B0316D59C2300205B006B431749CA183B
:406100002D32FF321070A120C0002658154A5B5832402250A0221448D200A050042128009847124BE258002A16D02022E158114202D0A221C9006250E25840231A420BD0F5
:40614000A222D200A3500A4AAB00D318DB69002B02D0042128009847F7BDC046600A0020FFFFEFFFFFFEFDFF000102001C050000ACD20000F8B5204B80000D00C458052985
:406180000DD126000222DC363368FF3213433360080001F0ADFB3268184B13403360A023A1221749DB00E150D200A3580B43A350144BAA00D2582300CC331A60052D07D094
:4061C0008022C4342368D20213432360002011E00A252700A4373B680B4E334206D0013D0A20EDB201F084FB002DF2D13B680F203342E5D0F8BDC04614D10000FEFEFFFF47
:4062000000010200ACD2000007200000802210B5084B8000C4585203C434236832201343236001F065FB80222368520213430020236010BD14D10000224B70B58200D458A0
:406240000D0001F07BFDC023DB00E1581E4A0A4010210A43E250E1581C4A0A40E250002D0AD08B3002781A489200125CE1585002520102430A43E250AA239B00E158154AF4
:406280000A200A40E250E25813490A43E25001F02FFBAE2370229B00E250B02260219200A3580B43A350AD239B00E258A0235B011A4205D0AF229200A35840390B43A350AA
:4062C00070BDC04614D10000EFFEFFFF1FF1FFFFD4D20000E8A3FFFF05140000F8B520270A4B8000C4588900094D641863593B420AD128260A20665101F0FAFA67513000F5
:4063000001F0F6FAA0236351F8BDC04614D100006C08000070B50826064B8000C458064D8900641863590A203343635101F0E0FA665170BD14D100006C080000F8B5334B16
:406340008200D458070001F053FD030087331B78002B59D0B0217C228900635893436350AE239B00E250030071331A78012A24D1020067321278002A1FD19E300678002E97
:4063800042D1234B1D7801F020FC4E235F437D19204B4635AD005D19D023D4211E4ADB00E2500222890063586E6093436350D2239B00E25001F00DFC26E01978C9B20029F5
:4063C00022D1030067331D78012D0AD18B3006000278380000F08AFA32782900380000F085FAA9200D4A0E4BA15880000B40A35022580C4B0C491A400A432250AA22920041
:40640000A05803400B43A350F8BDC04614D10000B8000020600A00200002008004060000FFFBFFFFFEFBFFFF1040000010B50020FFF784FF0120FFF781FF012010BD000030
:406440009C235B00434310B5044AD3183433FF331B78002B01D0FFF771FF10BD600A0020F0B585B0060001F0C3FC030087331B780500002B00D131E19A4BB200D4580300E0
:40648000010071331B786731012B00D0A3E0AE201027B023800027509B00E2583A43AA27E2500978BF00E25901291AD174352D78042D00D108E107218A4303390A43E251EF
:4064C00020222250E1581143E150AD239B00E3585B0500D402E1AF218900635813436350FCE081490A4081490A436021E2512150E25830000A43E2502B0090331F8800F0B6
:406500009BFB80B2B84204D0AF229200A3582021D7E09E352B78002B00D0DFE0300001F0B3FD0500300001F0C7FD6421684306F0EBFB2818C343DB1718401921400006F078
:40654000E3FBFA210002C90006F012FD0500032803D9FE2802D9FE2500E00425644B1B780093644B1B78019301F02FFB4E235E43009B0621F61846365F4BB6009E195F4B34
:4065800007007360C1239B00E258D0268A43E250E25802390A43E250019BF6005A04C023DB0213408022920013431D43A5510A2001F09EF9D2230222D4219B00E250890066
:4065C000635813436350A3591B0400D580E0380001F0FFFA82E0C027FF00E259484B134010221343E3510B7800210093012B6BD1E259444B8B351340E3512B7842499B00C7
:406600005B5CE25959025B010B431343E3510A2001F06EF9AD2380219B00E3583B4A0393A358C9000B43A350E259394B80201340E351A023039A5B011A404001824206D019
:40664000039A13408B4205D1009D022604E00225009E01E002252E000A2001F049F9A921890062582B4B700013406350EB0262581843294B134303436350AE237C229B00BE
:40668000E250B0220C219200A3580B43A350AD239B00E3580393039A1023022E02D11A4202D00AE01A4208D04023039A022D02D11A4213D001E01A4210D1AF220421920099
:4066C000A3580B43A35009E03000FFF7B5FD05E0D321890063581343635078E7012005B0F0BDC04614D10000FEFBFFFF06180000B8000020460A0020600A0020A7290000F3
:40670000EFFEFFFF1FF1FFFFD4D2000004060000FFFFFFFCE8A3FFFF0104000010B51B2906D1044B8200D358002B01D01A39984710BDC046480A002010B506F0D1FB0368E8
:406740000C2B00D1FEE7034B034A1B685A6001F0D5F8FEE7BC0000200C3003C0134B8000C35830B5012000290BD005008921954089005C58AC435C505A58002A14D185220F
:406780000AE005008821954089005C58AC435C505A58002A08D1842292009C5804490C4202D199588143995030BDC04614D10000DCFF0F00074B8000C35885220220002906
:4067C00000D184229200995801439950995881439950704714D1000070B50400064D2B18197AFFF7E7FFA300EB18DB68002B01D02000984770BDC046480A0020064B8000B0
:40680000C2580123002901D18C2100E08E218900505840091840704714D10000074B8000C258C0230420DB00002902D1D158814301E0D1580143D1507047C04614D10000AD
:40684000C02210B5094B8000C458D200A3581000002904D1064A13408022520303E0054A1340802292031343235010BD14D10000FFFFBFFFFFFF7FFFC022084B8000C058D0
:40688000D2008358002902D1A021C90301E0A02109040B4302490B408350704714D10000FFFFFFBF044B8000C158044A044B885803408B507047C04614D1000004060000B5
:4068C000FFFBFFFF064B8000C258C023DB00D058002901D1034900E003490140D150704714D10000FFFFFFFEFFFFFFFDF8B50E000021184B0700140082000800D558FFF762
:40690000EDFC154B002F03D15B681A5D134B02E09B681A5D124B002E01D15A6000E09A6018211A688A431A60022C04D11A6808390A431A600134C023DB00E958094AA40666
:406940000A4014438222002E00D08422D2051443EC50F8BD14D10000BC00002000FF0A4000FF0B40FFFFFFF310B5040001F040FA002C01D10A4B00E00A4B0200673212782A
:40698000002A0BD118211A6868308A431A600278032A03D11A6808390A431A6010BDC04600FF0A4000FF0B40204B820070B5D458D4229200A1581E4B0B40A350C022D2238F
:4069C000C921D2039B00E25089006258194B1A406250C021AE2249019200A150B02189006558154A2A406250AC229200A1580B40A350C0228021D200A35809060B43A35011
:406A0000012282400D4B58691D009043586102D10100FFF77FFC6B69002B05D1C1220821D200A3580B43A350002070BD14D10000FFFF9FFFFEF7FFFFFFE7FFFF480A002064
:406A4000104B8200D358C12210B50824D2009958A1439950012803D10B488158A1438150C0220A20D2009958490049089950995801439950985805490140F0200004014385
:406A8000995010BD14D1000000000A40FFFFFFBFC02210B5114B8000C358D200985810490140E02099509958000301439950AA21890058580B4A02405A50C1220120920056
:406AC00099588143995099580F300143995000210800FFF703FC002010BDC04614D10000FFFFF1CFFEFBFFFF70B5D025134B8000C458ED0061510A200E0000F0F9FED2222A
:406B000002239200A3500832A2581A4214D0002E12DBC1239B00E35862595B079B0F120408D5022B08D1D32202219200A3580B43A35001E0012BF6D070BDC04614D10000D1
:406B4000F7B504000191160001F052F90700364BA4006737E4583B780225012B00D03500002388229C46019B5200012B00D19446C023DB00E1580A400021944508D0E158B0
:406B80002A4A0A406146E250E2581143E1500121274A3B789446012B0AD18B3003789A0063469B5C6244580153785B02034305E06644737B5A02337B5B011343C022EE2052
:406BC000D200A65800013040834207D0A05819490140A150A1580B43A35001E0002902D0322000F085FEAD239B00E258A0235B01134080225201934205D13D78013D6A42FB
:406C00006A410225AD1A3A78012A04D15A1E93415B421D4006E0002A04D1A0225201934200D103252800FEBD14D10000EFFEFFFFD4D200001FF1FFFFF0B5060085B001F0C3
:406C4000D7F84A4BB200D35802006F321778083A11780B32040003AD127801293FD1002A07D0AD2292009A5806231A4201D0903441E0002F0CD0002230001100FFF760FFCF
:406C80000022287001213000FFF75AFF68700BE03A0001213000FFF753FF3A00687039003000FFF74DFF28709C235B007343304AD3184D33FF3301931B78002B53D0EB5DE9
:406CC000022B02D1013BEB554DE08B34227839003000FFF70BFE0023019A137043E000210191012A2CD1AD2292009A5806231A408A4203D08E3423882B8034E003009A337A
:406D000001931B78002B04D039003000FFF718FFE855EB5D002B03D1019B1B78002B05D1012239003000FFF70BFFE855002270342378EA5417E0019B01330193022B12D031
:406D40006B461C79002221003000FFF7F9FE019BE8540028EFD0012221003000FFF7F0FE019BE854E7E7288805B0F0BD14D10000480A0020F8B5414B8200D458C123050077
:406D80000820DB00E2588243E250012D03D13C49CA588243CA50C0260021F600A35908005B005B08A351FFF799FA322000F0A0FD0A228021A920A35909021343314AA3519A
:406DC000A35880000B43A35023582F4A2F4913400B432350AA239B00E058C0260240E250E25876010A43E250A822C0219200A35889030B43AC21A350254A890062506058F9
:406E0000244B18436050B020083166508000215831432150AD21890060580E00010206D5AF208027800021583F0139432150A159890106D5AF2080268000215876013143EC
:406E40002150C921890062506258002013436350C021D223D422C9039B00E1509200A3580B43A35001230C4962581A43AB4062500A4A51690B435361F8BDC04614D100008A
:406E800000000A4004060000FEFBFFFF10400000842424000108000068080000480A00200A4B70B582001D21D5580400FAF720FEF22203200121D200AB5860438B43AB506C
:406EC000034B181800238372037270BD14D10000C80C0020164B70B58200D5580400FCF7D3FB032300216343124AD318927B587299728A4208D001221A72F222D200AB5835
:406F00007C318B436D390AE05A7A3C2A09D801221A72F2227C21D200AB588B4375390B43AB50054B01221D212000FAF773FF70BD14D10000C80C00203D6F0000314B70B5AA
:406F40008200D55804000E00FCF79EFB2E4A937B002B33D103336343D318197A00293DD0597A884203D25B7A1B1A042B1BDC3D2819D903236343D318997A0131C9B2997204
:406F80009B7A042B0BD8F2210120C9006B5883436B5003236343D218002313720BE02000FFF77EFF2CE0032300216343D318587299721928E7D8154B022203E03C2806D92A
:406FC0000122124B31002000FAF724FF18E0F2237C21DB00EB588B433D3907E03C28EFD8F2237C21DB00EB588B4375390B43F221C9006B5003236343D21801231372DFE738
:4070000070BDC04614D10000C80C00203D6F0000F7B583000093B34B8200D458B123B0229B009200E658A3580500B343A350AE239B00E650002E74D073030DD59C235B00AA
:407040004343A94A0021D3181A004B32FF32117001224C33FF331A70C023DB001E4250D0B0229200A158A14B0B40A350A04B1A000F32525D002A03D101320192053203E04C
:407080000C220192C0229201AB270092BF000099E2590A400199CA40022A10D1E259009901988A4311000122824011330A43E2511B215A5D28008F4BFAF7ACFE12E01B21F6
:4070C0002800FAF7F3FC00280CD01B212800FAF70FFDE359009A019993431A0002238B401343E351B02382499B000F31495DE258002902D18021890001E08021C9000A4332
:40710000E250C0277F013E420BD0794B5B69002B02D0002128009847B0229200A3581F43A750FD239B00E258002A1DD00126E1586F4BAA009F183200B86982400A4213D02B
:40714000FC20800021589B1991432150FA215B19890062502800D97FFFF72CFB7B6A002B02D03100280098478A23DB00E358002B1CD0614B614EE258E250043BE3589B05C5
:4071800010D58022A35952021343A351642000F0AFFB1021A3595A4A8B43A35193598B43935103E0A259574B1340A351D5239B00E258C023DB031A4209D0D2229200A3505C
:4071C0004B4B5B69002B02D0012128009847D5239B00E25802231A4218D0D421890062589A436250D2229200A350D023DB00E1589C235B006B433C4AD318FC339A6B002AFB
:4072000004D0CB0B0121280099439047D52320269B00E358334254D0C527D221BF00E35989005B079B0F022B2CD1D42080002258B24322502E4A66502C32525D511E012938
