:400000000020002011000000A9080000A90800000C4A0D4B10B51A600C4B1A68102313400B4A00D113601368802B09D10023136000F0DCF8002803D000F0D8F800F05DFACC
:4000400000F09CFF6588EDAC3800034054000340900000200000000000000000000000000000000000000000000000000000000000000000000000000000000000000000AD
:400080000000000000000000000000000000000000000000000000000000000000000000000000000000000000000000000000000000000000000000000000000000000040
:4000C0000000000000000000000000000000000000000000000000000000000000000000C0040031626E0200B11101210000000000000000000000000000000010B5064C3E
:400100002378002B07D1054B002B02D0044800E000BF0123237010BD100100200000000070100000084B10B5002B03D00749084800E000BF07480368002B00D110BD064B8B
:40014000002BFBD09847F9E70000000014010020701000009800002000000000302230B51B4C1C49A36AC3B09343203A1343A3620500F032883102A800F06CFF164B6A4659
:400180000093FF230193154B9A60154A5A60C046C046C0469968090F0A070A2910D111492D040D436946009599600F495960C046C046C0469B6800201B0F1B07934200D0E4
:4001C0000C203022A36A9343A36243B030BDC046000003402C010020B6D700000000104004000080B6D8000005000080074B1A78074B1878074B000219780B041843030097
:400200001343054A1078000618437047C1FF0100C2FF0100C3FF0100C4FF01001823F0B54343184C0500E3181E699A8B002E02D10E70300024E0144B8000C758C2239B00C8
:40024000F8581F231840031C082800D908239BB20B70182169436118D318898A9BB2002099420DD3D0218900934204D97858B054013292B2F8E7182045436419A2831738EE
:40028000F0BDC046AC0200207410000030B5134B8200D35812491A681025520052081A60182250430F4A104C10180222027300225A5082830121F82049420001195018595D
:4002C000A8431851F42000011950803019508021DA661A6809060A431A6030BD74100000880F0000AC020020480F0000F0B5764B820085B0D45802ABD91D00230B70734B65
:400300000600E25801231A4206D0714822589A432250E8221201A3506E4B0125E35800930223009AFF331A4202D000231D000093009BDB0645D518277743674BDF19387B0A
:40034000019304280CD03000FFF768FF051E0CD00521BA8BBB69012039739847050004E00100BB6900220220984718237343019A8020D31802221A7300229A8381229200AD
:40038000A35840020343A350A158544B1940A1500132FF32A1580143A150A1580B40A35001224F49635893436350F82310211B01E2504C4AA3588B43A350F42330221B01AC
:4003C000E250009B5B063AD5E82201271201A3583B43A350182373433F4AD318197B0192022929D1626ED2060DD500220231197310009B69984700281ED0F8231B01E7507C
:40040000374BE75003E005221A73002D14D0F423302210211B01E250324A0125A3580B43A350019B68339B5D002B01D1E56606E0019B6C339D5502E002230025E366F4237F
:40044000009A1B01E250002D03D13000FFF71EFF38E00127244BE35800933B421FD0182373431D4A0421D31800229B6910009847002814D11A4A8021A3584902BB43A350A1
:40048000F82381221B01E7509200A35805000B43A350A158114B0B40A3500223E366F823009A1B01E250114BE758FB0705D502ABD91D3000FFF7B2FE0500FC231B01E750ED
:4004C000002DC2D005B0F0BD741000008C0E0000880E00004C0F0000AC020020FFFFFEFF880F0000480F00008C0F0000CC0F000010B50020FFF7FAFE10BD004770B5827899
:400500004478C378120222431B0413431A00037906261B06134349D0827A447AC37A120222431B0413431A00037B1B0613433DD08279417912020A431202511CFF311C4C54
:40054000CD18A54232D80578080000210133FF339B18834204D0067801308919C9B2F8E74942C9B206268D4220D180239B00D518A5421BD80F4B2988994217D1E979AB7957
:4005800009021943287A00230A290BD00A4C49191219914204D0147801321B19DBB2F8E75B42DBB20626984200D10026300070BDFFFF0100594300000A02000070B500F0D8
:4005C0000DFD1B4B05001A007032D688194CB6B2002E19D0196F230008787E331870230048787F331870CB7889781B020B4304339BB213810122A3791343A371DF230E4A3D
:4006000011680B4013600EE09288186F310000F019FD23007E331E70230001227F331E70A3799343A371280000F0DCFC70BDC046AC0200202C0100200002044070B5040022
:4006400000F0CCFC1E4A11007031CB888D88CE889BB2AE1B072E18DCCC882D1B0024032D27DD8125166FF554166F5D1CADB27455166F9D1CADB274550333126F9BB2D4548B
:40068000CB8804339BB2CB8013E0156FEC540024166F5D1CADB27455166F9D1CADB274550333126F9BB2D454CB88013404339BB2CB8000F097FCFFF781FF200070BDC046E2
:4006C000AC020020F8B5584C01286AD1574D2E007C3673789C461F0961460F230B402900022A28D80025E5612562012A16D0AF4200D096E0022B0ED14D4B31781B88994280
:4007000000D38EE04B4A083388325118D318E1612362050085E0002B00D082E000257C310A7853B2AB427CDB424B01359A188833E261236275E0002B14D0002F65D1022B81
:4007400063D13B4B3B4835781B88023A883092B240195B1B934200DD13009AB27E3100F079FC52E0002F50D1631DDB7F6835E8546346002B0ED13378062B0BD12D49B3787F
:400780008979194206D020252B480168A943CBB22B4303600121023AA31D92B2D977E28433E00025A84231D1E369AB422ED0226A050093422AD2D21A082A01D9082201E0D3
:4007C000002A23D0611DC97F1C4889000D58822189006858EA39FF3901400820411AD2B2FD30C9B2FF308A4202D20121295002E004222A500A0090219A1889009A4203D0FC
:40080000187801336850F9E7E26101250634E17FC9B2002905D19022044852007C3000F011FC2800F8BDC0462C040020AC0200209C0000202C010020000204407410000012
:4008400070B5C3071CD500F0C9FB144B05001C0070342289002A0ED02189186FE388228941189A1A00F0F6FB2289E3889B1A9BB2E38000232381280000F0B4FBFFF79EFE3D
:4008800000F0ACFB064B9B79002B04D0DF23054A11680B40136000F0A5FB70BDAC0200202C0100200002044010B500F09FFB03680C2B00D1FEE7FEE7F7B50122364C374D36
:4008C0002368374E93432360002336489A002900032B00D8B15801338150232BF6D172B6FF220027304B07261A60304BFE3A1F602F4B304D1A60304B1F321A60C0222F4B2B
:4009000092021A6003222E4B1A602E4B21321A602D4B123A1A6000F061FB01902B682B4AB3432B602A4B2B491B78DBB213602A4A1368B3431360294B0A6818787F239A43DE
:40094000034013430B60322000F03EFB05222B683220B34313432B6000F036FB06222B68B34313432B60019800F03CFB80221C4B52001A601B4A1C4B1A601C4B1C4A1F603B
:400980001C4B1F6011680123B94200D11160226813432360F7BDC04600001040A90800000000000000000020000502400001024008010440080F0340000204400802044074
:4009C0000005044008050440300010400C0F03407DF3FF0F180F0340100F034064F3FF0F0002014000FF0080000001402800034090000020000101408023D44A5B00F0B5AF
:400A000013801300132200255A80D14BD14CDD77D14BD24A7E33D3612700902285B0290070375200CE4800F00DFB29000C22380000F008FBC94B2026283323679123C94A6C
:400A4000BE809B00D75829008022C34800F0FAFA1322C14B80215F809A803A331E70BE4AC14BC120D363B94BC04A1B7980000093BF4B49021D601A6681229200DD6699504B
:400A80001950BC49F4265D500121FE27494236019951B94E3F049D51083E9951B74E9D51B446083E9951009E196876003E43C427BF00DE510826113FFF36FF3FDE51013742
:400AC000FF37DE5180263606314319600221E1722173A34901262161902149002672A583A182A7490427A161694609786172FE21A1729F501F501C58A2490C401C5098588F
:400B00000140995042229B49FF325A5062469E509D4A9E4B1A6080229D4BD2001A609D4A8B4B1100DB7F2831CB5C80219B00D3181A69490493680B43936062B68020FFF729
:400B40007DFD864E944848363570FFF7D7FC7F4B824C0093804D002800D037702300082148331A788D4E0A431A708D4A1168100089B2B14206D1002111601A7801310A43B5
:400B80001A701DE01978042312680B4092B2002B16D184498A4205D07F4A8349928A8A4200D0C4E1009AD3802300002249331A7080237E4A036013687D499BB20B43136026
:400BC00002AE08220021300000F03CFA2300902248331B782A706B705B0703D5802332009B0007E06C4B5B681B021B0C01331A02E0329BB22800E02110309C4688C988C06A
:400C0000010009CA09C10CCE0CC163462B8580239B006B85230014224A331A80654B009A009913815381132201938A81624BDB7F002BFBD047490B007C335A780E00120917
:400C400000D05FE1E78C1878FFB20B2871D00AD8082812D00A2856D0062800D076E19878FFF7EEFD4EE1342800D139E13B2800D141E10C2800D069E1A4E0012F00D865E1BE
:400C80009E780520522E00D03AE1DE78002E29D0012E00D034E149481F360368B343DBB2334303600800631DDB7F68306C31C254CA5C002A08D00021264A6C32D154354A28
:400CC0009B009B580122DA66F02000F07DF972B60022334B36491A60344A13689BB20B4313600FE10F007037BA88086F310000F0A9F93E810720FE80FFF7A2FD631DD87FD3
:400D0000FFF7C4FAFBE09878230001214C33502805D1197023004D3319704E38F0E01E7805200E4200D1EBE01A7023004D331A70DFE09B78012B00D100E1022B01D1204882
:400D4000FDE007230233D8B2DAE0C0469C00002031040020AC0200202C0100202C0400202803002000F0FF0F220300008828004000000540480F0000880F0000C80F000009
:400D8000C5060000FFFFFEFFF10400006800002000E100E074100000C0FF01004C4200009000002031420000594300000CED00E00400FA05FF010000320400200002044026
:400DC000C0FE01000520032F00D899E09A78462A00D095E0DB78012B58D123004C331B78002B56D07C36707933790002184323004A331B8883424ED8009B1B89834203D2EC
:400E0000009B5B89834246D123004D331B78002B34D030214E4AFF26936A8B4320390B4393624C4B291DCB672B000833DE6780239C46AC446646484B9E60484E5E60C046B7
:400E4000C046C0469F683F0F3E070A2F10D1444F00043843C8676146996042495960C046C046C0469B6800201B0F1B07B34200D00C203021936A8B43936201E0FFF76EF9CC
:400E80000523002808D10300023006E00223052003E00E2300E007230220334A7C32D178002919D123004C331B780720002B27D05179137909021943009B9B898B421FD225
:400EC000019B99421CD82800802288300902520000F0C0F8032013E0002B11D007200FE09B780520522B0BD12B0088331A6812681A60033804E02A009B783B32137002206D
:400F0000FFF79CFB0021184A184B1000D977631DDB7F68306C32C154D05C884200D185E6D154134A9B009B580122DA667EE6114B9A4200D138E6FA239B0033E60E48FFF76C
:400F4000DDFA031E00D1FDE60623FBE60520D7E700000340B6D700000000104004000080B6D8000005000080AC0200203204002074100000FFFF0000C0FF0100F8B50025E9
:400F80000E490F4B01394A1C14D000221F685C689E68A018B24203D0B858A0500432F8E70200DE68141AA64201D020C2FAE710330139E8E700F020F8FFF71EFD010000009D
:400FC000C8100000000000000230800804D0C0460138FDD1C046C046C0467047EFF3108072B6704780F310887047C046014B18687047C0460C0100200E4B70B500251E0025
:401000000D4CE41AA410A54204D0AB00F35898470135F8E700F046F8084B00251E00084CE41AA410A54204D0AB00F35898470135F8E770BDB0100000B0100000B010000024
:40104000B810000003008218934202D019700133FAE77047002310B59A4203D0CC5CC4540133F9E710BD0000FD000000001200000000000000000540000006400000074076
:40108000000008400000044000010440000204400003044000040440000504400501030243000000F8B5C046F8BC08BC9E46704725010000B9080000F8B5C046F8BC08BC1B
:4010C0009E467047FD000000D81000009800002078000000F8040000000000000001130008003200FF010002FF0100000000000000000000000000000000000000000000F4
:40110000000000000000000000000000A0100000000000000000000000000000000000000000000000000000000000000000000000000000000000000000000000000000FF
:40114000000000000000000000000000AC000020000000000000000000000000000000000000000000000000000000000000000000000000000000000000000000000000A3
:40118000000000000000000000000000000000000000000000000000000000000000000000000000000000000000000000000000000000000000000000000000000000002F
:4011C00000000000000000000000000000000000000000000000000000000000000000000000000000000000000000000000000000000000000000000000000000000000EF
:4012000000000000000000000000000000000000000000000000000000000000000000000000000000000000000000000000000000000000000000000000000000000000AE
:40124000000000000000000000000000000000000000000000000000000000000000000000000000000000000000000000000000000000000000000000000000000000006E
:020000040001F9
:40FFC0000000000000000000000000000000000000000000010000000000000000000000000000000000000000000000000000000000000000000000000000000000000000
:0200000490303A
:020000004FC8E7
:0200000490402A
:4000000000000000000000000000000000000000000000000000000000000000000000000000000000000000000000000000000000000000000000000000000000000000C0
:0200000490501A
:0C0000000002210111B10000210661790D
:0200000490600A
:0100000001FE
:00000001FF