:400000000020002011000000FD080000FD0800001C4A1D4B70B51A601C4B1D4D1A681023134000D12B602B68802B29D1194B1C79E4B2012C14D90021052000F0CBF80121C7
:400040000400052000F0C6F8E4B2C0B2002C03D0041E05D0032403E0441EA0410224241A0023210002202B6000F0B4F8002807D0012C05D82100022000F0ACF800F0FEF8A7
:4000800001F0D0F86588EDAC3800034054000340900000209C0000200000000000000000000000000000000000000000000000000000000000000000000000000000000083
:4000C000000000000000000000000000000000000000000000000000000000000000000088030031626E0100B111012100000000000000000000000000000000000000008F
:4001000010B5064C2378002B07D1054B002B02D0044800E000BF0123237010BD10010020000000002C130000084B10B5002B03D00749084800E000BF07480368002B00D1D3
:4001400010BD064B002BFBD09847F9E700000000140100202C130000980000200000000018234343F0B5134CE3189D689A8A002D01D10D701CE0104B8600F658C2239B0070
:40018000F7581F231F403B1C082F00D908239BB20B70D021D3189BB28900934204D97758AF54013292B2F8E7182358432418A282F0BDC0462C01002030130000034A044956
:4001C00013689BB20B4313607047C0460CED00E00400FA05013810B50B2830D80902494201F08CF806080A0C0E10141216191B20164B13E0164B16E0164B0AE0164B12E07E
:40020000164B0BE0164B09E0164B02E0164B00E0164BC91815E0164B05E0164BC9180878C0B212E0144BC9180A7848788C780002230418430300C8781343000604E001BEB5
:4002400000210B7848780002184310BDC0FF0100C1FF0100C5FF0100C9FF0100D0FF0100D1FF0100D6FF0100D2FF0100D4FF0100D8FF0100DCFF0100E0FF010000470000E9
:400280000122024B60331A707047C0462C010020F7B5C37D827D1B0213430122324D01009446AB425DD182784478CB78120222431B0413431A000B791B06134351D08A7A90
:4002C0004C7ACB7A120222431B0413431A000B7B1B06134345D08A794879120202431202501CFF30214EC418B4423AD80F78040000210133FF339B180193019B834205D02B
:40030000037801309C466144C9B2F6E701234942C9B29C468F4224D1631CFF33B34220D8023B5B88AB421CD1FF34217AE37909021943607A00230A290ED080250C4CAD007F
:40034000141952195118A14204D0227801349B18DBB2F8E75B42DBB2C31A581E8341DBB29C466046FEBDC04659430000FFFF01000A020000F7B5194C194D2B590194DB03AB
:400380002AD50026FF271748330102006432D218117AC9B2FF2914D0C318986E01389866986E00280DD117720F4A5432944664461278013AD2B222701A6F002A01D01B6FD2
:4003C000984701360F2EDED1074B54331B78DBB2002B01D1019AAB50F7BDC04610D00000001000E02C0100202C020020134B8200D35830B51A68F821520052081A6018225F
:4004000050430F4A102510180222027100200D4A0D4C98500122090152425A501959A9431951F42109015A5080315A508021D8661A6809060A431A6030BDC0463013000060
:400440002C010020880F0000480F0000654B8200F0B5D458002385B002AAD371624B0600E25801231A4206D0604962589A436250E8221201A3505E4B0125E35800930223EF
:40048000009AFF331A4202D000231D000093009BDB063FD518277743564BDF193A790193042A0BD002ABD91D3000FFF759FE0521BA8A3B690120397198470500182373432F
:4004C000019A8020D31802221A7100229A8281239B00E25840020243E250E158464A1140E1500133FF33E1580143E150E1580A40E25001224149635893436350F823102166
:400500001B01E2503E4AA3588B43A350F42330221B01E250009B5B0639D5E82201271201A3583B43A35018237343324AD3181A79022A29D1626ED2060DD50421002219714B
:4005400010001B69984700281ED0F8231B01E7502A4BE75003E005221A71002D14D0F423302210211B01E250254A0125A3580B43A350244B1A005532925D002A01D1E56633
:4005800005E059339D5502E002230025E366F423009A1B01E250002D03D13000FFF726FF1EE0194BE758FB0709D518237343114A0421D31800221B69100098470500F82386
:4005C0001B01E750114BE758FB0704D502ABD91D3000FFF7C5FDFC231B01E750002DDCD005B0F0BD301300008C0E0000880E00004C0F00002C010020FFFFFEFF880F00004D
:40060000480F00002C0200208C0F0000CC0F000010B50020FFF71AFF10BD0000F7B500F031FE1F4B019019001F005E31FF31CA7D5E37002A2FD04C7C002C2CD1F62084464B
:400640005D33FF33DE8ABA195278BE5D0092154A9444604606706846150001260078F732107078354E74AA790F493243AA71DF220D682A400A601021DA8AFF31223292B287
:400680008A4201D8DA8200E0DC82054B5E33FF33DA7D013ADA75019800F0F8FDF7BDC0462C0200202C03002000020440012110B5104C084213D000220F4B5E33FF335A746F
:4006C000DB7D934209D10D4A926F137053702200783293798B43937101E0FFF79FFF7834A379002B04D0DF23054A11680B40136010BDC0462C0300202C020020AC040020A7
:4007000000020440F0B500254B4BCBB0029501900395984200D98AE0802248495200F8310AA800F0F5FDFF22454B464C0893464E464B08AF7A6027603360C04623681B0F10
:400740000F2B03D1236813401D0004E023681B0F0A2B00D025680295029D002D69D100F091FD3B4A3B4B04A97C320493059221603949344B3160C0462168090F0F2902D1D1
:400780001D68EDB204E01968090F0A2900D01D680395039B002B12D1304D2A492560304D3560C04625682D0F0F2D02D10B68DBB204E00D682D0F0A2D00D00B680293029B26
:4007C000002B18D1274908910199089D09042943254D089127601B493560C04625682D0F0F2D02D10B68DBB204E00D682D0F0A2D00D00B680293039B002B15D11B4D06A951
:400800000695079221601A490E4A3160C0462168090F0F2902D11368DBB204E01168090F0A2900D01368039300F030FD01E00423029302984BB0F0BDFF0100002C03002029
:40084000B6D70000080010400400104004000080AC040020B6E9000016000080B6E8000015000080B6D8000005000080B6EA000017000080F8B5050000F004FD1E4B040029
:400880001A0019001F005E32FF32D07D5D31FF315E378A8A082815D1002A02D11132FF328A8219005D33FF339A8A0025223A93B281225E31CA54CB1820005D7000F0E6FC27
:4008C000280017E00026BD54551CADB27E551025223292B2FF35AA4201D88A8200E08E825E330130FF33D875FFF798FE200000F0CDFC0120F8BDC0462C02002010B500F0B8
:40090000C9FC03680C2B00D1FEE7FEE770B5012852D10F233F4D6C7D290026092340022A18D8012A0ED00024A64270D1022B07D1394B2A7DF8339B18384A0400936166E0A2
:40094000002B64D1344B0A7D78339B18334A012493615CE0002B13D00400002E4CD1022B4AD12D482C7D023AF830FE3392B200191B1B9A4200D91A00163100F0C9FC3AE011
:40098000274B55331870002C0FD12B7D062B0CD1214BA97D78339B790B4206D0214820340168A143CBB22343036001241B4B023A92B21C77DA831FE0002404291CD1822352
:4009C0000826194D9B00EA58EA3B1449FF3B13408C69F31ADBB220001A1CB34200D9321CD2B2A31890229200834203D004780130AC50F9E78B610124084B197FC9B2002932
:400A000005D1812203485200143000F06FFC200070BDC0462C0500202C0300202C0600202C0200200002044000000540F7B50122374C384D2368384E934323600023374800
:400A40009A002900032B00D8B15801338150232BF6D172B6FF22324B01271A600022314B07261A60304B20321F60304B304D1A608022304B92021A6003222F4B1A602F4B61
:400A800021321A602E4B123A1A6000F0FBFB2B680190B3432B602B4B2B4A1B782B49DBB213602B4A1368B34313602A4B0A6818787F239A43034013430B60322000F0D8FB45
:400AC00005222B683220B34313432B6000F0D0FB06222B680198B34313432B6000F0D6FB80221D4B52001A601C4A1D4B1A6040221C4B1A6000221C4B1A601C4A3B001168EE
:400B0000002900D11160226813432360F7BDC04600001040FD080000000000000000002000050240000102400801044000020440080F034008020440000504400805044059
:400B4000300010407DF3FF0F0C0F0340180F0340100F034064F3FF0F0002014000FF008000000140280003400001014090000020F0B5DA4C81222600D948DA4B87B0F6364B
:400B80005200002114309E61250000F0AFFB8C22D5487835520000215E3000F0A7FB80220021280000F0A2FB912308222B70CF49B4336A70FF33CB5821216B802300B4335F
:400BC00019601323AB802300012521002000A4331D70C74B88310B60C6498C300160200090300360230094331960C34BC34C9E67C34BC44E1A702368013A9343053A134328
:400C000023603368C04FAB43DBB22B433360782000F02EFB3B682B4201D1402310E00722236878209343043A134323603368AB43DBB2336000F01CFB3B682B4202D04223F5
:400C4000AF4A137007222368802193432360AC4BAE4C1E780023AE4A2360C12022668122800092004902E366A1502150A949F42563508C460121FE2749422D016151A64DDC
:400C80003F046351083D6151A44D6351083D615175003D43C427BF002168E5510825113FFF35FF3FE5510137FF37E5519C4D01272943216002219B4DE970297188496E70D8
:400CC0001431A96081214900A98197492F702961FE21A970FA39AB82A1502150265893490E402650A0580140A15042226146FF3262508A4A8E49A7508E4A116080218E4AF4
:400D0000C90011608D498E4A886802408020400402438A6062B6734E8A48F719FB77FFF7B7FA00960294764E002801D00423FB778548FFF7ADFA002805D00821009B5A1C8F
:400D4000D37F0B43D377814B81481A68190092B2824208D1002201211A60009B5A1CD37F0B43D37795E01A681868009B92B20133DC7F80B2230712D4764B984213D00423F3
:400D80007548234000D02DE2824219D06E4A6D48D469C769BC4200D328E202000CE00423234002D075E001230AE06B4CA24207D0684A904204D0634A928A6848824201D14C
:400DC000002204E06648824202D0FA2292007280337173889BB20193002B04D180330B60FFF7ECF955E02A0000232800FF216032137064301A018218013311720F2BF9D1AD
:400E00000024394B574E54331C70574F574A584BF451F250574B584A1A6000F033FA03972F00FF23B44664372201BE18367AE1B2FF2E00D10B00BA18127A002A07D12A4A6D
:400E400054321378013BDBB213700B0004E001340F2CE9D1FF2B1AD069462A00898864321B019952ED18D3180022444929671A72019BAB661C4B1A0054321278D2B2002ABA
:400E800000D190E154331A780132D2B21A7000F0FDF98020FFF7EEFC0822002104A800F025FA0E4990200A00009B78320133DB7F107053705A0703D5802204AC920007E0FF
:400EC000204A52681202120C01321402E03492B21B0755D5802304A89B0059E02C0300202C0500202C0600202C02002000F0FF0F88030031626E0100AC04002008010440A4
:400F00009C00002000010440040104400000054088280040480F0000880F0000C80F0000000100802C0100200D090000FFFFFEFF110600006800002000E100E000050440E5
:400F4000FFFFFFF8C0FF0100C0FE0100900000204C420000324200003142000059430000FFFF0000001000E010D00000BF5D000014D000003C000020750300008102000017
:400F80009B4B5B681B021B0C01331802E0309BB20F000E00E0257837019788369C4688CD88C60D00903548CC48C5983118C818C1019B904F1A8562465A851423009A53842F
:400FC00013228D4B7A81FB803B810193009B1B7F002B00D1BBE0894C637D1B0900D0A0E0009B207DDA8B0638D2B2062800D9EAE000F084F904E908E92B353D00A07DFFF7FE
:4010000055FB8EE0012A00D8DDE0A27D0523522A00D083E0E47D002C10D0012C00D07DE0202077490A688243D3B203430B6072B60022744B1A60FFF7C1F872E00720FFF767
:4010400035FB2000FFF7D2F907E0A27D0523502A64D1009B4F3A0533DA7702235EE0A37D012B00D1A7E0022B57D16148A4E00523032A53D9A27D462A50D1E27D012A30D190
:40108000009B0533DA7F0723002A47D0657E227E2D021543009A528CAA423FD8FA88AA4202D23A89AA4239D1019B9D4201D1504E04E0FF235B009D420CD1534E3000FFF74A
:4010C000E7F80023984200D1F369EA224F49013352008B502800FFF715FB0223002800D00533E27D002A19D1009B0533DA7F0723002A13D0617E227E090211437A898A42DC
:401100000CD2019A914209D88022404809025200F83000F0FDF8032300E009231800FFF7A9FB8122354852000021143000F0DEF80022009B1A77364B1900593355310A70F9
:401140001978914203D01A70029B0132DA66009B304C0533DB7F002B1AD000F093F82100002364311A018A181500127A0835002A2BD001330F2BF5D1254B54331B78DBB281
:40118000002B2BD000F082F82300002260331A7060342378002B00D118E78022194B1A60FFF70CF812E764461B49625007226146039C0A5166E61448FFF76AF802230028C9
:4011C000ACD00633AAE70523A8E7FF23104A2B7054321378013BDBB21370CDE70F4A10498B50CFE7824200D1DDE5014A0123E3E5C0FE01009C000020FF0100002C0500202D
:401200000002044090000020C0FF01002C0300202C0200202C01002018D0000010D00000001000E0F8B500250E490F4B01394A1C14D000221F685C689E68A018B24203D05D
:40124000B858A0500432F8E70200DE68141AA64201D020C2FAE710330139E8E700F020F8FFF786FC0100000068130000000000000230800804D0C0460138FDD1C046C04678
:40128000C0467047EFF3108072B6704780F310887047C046014B18687047C046080100200E4B70B500251E000D4CE41AA410A54204D0AB00F35898470135F8E700F042F80B
:4012C000084B00251E00084CE41AA410A54204D0AB00F35898470135F8E770BD5013000050130000501300005813000003008218934202D019700133FAE7704702B47146E6
:4013000049084900095C49008E4402BC7047C046002310B59A4203D0CC5CC4540133F9E710BD0000F200000000140000000000000000054000000640000007400000084040
:4013400043000000F8B5C046F8BC08BC9E467047290100002D0A0000F8B5C046F8BC08BC9E46704701010000781300009800002078000000480500000000000008003200F9
:401380000200FF010002FF010000000000000000000000000000000000000000000000000000000000000000401300000000000000000000000000000000000000000000D6
:4013C00000000000000000000000000000000000000000000000000000000000000000000000000000000000A8000020000000000000000000000000000000000000000025
:4014000000300020011900005953000059530000000000000000000000000000000000000000000000000000000000000000000000000000000000000000000000000000EA
:40144000000000000000000000000000000000000000000000000000000000000000000000000000000000000000000000000000000000000000000000000000000000006C
:40148000000000000000000000000000000000000000000000000000000000000000000000000000000000000000000000000000000000000000000000000000000000002C
:4014C00000000000000000000000000000000000000000000000000000000000000000007A060132626E0200B1110121000000000000000000000000000000000000000083
:401500005943040000200004F83CB4040100010000020B000000000000000000000000000C0214000000000000000000200218000000000000000000E803000000000000A5
:40154000020102000000010001040F0203070101010101000100000000000000000000002C9101262CD102002CB104002C4106000000000000000000000000005A900126F7
:401580005A30429A00000000000000000000000000000000000000005A005A00000000000000000000000000130038023C02440248024C0250020000000000000000000056
:4015C0003C000000000000000000000000000000000000000000000000000000000000000000000000000000000000000000000000000000000000000000000000000000AF
:4016000000000000000000000000000000000000000000000000000000000000000000000000000000000000000000000000000000000000000000000000000000000000AA
:40164000000000000000000000000000000000000000000000000000000000000000000000000000000000000000000000000000000000000000000000000000000000006A
:40168000000000000000000000000000000000000000000000000000000000000000000000000000000000000000000000000000000000000000000000000000000000002A
:4016C00000000000000000000000000000000000000000000000000000000000000000000000000000000000000000000000000000000000000000000000000000000000EA
:40170000B404E1F6437970726573730014000000418000FFB4040090000000000000E1F6B404E1F6000000000101000000020000000000000001003C04140A0208140A0222
:4017400032010A000446010004320100041E01000C00000000000000000000000000000000000000000000000000000000000000000000000000000000000000000000007B
:401780000000000000000000000000000000000000000000000000000000000000000000000000000000000000000000000000000000000000000000000000000000000029
:4017C00000000000000000000000000000000000000000000000000000000000000000000000000000000000000000000000000000000000000000000000000000000000E9
:4018000000000000000000000000000000000000000000000000000000000000000000000000000000000000000000000000000000000000000000000000000000000000A8
:401840000000000000000000000000000000000000000000000000000000000000000000000000000000000000000000000000000000000000000000000000000000000068
:401880000000000000000000000000000000000000000000000000000000000000000000000000000000000000000000000000000000000000000000000000000000000028
:4018C00000000000000000000000000000000000000000000000000000000000000000000000000000000000000000000000000000000000000000000000000000000000E8
:4019000010B5044B83F30888034A044B1A6005F0BBF9C046003000206588EDAC3800034010B5064C2378002B07D1054B002B02D0044800E000BF0123237010BD38010020AD
:401940000000000074C80000084B10B5002B03D00749084800E000BF07480368002B00D110BD064B002BFBD09847F9E7000000003C01002074C800009800002000000000FC
:401980000C2359436933FF334343C9180E4B5918FF238B720D4B190074310A5C013AD2B20A54190075310A78013AD2B20A700A78002A07D176331B78002B03D18022044B7B
:4019C00092001A607047C046540100205402002080E100E0144B020030B506209A4222D853781178114C1B020B43A3421BD11000D1799379090219430A30147A0A39031ECA
:401A00000DD000231000994209D0851A8D4204D2857A01305B19DBB2F7E75B42DBB206209C4200D1002030BDFFFF010059430000002310B59200934203D0CC58C450043357
:401A4000F9E710BDF7B505000F00009205F07DFDBA23060000245B006B4301930C236343019AE1B29B18094AD3189B7ADBB2BB4205D3009A934202D82800FFF781FF0134CD
:401A80001F2CEBD1300005F064FDF7BD5401002030B50023FF2911D0BA220C2552005043074C2A005A431218A218927A914204D001331F2BF5D1002300E00123180030BD4C
:401AC0005401002010B5914203D2FF2A01D0FFF7B9FF10BDF8B504000D0005F036FD0600FF2D11D00C22BA200023944640006043094F62465A431218BA18927AD9B29542A7
:401B000006D001331F2BF4D1300005F022FDF8BD2000FFF735FFF7E75401002030B53024174B9A6AA243203C22430C009A62154A083C2260FF2204390A60134A134994600F
:401B40005160C046C046C04695682D0F29070A2D0FD10F4D0004284320600E4894605060C046C046C04692680020120F12078A4200D00C2030219A6A8A439A6230BDC0469E
:401B800000000340B6D700000000104004000080B6D8000005000080842210B5C2B004005200002168460AF0C8FD074B1B78002B01D1052005E002A92000FFF7AFFF00282A
:401BC000F7D142B010BDC0463C0800200200F8B5817A447AD37A090221431B040B431900137B06201B060B4332D09479517924020C432402611CFF31CD18AC46154DAC45DC
:401C000026D89678557836022E43D5782D0435432E0015792D063543A94219D8AC4517D915780A1E0CD000220133FF331B19994204D0087801311218D2B2F8E75242D2B2B5
:401C40000620954204D180239B00E018FFF7C2FEF8BDC046FFFF0100094B70B51900094D78312A6C098892B204001E008A4202D0642004F0D5FE330078332C641C8070BDAE
:401C80005402002000000340F7B5494C01232200484D76326B6413700195019B464ADB6B128899B292B21B041B0C914202D8802040021B1800269B1A9BB200933E4B19803F
:401CC0000C2272433D4B9918897A1F00C9B2FF292AD09858844600980530844503D99858009D401B00E0002098500C2272439858002819D1BB18FF229A7274229446A444D0
:401D0000624665461278013AD2B22A7075229446A444624665461278013AD2B22A705A68002A01D05B68984701361F2EC8D1230075331B78DBB2002B1ED0002320480C22A5
:401D40005A43B918897AFF2903D0B958814200D2B85801331F2BF2D1174B019A1B88D26B9BB291B21204120C8B4202D3802149025218D31A9BB200E01148053383428CD893
:401D8000230080B27C33188023007A331B88C01880B2FFF761FF2300002276331A7075342378934203D18022064B92001A60F7BD5402002000000340CE020020540100207E
:401DC000C0FF000080E100E0F0B585B005000C00170001930020FF2900D1A7E0824200D1A4E005F0B2FBFF2202901E230C20944675326A430392BA22060052006A435E438D
:401E00004B49B2188A18927AFF2A01D1DAB294460C225A43039E921989188A7A94420ED1DBB29C46434B190074314A5D7533013AD2B24A551A78013AD2B21A7005E0013B60
:401E4000D9D263460026FF2B6CD063460C225A43BA235B006B433649D21801988B181F8158609C72334C0E0023007E331B885F432300575076331B78002B47D120002E4B95
:401E80007530DB6B00789FB2039020007A3001900398002827D0019A1B0412881B0C92B2974202D8802149025B189B1A61460C2251436932FF326A438A18B1589BB25B18F3
:401EC000B3501C4BB75819007C31088887421DD2B2587A3392B20A8018880B88C01880B2FFF7BAFE12E0019B1F805058134B984200D91800230080B27C331880381880B2CF
:401F0000FFF7AAFE80220E4B92001A60220001267432535D75340133DBB2535523780133DBB22370029805F014FB300005B0F0BD540100205402002000000340C0FF00003F
:401F400000E100E0402110B5094B5A680A4203D11A681143196002E01A688A431A60FA22044B9200C0210020FFF72EFF10BDC04600010440451F0000F0B5E84AE84B87B06C
:401F8000E84D9A4201D8012300E00223E64C2B702000FFF71FFD00281ED12300AA331A782300AB331B781B0213431B19002B13D0DE4EDB78337000F09FFC00280CD0C37831
:401FC000B3702300B2331A782300B3331B781B0213431C19002C08D12B78012B00D082E3D348FFF7D9FD04F021FD0222D14BDA6103321A62013A5A62013A5A633D32DA6218
:40200000CD4B313A1B689343D9B2CC4B1B681B091A400B001343113BC94ADBB21370002B05D02020C749C84A8B5803438B5000230C24FF21C54822005A43013382189172DB
:402040001F2BF8D1C24C0020230074331870230080220121802575331870BE4B92001A60BD4BBE4A2D069A63DA6C0A43DA64DA6A2A43DA625964BA4ABA49BB4D1160BB4ABC
:40208000BB4950505051BB4DBB4815501000DD6B0293ADB2029BDB6B9BB29D42FAD0AE4BDD6B052343508023AEB25B0242581A42FCD0029BDA6B93B29E4202D98022520250
:4020C000134322005B1B7E3213800023435062B607220125A94CAA4E236805209343053A134323603368A74FAB43DBB22B43336004F096FC40223B68019600922B4215D0F4
:402100002368393A9343043A13432360019B019A1B680520AB43DBB2136004F081FC42223B6800922B4201D10823009307222368954E934323606B4680221B7892023370D3
:40214000924B13271A6080220025914B52001A80904B914A1F80914B29001D70904B91481A60902252000AF0E8FA8F4C1822290020000AF0E2FA8D4B0136E3608823266093
:4021800020265B0023828A4A3533A680FF33894CD35820008022290003930AF0CEFA6B469B89A780638023003A331E7091235B00E363223BFF3B2C3423707F4B1D707F4B05
:4021C0001D70594B53331B78AB4200D02570502200217B480AF0B1FA534B764F47331A78D8235B00FA54504B002154331A78BA23FF33FA54B93BFF3B9C466246B433FF3332
:40220000FA546A46634B127880249A706D4B6E4A1960C1201A668122800092006402D9669C501C50694CF42519510124FE2664422D015C51664D36045951083D5C51654D81
:402240005951083D5C51009D1C686D003543C426B6009D510825113EFF35FF3E9D510136FF369D515C4D2C4365461C605B4C25700225E5702571A1824A4D484EA560902562
:402280006D00A581564D25616D462D786570FE25A57004249C501C501D58524C25401D50985804409C5042224848FF321A506046484A98504C4A4D4B80201A6080224C4B48
:4022C000D2001A6033784B4A4004D3181B7E9B009A5893680343936004A808220AF02DFA104B114C1B780396012B00D08EE04248FFF76CFCE022431E9841404BC0001A807B
:40230000FE223F4BFF321A803E4B01321A803E4BEC3AFF3A1A8091238EE0C046E0140000FF7F0000AC0000200015000004030020FF010000FC000140E80F00F0EC0F00F09F
:40234000BB08002000000A4068080000540100205402002080E100E0000003406588EDAC64000020891C000018D00000001000E010D00000BF5D000014D00000080104409D
:402380000001044004010440D4020020B0000020B40000209C000020360500203A080020E808002018070020040A0020F008002000F0FF0FB8040020000A00204804002077
:4023C000400600200000054088280040480F0000880F0000C80F0000000100805804002085640000FFFFFEFF7D4B00006800002000E100E078C80000C0FE0100B6000020B6
:40240000B8000020BA000020BC000020CE48FFF7DDFB1421431E9841CC4BCD4A5B681180CC4A1B0A1380CC4ACC4B80001A80CC4BED3AFF3A1A8092233B707870430708D4A5
:40244000C14B5A681202120C01321602E03692B202E0802204AE92000823184208D1BB4B5B681B021B0C01331902E0319BB202E0802304A99B00BB4800938446E0206746FD
:4024800028C828C7380028CE28C028C928C06B46B54E1B8832857385F26BB44BB4481340C022D2011343B34AF3631168B24B1A600023814206D1B14F51689368C9194D426D
:4024C0004D415B190021936051601060AC49AD4A8A808A88B286FF2B00D9FF2332003232137001220025A84B32201A70A74B1D7005F0C8F8A64AA74B1A60E31CDA7F231DE8
:40250000DB7F1B021343A44A042B03D9043B9B10137000E01570631CDA7FA31CDB7F1B02134304339D4AE3181360E31DDA7F23000833DB7F1B021343994A042B02D9043B63
:402540009B1000E000231370631DDA7FA31DDB7F94491B0213430433934AE318136023002A331A7823002B331B781C311B0213438E4A00201380230028331A782300293365
:402580001B781B021343E418894B1C6004F0E4FF002380211A00180004F0C4F96424854B1A780093002A01D002F0EEFA824B1B78002B2AD04022019B00201B680124134358
:4025C000019A1360019B9A687C4B1340C02252031343019A93607A4A7A4B11680B401360FA22794B9200C021FFF7EEFB774B784AD0210020FFF7E8FB33002C331B78234210
:402600000CD0002004F0D2FF08E09620013CC001E4B204F091FF002CC1D1CBE704AB1C70002304AA537004A90222742004F044FE002808D0022204AB1A70032304A9742085
:402640004B7004F039FE0227002004F0EBFF614C25003C352B783B420FD05F4A0321002005F058FA0F2808D080222B785242BB432B702B781343DBB22B70009B1B78002BDC
:4026800001D002F081FA0022544B3C341A6004F05CFF237805003B4201D000241BE033002D331B78002BF8D14D4B1B78002BF4D1009B1B78002BF0D104F094FF0028ECD01B
:4026C000484B1A0075321278002A0FD1009B01241B78002B15D0280004F03BFF002CB3D004F09AFFB0E7FF2040007AE4029A7833126C198893B28B42E8D0322004F090F9AA
:40270000E4E7039B1978384B8A00D258536E2342E1D118234B433549CB181B79022BDAD1334953582343535004F00FFF0421314B314A1B889BB21360304A13680B43136093
:4027400030BF04F006FFC6E7C0FF0100C0FE0100B6000020B8000020FF010000BA000020BC000020C8040020B8040020FF1FFFFFEFBEADDE00280020C0000020F4CFFC3F9F
:402780009C000020DC0500004C040020A8000020355F000050040020980800209C080020A008002078C80000A4080020A8080020AC0800209608002095080020FFFFE3FFE5
:4027C00000010240FFFFFFF0451F00008D700000EE02000040080020BD310000240A00203E0800205402002008CA000058040020880E000052F2FF0F0400034010ED00E07E
:4028000010B50023FFF7E0FA10BD704710B51B2906D1044B8200D358002B01D01A39984710BDC046E0080020C12108200B4BC9005A5882435A50C022D2009958023049000D
:4028400049089950995801439950985804490140F0200004014399507047C04600000A40FFFFFFBF8B1EF7B55A1E9341072205000C00D31A009305F013FA1D4BEE009F1913
:4028800039193A5D097A01932800914211D905F0FDF93B5D00990133DBB228003B5505F033FA00281CD000220421280005F032F916E004F0D9FE030072331B78002B03D0DF
:4028C00067300378002B08D1542302216B43094AD3183C331A780A431A70280005F0C0F9019B9E19305D3419237A181AFEBDC046FC02002040080020F0235843034BC01877
:402900008C300088024BC0187047C0462015000000150000064B02208522002900D184229200995801439950995881439950704700000A4010B50400064B1B18197CFFF746
:40294000E9FF054BA200D358002B01D02000984710BDC046FC020020B4080020044B8C22002900D08E22920098588006C00F704700000A40C023064ADB000420002902D1DE
:40298000D158814301E0D1580143D1507047C04600000A40C02210B50948D200835804001000002904D1074A13408022520303E0054A1340802292031343235010BDC0460A
:4029C00000000A40FFFFBFFFFFFF7FFF10B50C000021080001F0CAF9C0220749D2008B580800A021002C01D1C90300E009040B4302490B40835010BD00000A40FFFFFFBFB6
:402A00000349044A044B885803408B507047C04600000A4004060000FFFBFFFFC023054ADB00D058002901D1034900E003490140D150704700000A40FFFFFFFEFFFFFFFDA6
:402A400070B50D00002106000800140001F04AF90022964202D1134B1B681A5D124B002D01D15A6000E09A6018201A680E4982431A602200022C04D10B680E3213430B60AF
:402A80000D3AC0230949DB00CC5809489206204002438220002D00D08420C0050243CA5070BDC046A400002000FF0A4000000A40FFFFFFF310B504F023FE030067331B7822
:402AC000002B0CD11821064B68301A688A431A600278032A03D11A6808390A431A6010BD00FF0A40D42210B5194C9200A158194B0B40A350C022D223C921D2039B00E25018
:402B000089006258144B1A406250C021AE2249019200A150B02189006058104A02406250AC229200A1580B40A350C0228021D200A35809060B430021A350080001F016F9A9
:402B4000C1220821D200A35800200B43A35010BD00000A40FFFF9FFFFEF7FFFFFFE7FFFFF0B589B00D000400019204F07DFD00270600681E0497242800D91EE109F0B2FC88
:402B80006F0053006F00AD00AD001D011D011D011D016F005D001D011D011D011D011D01B7005F001D011D015F00C100CA00C800D0006F0025001D011D011D011D011D01B2
:402BC0001D011D014000DA00DA00C04BC049C14A1F601160C049C14A20001160C04A083917601A68FF390A431A600621002204F0DBFB54236343BB4AD3183E331F70DCE0D2
:402C00000221200001F0D6FDB74B6F3619193278497C914204D00020E1005E18B070C8541B195A74C9E054236343AE4AD318190000223E310A7039337AE0012300E000232F
:402C400076363278002A00D190E2002B04D00221200001F0AFFD0AE0152D00D1ADE00021200001F0A7FD29212000FEF733FF012D12D19D49002308000E000830E2008018DF
:402C8000C15C002904D0B718FF5CB94200D894E00133082BF4D184E0032D01D01A2D19D15426330063438F4FFB183C331B785BB2002B02DB200004F0FFFF0122002166436D
:402CC000BF193C373B7893433B70874BE20098188170D154122D70D163E054236343814A0121D3181A00393211703E330EE0542363437C4AD31841331B78002B00D039E2D3
:402D00005BE054236343774AD3183A3300220FE0022100E000212000FFF7A4FD04903DE05423012163436F4AD3183C331A780A431A7042E0330070331978200003F0A6FA8E
:402D4000330072331B78002B16D0330067331F78012F11D16F3631782000FFF75FFE9C235B006343604A6149D3184933FF331F70200002F0B7FD03E00021200002F03CFD4F
:402D800054236343574AD3187D223C331B78934300D0EFE104212000FFF764FD04AB01930BE0542363434F4AD3183C331B785BB2002B02DB200004F07FFF06AE0822002140
:402DC000300009F0BAFC002C00D0D3E1252D00D9D0E1474C012223002C331B78134200D1C8E144490978114200D0C3E1A81F162800D985E109F076FB22012A0184018401F3
:402E00008401840117003401340134018401840184016201840184016A01840184018401840184013401019B5B79DB096CD1019B019A5B789078002B26D102380E2800D98F
:402E400098E109F04FFB120086010F0097011B009701970197019701970189019701970197011E0000228D2578E10122224B8B251A70224B4C331A7000226FE100228A2523
:402E80006CE10022A42569E101380E2800D971E109F028FB6601700170010F00140017007001700170017001700170017001700136008023012292259B0055E10122A22561
:402EC00001E00122A32580239B024DE100000640960800806000064007010080000206400402064040080020FC0200200B280000B80400203E080020000A0020FC0300202E
:402F00000122902580232FE1019B9B4A1B78D55C002D00D12EE1012180230A009B02D62040002058184200D124E105AE002A00D181E0019B019A5B68002919D0D279D20929
:402F400008D0019A1A275278072A0DD89200023A97B209E08221019A4900D2880F00D205D20D8A4200D817001A0CB2701A0E08E052781C27072A00D89700019A1278B27010
:402F8000002233701B0A73703B1D9BB2F270029304F0DBFA794C03900299608A238A628A073180B29A1A914216DB628A9B1A032B3ADD8123E26813540023E168421C92B23E
:402FC0008B54E168821C92B28B540330E26880B21354638A043325E0E3681D546B46E1681A7A431C9BB2CA54E168831C9BB2CA54029AE168C31C9BB2120ACA54E368051D8A
:40300000ADB258190422310009F08EFBE3680199281D18183A00083109F086FB638A029A0433D3189BB26382039804F092FA012003F0EAFB9EE03300290086E008220199AB
:40304000300009F071FB0822B02106E004220199300009F069FB0422B1218027FF006DE0454AAB00D3185F68454B5A19117F019A423310785B5D01381B090F2811D809F05D
:4030800027FA0C101208101010101010100A1010100E102206E0202204E0402202E0502200E030221343337001220D2D44D10020344B1870344B4C3318703DE08027019B63
:4030C00001221B789B2133703F0137E0019B1B793370019B1B681A0A72711A0CB2712A4A33714C321B0EF3711378DBB2002B01D0002300E0234A13708621082220271DE0E3
:403100001D49AA008A1857681D4A51194232505D097FC20705D500251A4A15701A4A4C3215700022400707D50198904204D10120834320002C30037000291BD0D6235B00C9
:40314000E3583B4216D0330092B2012003F0EAFB10E000228C2501E000228E25402303E08023012291255B000021D8E6002B00D17DE56CE509B0F0BDF0C80000040A0020D1
:4031800070C90000000A0020FC03002010B51D210400FEF79FFCF22201200649D2008B5883438B50002202306043034B19188A70C25410BD00000A40B8080020C82110B5F1
:4031C00000228900040003F025F8002805D12000FFF72AFBFA22520009E0542308216343064AD3183C331A780A431A706422044B2E212000FEF7E8FD10BDC04640080020CE
:4032000005320000C82170B500228900040003F001F8002824D1542308216343144AD3183C331D780D4008D01A7820008A431A70FFF7FAFAFA22520013E07F221978200033
:403240000A401A7004F038FD29002000FFF7A2FB20000121FFF79EFB200004F0A7F905E06422044B2E212000FEF7AEFD70BDC046400800200532000070B504000D0001F02E
:40328000C1FA2F4B1B78002B34D1032262432D4BD15C00293FD09A185178884203D25278121A042A1BDC3D2819D9032262439A1891780131C9B291709278042A0BD8F22182
:4032C00001262148C9004258B243425003220021624399540BE02000FFF758FF2FE00322002162439A18507091701928E7D8174B022203E03C2806D90122144B2900200040
:40330000FEF762FD1BE0F2230F4ADB00D3587C2293433D3A08E03C28EED8F2230A4ADB00D3587C229343753A1343F2220649D2008B50032301216343024A9954DCE770BDBE
:40334000BB080020B808002000000A407932000070B5D024124DE40029510A200E0003F05FFBD22202239200AB500832AA581A4214D0002E12DBC1239B00EB582A595B0756
:403380009B0F120408D4012B08D1D32202219200AB580B43AB5001E0022BF6D070BDC04600000A40F7B50E00170004F0A9F9050067352B780224012B00D03C00882200234F
:4033C00052009C46012E00D19446C023314EDB00F1580A4000210191944509D0F1582E4A0A406146F250F2581143F150012301932A782A4B012A0BD168331F008B300078F4
:403400008200D35CBA18580153785B02034306E06833DF197B7B5A023B7B5B011343C022D200B7581B48BC46EE2761463F010F40BB4207D087581A493940815081580B4315
:40344000835002E0019B002B02D0322003F0E8FAAD239B00F258A0235B01134080225201934205D12C78013C624262410224A41A2A78012A04D15A1E93415B421C4006E037
:40348000002A04D1A0225201934200D103242000FEBDC04600000A40EFFEFFFF70C900001FF1FFFFF0B585B0070004F029F903006F331E78083B1A780B33040003AD1B7842
:4034C000012A40D1002B08D0AD23424A9B00D25806231A4201D0903441E0002E0CD0002238001100FFF75EFF0022287001213800FFF758FF68700BE0320001213800FFF7C3
:4035000051FF3200687031003800FFF74BFF28709C235B007B43304AD3184933FF3301931B78002B53D0AB5D022B02D1013BAB554DE08B34227831003800FFF781FA0023C9
:40354000019A137043E000220192012B2CD1AD23204A9B00D25806231A4003D08E3423882B8034E003009A3301931B78002B04D031003800FFF716FFA855AB5D002B03D13D
:40358000019B1B78002B05D1012231003800FFF709FFA855002270342378EA5417E0019B01330193022B12D06B461C79002221003800FFF7F7FE019BE8540028EFD00122BD
:4035C00021003800FFF7EEFE019BE854E7E7288805B0F0BD00000A40FC020020C122082170B5C025384CD200A358ED008B430021A350635908005B005B08635100F072FBA7
:40360000322003F00DFA0A228021A9206359090213432E4A6351A35880000B43A35023582B4A2C4913400B432350AA239B00E058C0250240E250E2586D010A43E250A82240
:40364000C0219200A35889030B43AC21A350224A890062506058214B18436050B020083165508000215829432150AD21890060580D00010206D5AF20802680002158360139
:40368000314321506159104E890106D5AF208025800031586D0129433150C921890062506258002013436350C021D223D422C9039B00E1509200A3580B430121A350084A22
:4036C000A3580B43A35070BD00000A4004060000FEFBFFFF1040000084242400010800006808000070470000064B01201A68064B1A4205D1A023054ADB00D3585B0A18407E
:403700007047C046A4000A400720000000000A409C235B005843024BC01804307047C046100300209C235B005843094BA1211B18002010B52D33FF331870064BC9005C58A4
:40374000054A22405A50A0220449D200995010BD1003002000000A40770FEBFF88F01400054B064A196800200A401A601968044A0A401A607047C046C4000A40FFFFFEFF80
:40378000FFFFEFFF134B00290AD11349134A086802400A60A121C9005858114A024011E0012910D10C490D4A086802408020C00102430A60A121C9005858094A0240802034
:4037C000800002435A50A0220649D200002099507047C04600000A40BC000A40FF80FFFFFFF9FEFB000601049C235B005843094BA0221B1800202E33FF3310B5064918709B
:40380000064BD2009950A121C9005A58044C22435A5010BD100300207F06090400000A400006010410B50021FFF7ACFFA121064BC9005858054A02405A50A0220449D200CA
:403840000020995010BDC04600000A40770EE9FF88F11600F0B59C2464006043134C079F24182000FC3047612C300370230005AD40CD2B332D78FF331D700D4D0D4B8800D8
:40388000C0582B00C8331860E02301201B01334001310343090419432B002C34AC3352B2FF341960EE602270F0BDC0461003002000000A40E8C90000F0B51E4B1E4C1A68E9
:4038C0009C235B004343E3182933FF331B78002B01D100202DE0002906D11F2308241340072B03D8210001E0102400219C220B0052005043104A10180A19934218DA05009E
:4039000006002A35FF352A78FC367669920097591A1D0A4E920097512A78013D0132D2B26A706A782D789542D3D90133DBB2E3E70120F0BDA0000A401003002000000A4075
:40394000F7B5A125414BED005959414A04000A405A51A0223F49D20099509C2252004243944601923C4A1E00944460462C30FF300278394F52B2002A06DA802037498001C1
:403980005A5802435A505EE0354A12681100354A0A400FD002780021013A52B2027080205A59400102435A51019B2B4A20009B58984748E063462A33FF331A700121200077
:4039C000FFF77AFF002804D080227359D20213437351A122D200B35823481C490343B3509C235B001A006243BA182B32FF3212780220012A02D14A68024301E04A68824315
:403A00006343FB184A602C331849FF330A681B78002B03D080231B031A4301E0144B1A4080239B021A439C235B005C433F193B0000202D33FF332C371870FF373B78013BCB
:403A40005BB23B700A600120FEBDC04600000A40FFEFFFFF98F014001003002004050000A4000A400120000088E00000C4000A40FFFFF7FF0221024A53688B435360704759
:403A800000000A4070B503F03BFE144A144B156801001D408223040075310978DB012B4367346630002904D12178012907D1862303E00178012902D18E23DB012B4313607F
:403AC000412208490B681B0C1B041A4323781C0203785B01234313430B6070BDBC000A40FF80FFFFC4000A4010B50223002926D03733FF335843134B134AC15000231349FC
:403B00001360134A134811600F21134A1160134A1E31FF3111601249124A1160A121C9004458114A22404250104A1148116889B211601168014311600E490F4A11601800C1
:403B400010BDC04610030020A8000A400F020000B4000A4000000A40BC000A40D0000A400A404101D4000A40000408C0E8000A4002000F7E41004100C0000A4070B50C00E0
:403B800005290CD102221C4DFF322B68080013432B6002F045FF2A68184B13402B60A022A121174B1748D2009850C9005A5802435A50154BA200D258144B1A60052C07D041
:403BC0008021134AC902136800200B43136011E00A24104B104E1A681D00324206D0013C0A20E4B202F01CFF002CF2D12B680F203342E5D070BDC046DC000A40FEFEFFFFA7
:403C000000000A4000010200E8C90000CC000A40C4000A40A4000A4007200000802210B5074C5203236832201343236002F0F8FE80222368520213430020236010BDC04653
:403C4000C4000A4070B50D0003F00EFDC0231F4CDB00E1581E4A0A4010210A43E250E1581C4A0A40E250002D0AD08B3002781A489200125CE1585002520102430A43E250E7
:403C8000AA239B00E158154A0A200A40E250E25813490E4D0A43E25002F0C2FEAE2370229B00E250B02260219200A3580B43A350AD239B00E258A0235B011A4205D0AF2225
:403CC0009200AB5840390B43AB5070BD00000A40EFFEFFFF1FF1FFFFD8C90000E8A3FFFF05140000F8B52027094B8C00094DE41863593B420AD128260A20665102F090FED1
:403D00006751300002F08CFEA0236351F8BDC04600000A406C080000C02210B5104BD200985810490140E02099509958000301439950AA21890058580B4A02405A50C1229F
:403D40000120920099588143995099580F300143995000210800FFF7C5FF002010BDC04600000A40FFFFF1CFFEFBFFFF70B50826054B064D8C00E41863590A203343635132
:403D800002F04EFE665170BD00000A406C080000F8B5051E0ED180225B495C485C4B12020A6018605B4B5C481A6080220A605B4908601A6080225A4C12062368082113432D
:403DC000C0222360D200A35864205B005B08A350C123DB00E2588A43E250E25807390A43E25002F01DFED222D200A35832205B005B08A350D4234B4ADB00E2504A4A10332A
:403E0000E2504A4A1033E250902210331201E25002F006FE002D5AD1454B1B78002B17D1444B454A197812788A18444909785218002A0BD1424B434A197812788A184249CE
:403E400009785218002A01D1404B1C33404A1360C0213F223F4B49009E6C986C164040000840304398641E6D186D164040000840304318659E6D986D3240400001400A43E6
:403E80009A65F322196F264E0A4004210A431A67314A0339A3580B43A350A3588B40CB40A350CF222D4BE25000F07CFC8823DB00E3589B0506D400F075FC294A294BB1586F
:403EC0000B40B3500221284AA3580B43A350102223680326134323600F3A042317005B1B9F401300751BAB4020483B4321580B43C6212350C9006358002013436350D023D3
:403F00001B4ADB00E250F8BD80E100E0396D00007C00002000E100E0454300005C00002000000A401636141C5F6B3D00143D0000BB08002036F5FF0F37F5FF0F38F5FF0F63
:403F400079F0FF0F7AF0FF0F7BF0FF0FE8C90000A400002000FF0A40DC070000240400001C060000FFFFFEFF4C0400002C06000000020080F8B5070003F0C2FB03008733CE
:403F80001B78002B5BD0B0217C222D4D89006B582C0093436B50AE239B00EA50030071331A78012A24D1020067321278002A1FD19E300678002E42D1224B1C7803F0C5FAA8
:403FC0004E235F433C19204B4634A4001C19D023D4211E4ADB006660EA50022289006B5893436B50D2239B00EA5003F0B2FA26E01978C9B2002922D1030067331D78012D78
:404000000AD18B30060002783800FEF719FD327829003800FEF714FDA9200D4A0D4BA15880000B40A35022580B4B0C491A400A432250AA229200A05803400B43A350F8BD1A
:4040400000000A40A8000020100300200002008004060000FFFBFFFFFEFBFFFF1040000010B50020FFF786FF012010BD9C235B00434310B5044AD3183433FF331B78002BED
:4040800001D0FFF777FF10BD10030020F0B585B0070003F035FB030087331B780500002B00D12FE10300010071331B78974C6731012B00D0A3E0AE201026B023800026505C
:4040C0009B00E2583243AA26E2500978B600A25901291AD174352D78042D00D108E107218A4303390A43A25120222250E1581143E150AD239B00E3585B0500D402E1AF2184
:404100008900635813436350FCE081490A4081490A436021A2512150E25838000A43E2502B0090331E88FFF7BDF980B2B04204D0AF229200A3582021D7E09E352B78002B26
:4041400000D0DFE0380003F027FC0500380003F03BFC6421684308F0CFF92818C343DB1718401921400008F0C7F9FA210002C90008F0F6FA0500032803D9FE2802D9FE254B
:4041800000E00425644B1B780093644B1B78019303F0DBF94E235F43009B0621FF1846375F4BBF00DF195F4B06007B60C1239B00E2580A208A43E250E25802390A43E25059
:4041C000019B524F5A04C023DB0213408022920013432B43D025ED00635102F021FCD22302219B00E1500833E2580A43E25063591B0400D580E0300003F0ABF982E0C0267D
:40420000F600A259484B134010221343A3510B7800210093012B6BD1A259444B8B351340A3512B7842499B005B5CA25959025B010B431343A3510A2002F0F2FBAD238021B7
:404240009B00E3583B4A0393A358C9000B43A350A259394B80201340A351A023039A5B011A404001824206D0039A13408B4205D1009D022604E00225009E01E002252E00BA
:404280000A2002F0CDFBA921890062582B4B700013406350EB0262581843294B134303436350AE237C229B00E250B0220C219200A3580B43A350AD239B00E3580393039A7A
:4042C0001023022E02D11A4202D00AE01A4208D04023039A022D02D11A4213D001E01A4210D1AF2204219200A3580B43A35009E03800FFF7A7FC05E0D3229200BB580B4392
:40430000BB5078E7012005B0F0BDC04600000A40FEFBFFFF06180000A80000204C04002010030020E5360000EFFEFFFF1FF1FFFFD8C9000004060000FFFFFFFCE8A3FFFF7F
:4043400001040000F7B5B123B022A94C9B009200E558A358AB43A350AE239B00E550002D6DD06B0308D50021A24B8F3AFF3A995434220131FF329954C023DB001D424ED077
:40438000B0229200A1589C4B0B40A3509B4B1A780193002A03D101230627009303E00C23C0270093BF01AB26B600A359009A3B40D340022B11D18E4B00999B590020BB4303
:4043C0001A0001238B401343894A1B2193518C4B1A788C4BFDF7F8FC13E01B210020FDF757FB00280DD01B210020FDF773FB804B00999B59BB431A0002238B4013437C4A6F
:404400009351B023019A9B001278E158002A02D18022920001E08022D2000A43E250C026760135420BD0784B5B68002B02D0002108009847B0229200A3583343A350FD22A6
:404440009200A1586A4B00291CD00125280099586E4A126890400200084213D0FC208000195891431950FA2189005A50684B00201978FEF74FFA674B1B68002B02D02900E2
:40448000002098478A23DB00E358594D002B17D0614B624EEA58EA50043BEB589B050BD58022AB5952021343AB51642002F0B8FA1022AB59934302E0AA59594B1340AB5150
:4044C000D5239B00E258C023DB031A420AD0D222474992008B504C4B5B68002B02D0012100209847D5229200A1580222404B114214D0D4208000195891431950D221890089
:404500005A50D022D2009B583A4AFC32126A002A04D00121DB0B994300209047D52320269B00E358324D334250D0C527D220BF00EB5980005B079B0F022B28D1D4218900DA
:404540006A58B2436A50374A2E501278501E012806D8354B1B68002B38D00020984735E0032A33D10620EA5982431343EB516B58002033436B50244B19211A7A2B4BFDF7D6
:4045800023FCD0239B00EB585B041FD415E02E5019210020FDF77CFA002812D019210020FDF798FA0622EB599343023A1343EB51D0239B00EB585B0408D5D3239B00EE50AC
:4045C00004E0D4229200AB58B343AB50D5229200A158553AFF3A064B114207D0D22189005A5008315858124A02405A50F7BDC04600000A4010030020FFF9FFFFE408002006
:40460000DC0800200D2800004C040020D8080020D4080020D0080020440400001C060000FFFFFEFFB0080020B408002035290000FFFDFFFFF0B518264643194D0400AE19CF
:40464000B38AB0689BB2002801D1107027E01548A6003658C220800037581F200740081CB94200D9381C81B2117059188AB21821614369188F890020974210D3D0208000A0
:404680008446934206D2604637588868C75401339BB2F6E7182044432D19AB821738F0BD5804002008CA000030B5134B8200D35812491A681025520052081A601822504374
:4046C0000F4A104C101802220271002282825A50F82001210001494219501859A8431851F42000011950803019508021DA661A6809060A431A6030BD08CA0000880F00005C
:4047000058040020480F0000783110B5CCB22000FFF7CAFF18206043034900220818017903690320984710BD5804002088220021064B92009950103A9858054901409950F8
:4047400098580449014099507047C04600000A402200F0FFDFFFCFFF104B0220002909D0892292009958814399509A58002A13D1852208E0882292009958814399509A5859
:40478000002A09D18422920098580549084203D101209958814399507047C04600000A40DCFF0F0010B5024802F0C6FE10BDC046C05D000037B504000D00052901D90025D2
:4047C0001BE002F093FF29000200200002F0ECFD051E12D150236343094AD318832292009B181B685B03EAD501226B46A4180733E0B2B8211A7002F095F828003EBDC046C6
:40480000580400200023F7B50600019302F09DFED022134B1349D2009F589950E02201211C0052000500985808439850A3580B4206D0019BC72B03D8019B01330193F5E727
:40484000022002F0EDF8E0235B00E45839003000FEF77EFD240C280002F07BFEE0B2FEBD00000A4000020200B84B8200F0B5D458002287B004ABDA71B54B0600E258012361
:404880001A4206D0B34962589A436250E8221201A350B14B0122E358019202930223029AFF331A4208D031007839C9B20020FDF711F9002302930193029BDB0600D485E04A
:4048C00018237343A54AD3189B780392FE2B1AD0C2239B00E7581F2301221F40636E0025134212D0142002F09BF8F4231B01E3585B060AD5C2239B00E7581F231F40013F7B
:40490000FFB2013501E00827002518237343934AD318197904292CD004ABDA1D39003000FFF788FE019000281ED0002D10D0142002F076F8C2239B00E1581F231940012996
:4049400006D9013904ABC9B2DA1D3000FFF772FE182305217343039A0120D3189A8A197192B21B6998470190FC2301221B01E25003E01B6900220220984718237343039A19
:404980000020D318022298821A71812380219B00E25849020A43E250E158714A0A40E25001227049635893436350F82310211B01E2506D4AA3588B43A3503100F423302208
:4049C0001B017839E250C9B2FDF784F8029B5B0665D53500FA22783DEDB2644B520029000020FDF7F1F9E82201211201A3580B4317317143A350594A53181979022943D172
:404A0000616EC90622D59B78FE2B0DD04F4BB100C958C12380279B00C8587F023843C850CF584F483840C850182373430421D3180022197110001B699847002824D0F8225E
:404A400001231201A350474AA35004E005221A71019B002B18D0F423302210211B01E250414AA3580B43A350414B1A003832915D0122002904D1354BB100CB58DA6601E000
:404A80003C339A5501920AE0304BB200D35802222900DA660020FDF71DF800230193F423029A1B01E250019B002B09D13000FFF7FBFD31007839C9B20020FDF70BF843E0FF
:404AC00001272C4BE35802933B4228D018237343224A0421D31800221B6910009847051E1DD1204A8020A3584002BB43A350F8231B01E750154BB200D358812292009958B6
:404B0000014399509858164901409950310002227839DA66C9B22800FCF7DCFF0195F823029A1B01E250144BE558EB0706D504ABDA1D08213000FFF77DFD0190FC231B01D9
:404B4000E550019B002BB1D007B0F0BD08CA00008C0E0000880E00004C0F000058040020FFFFFEFF880F0000480F000009470000D80600208C0F0000CC0F000010B50020E9
:404B8000FFF772FE10BD0000F7B5BE4EBE4D320029004032577813783F096031002F00D022E20988DBB2C9B22D2B00D18FE113D80A2B6CD008D8072B2BD0082B4BD0062BE2
:404BC00000D0B7E29078ACE20C2B00D193E073D32C2B00D104E1ADE2312B00D1A4E10ED80A242F2B00D1FAE191782F2B00D972E1A64B1A008E32117091331A789BE1342B81
:404C000000D1AEE13B2B00D1DDE1332B00D091E295E1937805244A2B03D19D4801F012FF0400330040339B78412B00D0D3E1994A1378012B05D153681089403B181A964CA4
:404C400002E05068954C4038FCF7C0FF002800D06AE22000BCE1012900D86BE293780524522B00D0BBE1D378002B04D00020012B00D1ADE15EE2032001F0A4FD072001F020
:404C80000FFE2B0062331878FFF70EFD50E22B00917863330122502903D11A702B00643394E119780524114200D198E11F702B0064331F70033C92E1764B94781B78A3423B
:404CC00016D0012C04D0022C00D024E2744800E07448FCF77BFF002800D007E2012C00D0FAE12A0004210700653213788B4313700237FCB273E10524032900D86FE19378BF
:404D0000462B00D06BE1D3780220012B42D15479137924021C432B0063331B780E20002B37D05C4B59891A00A14231D89989A14202D2DB89A3422BD15B4B9C4228D804D1A2
:404D40000021524A3B3BD15013E0FF235B009C420FD11378012B05D05248FCF737FF0023984201D14F4BDB69E2224849013352008B502B0064331B78002B01D1052008E060
:404D800042492000E831FCF7C9FE0028F6D100E00720022433004033DA78002A1CD159791B79090219432B0063331B780724002B00D114E1374B1B8A8B4200D30FE13A4BD1
:404DC000994200D90BE1314801320902FF32E83007F0AAFC043C02E1002800D0A6E1FEE093780924012B00D9F9E02A0066321278002A00D0F2E0254A8C32019212785340EB
:404E000000D195E129491A400A700A7801275442544164003B4200D1DDE00878384007D102F0C4FB019B1B781F43019B1F70D2E02E210020FCF72CFE041E14D02A0075235E
:404E4000A432117800200B4013702E21FCF742FE00210800FDF79EFD39000020FDF79AFD3900002026E002F0FFFB87300078390000281FD00E4A0321200002F04BFE0028FE
:404E80001BD14AE1D8060020D8070020580400204C420000AC0000203242000031420000C0FE0100C0FF0100FF0100003E080020D569000001F08EFD2FE1A04B9F4A1B780B
:404EC000BB4313701378002B00D187E0E9E09C4B92788D337AE00924432900D07FE0994B1A782B0065331B78012A03D15B070BD4954B02E01B070AD4944B5B681B021B0CF3
:404F00001B020133FF3304E0A0235B0101E0E0231B028B49C033E8310A0013CB13C213CB13C203CB03C203E1854B9278190091310A708E331978380002F022FEF8E0937875
:404F4000522B04D1FA20800001F06AFDFAE70924502B44D13100802242317D4807F0E4FB3DE090787B4B5038072828D807F0B0FA0427120F2727271A714A0224E8321168DC
:404F8000754A91422BD101223C331A7027E03C3300221BE06A4B1A00E8321268EC3312681A60C5E03C331B780224002B17D0644B1A00E833EC3212681B681A600FE00022D5
:404FC0003C331A70B6E05E4B92789B331A70AFE001F038FD0400002C63D000E01224002321001A0018005AE00888DBB280B2062B02D0242B09D04CE093780A21102B4BD106
:405000000122544B3D331A7045E07B1EC0B2DBB2032803D807F05CFA3F2C1C0C5021594347485279411883208000091812060A6050225A4342498A1883218900521811683F
:40504000090E080631004031097909040143116050225A433A498A188321890052181168090C080431004031C97809020143116050225343324AD318832292009B18196843
:405080000E3AFF3A91433200403292780A431A6001E0052100E00221002338001A0001F041FC3000902200215200403007F045FB00223100274B62353E331A702B7838311A
:4050C000CA543C36F15C914236D0F254234A9B009B580122DA662FE00700022C00D007E62A000821653213788B4312E0012C07D12A0004216532137806270B431370F7E5D0
:405100000627022C00D0F3E52A000821653213780B431370ECE50727EAE5012001F052FB022001F0BDFBBCE7082458E7072456E7022454E7052452E7F7BDC0463E080020D5
:4051400058040020AC000020C0FF0100C0FE01000000012058080020EFBEADDE08CA0000F7B50300542058436E4C0025201806002D3635700F896C4D01923D4080273F0291
:40518000BD4200D0C3E08D6801270561AC4605002C3562462F703F25154080225242154305746248C05C002800D0A0E04878B84200D09DE0087AC006C00E0138052800D901
:4051C00096E007F085F9032A4C7E7E8D4889FF210902884200D08BE0554FFD5C002D00D186E054265E4399007918A0194A682C300570944600204B4FAD0062463118125843
:40520000C91904300A618542F7D1542159437918C88A800A8002C8824CE04889FF210902884265D1424FF918087A002860D054265E4399007918A519CA682C352870944668
:405240000025384F8000624671195259C91904350A618542F7D15421594379182AE0344F58003818057C042D42D94E89990079184969CF880878B7420BD154255D430438B8
:40528000661980102C363070C0B201308000002605E00918281AC5B2002DEAD128E00436B04204D077198A59E719FA60F7E75421594361183F200D7C284040252843087414
:4052C00016E0502159431B484118B331FF310978CA070DD55421594361182D31022004E054210120594361182D31087000E037705421594361180D003A3108780321602685
:4053000001404801697CB1430143697401E00221317054215943103118006118019B9847F7BDC04640080020C080FFFF6C0F002098080020B80400207047704770B5542444
:405340004443044D6359002B02D098470023635170BDC0464008002010B507F0B9F903680C2B00D1FEE7034B034A1B685A6001F05DFBFEE7C00000200C3003C070B5040077
:405380000D0002F071F90323C2797D3012091A4002D00933022A14D102780D49002A07D15420604308183C300278D20700D504235422624388180832037389182000A84703
:4053C00070BD0378013B5A425A4104239B1AE3E74008002070B50D00040002F045F9030067331978012901D1827A00E0027B03006A331E780423002E10D10678022E0DD1A3
:4054000052B2002A01DA002908D10323C27992081A4003D00933022A00D0083B54226243034988180832037351182000A84770BD4008002070B504000D0002F015F954224E
:4054400062430C498A183D3213780122002B07D1C3790232134003D00932022B00D0083A54236343C81808330273C9182000A84770BDC04640080020F0234343084A10B578
:40548000D3180122A8331B78134207D0542343430449CB18198E044B00F0E2FD10BDC046001500004008002081590000542313B5C82143430C4A8900D3181C8E8C4201D166
:4054C0000A49198600280DD1012301AC108E6421237007F045F90130607002222100742001F0EAFE13BDC046400800208813000010B5002801D1FDF749FE10BDF02343430C
:4055000070B51F4A0400D318A8331B789B0736D502F01BF8CA220600D4201A4B1A49D2009950202180001A58184D8A431A50D222920099502A19127E022A13D18522042079
:40554000920099588143995089218900595800290ED198580E4908420AD1012099588143995005E0032A03D119212000FCF7B2FA300001F0EEFF0023A4002C19E36170BD7A
:405580000015000000000A404000008098080020DCFF0F0054234343114A70B5D31800223F3304001A7090420CD189220D4B92009850103A9D580C48284098509D580B4841
:4055C00028409850002902D02000FFF791FF0121200000F0F3FC2000FFF790FF70BDC0464008002000000A402200F0FFDFFFCFFF10B5040020221F21FCF724FA2000FFF7E0
:405600009DFE20000121FFF7C5FF80212000C90402F030FB002218212000FDF7A1FA10BDF8B554244443104B0E001C192186050002F01AF807002800FFF760FFC823218E39
:40564000628E9B00914205D39E4208D02800FFF713FF04E09E4202D03800723003782800FFF724FFF8BDC046400800201E3970B504000800062900D982E006F029FF041198
:405680003C515A81770020221F212000FCF7DAF9542363433B4AD318C82292005A8643E054226243374B384D9A181100423109781E00002908D154236343F3181A004232E8
:4056C0001278002A0CD012E0118E14222000524200F0A0FD0028EED02B000522202141E0198E0A22200000F095FD0028F4D02B0001221F2136E0542565431E212000FCF700
:40570000E9F9204B20005D192B8E6B864235FFF7EFFE2B78002B30D12000FFF7ADFE2CE022212000FCF7D6F901212000FFF732FF26E016490A22200000F06CFD011E02D15C
:405740002000FFF727FF1422C82152428900200000F060FD0C4B002802D10A22242101E0012222212000FCF72FFB09E020002121FCF7B0F92000FFF7BBFE2000FFF7DEFD56
:4057800070BDC046400800206D5600008813000010B5041E29D1FFF735F8144B5A1C511CC877D81C0433DB7FC477002B09D00123D377F2227C200E49D2008B5883436D3812
:4057C0000BE0CB7F3C2B0AD80123D377F2227C200749D2008B588343753803438B50054B01221D210020FCF7EFFA10BD9808002000000A4079320000F8B504000F0001F094
:40580000A4FE00210500200000F0D8FB002C01D1FEF78CFF2000FFF76BFE272226212000FCF710F9134E002F1AD0200001F01CFF87300378002B13D02000FFF7A9FF5423F9
:405840006343F3185F600C4FFA223B0026212000FCF7BAFA3B00012227212000FCF7B4FA54235C43054B34192800A38601F071FEF8BDC04640080020815800008813000096
:4058800070B504000D00262902D0272907D021E02721FCF71FF92000FFF72AFE1AE000220D4900F0B7FC00280ED126212000FCF711F92000FFF71CFE54236343074A20009A
:4058C000D3185B68984705E0054B012229002000FCF77AFA70BDC046881300004008002081580000F7B50E0024221E210400FCF7A9F8542363431F4D1F49EB185B8E8B4283
:4059000007D820000021FFF745FE142001F088F802E02000FFF784FE01F017FE5423C822634392001F00EB1801905A86002E19D0200001F099FE87300378002B12D020009F
:40594000FFF726FF9622EE510C4D92002B0021212000FCF739FA2B00012222212000FCF733FA03E001212000FFF714FE019801F0F0FDF7BD40080020881300006D56000088
:40598000542343430F4A70B5D318C822040092001A860D00FFF78AFD01212000FFF7FAFD002D09D0200000221721FDF7D9F806492000FFF797FF04E02A001F212000FDF706
:4059C000CFF870BD400800203B53000054235843014B1818C186704740080020F8B50F0015001E00040001F03FFE01234279807929001A40184040061206024307201940D2
:405A000089060A430740100000223F073843954200D1320013400E4A0E4DDB061040A400184363592C199A050B4B920D18409602636830439B05800A9B0D800218430401C9
:405A400004D49A4202DD800A80021043F8BDC046FFFFFFF7BC080020FF03F0FFF0B591B0009001910E9201F0FFFD019B06905B780C93019B1B899B059B0D099303002C33F1
:405A8000FF331B78DB06DB0F0D930023089307930593069B059A7F331B78934200D89FE1002302936B461B7A0A930A9A0C9B934200D891E1009801F0D7FD059C05004A348E
:405AC000A40003190393DE78019AB3090393059B7C335B00C3189888029B800502339B00D118CA78860D9209012A00D17BE0002A03D0022A00D1DAE06BE1019A1421985806
:405B00000003830D18001330049306F029FE049B1F1A1818039B012B2FD0002B02D0022B08D056E16359049A1B039B0D9A4200D04FE10CE063591B039B0D9F4200D248E173
:405B40002B195B889B049B0D984200D941E1635B31009B059B0D9E4200D21900029A019802329200125A9205920D914200D930E1009AC949920053500DE163591B039B0D35
:405B80009F4200D225E12B195B889B049B0D984200D91EE1FA23605B5B008005800D584301383900C01906F0DBFD0400FA20400070437B1EC018390006F0D2FD220006006B
:405BC000844200D20200029B019902339B005B5A9B059B0D9A4200D9FBE0009BAE4A9B009C500497D7E0019A4F889B58039ABF041B03BF0D9B0D012A36D0022A00D0E8E0BF
:405C000062591203920D934200D2E2E02B195B889B049B0D9F4200D9DBE0FA21605B49008005800D7843F430FF3006F099FD04003000FA217843F430FF30490006F090FDB5
:405C400022000600844200D20200029B019902339B005B5A9B059B0D9A4200D9B9E0009B8D4A9B009C50F2E062591203920D934200D2AEE02B195B889B049B0D9F4200D979
:405C8000A7E0635B31009B059B0D9E4200D21900029A019802329200125A9205920D914200D996E0009A7C4992005350CFE04A889204920D0492019A9858039B0003870DFC
:405CC000012B32D0022B00D083E063591B039B0D9F4200D27DE02B195B88049A9B049B0D9A4276D8645B3200A405A40DA64200D22200029B019902339B005B5A9B059B0D23
:405D00009A4266D83800FA216043009B624D9B00F4300393FF30EB1849000F9306F020FD0F9B9860039B5C519AE063591B039B0D9F424ED32B195B88049A9B049B0D9A42B1
:405D400047D8FA20645B4000A405A30D58437D1E39004019039306F003FD0400FA20400070433900401906F0FBFC22000600844200D20200029B019902339B005B5A9B0590
:405D80009B0D9A4225D8009A434B9200039899188860D45064E0009A3F4B92000499D0589C18E1604843FA21F430FF30490006F0D7FC6660A060009B374A9B00D3189C6825
:405DC000079AA24205D80D9A002A51D0DB68642B4ED1029B013364E6059B0133DBB257E6089B002B25D1FA21069E2B4DFC36F36A49001803009B800D9C00B38D2F199B05CB
:405E00009B0DF8605843F4306351FF30019306F0A7FC019B099AB860934200D96251012233882C196360110000230098FFF7D6FD0B905423009A194953430B98CA180833FC
:405E40009060591800980E9B984711B0F0BD009B114A990053188A58DF605E609A60AAE7009B0D4A9B00D318049A5E60DA60A2E7059B069A7C335B00D3180A999B8801310B
:405E8000DB0BC9B200220098FFF7A8FD01230B90079408939DE7C046BC0800204008002070B5040001F051FB05002000FFF720FB200001F0D9FB87300378002B2BD0200068
:405EC00001F0D2FBA1300378002B24D1002C22D18922134B92009C50103A9858114901409950985810490140995020002100FCF711FD01F02AFB05230C4C226808491A4292
:405F0000FBD1842292008C588B582343084C23438B5001F01EFB280001F01BFB70BDC04600000A402200F0FFDFFFCFFFA4000A40200020004B1E994110B524310022FCF788
:405F40000FFE10BD10B5041E01D1FEF7EFFB80212000C90501F08EFE002217212000FCF7FFFD10BD70B50400150001F097FB54236343074A0321D318002800D00421197386
:405F800054216143083151182000A84770BDC0464008002010B5FEF735FC024B5843400A80B210BD50C3000010B5040001F05CFB703001782000FCF7D1FC10BDF8B5F023B6
:405FC0004343214A0400D318A8331B780F00DB0739D501F0BAFA1D4E050033191B7C022B03D139002000FEF7B7FB0120184B194AA40099583419814380209950995800064E
:4060000001439950E12189005858134A0240FC205A50022180001A588A431A50FA220420920099500D495A580243A0205A5074315A5880051202120A02435A50002328008F
:40604000636101F086FAF8BD00150000BC08002000000A40D407000008F8FFFF2C060000F0B585B00500009202930C0001F06DFAF0236B434B4A03909B188A331A884A4BEE
:406080002026D2189378402B02D801335B10DEB20123464FD35601937B191B7C022B03D100992800FEF758FB02237A191374AB00FF18029B01987B616B461B786043137603
:4060C00001236421FB6106F017FA394B2418A0B2984204D8374B984202D8374800E0180004210A27354A364C7843A3588B43A350793106F001FA3900C83806F031FBD42166
:40610000C900635880B21B021A0A031CC72800D9C72301271B0613432A4A6350A3580A203B43A350A358BB40FB40A35000F078FCE1239B00E258BA43E250E258224B1340B1
:40614000002E06D0214A013E13437601253A164000E010261E43E1230220FC219B00E6506433E05089006358154A034363500F4B5D19297C814210D10098154B002801D0F7
:40618000852000E08420800014582340012423431350103013580B431350039801F0D9F905B0F0BD2015000000150000BC080020C05D00006F170000701700002C060000D3
:4061C00000000A40D407000001F8FFFF05040000FFFFEFFF542343430B4A70B5D318998604000D00FFF784F9F0236343074AD318A8331B78DB0705D5054B002229002000AF
:40620000FFF72EFF70BDC0464008002000150000455F0000F7B54A430C0007006421100006F06AF92018C343DB1718401921400006F062F9FA210002C90006F091FA0400EF
:40624000032803D9FE2802D9FE2400E0042401F07CF9D0250B4E0190ED0073590A200093094B1C43745100F0DBFB380000997459FDF76EF8019801F06CF90120E40BA04319
:40628000FEBDC04600000A400002020070B505000E00FCF763FB214C00281CD090229200A1581F4B0A200B40A35000F0B9FB002E04D18C239B00E1581A4A03E08E239B00F9
:4062C000E158194A0A400221E250E2580A43E250E2588A43E2500621144A0026A35828008B43A350AB23B0229B00E6509200A1580F4B0B40A350C022AE23D2009B00E250FC
:406300001B21FBF7E7FB0B4B5A1C5219D677AA009A1828335E55566270BDC04600000A40DFF3DFFFDFFBDFFFDFF7DFFF68080000FFF9FFFFBC08002010B5040001F094F97D
:40634000703001782000FFF7A1FF002219212000FCF706FC10BD00005423F7B5012743433E4A0500D3183C331B7800911F4073D1F02343433A4A9B1892331A88394BD318EB
:406380009C7801F0E2F8384E384A731C5B19DC77AB00F3185A62AB23354C9B000190E750280001F0ADF96F3002782836314B002A0AD1042101327255E2580A43E25080234A
:4063C000DB001F002C4B08E002217755E2580A43E25080239B001F00284BAB229200A3501B212800FBF776FBC022AE23D2009B00E250B0229200A3581D4E3B43A35001988D
:4064000001F0A7F8AD239B00E3585B041CD500992800FCF7A3FA002816D1009B184A002B01D18C2300E08E2302209B00F1581143F150F1580143F150F1588143F1509021D4
:4064400089006358134363500121280001F004FC0221280001F000FCF7BDC046400800202015000000150000BC0800203963000000000A40680800000028240085040000E1
:40648000200C2000F7B5032809D190220021BC4B5200BC481960596006F04FF9E5E0012800D02BE10F24B74D69780B090C40022A00D9DCE00026B24FB4463E607E603E0061
:4064C000012A16D0634522D1022C0ED1AE4A297812881D00914200D350E1AC4B0832C918D31839607B60050048E11D00002C00D044E10025A34B1A7853B2AB4200DA3DE150
:40650000A34B0135D3183360A04B736036E16546012B00D032E1201F624601280ED80A003D0098481A400078120208351218AA183A603A002132FF327A601A002300083B4C
:40654000012B0BD801258F4B29401B780902C918904BC918904B316073600FE11500002C00D00BE1874B1B785F2B00D906E1200001F07AF80300020072331B78673205002F
:4065800001922700002B20D01378002B08D1030068331C78E4B2002C05D0013CE4B202E003008B331C782B002A0078331F787432093B1B7812785B0092001A4301237F0118
:4065C00013433B43A7013B43DFB2023C631E9C41002001F0E3FAC823704AA4032043127E6B4C5B00E050002A03D0802292001043E0502B00C0331B68002B0AD09B6D002B78
:4066000007D000209847642106F0AAF89623FF33E054CA235B00E7542B00B8331A68D0235B00E250AA7A163BE2548C232A7BFF33E254B4230022FF33E254019B99321978ED
:40664000CE23FC35FF325B00002903D1A96DA1506A6D02E0E96DA1502A6DE250494B1A784F4BD31833604F4B7360012586E0002C24D0023A2D7891B2002B06D1022C72D1B1
:406680004248414B28181B880FE0012B6BD1082C03D140487F33281807E0092C63D13D4B681CFF30C01880235B425A1B8A4200DD0A0092B23C4906F037F854E0012B52D8C5
:4066C0003A4B3B4C1B78E05400290FD12B78062B0CD12F49AB7889790B40AB7006D0202434480168A143CBB2234303600121324B023A1970314B92B21A8034E00025A84200
:4067000032D11F4C2368AB422ED06268050093422AD2D21A082A01D9082201E0002A23D0224927480978D2B289000D58822189006858EA39FF3901400820411AC9B2FD3035
:40674000FF308A4202D20121295002E004222A500A0090219A1889009A4203D0187801336850F9E722600125134B1978C9B2002904D190220348520005F0DFFF2800FEBD17
:40678000E808002018070020B400002040050020B80400209006002018070020E809002040060020A80600201A0700203A08002010070020000204409608002038080020FD
:4067C00008CA0000F7B5050000240C27621CE3B201929D4201D0032D0FD1022C10D0094E7C4333001C331A19E0589288002105F0A4FF00233419A3846384019C032CE5D175
:40680000F7BDC046E809002070B5050000F09DFE0C236B431F4A0600D318598C100089B21D4C002920D0002D08D12200DB697E32197811705A7823007F331A700C226A43B5
:406840008218D169CB7889781B020B4304339BB293840123AB40A2791343A371DF230F4A11680B40136010E01A8CD86905F065FF002D05D123007E331D7023007F331D70DE
:406880000122AA40A3799343A371300000F061FE70BDC046E8090020B804002000020440F7B5002501260090EBB20193009B1E421FD000F04AFE0C226A43174B07009C180D
:4068C000A18C00290FD01C33D058A18C638CA28C41189A1A05F028FFA28C638C9B1A9BB263840023A384380000F033FEE8B2FFF78BFF76000135F6B2022DD5D100F025FE7A
:40690000064B9B79002B04D0DF23054A11680B40136000F01EFEF7BDE8090020B804002000020440F7B506000C2415000091019300F00BFE7443264B07001C19608C238C64
:40694000628CE91D80B29A1A914218DB628C00259B1A032B33DD8123E2691354E269431C9BB2D554E269831C9BB2D554E369033080B21D54638C04339BB263841FE06A4670
:40698000E36912781A54E169431CEAB29BB2CA54E169831C9BB2CA54E169C31C2A0A9BB2CA54E369043080B218182A00019905F0BBFE638C0433ED18ADB2658401253800A2
:4069C00000F0C7FD3000FFF71FFF2800FEBDC046E809002010B5040000F0B7FD0123A340DB430D495BB20A781A400A700B4A2C32147823400C781370E4B2002C08D100F026
:406A0000A8FD2300220002212000FFF78BFF01E000F09FFD10BDC0463E080020B8040020182310B5584300F087FD10BD034A044913689BB20B4313607047C0460CED00E092
:406A40000400FA0570B50500002000F00DFE83300478002C1DD120200F490A688243D3B203430B600D4B0E4A1B78D4540D4AD15C002905D0D4540C4A9B009B580122DA6624
:406A80000520FFF7CDFF72B6084B1D60FFF7CEFF00E00524200070BD000204403A080020100700201407002008CA000090000020F7B501224C4C4D4D23684D4E93432360C2
:406AC00000234C489A002900032B00D8B15801338150232BF6D172B6FF22474B12011A60FF220627454B07261A60454B454A1F60454B464D1A602022454B1A608022454B4D
:406B000092021A600522444B1A60444B023A1A60434B21321A60434B123A1A6000F015FD01902B68404AB3432B60404B40491B78DBB213603F4A1368B34313603E4B0A68E3
:406B400018787F239A43034013430B60322000F0F3FC05222B683220B34313432B6000F0EBFC2B68B3433B432B60019800F0F1FCBE229E21314BD2011A60314B314AC901E6
:406B80001A60314A1160BC21304A89011A60304A1160304A30491A60C02292000A602F4919602F490A6080212E4A89001A602E4A11602E4A01391A602D4AFF3911602D4A43
:406BC00000211A6040222C4B1A6001232B4A13602B4A11602B4A1168002900D11160226813432360F7BDC04600001040595300000014000000000020000102400005024085
:406C000000010440210D000008010440080F03400002044008020440080304400005044008050440300010400C0F03407DF3FF0F180F0340100F034064F3FF0F00030140EC
:406C40000000014040FF00801402014005FF00801002014004FF00800C02014003FF00800802014002FF00800402014001FF00800002014000FF008028000340040101408C
:406C80000001014090000020F8B500250E490F4B01394A1C14D000221F685C689E68A018B24203D0B858A0500432F8E70200DE68141AA64201D020C2FAE710330139E8E796
:406CC00005F00CFDFBF758F901000000DCCB00000122014B1A707047200A002010B5FEF701FE10BD704700009C235B005843074B1B181A003332FF3212780120002A04D1E0
:406D00003433FF331878431E98417047100300209C235B005843034B18183230FF3001707047C04610030020F0235843014B2030C018704700150000F7B5C44BC44C1F0009
:406D4000E258002A00D16CE1E3589B050CD596220020C04B5200985408211B6898478822A0239200DB00E2508023E2591A4207D0A022B749D2008B500121B64AAC33D15477
:406D8000E259B34B520162D5A022D2009D5894462A071FD530222A40102A1BD19621AD4A4900505C012815D1002050548020AA4E0003316801433160A126F6009959080070
:406DC000A649014060469951A54919501368032100209847EB0736D520231D4033D19622A1219C4B52009D54C90060589D4A024062508021A0224901D200A1509A4A12686F
:406E00009206520F013A1A71E16D984A0A40101C9A605204520FD1B25A71C2B2D0069206C00ED20F9871DA718D4208D22A0018329200A058AA009A18D0600135F4E71B6842
:406E4000062100209847A023894ADB00E2508025E359ED002B4208D07E4B07211B6800209847A0237A4ADB00D5508025E3596D022B4208D0774B07211B6800209847A02378
:406E8000734ADB00D5508021E2594901704B0A420DD0A120C0001D58724A2A401A50A022D20099506B4B01211B68002098478025E359ED02664E2B420ED000210800FCF7C3
:406EC000FBFC002805D1A122D200B158694B0B40B350A023DB00E550E3595D4D9B0445D5962200202C215B4B5200FF3198545A5C019152B2824209DAA121C9006E58574A6D
:406F000032406A501B68022198472AE0514B019A9B5C002B1DD0A0238022DB005203EA500520FFF77DFD8022534E12033368134207D0A1228021D200AB5849030B43AB50FF
:406F400007E00520FFF76CFD80223368120313433360019A3F4B01999B5C3E4A013B5BB253548022A0239201DB00E2508026E3597603374D334211D00520FFF751FD8021F9
:406F80003D4A090313680B431360A122D200A9583A4B0B40AB50A023DB00EE50C023E2591B022B4D1A4210D000212A4B08001B689847D022A0231202DB00EA50A122802194
:406FC000D200AB5849010B43AB50E359204DDB0511D5962200201F4B5200985405211B689847A122D200A958254B0B40AB50A023244ADB00EA50E259154B920311D5962252
:407000000020A125134952008854ED005E591C4A32405A51A0221B4DD2009D500B6804219847194B0A4AE15800290ED02021D058084202D0A220C0001150E25840231A4200
:4070400003D0A2220249D2008B50F7BD0C05000000000A4010030020AC000A40771FFFFF88E00000FFEFFFFFA4000A40EF7FFFFF7F000804FFFFFBFFC4000A40FFFFEFFF8A
:40708000FFFEFDFF000102001C05000010B50A4B5A6801325A605B68012B05D9074B084A1B685A60FFF7C2FC064B074AD0210020FAF78AFE10BDC046200A0020C00000205F
:4070C0000C3003C08D700000EE020000F0B5040085B00E00002806D1082069490A688243D3B203430B60200000F0BEFA050000F02CFA242203901E212000FAF7A3FC2B009C
:4071000087331B78002B00D1B5E02B00A1331B78002B00D0AFE02B0076331B78002B05D0AC235B00ED5AAD05AD0D03E0AB78554A9B009D58F0236343534AD318A8331B782D
:407140009B0753D55149524AA30020009950FBF7D3FB070040786421684305F001FB4519B8796421684305F0FBFA482801D9482002E00023092801D90A3843004148C01872
:40718000037B0193437B0293BD7800F0DEF90322CA21404BC9001A553F4B023A1D553F4BC0271A553E4B3F4A5D58FF052A40C0252A43019DAD082A43029D2D032A43019D62
:4071C0006D073D402A435A50C52189005A58364D920A92022A435A50D222202592009D503C315A582A435A5000F0B3F92000FEF77FF9542363432D4DEB183F331A78002ABD
:4072000017D101271F70002C13D1FDF78FFA0A20FFF706FCFDF78AFA39002000FBF77AFB85221F49920088588B580343204803438B50002E1FD054236343EB181A0001211C
