:400000000020002011000000A9080000A90800000C4A0D4B10B51A600C4B1A68102313400B4A00D113601368802B09D10023136000F0DCF8002803D000F0D8F800F05DFACC
:4000400000F09CFF6588EDAC3800034054000340900000200000000000000000000000000000000000000000000000000000000000000000000000000000000000000000AD
:400080000000000000000000000000000000000000000000000000000000000000000000000000000000000000000000000000000000000000000000000000000000000040
:4000C0000000000000000000000000000000000000000000000000000000000000000000C0040031626E0200B11101210000000000000000000000000000000010B5064C3E
:400100002378002B07D1054B002B02D0044800E000BF0123237010BD100100200000000070100000084B10B5002B03D00749084800E000BF07480368002B00D110BD064B8B
:40014000002BFBD09847F9E70000000014010020701000009800002000000000302230B51B4C1C49A36AC3B09343203A1343A3620500F032883102A800F06CFF164B6A4659
:400180000093FF230193154B9A60154A5A60C046C046C0469968090F0A070A2910D111492D040D436946009599600F495960C046C046C0469B6800201B0F1B07934200D0E4
:4001C0000C203022A36A9343A36243B030BDC046000003402C010020B6D700000000104004000080B6D8000005000080074B1A78074B1878074B000219780B041843030097
:400200001343054A1078000618437047C1FF0100C2FF0100C3FF0100C4FF01001823F0B54343184C0500E3181E699A8B002E02D10E70300024E0144B8000C758C2239B00C8
:40024000F8581F231840031C082800D908239BB20B70182169436118D318898A9BB2002099420DD3D0218900934204D97858B054013292B2F8E7182045436419A2831738EE
:40028000F0BDC046AC0200207410000030B5134B8200D35812491A681025520052081A60182250430F4A104C10180222027300225A5082830121F82049420001195018595D
:4002C000A8431851F42000011950803019508021DA661A6809060A431A6030BD74100000880F0000AC020020480F0000F0B5764B820085B0D45802ABD91D00230B70734B65
:400300000600E25801231A4206D0714822589A432250E8221201A3506E4B0125E35800930223009AFF331A4202D000231D000093009BDB0645D518277743674BDF19387B0A
:40034000019304280CD03000FFF768FF051E0CD00521BA8BBB69012039739847050004E00100BB6900220220984718237343019A8020D31802221A7300229A8381229200AD
:40038000A35840020343A350A158544B1940A1500132FF32A1580143A150A1580B40A35001224F49635893436350F82310211B01E2504C4AA3588B43A350F42330221B01AC
:4003C000E250009B5B063AD5E82201271201A3583B43A350182373433F4AD318197B0192022929D1626ED2060DD500220231197310009B69984700281ED0F8231B01E7507C
:40040000374BE75003E005221A73002D14D0F423302210211B01E250324A0125A3580B43A350019B68339B5D002B01D1E56606E0019B6C339D5502E002230025E366F4237F
:40044000009A1B01E250002D03D13000FFF71EFF38E00127244BE35800933B421FD0182373431D4A0421D31800229B6910009847002814D11A4A8021A3584902BB43A350A1
:40048000F82381221B01E7509200A35805000B43A350A158114B0B40A3500223E366F823009A1B01E250114BE758FB0705D502ABD91D3000FFF7B2FE0500FC231B01E750ED
:4004C000002DC2D005B0F0BD741000008C0E0000880E00004C0F0000AC020020FFFFFEFF880F0000480F00008C0F0000CC0F000010B50020FFF7FAFE10BD004770B5827899
:400500004478C378120222431B0413431A00037906261B06134349D0827A447AC37A120222431B0413431A00037B1B0613433DD08279417912020A431202511CFF311C4C54
:40054000CD18A54232D80578080000210133FF339B18834204D0067801308919C9B2F8E74942C9B206268D4220D180239B00D518A5421BD80F4B2988994217D1E979AB7957
:4005800009021943287A00230A290BD00A4C49191219914204D0147801321B19DBB2F8E75B42DBB20626984200D10026300070BDFFFF0100594300000A02000070B500F0D8
:4005C0000DFD1B4B05001A007032D688194CB6B2002E19D0196F230008787E331870230048787F331870CB7889781B020B4304339BB213810122A3791343A371DF230E4A3D
:4006000011680B4013600EE09288186F310000F019FD23007E331E70230001227F331E70A3799343A371280000F0DCFC70BDC046AC0200202C0100200002044070B5040022
:4006400000F0CCFC1E4A11007031CB888D88CE889BB2AE1B072E18DCCC882D1B0024032D27DD8125166FF554166F5D1CADB27455166F9D1CADB274550333126F9BB2D4548B
:40068000CB8804339BB2CB8013E0156FEC540024166F5D1CADB27455166F9D1CADB274550333126F9BB2D454CB88013404339BB2CB8000F097FCFFF781FF200070BDC046E2
:4006C000AC020020F8B5584C01286AD1574D2E007C3673789C461F0961460F230B402900022A28D80025E5612562012A16D0AF4200D096E0022B0ED14D4B31781B88994280
:4007000000D38EE04B4A083388325118D318E1612362050085E0002B00D082E000257C310A7853B2AB427CDB424B01359A188833E261236275E0002B14D0002F65D1022B81
:4007400063D13B4B3B4835781B88023A883092B240195B1B934200DD13009AB27E3100F079FC52E0002F50D1631DDB7F6835E8546346002B0ED13378062B0BD12D49B3787F
:400780008979194206D020252B480168A943CBB22B4303600121023AA31D92B2D977E28433E00025A84231D1E369AB422ED0226A050093422AD2D21A082A01D9082201E0D3
:4007C000002A23D0611DC97F1C4889000D58822189006858EA39FF3901400820411AD2B2FD30C9B2FF308A4202D20121295002E004222A500A0090219A1889009A4203D0FC
:40080000187801336850F9E7E26101250634E17FC9B2002905D19022044852007C3000F011FC2800F8BDC0462C040020AC0200209C0000202C010020000204407410000012
:4008400070B5C3071CD500F0C9FB144B05001C0070342289002A0ED02189186FE388228941189A1A00F0F6FB2289E3889B1A9BB2E38000232381280000F0B4FBFFF79EFE3D
:4008800000F0ACFB064B9B79002B04D0DF23054A11680B40136000F0A5FB70BDAC0200202C0100200002044010B500F09FFB03680C2B00D1FEE7FEE7F7B50122364C374D36
:4008C0002368374E93432360002336489A002900032B00D8B15801338150232BF6D172B6FF220027304B07261A60304BFE3A1F602F4B304D1A60304B1F321A60C0222F4B2B
:4009000092021A6003222E4B1A602E4B21321A602D4B123A1A6000F061FB01902B682B4AB3432B602A4B2B491B78DBB213602A4A1368B3431360294B0A6818787F239A43DE
:40094000034013430B60322000F03EFB05222B683220B34313432B6000F036FB06222B68B34313432B60019800F03CFB80221C4B52001A601B4A1C4B1A601C4B1C4A1F603B
:400980001C4B1F6011680123B94200D11160226813432360F7BDC04600001040A90800000000000000000020000502400001024008010440080F0340000204400802044074
:4009C0000005044008050440300010400C0F03407DF3FF0F180F0340100F034064F3FF0F0002014000FF0080000001402800034090000020000101408023D44A5B00F0B5AF
:400A000013801300132200255A80D14BD14CDD77D14BD24A7E33D3612700902285B0290070375200CE4800F00DFB29000C22380000F008FBC94B2026283323679123C94A6C
:400A4000BE809B00D75829008022C34800F0FAFA1322C14B80215F809A803A331E70BE4AC14BC120D363B94BC04A1B7980000093BF4B49021D601A6681229200DD6699504B
:400A80001950BC49F4265D500121FE27494236019951B94E3F049D51083E9951B74E9D51B446083E9951009E196876003E43C427BF00DE510826113FFF36FF3FDE51013742
:400AC000FF37DE5180263606314319600221E1722173A34901262161902149002672A583A182A7490427A161694609786172FE21A1729F501F501C58A2490C401C5098588F
:400B00000140995042229B49FF325A5062469E509D4A9E4B1A6080229D4BD2001A609D4A8B4B1100DB7F2831CB5C80219B00D3181A69490493680B43936062B68020FFF729
:400B40007DFD864E944848363570FFF7D7FC7F4B824C0093804D002800D037702300082148331A788D4E0A431A708D4A1168100089B2B14206D1002111601A7801310A43B5
:400B80001A701DE01978042312680B4092B2002B16D184498A4205D07F4A8349928A8A4200D0C4E1009AD3802300002249331A7080237E4A036013687D499BB20B43136026
:400BC00002AE08220021300000F03CFA2300902248331B782A706B705B0703D5802332009B0007E06C4B5B681B021B0C01331A02E0329BB22800E02110309C4688C988C06A
:400C0000010009CA09C10CCE0CC163462B8580239B006B85230014224A331A80654B009A009913815381132201938A81624BDB7F002BFBD047490B007C335A780E00120917
:400C400000D05FE1E78C1878FFB20B2871D00AD8082812D00A2856D0062800D076E19878FFF7EEFD4EE1342800D139E13B2800D141E10C2800D069E1A4E0012F00D865E1BE
:400C80009E780520522E00D03AE1DE78002E29D0012E00D034E149481F360368B343DBB2334303600800631DDB7F68306C31C254CA5C002A08D00021264A6C32D154354A28
:400CC0009B009B580122DA66F02000F07DF972B60022334B36491A60344A13689BB20B4313600FE10F007037BA88086F310000F0A9F93E810720FE80FFF7A2FD631DD87FD3
:400D0000FFF7C4FAFBE09878230001214C33502805D1197023004D3319704E38F0E01E7805200E4200D1EBE01A7023004D331A70DFE09B78012B00D100E1022B01D1204882
:400D4000FDE007230233D8B2DAE0C0469C00002031040020AC0200202C0100202C0400202803002000F0FF0F220300008828004000000540480F0000880F0000C80F000009
:400D8000C5060000FFFFFEFFF10400006800002000E100E074100000C0FF01004C4200009000002031420000594300000CED00E00400FA05FF010000320400200002044026
:400DC000C0FE01000520032F00D899E09A78462A00D095E0DB78012B58D123004C331B78002B56D07C36707933790002184323004A331B8883424ED8009B1B89834203D2EC
:400E0000009B5B89834246D123004D331B78002B34D030214E4AFF26936A8B4320390B4393624C4B291DCB672B000833DE6780239C46AC446646484B9E60484E5E60C046B7
:400E4000C046C0469F683F0F3E070A2F10D1444F00043843C8676146996042495960C046C046C0469B6800201B0F1B07B34200D00C203021936A8B43936201E0FFF76EF9CC
:400E80000523002808D10300023006E00223052003E00E2300E007230220334A7C32D178002919D123004C331B780720002B27D05179137909021943009B9B898B421FD225
:400EC000019B99421CD82800802288300902520000F0C0F8032013E0002B11D007200FE09B780520522B0BD12B0088331A6812681A60033804E02A009B783B32137002206D
:400F0000FFF79CFB0021184A184B1000D977631DDB7F68306C32C154D05C884200D185E6D154134A9B009B580122DA667EE6114B9A4200D138E6FA239B0033E60E48FFF76C
:400F4000DDFA031E00D1FDE60623FBE60520D7E700000340B6D700000000104004000080B6D8000005000080AC0200203204002074100000FFFF0000C0FF0100F8B50025E9
:400F80000E490F4B01394A1C14D000221F685C689E68A018B24203D0B858A0500432F8E70200DE68141AA64201D020C2FAE710330139E8E700F020F8FFF71EFD010000009D
:400FC000C8100000000000000230800804D0C0460138FDD1C046C046C0467047EFF3108072B6704780F310887047C046014B18687047C0460C0100200E4B70B500251E0025
:401000000D4CE41AA410A54204D0AB00F35898470135F8E700F046F8084B00251E00084CE41AA410A54204D0AB00F35898470135F8E770BDB0100000B0100000B010000024
:40104000B810000003008218934202D019700133FAE77047002310B59A4203D0CC5CC4540133F9E710BD0000FD000000001200000000000000000540000006400000074076
:40108000000008400000044000010440000204400003044000040440000504400501030243000000F8B5C046F8BC08BC9E46704725010000B9080000F8B5C046F8BC08BC1B
:4010C0009E467047FD000000D81000009800002078000000F8040000000000000001130008003200FF010002FF0100000000000000000000000000000000000000000000F4
:40110000000000000000000000000000A0100000000000000000000000000000000000000000000000000000000000000000000000000000000000000000000000000000FF
:40114000000000000000000000000000AC000020000000000000000000000000000000000000000000000000000000000000000000000000000000000000000000000000A3
:40118000000000000000000000000000000000000000000000000000000000000000000000000000000000000000000000000000000000000000000000000000000000002F
:4011C00000000000000000000000000000000000000000000000000000000000000000000000000000000000000000000000000000000000000000000000000000000000EF
:4012000000000000000000000000000000000000000000000000000000000000000000000000000000000000000000000000000000000000000000000000000000000000AE
:40124000000000000000000000000000000000000000000000000000000000000000000000000000000000000000000000000000000000000000000000000000000000006E
:40E000000030002001E500003930010039300100000000000000000000000000000000000000000000000000000000000000000000000000000000000000000000000000D6
:40E0400000000000000000000000000000000000000000000000000000000000000000000000000000000000000000000000000000000000000000000000000000000000A0
:40E080000000000000000000000000000000000000000000000000000000000000000000000000000000000000000000000000000000000000000000000000000000000060
:40E0C00000000000000000000000000000000000000000000000000000000000000000007A060132626E0200B11101210000000000000000000000000000000000000000B7
:40E100005943040000200004E83CB4040100010000020B000000000000000000000000000C02180024020C0030020C003C0218000000000000000000E80300000000000059
:40E14000020102000000010001040F0203070101010101000100000000000000000000002C9101272CD102002CB104002C4106000000000000000000000000005A9001262A
:40E180005A30429A00000000000000000000000000000000000000005A005A000000000000000000000000001300540258026002640268026C0200000000000000000000E2
:40E1C0003C000000000000000000000000000000000000000000000000000000000000000000000000000000000000000000000000000000000000000000000000000000E3
:40E2000000000000000000000000000000000000000000000000000000000000000000000000000000000000000000000000000000000000000000000000000000000000DE
:40E24000000000000000000000000000000000000000000000000000000000000000000000000000000000000000000000000000000000000000000000000000000000009E
:40E28000000000000000000000000000000000000000000000000000000000000000000000000000000000000000000000000000000000000000000000000000000000005E
:40E2C000000000000000000000000000000000000000000000000000000000000000000000000000000000000000000000000000000000000000000000000000000000001E
:40E30000B404E1F6437970726573730018000000418000FFB40400AE000000000000E1F60A0000000C000000428000FF000087800C0000004380878001000000B404E1F60C
:40E34000000000000101000000020000000000000001003C04140A0208140A0232010A000446010004320100041E01000C0000000000000000000000000000000000000022
:40E38000000000000000000000000000000000000000000000000000000000000000000000000000000000000000000000000000000000000000000000000000000000005D
:40E3C000000000000000000000000000000000000000000000000000000000000000000000000000000000000000000000000000000000000000000000000000000000001D
:40E4000000000000000000000000000000000000000000000000000000000000000000000000000000000000000000000000000000000000000000000000000000000000DC
:40E44000000000000000000000000000000000000000000000000000000000000000000000000000000000000000000000000000000000000000000000000000000000009C
:40E48000000000000000000000000000000000000000000000000000000000000000000000000000000000000000000000000000000000000000000000000000000000005C
:40E4C000000000000000000000000000000000000000000000000000000000000000000000000000000000000000000000000000000000000000000000000000000000001C
:40E5000010B5044B83F30888034A044B1A6004F05DFFC046003000206588EDAC3800034010B5064C2378002B07D1054B002B02D0044800E000BF0123237010BD380100203A
:40E540000000000054E70100084B10B5002B03D00749084800E000BF07480368002B00D110BD064B002BFBD09847F9E7000000003C01002054E70100980000200000000030
:40E58000F0B5E74AE74B91B0E74D9A4201D8012300E00223E54C2B70200009F0F3F800281ED12300AA331A782300AB331B781B0213431B19002B13D0DD4EDB78337002F02B
:40E5C0008BFD00280CD0C378B3702300B2331A782300B3331B781B0213431C19002C09D12B78012B01D000F04FFED24809F0B0F804F016FD0222D04BDA613E321A623B3AD3
:40E600005A62023A5A633E32DA623D3A9A62CB4B0B321B689343D9B2C94B1B681B091A400B001343113BC74ADBB21370002B05D02020C549C54A8B5803438B5000230C2438
:40E64000FF21C34822005A430133821891721F2BF8D1C04B00201A007432107080220121802475331870BC4B92001A60BB4BBC4A24069A63DA6C0A43DA64DA6A2243DA62CD
:40E680005964B84AB849B94C1160B94AB94950501051B94CB94814501000DC6BA4B2DA6B92B29442FBD0AD4AD46B052242508022A5B2520246581642FCD0DA6B93B29D4276
:40E6C00002D9802252021343AD4A1B1B13800023435062B607220125AA4CAB4E236805209343053A134323603368A84FAB43DBB22B43336004F08EFC40223B6801960092CF
:40E700002B4215D02368393A9343043A13432360019B019A1B680520AB43DBB2136004F079FC42223B6800922B4201D10823009307222368874E93436A4623603300127881
:40E7400076331A708022924B92021A60802213270025904B52001A808F4B904A1F80904B29001D708F4B90481A60902252000FF054FF8E4C1822290020000FF04EFF8C4B2B
:40E780007736E3608823266020265B002382894A3533A680FF33884CD35820008022290002930FF03AFF6B461B89A780638023003A331E70814B2C34236101232370804BF9
:40E7C0001D70804B1D70594B53331B78AB4200D02570502200217C480FF01FFF534B764F47331A78D8235B00FA54504B002154331A78BA23FF33FA54B93BFF3B9C466246B4
:40E80000B433FF33FA546A46634B127880249A706E4B6F4A1960C1201A668122800092006402D9669C501C506A4CF42519510124FE2664422D015C51674D36045951083DFD
:40E840005C51664D5951083D5C51009D1C686D003543C426B6009D510825113EFF35FF3E9D510136FF369D515D4D2C4365461C605C4C25700225E5702571A1824A4DA56085
:40E8800090256D00A581584D25616D462D786570FE25A57004249C501C501D58534C25401D50985804409C5042224A48FF321A5060464A4A3A4C98504D4A4E4B80201A6077
:40E8C00080224D4BD2001A6023784C4A4004D35C4B4A9B009A5893680343936005A808220FF09BFE104B114A1B7800920394012B00D091E0434808F073FFE022431E984119
:40E90000414BC0001A80FE22404BFF321A80404B01321A803F4BEC3AFF3A1A80912391E0E0E00000FF7F0000A400002000E100008D090020FF010000FC000140E80F00F0BE
:40E94000EC0F00F08309002000000A4068080000540100205402002080E100E0000003406588EDAC640000209578010018D00000001000E010D00000BF5D000014D0000007
:40E980009E0A0020080104400001044004010440A8000020AC0000209C0000209604002012040020A00A0020F0020020240C0020A80A002000F0FF0F180400202213000007
:40E9C000B80B0020B90B0020A00500200000054088280040480F0000880F0000C80F000000010080C40B0020116C0100FFFFFEFFAD8201006800002000E100E058E70100EF
:40EA000004E80100C0FE0100AE000020B0000020B2000020B4000020D44808F0E1FE1421431E9841D24BD34A5B681180D24A1B0A1380D24AD24B80001A80D24BED3AFF3A52
:40EA40001A8092233B707870430708D4C74B5A681202120C01321402E03492B202E0802205AC92000823184208D1C14B5B681B021B0C01331902E0319BB202E0802305A9CF
:40EA80009B00C14FE0203E00A0C8A0C6300060CC60C030C930C0BD49BD480A854B85CA6BBC4B02911340C022D2011343BA4ACB631468BA4B1A600023844206D1B84C5168F9
:40EAC000936809194D424D415B190021936051601060B449B44A8A808A8802998A86FF2B00D9FF23029A0024323213700122AF4B32201A70AE4B1C700AF034FDAD4AAE4B0C
:40EB00001A60009B0333DA7F009B0433DB7F1B021343AA4A042B03D9043B9B10137000E01470009B0133DA7F009B0233DB7F1B021343009A0433D318A14A1360009B07330E
:40EB4000DA7F009B0833DB7F1B0213439D4A042B02D9043B9B1000E000231370009B9A490533DA7F009B04310633DB7F00201B021343009A0433D318944A64241360009B03
:40EB80002A331A78009B2B331B781B021343904A1380009B28331A78009B29331B781B021343009AD3188B4A13600AF019FC002380211A00180008F031FA874B1B78002BF0
:40EBC00001D000F03DFC854B1B78002B26D00121162008F069FD019B00219A68804B16201340C02252031343019A936008F04AFDFA227C4B9200C021002008F0DDFE7A4B66
:40EC00007A4AD021002008F0D7FE029B2C331B78DB070CD500200AF02FFC08E09620013CC001E4B209F05CFB002CC6D1CFE70821019B05AC1A6874208A43D3B2019A0B43D9
:40EC4000136001230222237021003133637005F093F8002807D002220323210074202270637005F089F800200AF04CFC604E022234003C34237813420FD05E4A0321002002
:40EC80000AF09AFF0F2808D002222378934323702378823A1343DBB22370002005F06EFF330038331B78002B00D18EE200200AF04BFC514B1B78002B06D12821002008F0AB
:40ECC0009BFC002812D080E2037C002B03D079300378002B03D03300012239331A70330039331B78002B00D16FE2E6E7434D2F782C00781E062800D967E20FF063FB07002D
:40ED00001A00CA00210260026B014E02002004F081FB002300206B7006F0BCFE0523002805D0354B1A780423002A00D0023B2B704BE200206F780AF007FC0600002F02D0E8
:40ED4000012F5FD042E11F22390091430A0001212B4B0A436B846B1CDA77AA1DD777802205345B18E777DA7714E1C046C0FF0100C0FE0100AE000020B0000020FF010000E3
:40ED8000B2000020B40000202804002018040020EFBEADDEFF1FFFFF00280020B8000020F4CFFC3F9C000020DC050000940A0020C0000020871A01008C0A0020BC0900203B
:40EDC000C0090020C409002058E70100C80900209C0A0020980A00206409002080070020FFFFE3FF217B0100E5370100EE020000FC060020991A0100101300203C0C002045
:40EE000000FFFFFFBD4B1B78002B00D1DEE0BC4B2A6ABC491A60AB1DDF7FBB48BA000FF0F3FBBA4B01371F702B00002245331A702B00002246331A706B6BAB60AB6A6B606A
:40EE4000737D002B1AD12B002B331A7838231340282B03D134342378DB060FD4330079331B78002B05D03300B9331A7818231A4204D170363178002002F046FAA44B1A009C
:40EE80002B321278520700D4A0E000225A7003239DE000206F780AF057FB0600012F08D0002F03D0022F00D18CE08FE0390038006EE0924B1B78002B00D187E06B1DDB7F7B
:40EEC000002B59D12B0045331B78AA1D002B0AD1296A904B90481960D57F8A49AA000FF093FB01350FE08D4BD57F1F781223DB1B9D4200D91D00874BB800AA00C0188149DF
:40EF00000FF082FB7D19854B1D70814B9B6A01335CD08349002008F0C1FE002837D0330079331B78002B2DD03300BC331B78002B28D033007D331B78002B23D0794B3C3326
:40EF40001878012318401DD101F0B6FF051E09D17036317802F02EFA2B0037222821280008F02AFD2300002245331A70002346342370012100200BE0AB6A01330CD12B8BF7
:40EF8000002B11D00022624B5A7004231FE0010004F05AF906231AE06349002008F07EFE39000028EBD1F3E7737D002BEAD13300B933187818231840E4D17036317802F0D6
:40EFC000A3F9DFE70534E37F012BDBD00523504A1370FAE06B1DD97F544B1A00180034321170AA1DD27F3830013202702A6A5A64AA1CD27F464DD2092CD03F220134E07F99
:40F0000044330240E2771C00002903D1454B3A331A7804E000200AF097FA7C3002780323602113405A0163788B43134363706B1CDA7F3E4BD206D20E4033052A03D0062A74
:40F0400004D0042A04D12D221A7007E00022FBE71922F9E740331C0019232370AB1DDB7F002B09D09A000023304CE818806A1919043388649342F8D1204B1B78012B27D11E
:40F080002A4B34331B78022B22D1294B1B78012B30D0002B01D0022B1AD1022305AA137000231371002393600F3313730821214B00200AF047FD1E4B0122002806D004DB42
:40F0C0000E38C0B20222012800D903221A7011E044352B780C21093B5A1E9341114A002041321370144B154A0AF02CFD431E984140420740064B1F7067E0C04610130020F4
:40F1000084070020640C002088070020810700203C0C0020A4070020A8070020A00700204C0C0020FC060020540C0020F00800201C0A0020092A0100353501002409002010
:40F14000002006F0A7FC9E4C2300303318709D4BE3669D4B1B78002B15D02B8A0527002B19D0002006F096FC002814D0974B3B36E36001236370002368342370009BC2330A
:40F180001B78337006E02B8A0527002B03D168340133237002372F700EE0894B6A7868331B7800209B009B18894A9B009B58984728700638012808D800236B7005E00020B6
:40F1C00004F06AF901233E363370824B1B78002B01D000F035F900227F4B1A6009F089F87E4B01901A003C3210780222104000D0B5E038331B78002B04D1794B1B78002B60
:40F2000038D145E0282108F0F7F9002800D0A6E0744B1B78072B00D0A1E0694A130068331B78002B00D19AE06F4B1B78DBB2002B00D094E0110030310C7801210E00D56905
:40F24000D8B2844213D92800D84030420DD098008018006A0778012F06D10530C77F784278414042014000E000210133E8E70029C3D174E05D4B1878C0B200286FD10F229A
:40F28000462108F063FC03E0FF204000FFF7AEF9574B1B68002B10D0564B3020197801238B428941494208F0FFF9534B1B78002B03D00021302008F0E5F9029B2D331B78C3
:40F2C000002B02D0012400251DE04C4B1B78FF2BF8D14B4B1B78052BF4D14A4B1B78002BF0D13C4C2378002BECD10AF0E1F80028E8D0454B75331B78002B32D12378012404
:40F30000002B39D02500019808F0F7FF002D01D00AF0F2F8002C00D1A5E4354B1B68002B00D1A0E4334B344A1B781278DBB2002A00D198E4354C364A012B01D9354B00E07E
:40F34000354BA3600520E26003F064FEA268334B0C211340A360302008F094F983E40024B1E72F4B2F4A1B6C128B9BB29342C5D0322003F04FFEC1E70124039B19782A4B7A
:40F380008A00D258536E2342BCD118234B432749CB181B79022BB5D1254953582343535008F0A7FF0421234B234A1B889BB21360224A13680B43136030BF08F09EFFA1E7AC
:40F3C000F00800205C0C002010130020400C00201CE8010064090020840A0020FC060020AE0900203C0C00201E0A0020910A0020200A0020800A0020CC090020B60000205B
:40F40000B7000020F806002054020020FC000A40AFF44A01C2F14A41C2F14A40FFFFFFBF00000340D40200201CEA0100C40B0020880E000052F2FF0F0400034010ED00E0BB
:40F44000F0B5C54E8BB07078C44C030904933578002B00D04CE2228CEBB2D2B22D2B00D190E116D80A2B72D00AD8072B2ED0082B4FD0062B01D000F0FFFEB07800F0F0FE01
:40F480000C2B00D19AE078D32C2B00D10AE100F0F3FE312B00D1A0E10DD80A252F2B00D120E2B1782F2B00D96FE12300563319705934227897E1342B00D1ABE13B2B00D129
:40F4C000DEE1332B01D000F0D7FE91E1A24B05259B784A2B03D1A24807F0FEFF05009E4B9B78412B00D0F7E19E4A1378012B05D153681089403B181A9B4C02E050689B4CA3
:40F50000403808F06DF9002801D000F0ACFE2000DFE1012A01D800F0AFFEB3780525522B00D0DFE1F378002B05D00020012B00D1CFE100F0A1FE032007F010FD0334072033
:40F5400007F02AFDE07F08F0B3FC00F092FEB278231D0126502A04D10534DE77E67700F088FEDA7F0525324200D1BBE16A46127C6419DA77E277033DB4E17A4BB6781B7882
:40F58000049DB34217D0012E04D00725022E12D1774800E0774808F023F9002801D000F045FE012E01D000F037FE042205000634E37F9343E3770235EDB293E10525032A31
:40F5C00000D88FE1644B9B78462B00D08AE1624B0220DB78012B3FD15F4B0E205D791B792D021D43231DDB7F002B34D05D4B59891A00A9422ED89989A94202D2DB89AB4296
:40F6000028D15D4B9D4225D803D10022733BE25012E0FF235B009D420ED11378012B05D0544808F0DDF80023984201D1514BDB69C62201335200A350631DDB7F002B01D16E
:40F64000052008E021002800B03108F043F80028F6D100E0072002253F4BDB78002B1CD13D4B072559791B7909021943231DDB7F002B00D136E13B4B1B8A8B4200D331E103
:40F680003D4B994200D92DE120008022B030090252000EF0B9FF043D24E1002801D000F0E5FD1FE1B3780925012B00D91AE1334E327A002A00D014E154342278534001D13E
:40F6C00000F0D7FD1A403272327A0127554255416D003B4200D1FFE0307A384005D109F0CBFE23781F432770F6E02E21002007F083FF041E13D07523483632782E2113403A
:40F700003370002007F09AFF0021080005F048F83900002005F044F8390000200FE009F013FF873000783900002808D0144A032120000AF041FA002805D100F08DFD03F091
:40F7400091F900F089FD337ABB433372337A002B00D1C6E000F046FDF0020020F00300204C420000A40000203242000031420000C0FE0100C0FF0100FF010000F0060020C4
:40F78000652A01005534B378A0E00925432900D0A8E0BE4B1A78A31DDB7F012A03D15B070BD4BB4B02E01B070AD4BA4B5B681B021B0C1B020133FF3304E0A0235B0101E043
:40F7C000E0231B02B034C03307CB07C4250007CB07C506CB06C500F04CFD2300B27859331A705634217804980AF036FA00F041FDB378522B04D1FA20800003F00BFCFAE771
:40F800000925502B6ED1A44B8022991CA3480EF0FBFE67E0B078503807282BD80EF0C8FD042A150F2A2A2A1DB03422689C4B02259A4257D101229B4B60331A7052E00022E5
:40F84000984B60331A7000F014FD2300B0331B68B4341B68236000F00CFD924B022560331B78002B3ED02300B034B4331E6823681E6037E000228B4B60331A7000F0FCFC23
:40F880002300854A633392781B789A421BD0854B51331878002816D109F056FE72300378002B10D0002009F04FFE67300378012B09D1002005F056FF7F23184003D102003C
:40F8C00004210AF079F9744B63349B78237000F0D0FC07F001FE0500002D01D100F082FC00E01225002329001A00180000F078FC049B581E238CC7B2DBB23800059309F0CB
:40F9000023FE0390242D00D10EE315D8052D00D16EE106D8002D30D0042D00D10FE100F0AEFC1C2D00D139E3202D00D1D7E3062D01D000F0A4FCB4E12A2D01D100F008FCD6
:40F940000DD8282D01D100F0F8FB292D01D000F096FC502078432418DA3400F011FC302D01D100F009FC312D01D100F00CFC2C2D01D000F084FC00F015FC543423783B41F7
:40F98000DB0701D400F07BFC0C20F178B378090219439B090A0A1B021343CEB29AB2064206D0032B02DC092400F016FC043A92B28907890FCBB2032BF5D082235B009A42BC
:40F9C000F1D80824344003D19307ECD11C2AEAD8059B012B01D800F052FC2C20314B78431D0064354155002128180173F10601D41B210173002C59D02C211A002A4C79437A
:40FA0000200064325118FD003A022830AA1882181000D930FF30007848701000DC30FF30DB320078FF32127800021043032248801640039A01D1943200E096321278012A8D
:40FA4000B1D92C227A439A186432D278D20907D0002E0CD1039A99321278002AA3D106E0002EA0D1039A99321278002A9BD02C227A439B183A02AD18812265199200AD18CF
:40FA8000DD66024BF83ADB19FF3A34E0A4000020C0FF0100C0FE0100F002002000000120EFBEADDEF0060020F00300202C21700726D5180079436430451896085B182E7138
:40FAC000C34DDC66FB003C021C1910312835401829192C19DD31D934FF31FF340EF094FD2278BC4B052A04D0062A06D1DB19112201E01022DB199A741AE0DB19FF22FAE7E5
:40FB00001D00794364356818960806710C205B18DC66B04B1031DB1998743B026818F900C918AB4B591880239B00C9180EF06CFDA84BDB199B7CFF2B00D0F0E19FE33B0295
:40FB4000F800C018802324189B00E4182268A24B00209A420ED1221D130001001868002804D00131C9B204330729F7D1380009F00FFD012000232360984B99784B0600D128
:40FB800011E7039B5A7A01235B4293400B405B0600D008E7039B9D7A002802D18D4200D16FE3380009F00AFD039B72331B78002B00D166E3039B67331B78012B00D060E3DD
:40FBC000874B0022643319002C237B435A54CB181A711A737F4B3800DB199A7407F05AFC041E00D1FEE22900380009F0E7FCF3E23B02F800C018802324189B00E418226868
:40FC0000784B00209A420ED1221D130001001868002804D00131C9B204330729F7D1380009F0D6FC0120002323606C4B99784B0600D1B8E6039BDA7A01235B4293400B4058
:40FC40005B0600D0AFE6039B1D7B002802D18D4200D116E3380009F0D1FC039B75331B78002B00D10DE3039B67331A78002A00D007E35B4B3800643319002C237B435A543A
:40FC8000CB181A711A73534B0132DB199A7407F001FC041E00D1A5E22900380009F0AEFC9AE2FF214B4BDA199174B17832296CD808000EF087FB3700370037006A006A0011
:40FCC0005E005E004B0057005E005E005E005E005E005E005E0033006C005E005E0012012D015E005E005E006A006A006A002D012D012D012D016F00770085009F00AC00B2
:40FD0000B2006A006A006A006A006A006A006A006A006A006A00BD00CF00E7000122324B1A74F5E0314A0A24515C039A527B0A41D20700D4EDE0DB192D4A3800D97409F009
:40FD40003BFF002800D19BE00D24E2E0039B72331B78002BF8D0039B38007033197801F029FBD5E0039B38007033197801F0CCFACEE02C241D4A7C43D01C455C233218481E
:40FD8000525C6430DB1925549A740A24C1E0DB190321D1E700230993039B039A5B7A20329B0006E001230993039B039ADB7A3C329B000092102109AA049807F007FF5FE09E
:40FDC000039A039BD27A58335200132155E0C046F0030020A400002050435253F0020020F0060020504B4E5370070020B8E70100392A01003B02FA00D2188023A4189B0007
:40FE0000E218039B3800D97A09F002FC80E0039B18226D33FF3314212FE03B02F900C918802364189B00E118380009F0D9FF6FE0002F07D1C94B1B78012B06D1C84B5A7C9E
:40FE4000143304E00022130001E03A003B009200182112E0002F09D1C04B1B78012B08D1BF4B1A0030321278343304E00022130001E03A003B0019219200049807F0CEF858
:40FE8000002446E08023FD003E02A8199B002418E4182378492B39D16378442B36D1B04B00227C33DB5D64889C46AE48D3B29C450FD9510189194118C988130001328C4252
:40FEC000F4D1ED186D01425D4319043392001A21D3E7002309211A00CFE725005434237828353B410524DB0713D43A02FB009B18D933FF33E818837842780178C078033C14
:40FF00000090380009F09AFB002802D0092400E00224954BDB199B7CFF2B00D15AE1380007F0B8FA040055E1059B032B06D818000EF048FAA70127001A000D0050237B43D7
:40FF40008A4AE3185279D533FF3312061A6050237B43E318D533FF331A68120E1106834A127912040A431A6050237B43E318D533FF331A68120C11047C4AD27812020A433B
:40FF80001A605020FF2378432418D534FF3422689A43764B9B781343236072E125005434237828353B410524DB0700D414E1F278B0783379120202431B0413431A00737994
:40FFC00074261B0613433902FA0052187E43D9326748FF32AA58841994462200002130321278079006921A0C03921A04120E05920A00069DC8B2A84213D265690120CD404C
:020000040001F9
:4000000005420CD0079D8A009219AA18126A03985589854203D1D5790598854203D00131E7E7002000E001204C4CE55D002D2ED00124DEB226422AD0A643022E06D1533439
:400040007C434C4B1C1947346346C1E0062E1ED1002842D0D369002B3FD0531CDB7F002B3BD12300C9B28B40742519007D43404B38005D19EB690B43EB61AB698B43AB616D
:40008000022368351370D36998472C70F9E0002823D0511CCC7F002C1FD0107801281CD1D907C90FC9B2A94217D18343DBB20A2B05D1D36A61463800984704000AE0082B5F
:4000C0000BD1002D09D0013B1370D369002B04D038009847002C00D0D3E00D247CE05434237805243B41DB0776D5F378B07831791B02034309041A000B00717913430906BB
:400100001943164B0A0EDB5D9A42E6D10B021B0E012B06D0022BE0D189B2380002F054FB07E089B20429D8D8C9B20022380002F073FA002800D0A4E0CFE750207843241889
:40014000B178D934FF342170380009F017FA98E0502078432418DB3412E0C0461013002070070020F0070020A4000020F0020020F0080020F0060020502078432418E134EC
:40018000FF34B37824E0502001237843B1782418E234FF344A0821701A401940380009F0F7FD6EE0394B3A499A7854237B43CB185142514151331970002A02D1380004F04B
:4001C0007BF950207843314B2418DD349B78FF34237056E0002C05D0002321001A00049806F01CFF90220021520028480EF015FA0022284B284974331A70284B0333DB7FA0
:40020000CA542749C85C90423DD0CA54254A9B009B580122DA6636E00500022E01D0FFF7CAF908220634E37F934312E0012E07D104220634E37F06251343E377FFF7BBF9FE
:400240000625022E01D0FFF7B6F908226419E37F1343E377FFF7AFF9012006F07FFE022006F09AFEBEE70825FFF73CFB0725FFF739FB0225FFF736FB0525FFF733FB0524F8
:40028000AAE70224A8E70BB0F0BDC046F0020020F0060020F0080020BC0D0020F0030020C00D00201CEA01007047704770B554244443044D6359002B02D098470023635108
:4002C00070BDC046FC06002054235843014B1818C1867047FC06002010B50C0009F034F90423032C01D8054B1B5D94300278012A02D8102B00D10C3B180010BD00E80100A9
:4003000070B504000D0009F01FF9C17906008906890F2000FFF7E0FF7D36042801D0102803D13378012B00D1032033780949002B07D1542262438A183C321378DB0700D526
:40034000042054236343CA1808331073C9182000A84770BDFC060020F7B50500019109F0F3F8070067373B780400012B01D1867A00E0067B280009F0E7F894300378042018
:40038000012B03D92378022B00D00C3023006A331B78002B0ED12378022B0BD176B2002E02DA3B78002B05D1E17928000907890FFFF792FF54236B430449CA1808331073B7
:4003C00059182800019B9847F7BDC046FC06002070B504000D0009F0B7F8542262430C498A183D3213780E000122002B06D1C179033319402000FFF76FFF02005423634384
:40040000F11808330A732000F118A84770BDC046FC060020F0234343084A10B5D3180122A8331B78134207D0542343430449CB18198E044B00F05EFE10BDC04600E1000013
:40044000FC060020550E0100542313B5C8214343104A8900D3181A8E8A4204D10E4A1A86002816D113E0002813D10C4B9A420ED9012301AC6421100023700EF0E1F8013010
:40048000607002222100742003F076FC01E0024AEEE713BDFC060020881300008713000010B5002801D104F04FFE10BD542343430B4A70B5D318998604000D00FFF7F0FFC1
:4004C000F0236343074AD318A8331B78DB0705D5054B00222900200000F00CFE70BDC046FC06002000E10000ED04010010B5041E01D107F04BFC80212000C90509F08CFCF9
:4005000000221721200000F0EBFF10BD70B5040007F0EFFE05002000FFF7C2FF200009F013F887300378002B21D0200009F00CF8A1300378002B1AD1002C18D1200007F094
:4005400061FC2100200003F0E7FF07F0D2FE0523094C226809491A42FBD1842292008C588B582343064C23438B5007F0C6FE280007F0C3FE70BDC046A4000A4000000A40BE
:400580002000200070B50400150009F077F854236343074A0321D318002800D00421197354216143083151182000A84770BDC046FC060020F0B591B0009001910E9208F070
:4005C000C3FF019B06905B780C93019B1B899B059B0D099303002C33FF331B78DB06DB0F0D930023089307930593069B059A7F331B78934200D89FE1002302936B461B7A3F
:400600000A930A9A0C9B934200D891E1009808F09BFF059C05004A34A40003190393DE78019AB3090393059B7C335B00C3189888029B800502339B00D118CA78860D9209DC
:40064000012A00D17BE0002A03D0022A00D1DAE06BE1019A142198580003830D1800133004930DF0EDFF049B1F1A1818039B012B2FD0002B02D0022B08D056E16359049A91
:400680001B039B0D9A4200D04FE10CE063591B039B0D9F4200D248E12B195B889B049B0D984200D941E1635B31009B059B0D9E4200D21900029A019802329200125A92050B
:4006C000920D914200D930E1009AC949920053500DE163591B039B0D9F4200D225E12B195B889B049B0D984200D91EE1FA23605B5B008005800D584301383900C0190DF04C
:400700009FFF0400FA20400070437B1EC01839000DF096FF22000600844200D20200029B019902339B005B5A9B059B0D9A4200D9FBE0009BAE4A9B009C500497D7E0019A71
:400740004F889B58039ABF041B03BF0D9B0D012A36D0022A00D0E8E062591203920D934200D2E2E02B195B889B049B0D9F4200D9DBE0FA21605B49008005800D7843F430FD
:40078000FF300DF05DFF04003000FA217843F430FF3049000DF054FF22000600844200D20200029B019902339B005B5A9B059B0D9A4200D9B9E0009B8D4A9B009C50F2E0DC
:4007C00062591203920D934200D2AEE02B195B889B049B0D9F4200D9A7E0635B31009B059B0D9E4200D21900029A019802329200125A9205920D914200D996E0009A7C4986
:4008000092005350CFE04A889204920D0492019A9858039B0003870D012B32D0022B00D083E063591B039B0D9F4200D27DE02B195B88049A9B049B0D9A4276D8645B320030
:40084000A405A40DA64200D22200029B019902339B005B5A9B059B0D9A4266D83800FA216043009B624D9B00F4300393FF30EB1849000F930DF0E4FE0F9B5860039B5C51E6
:400880009AE063591B039B0D9F424ED32B195B88049A9B049B0D9A4247D8FA20645B4000A405A30D58437D1E3900401903930DF0C7FE0400FA2040007043390040190DF001
:4008C000BFFE22000600844200D20200029B019902339B005B5A9B059B0D9A4225D8009A434B9200039899184860D45064E0009A3F4B92000499D0589C18A1604843FA21B0
:40090000F430FF3049000DF09BFEE6606060009B374A9B00D3185C68079AA24205D80D9A002A51D09B68642B4ED1029B013364E6059B0133DBB257E6089B002B25D1FA217C
:40094000069E2B4DFC36F36A49001803009B800D9C00B38D2F199B059B0DB8605843F4306351FF3001930DF06BFE019B099A7860934200D96251012233882C19E360110031
:400980000023009800F008FB0B905423009A194953430B98CA1808339060591800980E9B984711B0F0BD009B114A990053188A589F60DE605A60AAE7009B0D4A9B00D3185A
:4009C000049ADE609A60A2E7059B069A7C335B00D3180A999B880131DB0BC9B20022009800F0DAFA01230B90079408939DE7C04668090020FC060020F023434370B51F4A33
:400A00000400D318A8331B789B0736D507F071FCCA220600D4201A4B1A49D2009950202180001A58184D8A431A50D222920099502A19127C022A13D1852204209200995872
:400A40008143995089218900595800290ED198580E4908420AD1012099588143995005E0032A03D11921200006F0E8FD300007F044FC0023A4002C19636170BD00E1000052
:400A800000000A404000008068090020DCFF0F00542343430C4A70B5D31800223F3304000D001A70904201D107F0ACF9002D02D02000FFF7F5FC0121200000F0BBFA2000D2
:400AC000FFF79AFF70BDC046FC06002010B5040020221F2106F06AFD2000FFF7E7FB20000121FFF7D5FF80212000C90409F094F900221821200000F0F3FC10BDF8B5542406
:400B00004443104B0E001C192186050008F01CFD07002800FFF770FFC823218E628E9B00914205D39E4208D02800FFF773FC04E09E4202D03800723003782800FFF784FCA1
:400B4000F8BDC046FC0600201E3970B504000800062900D982E00DF02BFC04113C515A81770020221F21200006F020FD542363433B4AD318C82292005A8643E054226243B2
:400B8000374B384D9A181100423109781E00002908D154236343F3181A0042321278002A0CD012E0118E14222000524200F086FB0028EED02B000522202141E0198E0A22B8
:400BC000200000F07BFB0028F4D02B0001221F2136E0542565431E21200006F02FFD204B20005D192B8E6B864235FFF759FC2B78002B30D12000FFF70DFC2CE02221200073
:400C000006F01CFD01212000FFF742FF26E016490A22200000F052FB011E02D12000FFF737FF1422C82152428900200000F046FB0C4B002802D10A22242101E00122222169
:400C4000200006F0B9FE09E02000212106F0F6FC2000FFF725FC2000FFF728FB70BDC046FC060020490B01008813000010B5041E25D107F05FF9124BDA7E58769C76002AD4
:400C800009D001221A76F2227C200E49D2008B5883436D380BE05A7E3C2A0AD801221A76F2227C200749D2008B588343753803438B50054B01221D21002006F07DFE10BD6B
:400CC0006809002000000A4079510100F8B504000F0007F00EFB00210500200000F0AAF9002C01D107F052F82000FFF7D9FB27222621200006F05AFC134E002F1AD02000F6
:400D000008F022FC87300378002B13D02000FFF7ADFF54236343F3185F600C4FFA223B002621200006F048FE3B0001222721200006F042FE54235C43054B34192800A3865F
:400D400007F0DBFAF8BDC046FC060020550D01008813000070B504000D00262902D0272907D021E0272106F069FC2000FFF798FB1AE000220D4900F0A1FA00280ED12621B6
:400D8000200006F05BFC2000FFF78AFB54236343074A2000D3185B68984705E0054B01222900200006F008FE70BDC04688130000FC060020550D0100F7B50E0024221E21E1
:400DC000040006F0F3FB542363431F4D1F49EB185B8E8B4207D820000021FFF759FE142002F018F902E02000FFF788FE07F081FA5423C822634392001F00EB1801905A86A1
:400E0000002E19D0200008F09FFB87300378002B12D02000FFF72AFF9622EE510C4D92002B002121200006F0C7FD2B0001222221200006F0C1FD03E001212000FFF728FE9C
:400E4000019807F05AFAF7BDFC06002088130000490B0100542343430F4A70B5D318C822040092001A860D00FFF7EEFA01212000FFF70EFE002D09D020000022172100F0A3
:400E80002FFB06492000FFF797FF04E02A001F21200000F025FB70BDFC060020AB0201007047000010B507F045F8024B5843400A80B210BD50C3000010B5040008F044FB9E
:400EC00070300178200003F04FFC10BD10B50400042904D1064B195C08F0CCFF07E0032905D108F031FB9C300278014B1A5510BD840900208B1EF7B55A1E93410722D31A1B
:400F000004000D00019308F09DFF214BE6001A005F1C0932BF199219795D525D009320008A4211D908F084FF7B5D01990133DBB220007B5508F0C6FF00281FD0002204212C
:400F4000200008F039FE19E008F0FEFA030072331B78002B03D067300378002B08D15423022163430B4AD3183C331A780A431A70200008F047FF200002F08EFA009B0133CB
:400F80009B19585D009B09339E19735D181AFEBD84090020FC060020F7B50F0015001E00040008F0D1FA012341790200194009068C46290019408906807901916146184044
:400FC0004006084307210F4001993F07014300203943854200D1300003401248DB0601401943114BA400E5581048AD05AD0DAB02014019430E4B890AE35889029B059B0D01
:401000001943080104D49D4202DD890A8902294394321378012B02D980231B0419430800FEBDC046FFFFFFF768090020FF03F0FF74090020F8B5F0234343214A0400D31839
:40104000A8331B780F00DB0739D507F052F91D4E050033195B7C022B03D13900200006F0ABFE0120184B194AA400995834198143802099509958000601439950E121890070
:401080005858134A0240FC205A50022180001A588A431A50FA220420920099500D495A580243A0205A5074315A5880051202120A02435A5000232800636107F01EF9F8BD90
:4010C00000E100008409002000000A40D407000008F8FFFF2C060000F0235843034BC0188C300088024BC0187047C04620E1000000E10000F0B585B00500009202930C001F
:4011000007F0F7F8F0236B434B4A03909B188A331A884A4B2026D2189378402B02D801335B10DEB20123464FD35601937B195B7C022B03D10099280006F03EFE02237A19FD
:401140005374AB00FF18029B01987B616B461B786043137601236421FB610DF03DF9394B2418A0B2984204D8374B984202D8374800E0180004210A27354A364C7843A358AA
:401180008B43A35079310DF027F93900C8380DF057FAD421C900635880B21B021A0A031CC72800D9C72301271B0613432A4A6350A3580A203B43A350A358BB40FB40A350E3
:4011C00001F028FFE1239B00E258BA43E250E258224B1340002E06D0214A013E13437601253A164000E010261E43E1230220FC219B00E6506433E05089006358154A03436A
:4012000063500F4B5D19697C814210D10098154B002801D0852000E08420800014582340012423431350103013580B431350039807F063F805B0F0BD20E1000000E10000BE
:4012400084090020C05D00006F170000701700002C06000000000A40D407000001F8FFFF05040000FFFFEFFF70B5D024124DE40029510A200E0001F0CDFED22202239200DF
:40128000AB500832AA581A4214D0002E12DBC1239B00EB582A595B079B0F120408D4012B08D1D32202219200AB580B43AB5001E0022BF6D070BDC04600000A40F7B513004E
:4012C0000A000021070003F0E1F9D024060007F010F80B4D0190E4002B590A200093094B1E432E5101F096FE380000992C59FFF7BBFF019807F001F80120E40BA043FEBDF2
:4013000000000A400002020070B505000E0003F02BFA214C00281CD090229200A1581F4B0A200B40A35001F075FE002E04D18C239B00E1581A4A03E08E239B00E158194A66
:401340000A400221E250E2580A43E250E2588A43E2500621144A0026A35828008B43A350AB23B0229B00E6509200A1580F4B0B40A350C022AE23D2009B00E2501B2106F035
:401380005DF90B4B5A1C5219D677AA009A1828335E55566270BDC04600000A40DFF3DFFFDFFBDFFFDFF7DFFF68080000FFF9FFFF840900205423F7B5012743433E4A050027
:4013C000D3183C331B7800911F4073D1F02343433A4A9B1892331A88394BD3189C7806F088FF384E384A731C5B19DC77AB00F3185A62AB23354C9B000190E750280008F0F3
:401400006FF96F3002782836314B002A0AD1042101327255E2580A43E2508023DB001F002C4B08E002217755E2580A43E25080239B001F00284BAB229200A3501B2128004A
:4014400006F0FCF8C022AE23D2009B00E250B0229200A3581D4E3B43A350019806F04DFFAD239B00E3585B041CD50099280003F07BF9002816D1009B184A002B01D18C2344
:4014800000E08E2302209B00F1581143F150F1580143F150F1588143F150902189006358134363500121280008F0A8FC0221280008F0A4FCF7BDC046FC06002020E1000040
:4014C00000E1000084090020691A010000000A40680800000028240085040000200C2000F0B58FB016000400009108F02DF80023009A0500501E02931F00252800D99FE2C8
:401500000CF060FFDF00C600DF00360136019E029E029E029E02DF00D0009E029E0242019E029E025C01D2009E029E02D2006601990197019F01DF0026009E029E02F601B6
:401540009E029E029E029E0241005A025A022902D54BD649D64A1F601160D649D64A200011608021D54A090617601A680A431A600621002202F078FC54236343D04AD31848
:401580003E333A1CFEE000220221200001F044F8CC4B6F35190029312A78095D914207D0591CE0000D18AC4600256746BD704554293320001A5507F0C7FF67300378012B2A
:4015C00000D03DE253336343BD4AD31845331B78002B00D034E2BC4BBC4D3B331A78BC4B1B78002A3DD1002B0AD0BA4ABA4BA9580A200B408021C9020B43AB5001F00AFDAF
:40160000E4230022DB00EA50E62201202021D200E850A950E958B14A80270A400221EA50EA587F020A43EA50CD229200A9588143A950A9583943A950E958A94A0A40902147
:4016400049020A438021EA50EA5849030A43EA509C4B2A33185501F0DDFC200003F08EFAEEE1002B0AD09B4A9B4BA9580A200B408021C9020B43AB5001F0CCFCE423002220
:40168000DB00EA504132EA50213A1033EA50D7E1542363438A4AD318190000223E310A7039336FE0012300E0002376351F002B780122002B03D0009D153D6A426A4115000D
:4016C00001E000252F00200001F0E6FE002F05D000220221200000F09FFF0AE0002D08D129002A00200000F097FF2921200005F0A5FF009B012B12D1724A00211000E30063
:4017000009300132C018D318425C002A03D05D5CAA4200D894E101310829F5D184E1009B032B01D01A2B1ED154252B006343644AD3183C331B7817005BB2002B02DB200060
:4017400008F08CFB0122002165437D193C352B7893432B705B4B9B18E200981881702000D15402F0A9FE009B122B00D068E15BE154236343524A0121D3181A003932117030
:4017800000223E331A705BE13378032B00D057E1200001F081FE54236343494AD3181D0038352878002800D04AE14822012162434C4F3E33D1552970187041E154236343B4
:4017C0003F4AD31841331B78002B00D03DE137E15423634394353A4A2978D3183A33012901D9012100E000211970022133798B43012B1AD13C4B1B5D002B06D05423634359
:40180000D3183E331B78002B0FD154236343D218150038352878002807D1482301216343304F3E32D95529701070200002F044FE06E1022100E000212000FFF75BFB0290BF
:40184000F0E05423012163431D4AD3183C331A780A431A70244B1B5D8B4200D0F0E074226243002517000193204AD319190030310978A94200D8E3E0DB690199EB400B42A3
:401880000ED01D2363435B1908339B009B58002B06D007221A70DB69002B01D0200098470135EDB2E0E7C0460000064096080080600006400701008000020640040206406C
:4018C000FC060020840900201804002000000A40830900208C080000FF7FF8FFFFFFF1FFFF1FFEFF3C0C002010130020F008002050236343564AD318B333FF3319780223A0
:40190000194000D0A1E0F379DA091DD01A205B061B0F01335843F288D205D20D824213D9307803AA1070B07851800F310B40DB0075310B43D370474B50702C3393601B2300
:4019400077391373444B02E0002312211A00200008F088F879E07078012871D10222B3681B0E1A4002D113000F2121E000278446B27A384913071B0E1209A50013434A19D9
:401980001763002B07D06046034204D1106B5B0801301063F5E70120303103AA4919002391600D2150801A301073173813705070200008F0C7F843E02B0070331978200012
:4019C000FFF7A2FC2B0072331B78002B16D02B0067331E78012E11D16F352978200002F023FF9C235B0063431C4A1D49D3183533FF331E702000FFF7DFF906E0200001F076
:401A0000A7FE00212000FFF761F954236343154AD3187D223C331B78934316D104212000FFF768FA02AE0BE0542363430D4AD3183C331B785BB2002B02DB200008F00EFADD
:401A400032000099200005F069FB0FB0F0BDC0461804002084090020CD0E0100840C0020A10E0100FC06002010B5040007F06CFD703001782000FFF747FC00221921200052
:401A8000FFF72EFD10BD4B1E994110B524310022FFF726FD10BD0000C82110B5002289000400FFF70BFC002805D1200002F05EFFFA22520009E0542308216343064AD31834
:401AC0003C331A780A431A706422044B2E21200005F072FF10BDC046FC060020E11A0100C82170B5002289000400FFF7E7FB002824D1542308216343144AD3183C331D782E
:401B00000D4008D01A7820008A431A7002F02EFFFA22520013E07F22197820000A401A7008F09CF92900200002F03AFE2000012102F036FE200007F09FFC05E06422044BFD
:401B40002E21200005F038FF70BDC046FC060020E11A01007422424370B5154DAA18130030331978546993699C430023D36101228B421BD22600DE40164215D00D4ADB008F
:401B80009B1874225043002428180125A2009A5A002A04D02A00A240C6693243C2610134A142F3D8012002E00133E1E7002070BDF00800202CEA0100742330B500245843BF
:401BC0000D4B1818C36E1C60C56870300078021D1F205200AA189288197107215A801A785C7182431C3802431A705A788A4387390A435A7030BDC046F0080020542370B5EF
:401C0000032543430A000349CC18083325735918904770BDFC0600207423F7B5060000251D2743430193019B154AD018030030331B78AB421ED93B0073435B1908339B008B
:401C40009C58002C13D00F4B9B5D002B01D1013300E004231F222370237A300093431A3A13432372E3699847200003F0C3FD0135EDB2D8E7742200210CF0CFFC0520FEBD31
:401C8000F00800201013002074235843244B70B518180023C46E1600227163718B680D0023609300CB18DA68002A0BD08A19117E002907D020006171127ED9689200083002
:401CC0000CF0A2FCEB1CDB7F002B26D18022072163785242134363706B790B401A0063788B43134363701F232A7A1340062B0AD1AB1CDB7F002B06D06B7A0B401A006378BE
:401D00008B4313436370002E07D00721AB790B401A0063788B4313436370012070BDC046F008002037B5040074206043094B1818C36E82785D880C23002900D1037C0091C4
:401D40002000290003F038FD06210200200005F0E5F937BDF00800207423F0B54343254A0600D218D76E0922002585B002920393204A039BD318190030310978A94235D9CE
:401D8000DB690121EB400B422DD01D2373435B1908339B009C582378042B24D105223B790631E3185A707B780B401A00637A8B43134363723B79002B01D1083302930023AC
:401DC000E279618930000093029B03F0F5FC06210200300005F0A2F905232370E369002B01D0300098470135EDB2C1E7072005B0F0BDC046F00800207423F0B54343524ADD
:401E00000500D218D66E0022170087B004920732039202970593059B4B490298CA18130030331B78834200D88AE00298D369C3400120034200D17EE01D236B4302981B1881
:401E400008339B005C58E369002B79D02378042B71D1012107203379E3185970D16E33799C464B7803401A00637A8343134363724A79002A11D0634602339B00E318586896
:401E800000280AD06346E3181A764A792379934203D3920008310CF0B7FB3379002B38D1E369280098477378DB0944D01F2332781340042B0AD150336B43244A0227D31857
:401EC00001223D331A700122631CDA771F2332781340052B03D100220327631CDA77631DDA7F002A05D0A26A0C2704920022DA7701E0002F1FD0049BE279618928000093B5
:401F00003B0003F059FC06210200280005F006F911E0E3780222032B03D06378032B07D1002221002800FFF7AFFE0623039302E0E36928009847029B0133DBB202936AE741
:401F4000039807B0F0BDC046F0080020FC06002070B50500042913D100220A4B84001A5481235B041943084B084AE358A1501600002B00D0984732190721280005F0CEF808
:401F800070BDC0461E0A0020200A0020B80900207423F0B543430400FF203A4A87B0D318049303910499DE6E303109787388019000290BD03448834206D0012906D93349CE
:401FC0008B4203D1012300E00023019374210B00022000276343D054039A0591BA4242D0284AD3180722DA70019B04999A00284B2000D3589847029000281BD1059D214B9D
:4020000065435D19AA787188200003F015FDFF2816D01D2363431B181A4A029908339B0099500123834069692A00994307235161EB7005E0039B002B02D1029A7B1C9371B0
:40204000059B104D6343ED182B7C1035002B05D000212000FFF766FE00232B70039B002B0DD17B1CDFB27379BB4208D9059B054A6343D318BA1C920092595A60B4E707B0FB
:40208000F0BDC046F00800208780000001FF000008E9010070B57423040063430948C318DB6E05001979012902D12000FFF770FF7420604328187030037801330370072008
:4020C00070BDC046F0080020F0B574254543474A85B05519EE6E04003379002B0DD1303528787188002837D0414DA9423FD0012832D9404B99422FD138E00021FFF748FFC1
:40210000EB78072B28D002212000FFF755FD06206AE0364B029A20009F18019B390002339B009B59BB60039B9A00334BD3589847BB780500FF2B23D1019B0133DBB2019368
:402140007379019A9342E4D874236343274A0121D318DB78072BD7D174235C43234B07201C1970342378013323703DE001230393742301216343D154002202930192DFE7EE
:402180003B7C002B05D000212000FFF7CBFD00233B74002DD0D0154B029A6F1D9B189B78EB71019B01336B71FB7F002B05D0A96A2000FFF7B7FD0023FB77029A0B4B71889D
:4021C0009F18BA78200003F037FCFF28B4D01D2363431B18054A08339B00D550012383407A6913437B61A7E705B0F0BDF00800208780000001FF000008E90100F0B5742468
:402200004443294B05001C190723E370E36885B00393230070331F78039A3B1D5B00D3189E88002E21D0280003F034FC0023DAB2824232D20C2201335A431C490C3A8A5AA9
:402240009642F4D100240623220031000094280003F0B2FA06210200280004F05FFF28002100FFF7A9FC06201CE063690520002B18D00423320031000096280003F09CFA48
:4022800006210200280004F049FF2800FFF762FC012368342370072004E02300013770331F70B6E705B0F0BDF00800202CEA0100F0B585B00D000400039207F045F9943083
:4022C0000378BC4E009354236343F3181A0000212D3211702889B849014080200002814200D048E1AA681A616A7A3A335206920F1B78D0B2191C834200D9111CCBB2029334
:4023000054236343F3181A003A32117001210E3A11703F22197C0A40802149420A431A74A64A125D0192002A03D0009A012A00D8FEE06B78012B00D0B2E0287AC006C00E2B
:402340000138052800D9ABE00CF032F80337609595A4FF236A891B029A4200D0BEE0984A13191B79002B00D11FE15421614376182C36A000337012189B0097689C460022D7
:402380008C4E8818BB5880190432036130006245F7D1029B002B06D154336343F318D98A884A0A40DA8254236343C0183F23027C134040221343037472E0FF236A891B0231
:4023C0009A4200D08AE07E4A13191B7B002B00D1EBE05421614376182C36A000337012189B0017699C460022724E8818BB588019043203616245F8D154236343F6183F233E
:40240000327C134040221343337449E06E4A6300D25C042A44D96D4BA0006989C058C68803788E420ED154266643624A043B91199B102C310B70DBB201339B000293002158
:40244000944605E0D21AD2B2C018002AE7D127E0029B04318B4204D08F1943586744FB60F6E754236343D2183F23117C0B4040210B43137414E050236343554AD318B333DF
:40248000FF331B78DB070BD554236343F6182D36022304E054236343F61801232D363370009B012B1DD8FF236A891B029A4252D01F232A7A1340062B4DD02900200003F0FA
:4024C000F1FA002847D0542363433A4AD3183F22197C0A4040210A431A743CE0009B012BE6D9019B334E002B12D01F232A7A1A40111F3533012929D9062A04D16343F61821
:4025000001232D3633702900200003F0CBFA22E02900200003F0C6FA00281CD054236343F6183F23327C134040221343337412E01F22297A0A40062A07D138331B78012B1F
:4025400003D12900200003F0ADFA54236343F61801232D36337054236343164A6020D31819003A331A78032313405A014B7C834313434B740FE0022313704E3363431449BE
:40258000CB18B333FF331B78DB0704D4009B012B01D903231370542363430649103359182000039B984705B0F0BD009B012B98D8D1E7C046FC060020C080FFFF10130020D2
:4025C000B80900207FFCFFFF9C0A0020980A00201804002037B50D00040007F077F829000200200001F040FC051E11D150236343084AD318AD33FF331B685B0308D5012294
:402600006B46A4180733E0B2B8211A7004F006FD28003EBD1804002010B50023052902D8FFF7D8FF0300180010BD00007423F0B505000026434385B00393604A039B1700EC
:40264000D318190030310978B14200D8B3E0D96901200B00F340034200D1A9E01D236B439B1908339B00D45820780138062800D99EE00BF09DFE869D04049D9A3F001F2363
:40268000227A1A40042A0AD135336B434C48C3183B331B7801203341034200D088E0A3780127032B04D0E778033F784278414700043A012A0BD8231DDB7F002B07D00123D7
:4026C000B340994303D10A002800FFF7A5FF631CDB7F002B05D1227A1F3313400620042B6AD13A0021002800FFF7CEFA04230620237061E0334B5B5D002B1ED0039BFA185F
:402700000123B3409943D1610021217091690B439361D269002A0CD154236B4328492800CB183D331A700221FFF776FF2800FFF711FA244B5B5D002B3AD1039BFB18DB69A0
:40274000002B06D054236B431D4AD31800223D331A700023E279618928000093033303F02BF806210200280004F0D8FC00230134E377039BFF180123B340FA699A43FA6124
:4027800016E0671DFB7F002B12D0A36AE2796189280000930C2303F00FF806210200280004F0BCFC0023FB7702E0E369280098470136F6B241E7072005B0F0BDF008002073
:4027C000FC0600201013002010B5052905D100223C4B1A5401F078FF43E03B4B1A5C00239A426DD099423ED1364B195437490A18137D002B35D18300CB1835499961012394
:402800001375344A002808D10721936830308B4301390B439360063108E091682E4B34200B40C021C9010B430C21936004F02AFF2A492B4A40248A602A4AA320CA60A22204
:40284000294BD2009C50C0001A5822431A501868264A0240264802431A608A68254B13408B6001232CE004292AD80123154AC9B21354214A11548020184A800594680442C9
:40288000EFD102290CD0032910D0994218D194681A4B234093609368184390600B000FE09468164921408024240504E09468134921408024640521439160916808439060CE
:4028C000180010BD1E0A002010130020B8090020511F010000030440FF8FFFFFFC000A40C2F14A40AFF44A0100000A40F7FFFF9F08000040FFFFFFBF800A0020FFFFFFE762
:40290000F8B548244443134D06002C19230030331B78002B1DD01F2200271A40A76022720D4A6281052B04D13A003900FFF774FE2776482070432A1813004033197803266A
:402940000023D4180133DBB266709942F9D203232B54F8BDD40900208780FFFFF8B548234343154E0C00F3181A000621303205001170621C01D1002201E001225C631A76A9
:402980002800FFF7BDFFA30801221F00E4081C431740144207D148236B43F618F26B05212800FFF739FE002F04D0002201212800FFF732FE0120F8BDD40900204823434328
:4029C00030B5104C8A68E3181A624A789D1D013AEA770A780533DA774B78012B0FD91222002350434A789A4209D9DA1C92005558C2180A3292000133A550DBB2F2E701203C
:402A000030BDC0463C0C0020032911D0094B042901D1483308E0190049310A5C48330132D2B20A54022A01D9032200E002221A547047C046D409002070B5094C0500225C9B
:402A40000B00052A09D00221012B00D00B310023681CC0B21A0004F0E1FA0523635570BDB700002010B5040005F043FC0123A340DB430D495BB20A781A400A700B4A2C3274
:402A8000147823400C781370E4B2002C08D105F034FC230022000221200004F0BFFA01E005F02BFC10BDC046F806002018040020F8B548230124042743431B4AD3181B4A5E
:402AC00038335A609A78910921408D0019795609B9432943197199792640B943B6000E430221DD788E43ED07D109ED0F25402140A5400C01310029431025A94321430724A1
:402B000099710E21DD791440D2068D43920F11012A00640022433024A2430A43DA710521FFF758FDF8BDC046D409002001000100F7B54824230043431D4D0700EB1819001A
:402B40001A7A3031D206D20E0A701A7A1F231340072B01D1023B0B707C432B5D012B02D0042B1CD020E02E19330030331B78042B05D0052B13D100233376073315E0B38E25
:402B80000193012B0BD1736B3800B363FFF790FF002804D0002333766B461B7905E048235F43473BEB5501E005232B55F7BDC046D40900204823F7B51A004243534D04006D
:402BC000505D0138062800D99EE00BF0F1FB4C049D3A759D950063431226EA18E9184032343117788C4600226643019603216646E8188018417001998918023189006918A9
:402C00004E60002A01D0002101760132D2B2BA42ECD94823002163433D4AEB18DA613D4ADA621A1DD1779A6B501C01D1197602E05A6301221A7648236343ED1830350423DC
:402C40005EE06343EE18327A3036D206D20ED1B232700122EA54042935D12000FFF728FF0023337050E01F226343EB18197A0A40062A49D101215A6B05271009084001909E
:402C800014D196083000D208164308400E4006D13900DA6B2000FFF7BFFC370006E0019F002803D03A002000FFF7B6FC48236343ED1830352F7024E06343EE18320030325A
:402CC0001178042904D005291ED10722EA541BE07378052B0BD1310040310978002906D013702000FFF70CFE002373700CE048235C43413B2B5507E06343ED1805233035F8
:402D00002B702000FFF7FCFDF7BDC046D4090020B52B01005D2901004823434370B5284C0025E3181C009D63013538341D87E378090C2940AB431943E170002A1DD106F03C
:402D400003FC027CA378002A11D00200B83211780722114093430B434021B93002788B4312091540AA011D001543A57026E00722022593432B43A37020E0110C07200B006A
:402D8000A1780340814319431823D002800FC000994301432020530D2B405B01814319434023900D12029943D20FD3010A0005407F20AD012A4302401A43A27070BDC04602
:402DC000D4090020F0B50B8985B005000C000293012B00D0A1E04B78002B18D148335D43614E7719380002F005FD072323746B461B7A3D00A3705D4B3435FB615C4BFD6020
:402E00007B816B461B7A3B715A4BFB62A9E00B780193012B34D148274743534EF719380002F0E8FC6B461B79E168A3708B6802961A68002A15D01A78072313400022934256
:402E40000DD14D4801E00133DBB21A00083252008A189288002A04D08242F4D10022464806E00A2323745AE0834277D00132D2B2130008335B00CB189B88002BF4D150E02E
:402E8000019B022B49D1CB78374F072B2DD048266E434A688968FFF73FFFBE196A463300127A40331A7003930323B370736C9B681B68002B11D0280006F046FB7B30037829
:402EC000042B0AD1736C9B681B781B0705D503236A46F3701279039B1A70482302226B432800FA54FFF766FE10E048234343FA18526C92681168002908D05278D20605D5BD
:402F000000250A222274FD542F002AE00723E370237441335D437F1923E0FF23A37000271FE00723E370237448236B430193019A029B28009E1871646268A168FFF7ECFEA3
:402F40003300002240331A700223029A019928005354013B3371FFF72DFE02E00123E370E2E7380005B0F0BDD4090020312B01008780FFFF5D29010087800000F8B5050079
:402F800005F0B7F90C236B431F4F0600FA18D188380089B21D4C002920D0002D08D12200DB597E32197811705A7823007F331A700C226A4381588218CB7889781B020B436F
:402FC00004339BB213810123AB40A2791343A371DF230F4A11680B40136010E09288D8590BF01BFB002D05D123007E331D7023007F331D700122AA40A3799343A37130003E
:4030000005F07BF9F8BDC046240C00201804002000020440182310B5584305F061F910BD034A044913689BB20B4313607047C0460CED00E00400FA0510B50BF0B9FA036849
:403040000C2B00D1FEE7034B034A1B685A60FFF7E7FFFEE7B80000200C3003C0F7B501224F4C504D2368504E9343236000234F489A002900032B00D8B15801338150232B8B
:40308000F6D172B6FF224A4B12011A60FF220627484B07261A60484B484A1F60484B494D1A602022484B1A608022484B92021A600522474B1A60474B023A1A60464B21321E
:4030C0001A60464B123A1A6005F013F901902B68434AB3432B60434B43491B78DBB21360424A1368B3431360414B0A6818787F239A43034013430B60322005F0F1F8052247
:403100002B683220B34313432B6005F0E9F82B68B3433B432B60019805F0EFF8BE229E21344BD2011A60344B344AC9011A60344A1160BC21334A89011A60334A116090215E
:40314000324A09011A60324A1160324A32491A60C02292000A603149196031490A608021304A89001A60304A1160304A01391A602F4AFF3911602F4A00211A6040222E4BF4
:403180001A6001232D4A13602D4A11602D4A1168002900D11160226813432360F7BDC046000010403930010000E0000000000020000102400005024000010440210D000070
:4031C00008010440080F03400002044008020440080304400005044008050440300010400C0F03407DF3FF0F180F0340100F034064F3FF0F040301400000014041FF0080D5
:403200000003014040FF00801402014005FF00801002014004FF00800C02014003FF00800802014002FF00800402014001FF00800002014000FF0080280003400401014003
:403240000001014090000020482358430C4B30B51818002402001F250A4B0462203243841378AB431D3D2B43451DE97707211370537806308B4387390B43C477537030BD36
:403280003C0C002000FFFFFF70B5050002F0F6F8084C0022230028004A335A5501F014FA002D00D1E5645C235D435034553B2B5570BDC046D409002010B5114A5C234C1C82
:4032C00007D1584300235032101803764376837615E058431318503210181C1DE16701220400027654342478002C08D0A8331960030042764C331B78022B00D1827610BDD2
:40330000D4090020F0B50F0E090285B00600090A012F0AD15C235E432B4B01399E194B4259419B3631703D004AE00025022F47D15C234343244C01935034E41823004B334B
:403340001B78AB423CD006290AD111231E4A343494462370019B2900634488331D6029E006292DD801238B4002936B461B7A1900039302F0A7F8051E22D02200393213782E
:403380000299002599421BD011230F4934348C4669462370019B097B634488331D6011703C211A788A4338390A4301398A4317431F7019683000FFF77FFF300002F094F8C2
:4033C000280005B0F0BDC046D4090020F8B500250E490F4B01394A1C14D000221F685C689E68A018B24203D0B858A0500432F8E70200DE68141AA64201D020C2FAE71033FD
:403400000139E8E70BF0DAF8FBF7BAF80100000060EB01004823F7B54343194E0193F618330000241C27050044333A001C705C709C702100301D0BF0F0F8280006F084F880
:40344000104BB8301A00F060483228004933282154555C5504F0F2F838000B4B68435C550A4B3A002100C0180BF0D7F8084B09485C55019B4822181821000BF0CEF8F7BDA3
:403480003C0C0020D40900208107002084070020A0070020A4070020F8B554254543204B00265D192B002F003E331E7038373B780400B34233D0FFF7ADFF74236343194A54
:4034C0003D35D31868331B78174A1B01D318DB683E702E7020009847200006F035F872300378B3420DD0200006F02EF8A13002780221D2B2B24201D0320031002000FFF7AD
:403500008BF8200001F0E0F8084900230A004A321355074A2C321355A4000C19E364F8BDFC060020F00800201CE80100D4090020540A0020F8B50B00040011007F4D042B5F
:4035400000D099E0577A7B333E009E4300D189E0167A0B78B609F2B2002B10D1784B7F069C4654231800604360443A300078BF0FB84200DD3800634363443A331870012A7C
:4035800003D04823032A2AD04FE0742363436D4AD31840331B790A7ADB06D206D80E9A420AD12000FFF70AFA482300226343EB185E7044331A70AEE048236343EB181A00DC
:4035C00000211F26443211700231597020331A78B2431043187007205A7882433FE06343EA181000443001780131C9B20170092916D9002303701F200233537072336343E4
:4036000050492032CB1840331B7903401900137883430B430721137053788B4353707AE00622EA5400232C326BE06343EB181A0000214432117002221F205A7072326243D6
:40364000404920338A1840321279024011001A7882430A4307211A705A788A4304390A435A7058E0FFF7AAF9482301226343EB185A7044331E704EE048224243AE18300049
:403680001F21203007780F40062F10D1032B0BD1AF5C002F50D10931200003F0CFFF012373704436377036E0002B34D044E05F1E012F2BD84427BC46B444674661463F7865
:4036C0000137FFB20F70092F17D900220A701F2102327270723262431A4EB218403212790A40160002788A433243027007224178134091430B4343700DE00623AB54002300
:4037000064222821200004F057F915E0002B13D10633AB5410E048235C432B1920331B78DB06DB0E012B03D0022B03D1032302E0022300E007232B55F8BDC0463C0C002052
:40374000FC060020F008002010B5FDF735FB10BD9C235B0058430D4B30B5181802003332FF321378002B10D003250949094C0B6B3430AB430B63B02189006558064BFF306D
:403780002B40635000231370037030BD840C0020FC000A4000000A40FFFFFBFF9C235B005843074B1B181A003332FF3212780120002A04D13433FF331878431E98417047FF
:4037C000840C002070B505000C00FFF7C1FF9C2040006843024B18183230FF30047070BD840C002010B50A4B1A6801321A601B68012B05D9074B084A1B685A60FFF710FC6E
:40380000064B074AD021002004F0D6F810BDC046840A0020B80000200C3003C0E5370100EE020000F0B5040085B00E00002806D108206A490A688243D3B203430B6020005B
:4038400005F082FE050004F054FD242203901E21200003F0ABFE2B0087331B78002B00D1B6E02B00A1331B78002B00D0B0E02B0076331B78002B05D0AC235B00ED5AAD0504
:40388000AD0D03E0AB78564A9B009D58F0236343544AD318A8331B789B0754D55249534AA30020009950FDF717FC07004078642168430AF0C5FE4519B879642168430AF04D
:4038C000BFFE482801D9482002E00023092801D90A3843004248C018037B0193437B0293BD7804F006FD0322CA21414BC9001A55404B023A1B191D713F4BC0271A553F4B0A
:403900003F4A5D58FF052A40C0252A43019DAD082A43029D2D032A43019D6D073D402A435A50C52189005A58364D920A92022A435A50D222202592009D503C315A582A43B8
:403940005A5004F0DAFC2000FCF7AAFD542363432D4DEB183F331A78002A17D101271F70002C13D104F012FA0A20FFF753FB04F00DFA3900200000F0CFFD85221F49920083
:4039800088588B580343214803438B50002E1FD054236343EB181A00012142321170598E1B8E994204D9002320001370FDF75EF954236343EE50164DFA222B001E21200049
:4039C00003F0FAFF2B0001221F21200003F0F4FF039804F092FC05B0F0BDC046000104403CE8010000E10000CD0A01007C09002078090020840A0020920A002000000A40A5
:403A0000F80FFC1F45050000FC06002020002000490B0100F7B5B123B022C44C9B009200E558A358AB43A350AE239B00E550002D00D1A2E0AB0332D584239B00E158BC4A64
:403A400001270A400021E250E2588526BA430800E25000F061FDC022B600A35992031343A3513800FFF7D6FA3900002000F054FD2022A35938001343A351FFF7CBFAA35995
:403A80003800BB43A351FFF7C5FAA259A94B38001340A351FFF7BEFA002000F065FD6B0308D599220021A44B5200995434220131FF329954C023DB001D424ED0B0229200FF
:403AC000A1589E4B0B40A3509D4B1A780193002A03D101230627009303E00C23C0270093BF01AB26B600A359009A3B40D340022B11D18E4B00999B590020BB431A000123EE
:403B00008B401343894A1B2193518E4B1A788E4B03F052FF13E01B21002003F06DFD00280DD01B21002003F089FD804B00999B59BB431A0002238B4013437C4A9351B02330
:403B4000019A9B001278E158002A02D18022920001E08022D2000A43E250C026760135420BD07A4B9B68002B02D0002108009847B0229200A3583343A350FD229200A15859
:403B80006A4B00291CD0012528009958704A126890400200084213D0FC208000195891431950FA2189005A506A4B0020197800F0B3FC694B1B68002B02D0290000209847D0
:403BC0008A23DB00E358594D002B17D0634B644EEA58EA50043BEB589B050BD58022AB5952021343AB516420FFF714FA1022AB59934302E0AA595B4B1340AB51D5239B001F
:403C0000E258C023DB031A420AD0D222474992008B504E4B9B68002B02D0012100209847D5229200A1580222404B114214D0D4208000195891431950D22189005A50D02206
:403C4000D2009B583C4AFC32126A002A04D00121DB0B994300209047D52320269B00E358324D334250D0C527D220BF00EB5980005B079B0F022B28D1D42189006A58B24386
:403C80006A50394A2E501278501E012806D8374B1B68002B38D00020984735E0032A33D10620EA5982431343EB516B58002033436B50264B19211A792D4B03F07DFED023E2
:403CC0009B00EB585B041FD415E02E501921002003F092FC002812D01921002003F0AEFC0622EB599343023A1343EB51D0239B00EB585B0408D5D3239B00EE5004E0D4227F
:403D00009200AB58B343AB50D5229200A158553AFF3A064B114207D0D22189005A5008315858144A02405A50F7BDC04600000A40FFFFCFFFFFFFEFFF840C0020FFF9FFFF7D
:403D4000AC090020A40900209D440100840A0020A00900209C09002098090020440400001C060000FFFFFEFF780900207C09002039450100FFFDFFFFF0B5002585B0324C21
:403D80000192324B0A2207000E002800C121257303F012FE2E4A2F4B10682F490292C20726D42E482E4D7F0007601D6008270225FF370D6003901D683D4202D1257B002D50
:403DC000F9D00427019D7519227B002A0FD1AE420DD01F6032780398026008201A68FF30024202D1227B002AF7D00136ECE70125029A10681022800600D508320A601221E3
:403E0000FF311A680A4202D1227B002AF9D01A680423FF331A4205D1237B002B02D10124002D0AD1802100240E4A090613685B005B08136013680B431360C121002003F042
:403E4000FDFB200005B0F0BD840A0020B982010064000640000F0640680006404002064017030000000006400023F0B587B0040001910092059318009C4200D0AFE0D30161
:403E8000DBB20293574B1A787F230B4002990B43934200D1A3E0019B05AD981E009B524E002B00D084E003286DD900240221002002F0A4FA0220FFF7ADF84C4B27009C513F
:403EC00016E09923002440222700EA70474A02209159F022D2020A40802149000A431343424A9351FFF796F80221002002F06CFA04F0FFF9260003903E430DD101213000CA
:403F000002F07CFA0220FFF785F89223374A9B00D6502033D6501EE07B1EDBB20022032B03D8334A9B00D318DA68013CE4B20023032C02D82F4BA400E35892212B48890079
:403F400042509A22920083500520FFF763F80121002002F039FA039804F0CFF90222EB7829001343009A5020120113430422EB70FFF702FF7F23019A1A401300029A1343CD
:403F8000184A13702BE00AF051FB9C0F020B992300E066232022EA70009A002A1CD118E099230424032791E76023EB70393310E0032800D979E70AF039FB0208EC046623D4
