:400000000020002011000000FD080000FD0800001C4A1D4B70B51A601C4B1D4D1A681023134000D12B602B68802B29D1194B1C79E4B2012C14D90021052000F0CBF80121C7
:400040000400052000F0C6F8E4B2C0B2002C03D0041E05D0032403E0441EA0410224241A0023210002202B6000F0B4F8002807D0012C05D82100022000F0ACF800F0FEF8A7
:4000800001F0D0F86588EDAC3800034054000340900000209C0000200000000000000000000000000000000000000000000000000000000000000000000000000000000083
:4000C000000000000000000000000000000000000000000000000000000000000000000088030031626E0100B111012100000000000000000000000000000000000000008F
:4001000010B5064C2378002B07D1054B002B02D0044800E000BF0123237010BD10010020000000002C130000084B10B5002B03D00749084800E000BF07480368002B00D1D3
:4001400010BD064B002BFBD09847F9E700000000140100202C130000980000200000000018234343F0B5134CE3189D689A8A002D01D10D701CE0104B8600F658C2239B0070
:40018000F7581F231F403B1C082F00D908239BB20B70D021D3189BB28900934204D97758AF54013292B2F8E7182358432418A282F0BDC0462C01002030130000034A044956
:4001C00013689BB20B4313607047C0460CED00E00400FA05013810B50B2830D80902494201F08CF806080A0C0E10141216191B20164B13E0164B16E0164B0AE0164B12E07E
:40020000164B0BE0164B09E0164B02E0164B00E0164BC91815E0164B05E0164BC9180878C0B212E0144BC9180A7848788C780002230418430300C8781343000604E001BEB5
:4002400000210B7848780002184310BDC0FF0100C1FF0100C5FF0100C9FF0100D0FF0100D1FF0100D6FF0100D2FF0100D4FF0100D8FF0100DCFF0100E0FF010000470000E9
:400280000122024B60331A707047C0462C010020F7B5C37D827D1B0213430122324D01009446AB425DD182784478CB78120222431B0413431A000B791B06134351D08A7A90
:4002C0004C7ACB7A120222431B0413431A000B7B1B06134345D08A794879120202431202501CFF30214EC418B4423AD80F78040000210133FF339B180193019B834205D02B
:40030000037801309C466144C9B2F6E701234942C9B29C468F4224D1631CFF33B34220D8023B5B88AB421CD1FF34217AE37909021943607A00230A290ED080250C4CAD007F
:40034000141952195118A14204D0227801349B18DBB2F8E75B42DBB2C31A581E8341DBB29C466046FEBDC04659430000FFFF01000A020000F7B5194C194D2B590194DB03AB
:400380002AD50026FF271748330102006432D218117AC9B2FF2914D0C318986E01389866986E00280DD117720F4A5432944664461278013AD2B222701A6F002A01D01B6FD2
:4003C000984701360F2EDED1074B54331B78DBB2002B01D1019AAB50F7BDC04610D00000001000E02C0100202C020020134B8200D35830B51A68F821520052081A6018225F
:4004000050430F4A102510180222027100200D4A0D4C98500122090152425A501959A9431951F42109015A5080315A508021D8661A6809060A431A6030BDC0463013000060
:400440002C010020880F0000480F0000654B8200F0B5D458002385B002AAD371624B0600E25801231A4206D0604962589A436250E8221201A3505E4B0125E35800930223EF
:40048000009AFF331A4202D000231D000093009BDB063FD518277743564BDF193A790193042A0BD002ABD91D3000FFF759FE0521BA8A3B690120397198470500182373432F
:4004C000019A8020D31802221A7100229A8281239B00E25840020243E250E158464A1140E1500133FF33E1580143E150E1580A40E25001224149635893436350F823102166
:400500001B01E2503E4AA3588B43A350F42330221B01E250009B5B0639D5E82201271201A3583B43A35018237343324AD3181A79022A29D1626ED2060DD50421002219714B
:4005400010001B69984700281ED0F8231B01E7502A4BE75003E005221A71002D14D0F423302210211B01E250254A0125A3580B43A350244B1A005532925D002A01D1E56633
:4005800005E059339D5502E002230025E366F423009A1B01E250002D03D13000FFF726FF1EE0194BE758FB0709D518237343114A0421D31800221B69100098470500F82386
:4005C0001B01E750114BE758FB0704D502ABD91D3000FFF7C5FDFC231B01E750002DDCD005B0F0BD301300008C0E0000880E00004C0F00002C010020FFFFFEFF880F00004D
:40060000480F00002C0200208C0F0000CC0F000010B50020FFF71AFF10BD0000F7B500F031FE1F4B019019001F005E31FF31CA7D5E37002A2FD04C7C002C2CD1F62084464B
:400640005D33FF33DE8ABA195278BE5D0092154A9444604606706846150001260078F732107078354E74AA790F493243AA71DF220D682A400A601021DA8AFF31223292B287
:400680008A4201D8DA8200E0DC82054B5E33FF33DA7D013ADA75019800F0F8FDF7BDC0462C0200202C03002000020440012110B5104C084213D000220F4B5E33FF335A746F
:4006C000DB7D934209D10D4A926F137053702200783293798B43937101E0FFF79FFF7834A379002B04D0DF23054A11680B40136010BDC0462C0300202C020020AC040020A7
:4007000000020440F0B500254B4BCBB0029501900395984200D98AE0802248495200F8310AA800F0F5FDFF22454B464C0893464E464B08AF7A6027603360C04623681B0F10
:400740000F2B03D1236813401D0004E023681B0F0A2B00D025680295029D002D69D100F091FD3B4A3B4B04A97C320493059221603949344B3160C0462168090F0F2902D1D1
:400780001D68EDB204E01968090F0A2900D01D680395039B002B12D1304D2A492560304D3560C04625682D0F0F2D02D10B68DBB204E00D682D0F0A2D00D00B680293029B26
:4007C000002B18D1274908910199089D09042943254D089127601B493560C04625682D0F0F2D02D10B68DBB204E00D682D0F0A2D00D00B680293039B002B15D11B4D06A951
:400800000695079221601A490E4A3160C0462168090F0F2902D11368DBB204E01168090F0A2900D01368039300F030FD01E00423029302984BB0F0BDFF0100002C03002029
:40084000B6D70000080010400400104004000080AC040020B6E9000016000080B6E8000015000080B6D8000005000080B6EA000017000080F8B5050000F004FD1E4B040029
:400880001A0019001F005E32FF32D07D5D31FF315E378A8A082815D1002A02D11132FF328A8219005D33FF339A8A0025223A93B281225E31CA54CB1820005D7000F0E6FC27
:4008C000280017E00026BD54551CADB27E551025223292B2FF35AA4201D88A8200E08E825E330130FF33D875FFF798FE200000F0CDFC0120F8BDC0462C02002010B500F0B8
:40090000C9FC03680C2B00D1FEE7FEE770B5012852D10F233F4D6C7D290026092340022A18D8012A0ED00024A64270D1022B07D1394B2A7DF8339B18384A0400936166E0A2
:40094000002B64D1344B0A7D78339B18334A012493615CE0002B13D00400002E4CD1022B4AD12D482C7D023AF830FE3392B200191B1B9A4200D91A00163100F0C9FC3AE011
:40098000274B55331870002C0FD12B7D062B0CD1214BA97D78339B790B4206D0214820340168A143CBB22343036001241B4B023A92B21C77DA831FE0002404291CD1822352
:4009C0000826194D9B00EA58EA3B1449FF3B13408C69F31ADBB220001A1CB34200D9321CD2B2A31890229200834203D004780130AC50F9E78B610124084B197FC9B2002932
:400A000005D1812203485200143000F06FFC200070BDC0462C0500202C0300202C0600202C0200200002044000000540F7B50122374C384D2368384E934323600023374800
:400A40009A002900032B00D8B15801338150232BF6D172B6FF22324B01271A600022314B07261A60304B20321F60304B304D1A608022304B92021A6003222F4B1A602F4B61
:400A800021321A602E4B123A1A6000F0FBFB2B680190B3432B602B4B2B4A1B782B49DBB213602B4A1368B34313602A4B0A6818787F239A43034013430B60322000F0D8FB45
:400AC00005222B683220B34313432B6000F0D0FB06222B680198B34313432B6000F0D6FB80221D4B52001A601C4A1D4B1A6040221C4B1A6000221C4B1A601C4A3B001168EE
:400B0000002900D11160226813432360F7BDC04600001040FD080000000000000000002000050240000102400801044000020440080F034008020440000504400805044059
:400B4000300010407DF3FF0F0C0F0340180F0340100F034064F3FF0F0002014000FF008000000140280003400001014090000020F0B5DA4C81222600D948DA4B87B0F6364B
:400B80005200002114309E61250000F0AFFB8C22D5487835520000215E3000F0A7FB80220021280000F0A2FB912308222B70CF49B4336A70FF33CB5821216B802300B4335F
:400BC00019601323AB802300012521002000A4331D70C74B88310B60C6498C300160200090300360230094331960C34BC34C9E67C34BC44E1A702368013A9343053A134328
:400C000023603368C04FAB43DBB22B433360782000F02EFB3B682B4201D1402310E00722236878209343043A134323603368AB43DBB2336000F01CFB3B682B4202D04223F5
:400C4000AF4A137007222368802193432360AC4BAE4C1E780023AE4A2360C12022668122800092004902E366A1502150A949F42563508C460121FE2749422D016151A64DDC
:400C80003F046351083D6151A44D6351083D615175003D43C427BF002168E5510825113FFF35FF3FE5510137FF37E5519C4D01272943216002219B4DE970297188496E70D8
:400CC0001431A96081214900A98197492F702961FE21A970FA39AB82A1502150265893490E402650A0580140A15042226146FF3262508A4A8E49A7508E4A116080218E4AF4
:400D0000C90011608D498E4A886802408020400402438A6062B6734E8A48F719FB77FFF7B7FA00960294764E002801D00423FB778548FFF7ADFA002805D00821009B5A1C8F
:400D4000D37F0B43D377814B81481A68190092B2824208D1002201211A60009B5A1CD37F0B43D37795E01A681868009B92B20133DC7F80B2230712D4764B984213D00423F3
:400D80007548234000D02DE2824219D06E4A6D48D469C769BC4200D328E202000CE00423234002D075E001230AE06B4CA24207D0684A904204D0634A928A6848824201D14C
:400DC000002204E06648824202D0FA2292007280337173889BB20193002B04D180330B60FFF7ECF955E02A0000232800FF216032137064301A018218013311720F2BF9D1AD
:400E00000024394B574E54331C70574F574A584BF451F250574B584A1A6000F033FA03972F00FF23B44664372201BE18367AE1B2FF2E00D10B00BA18127A002A07D12A4A6D
:400E400054321378013BDBB213700B0004E001340F2CE9D1FF2B1AD069462A00898864321B019952ED18D3180022444929671A72019BAB661C4B1A0054321278D2B2002ABA
:400E800000D190E154331A780132D2B21A7000F0FDF98020FFF7EEFC0822002104A800F025FA0E4990200A00009B78320133DB7F107053705A0703D5802204AC920007E0FF
:400EC000204A52681202120C01321402E03492B21B0755D5802304A89B0059E02C0300202C0500202C0600202C02002000F0FF0F88030031626E0100AC04002008010440A4
:400F00009C00002000010440040104400000054088280040480F0000880F0000C80F0000000100802C0100200D090000FFFFFEFF110600006800002000E100E000050440E5
:400F4000FFFFFFF8C0FF0100C0FE0100900000204C420000324200003142000059430000FFFF0000001000E010D00000BF5D000014D000003C000020750300008102000017
:400F80009B4B5B681B021B0C01331802E0309BB20F000E00E0257837019788369C4688CD88C60D00903548CC48C5983118C818C1019B904F1A8562465A851423009A53842F
:400FC00013228D4B7A81FB803B810193009B1B7F002B00D1BBE0894C637D1B0900D0A0E0009B207DDA8B0638D2B2062800D9EAE000F084F904E908E92B353D00A07DFFF7FE
:4010000055FB8EE0012A00D8DDE0A27D0523522A00D083E0E47D002C10D0012C00D07DE0202077490A688243D3B203430B6072B60022744B1A60FFF7C1F872E00720FFF767
:4010400035FB2000FFF7D2F907E0A27D0523502A64D1009B4F3A0533DA7702235EE0A37D012B00D1A7E0022B57D16148A4E00523032A53D9A27D462A50D1E27D012A30D190
:40108000009B0533DA7F0723002A47D0657E227E2D021543009A528CAA423FD8FA88AA4202D23A89AA4239D1019B9D4201D1504E04E0FF235B009D420CD1534E3000FFF74A
:4010C000E7F80023984200D1F369EA224F49013352008B502800FFF715FB0223002800D00533E27D002A19D1009B0533DA7F0723002A13D0617E227E090211437A898A42DC
:401100000CD2019A914209D88022404809025200F83000F0FDF8032300E009231800FFF7A9FB8122354852000021143000F0DEF80022009B1A77364B1900593355310A70F9
:401140001978914203D01A70029B0132DA66009B304C0533DB7F002B1AD000F093F82100002364311A018A181500127A0835002A2BD001330F2BF5D1254B54331B78DBB281
:40118000002B2BD000F082F82300002260331A7060342378002B00D118E78022194B1A60FFF70CF812E764461B49625007226146039C0A5166E61448FFF76AF802230028C9
:4011C000ACD00633AAE70523A8E7FF23104A2B7054321378013BDBB21370CDE70F4A10498B50CFE7824200D1DDE5014A0123E3E5C0FE01009C000020FF0100002C0500202D
:401200000002044090000020C0FF01002C0300202C0200202C01002018D0000010D00000001000E0F8B500250E490F4B01394A1C14D000221F685C689E68A018B24203D05D
:40124000B858A0500432F8E70200DE68141AA64201D020C2FAE710330139E8E700F020F8FFF786FC0100000068130000000000000230800804D0C0460138FDD1C046C04678
:40128000C0467047EFF3108072B6704780F310887047C046014B18687047C046080100200E4B70B500251E000D4CE41AA410A54204D0AB00F35898470135F8E700F042F80B
:4012C000084B00251E00084CE41AA410A54204D0AB00F35898470135F8E770BD5013000050130000501300005813000003008218934202D019700133FAE7704702B47146E6
:4013000049084900095C49008E4402BC7047C046002310B59A4203D0CC5CC4540133F9E710BD0000F200000000140000000000000000054000000640000007400000084040
:4013400043000000F8B5C046F8BC08BC9E467047290100002D0A0000F8B5C046F8BC08BC9E46704701010000781300009800002078000000480500000000000008003200F9
:401380000200FF010002FF010000000000000000000000000000000000000000000000000000000000000000401300000000000000000000000000000000000000000000D6
:4013C00000000000000000000000000000000000000000000000000000000000000000000000000000000000A8000020000000000000000000000000000000000000000025
:4014000000000000000000000000000000000000000000000000000000000000000000000000000000000000000000000000000000000000000000000000000000000000AC
:40144000000000000000000000000000000000000000000000000000000000000000000000000000000000000000000000000000000000000000000000000000000000006C
:40148000000000000000000000000000000000000000000000000000000000000000000000000000000000000000000000000000000000000000000000000000000000002C
:4014C00000000000000000000000000000000000000000000000000000000000000000000000000000000000000000000000000000000000000000000000000000000000EC
:020000040001F9
:40FFC00000000000000000000000000000000000000000000200000000000000000000000000000000000000000000000000000000000000000000000000000000000000FF
:0200000490303A
:020000003E912F
:0200000490402A
:4000000000000000000000000000000000000000000000000000000000000000000000000000000000000000000000000000000000000000000000000000000000000000C0
:0200000490501A
:0C0000000002210111B100002107504254
:0200000490600A
:0100000001FE
:00000001FF