:4000000000200020110000000B0200000B02000038B51C4A1C4B1D4D1A601D4B1A681023134000D12B602B68802B29D1194B9C78E4B2012C14D90021052000F091F80121AA
:40004000041C052000F08CF8E4B2C0B2002C03D0041E05D0032403E0441EA0410224241A00230220211C2B6000F07AF8002807D0012C05D8211C022000F072F800F0C4F83B
:4000800000F0A2FC6588EDAC380003409800002054000340AC0000200000000000000000000000000000000000000000000000000000000000000000000000000000000096
:4000C0000000000000000000000000000000000000000000000000000000000000000000CD010310626E0200AD11041D04000000000000000000000000000000000000006A
:4001000010B5064C2378002B07D1054B002B02D0044800E000BF0123237010BDC8000020000000004017000008B5084B002B03D00748084900E000BF07480368002B00D10C
:4001400008BD064B002BFBD09847F9E70000000040170000CC000020A800002000000000013800B50B282FD8C901494201F0A2FA06080A0C0E10141216191B20164B13E079
:40018000164B16E0164B0AE0164B12E0164B0BE0164B09E0164B02E0164B00E0164BC91814E0164B05E0164BC9180878C0B211E0144BC9180A7848788B7800021B0418438E
:4001C000CB7810431B0604E001BE00210B7848780002184300BDC046C0FF0100C1FF0100C5FF0100C9FF0100D0FF0100D1FF0100D6FF0100D2FF0100D4FF0100D8FF01001D
:40020000DCFF0100E0FF01000047FEE70122014B1A707047E400002070B5827943791202817A1A43457AC37A090229431B040B43191C037B84781B060B434678C1782402BF
:400240003443090421430C1C017909062143062400293FD0002B3DD0D201111C1E4D8031CE18AE4236D80C1C0021803300789B189C4204D0267801348919C9B2F8E74942B4
:40028000C9B20624884225D1101C8130FF30C6798379A8421ED841780578090229430F4DA94217D134021C43017A00230A2C0BD08B32FF320019824204D0147801321B1900
:4002C000DBB2F8E75B42DBB2CB1A5A1E934106245B421C4060B270BDFFFF01005943000008B500F0FEFC002311491A018A18111C127B0C31002A0ED1FF230B700D4B1A79D1
:40030000013AD2B21A715A79013AD2B25A715A79002A04D009E00133202BE5D105E09B79002B02D18022044B1A6000F0DEFC08BDE4000020E402002080E100E0024B18681E
:400340008007C00F7047C046040204400223044940000A689A43D2B2034013430B607047000204403821034AC00013688B43184310607047080204400423044980000A68B5
:400380009A43D2B2034013430B6070470003044008B53023584300F09BFC08BD70B5074D074A2B6C11899BB2041C161C8B4202D06420FFF7EDFF2C64348170BD000003408F
:4003C000E40200200123F7B53B4E3C4C7364A3710096009BDD6B6289ABB292B22D042D0C9A4202D3802149026D180027AD1AADB2638133483A018318197B0190C9B2FF2950
:4004000020D0043358688446681D844502D95868401B00E000205860019B9B189868002810D1FF261A1C1E7323790C32013BDBB223716379013BDBB263715368002B01D064
:40044000536898470137202FD3D16379DBB2002B1ED000221B4801991301CB18197BFF2904D099680433814200D258680132202AF1D1009A6389D26B9BB291B21204120C3C
:400480008B4202D3802149025218D31A9BB200E00C48053398429CD380B2A0816389C01880B2FFF77BFF0023A3716379002B02D18022054B1A60F7BD00000340E402002022
:4004C000E4000020C0FF000080E100E0034A044913689BB20B4313607047C0460CED00E00400FA051F2318401E3B8340181C014B1860704700E100E0152800D901BE034BF3
:400500008000C318186819607047C046400000200023F7B59A003D49032B01D83C4989583C4801338150262BF4D172B6FF223A4B12041A600022394B394D1A60394B08328D
:400540001A60394B2C321A60384A394B1A601222384B1A6000F0C5FB02222B68019013404ED11F1C0722344C236893432360012F01D1324B00E0324B07267F201B78314A0C
:40058000DBB21360304A31491368B3431360304A0B6812788343024013430B604D3800F097FB052223683220B3431343236000F08FFB06222368B34313432360012F03D149
:4005C0002B68043A13432B60019800F08EFB8022204B52001A60204A204B1A600023204A1360204A1360204A1360204B1A68002A00D11A6001211E4A13680B431360F7BD79
:400600002B68012793432B60ACE7C0460B0200000000000000000020000302400002024024000C400802044000030440804102000803044030001040080F0340BFF1FF0FA0
:40064000FDF1FF0F0C0F0340100F0340180F0340E4F1FF0F0002014000FF0080000001402800034008010140A00000209800002000001040F0B5022087B000F04DFD62B6A1
:4006800000F042FD0023B74CB748A373FFF7C4FD002801D00423A373B448FFF7BDFD002803D00822A37B1343A373B14EB14A33689BB2934206D1002301223360A37B1343AD
:4006C000A37303E13168AC4B89B2C9184A424A413368D1B2A94A9BB29B1858425841A37BC0B21A0717D400281AD10422134017D100291BD1FF2252021278002A06D19B4AEF
:400700009949D069CD69A84213D202E0012A00D025E1954A0EE00422134000D11DE1D5E00123924A002901D1002803D00021944A0CE00123918A9348914A814201D1002160
:4007400004E09148814202D0FA21890011808C4A937013889BB20193002B04D180333360FFF7B4FEB2E00023884A1370FF201901511801330873202BF8D1002280218020DD
:40078000834B2271834D62711960834B7F39AB63EB6C00060B43EB64EB6A0343EB6269647E4B7F497F4819607F4B80495A501A507F4A80489850EA6B029592B20298C06B93
:4007C00080B28242FAD0734AD26B90B205225A5080275A587F023A42FAD0029AD26B92B2904200D93A43121A228200225A5000F078FA1F22FF2303906448110145182D7B10
:40080000D7B2FF2D00D13B1C4018017B002909D12279FBB2013AD2B222716279013AD2B2627103E0013AE7D2FF2B4CD06846574A80881B01D118888000205F4D0F1D0D6116
:400840000873218A019841437960A179002932D10299C96B60798DB200281DD06089090480B2090CA84202D380256D024919D218091A906889B2091891609168A3890432FB
:40088000994218D253689BB2A3816389A089C01880B2FFF783FD0EE065817868474B984200D9181C80B2A081401980B2FFF776FD8022434B1A6023790133DBB223716379C7
:4008C0000133DBB26371039800F00FFA0023A57B8020291C0493059300F004FB6B0703D5802704A9FF0007E01F4B5F683F023F0C0137F901E031BFB22B0703D5802504AA37
:40090000ED0007E0194B5D682D022D0C0135EA01E032ADB2E02000F0EBFA381C291C00F003FB3023274A6382154B9A80DA802F221A8100F033FB237D144DDB0703D5FFF72C
:40094000CFFC00232B702B78002BF2D0FFF7C8FC80233360FFF7BAFDEBE7034AE2E60123024AE7E6E4020020C0FF010040FF0100980000204C420000CFBDFFFFCEBDFFFF3E
:40098000AC00002059430000FFFF0000E400002080E100E0000003406588EDAC5C000020C503000018D00000001000E010D0000014D000007FBB00000D020000C0FF0000DB
:4009C00000E100E0FF03000070B50F490F4B01394A1C15D000221E685C689D68A018AA4203D0B058A0500432F8E7021CDC68151AA54202D0002520C2F9E710330139E7E767
:400A000000F062FEFFF736FE010000008C170000034B1B7D1840431E9841C0B27047C046E4020020014B9B6C03607047FCF0FF0F8021044B8000C258490493680B43936071
:400A40007047C0464417000008B50C4A031C107D0E22002810D0073A00290DD0084A10890722984208D20748834205D8081C7932D90100F04FFE002250B208BDE402002092
:400A8000AC000020FF030000F0B56C4BABB01A7D01930E23002A00D1CCE0073B002900D1C8E0019B5A8A0723824200D9C2E0644A9488844203D2D288824200D0BAE0614A49
:400AC00007238218032A00D8B4E05F4E0C1C051EB54201D15D4F03E05D4B984209D15D4F381CFFF799FB0023984200D1FB690133E365002302930393B54200D992E00AA873
:400B0000211C802200F006FE534B9D4201D8534B00E0534B08937F2308AF7B60514C524E524B27603360C04623681B0F0F2B02D12368DBB205E022680023120F0A2A00D016
:400B400023680293029B0093002B6DD100F0C9F80199474A04AB18310492019105912360444B404A3360C04623681B0F0F2B02D11368DBB207E013681B0F9C466146009B7B
:400B80000A2900D013680393039B002B12D13A49344A216039493160C0462168090F0F2902D11368DBB204E01168090F0A2900D013680293029B002B17D1314A2D040892A8
:400BC000089A154308952F4D2760264A3560C04625682D0F0F2D02D11368DBB204E015682D0F0A2D00D013680293039B002B16D1254A26490692019A06AD07922560194AC7
:400C00003160C0462168090F0F2902D11368DBB204E01168090F0A2900D01368039300F064F801E004230293029A0523511E8A415242134058B22BB0F0BDC046E402002074
:400C4000AC00002006FCFFFFFF03000040FF0100FE030000C0FF0100FF010000B6D70000B6D70001080010400400104004000080B6E9000016000080B6E8000015000080F2
:400C8000B6D8000005000080B6EA000017000080044A002803D001238B40137500E010757047C046E402002008B5012804D00723022807D1044800E00448FFF7ADFA031EE6
:400CC00000D0062358B208BD40FF0100C0FF01000230800803D00138FDD1C046C046C0467047EFF3108072B6704780F310887047F8B50C24194F4443051CFFF7F2FF3C1993
:400D0000A279061C3B1C002A23D02278D2B2002A1FD1A188A06841180878391C8A310870391C8B310A70A188013189B2A180A188072900D9A28001222270997CAA40151CBD
:400D40000D4300209D74FFF717FBA379013BDBB2A371301CFFF7C9FFF8BDC0461803002070B50126104C304216D00025FFF7B9FF2570A379DBB2AB4209D10C4AD268137006
:400D80005370A37CB343A374FFF7AFFF04E0FFF7ACFF281CFFF7ACFFA37C002B02D00020FFF7EAFA70BDC0461803002098040020F7B5151C474A071C537C161C464C0128A9
:400DC0005BD10F2118090B40022D25D800216161A161012D13D00D1C884279D1022B0CD13E4B117C1A88914272D23D4B80310C335918C03261619B180BE0002B68D1327CA6
:400E000053B2002B63DB364B191C0C318A186261CC33A36101255BE0002B15D0127C002849D1022B47D12D4B2D48023D1B888018ADB28C309B1A9D4200DD1D1C311CAAB28E
:400E4000123100F067FC36E0244B391C987800F009FA737C002B0AD1337C062B07D1204BB27C9B7C1A4202D0381CFFF785FA023D0123ADB22377E5831DE00025A8421BD1EF
:400E80006169A94218D0A269051C914214D2521A402A01D9402202E093B2002B0CD00F4B6D4607359878D2B22B1C00F0DFFB62692B78D31863610125217FC9B2002907D123
:400EC000301C81225200103000F02DFC00E00025281CFEBD9804002098050020B800002018030020014B18735973704718030020F8B50C4D031C0824281C0F1C161C191C0C
:400F0000221C1C3000F006FC281C391C221C243000F000FC281C311C221C2C3000F0FAFBF8BDC04618030020014B9886D98670471803002070B50C244443174B051C1C19C9
:400F40000E1CFFF7CEFEA279A368082A0DD161880722002902D06288013A92B29B1881221A70FFF7C2FE002015E062889B181E70638801339BB263806388072B01D900239A
:400F80006380A3790133DBB2A371FFF7AEFE281CFFF7AEFE012070BD18030020F8B5554D2B7F002B00D1A4E0534C544E637C1B0900D094E0207CEB8B0638DBB2062800D967
:400FC00093E000F077FB0492089234515F00A07CFFF7C6FE83E0012B00D886E0A37C522B00D082E0E17C002912D001297DD1081CFFF7C2F9B078002100F034F90520FFF761
:40100000C7F972B63E4B00221A60FFF75FFA66E03C4C0C22201C00F086FB2B1C2033A3600720FFF79DFEB07800F032F91AE02B1C28331F780A21002F4CD1A37C502B08D1F6
:40104000FE20FFF7E5FC0F21031E43D10120191C06E00120FFF7DCFC002846D0381C391CFFF716FE022135E02B1C28331B780A21002B2FD1A07CFFF717FE811CC9B20029CF
:401080002DD027E02A1C283212780A21002A21D1032B2AD9A37C462B27D1E37C012B09D1607D237D174900028C311843FFF7ECFC022101E002200521E37C002B08D1607D3C
:4010C000237D104900028C311843FFF7BDFC032100280CD10020021C031CFFF72BFF0021B078297700F0BEF803E00521F2E70721F0E7F8BD9805002098040020B800002012
:40110000980000201803002008B500208021021C031CFFF70FFF08BDF0B5304E304D314C314F324BB0708122281C87B00021520010307B6100F0F7FA00210C22201C00F0F5
:40114000F2FA3B1C2033A36005A8FFF76BFC28480021802200F0E7FA059B2937E38173892382224B3C78EB60002C01D0347321E0082302203373FFF7F5F80120FFF7E6F8E7
:401180000520FFF705F9FFF7D9F8402300280DD00320FFF7E7F8201CFFF7D8F80520FFF7F7F8FFF7CBF8002801D0422333730020FFF7D8F8FE22B078337B00920D4A10351C
:4011C000019281225200039201210222029500F0A5F90320FFF72CFC07B0F0BDB8000020980400201803002098050020A203002024030020B10D0000021C1820F0B55043DE
:40120000164D28188468838A002C02D10C70201C23E0134896003658C22080003758FFB2381C402F00D9402080B20870C118182050432818878989B200208F420DD38B42C4
:4012400006D2D02080003058E05401339BB2F6E718214A43AD18AB820120F0BDC405002058170000084B1A1C60321154002909D164331A5C002A05D01954044B8000C35848
:401280000122DA667047C046C40500205817000030B5144B8200D35813491A681025520052081A6018225043104A10180222027100225A5082820121F820494200011950A7
:4012C0000B481C58AC431C50F42000011950FC2000011950DA661968802212060A431A6030BDC04658170000880F0000C4050020480F0000F0B5754B85B082006946D45856
:401300000F3100230B70724B061CE25801231A4206D0704AA0589843A050E8221201A3506D4B0125E3580193019A0223FF331A4202D0002301931D1C019AD20644D518274B
:401340007743664AD7193B79042B0CD0301CFFF753FF051E0CD00521BA8A3B69012039719847051C04E03F690220191C0022B8471823734359490222CB181A7100229A8281
:4013800081239B00E258802149020A43E250E058534A1040E050C1239B00E0580143E150E1580A40E2504F4A0123A1589943A150F8221201A3504C4B1021E2588A43E2506F
:4013C000F42330221B01E250019A520639D5E8231B01E25801273A43E250182373433F4AD3181979022929D1626ED1060DD5042100201971021C1B69984700281ED0F823D7
:401400001B01E750374BE75003E005221A71002D14D0F42330221B01E250334B1021E25801250A43E2502D4B60339B5D002B01D1E56606E0294B64339D5502E00223E36637
:401440000025F423019A1B01E250002D03D1301CFFF71EFF38E0254B0127E35801933B421FD0182373431D4A0020D3181B690421021C9847002814D11A4B051CE258BA4329
:40148000E250F8231B01E75081239B00E158802252020A43E250E158114A0A40E2500223E366F82301991B01E150114BE758FA0705D56946301C0F31FFF79EFE051CFC239C
:4014C0001B01E750002DC2D005B0F0BD581700008C0E0000880E00004C0F0000C4050020FFFFFEFF880F0000480F00008C0F0000CC0F000008B50320FFF7FCFE08BD08B5E4
:401500000220FFF7F7FE08BD08B50120FFF7F2FE08BD08B50020FFF7EDFE08BDF0B585B001920AAA1278041C02920DAA128880000392424A825800201060814201D1404DF0
:4015400000E0404D1566812680256D02B600D0669551C126B60095513B4EF4279051012676423F01D651394FD051F8273F01D651374FD051FC20000116501068BC460029AC
:401580000DD0029F3E045F003E43C427BF00D651029EFE2E00D0284380256D00284308258026FF35B6009551C026B600955180252D062843106018206043264D019F4155DA
:4015C0002818022101710C99C77081600299039E0B9F0025437081708123C1219B0089008582868107610420D050505055581A48154E05405550D15867460840D0504223A7
:40160000FF3393510123D351032C11D8201C00F051F80205080B0820104907E00920104904E00A200F4901E00F490B20FEF764FF0834E0B2FEF756FF05B0F0BD58170000B0
:401640008828000088280040480F0000880F0000C80F0000C4050020FFFFFEFF1315000009150000FF140000F514000070B5104C800004598220800020584025281AC0B2AE
:401680008125AD00904203D901206051101C01E0042262510A1C551AEDB2854205D216789025AD0066510132F5E7187070BDC0465817000002B4714649084900095C49000A
:4016C0008E4402BC7047C0460E4B70B500251E1C0D4CE41AA410A54204D0AB00F35898470135F8E700F040F8084B00251E1C084CE41AA410A54204D0AB00F358984701356A
:40170000F8E770BD7417000074170000741700007C170000002310B5934203D0CC5CC4540133F9E710BD031C8218934202D019700133FAE770470000001800005B00000090
:4017400000000000000004400001044000020440000304400004044000000540000006400000074000000840F8B5C046F8BC08BC9E4670472901000011050000F8B5C04638
:40178000F8BC08BC9E46704701010000A0170000A80000202000000068050000000000000000000032000200FF030004FF030000800002000000020000042F00080000000D
:4017C00000000000000000000000000000000000000000000000000000000000000000000000000000000000000000000000000000000000000000000000000000000000E9
:4018000000000000000000000000000000000000000000000000000000000000000000000000000000000000000000000000000000000000000000000000000000000000A8
:401840000000000000000000000000000000000000000000000000000000000000000000000000000000000000000000000000000000000000000000000000000000000068
:401880000000000000000000000000000000000000000000000000000000000000000000000000000000000000000000000000000000000000000000000000000000000028
:020000040001F9
:40FFC00000000000000000000000000000000000000000000200000000000000000000000000000000000000000000000000000000000000000000000000000000000000FF
:0200000490303A
:02000000F907FE
:0200000490402A
:4000000000000000000000000000000000000000000000000000000000000000000000000000000000000000000000000000000000000000000000000000000000000000C0
:400040000000000000000000000000000000000000000000000000000000000000000000000000000000000000000000000000000000000000000000000000000000000080
:0200000490501A
:0C00000000021D0411AD00001D0C0AB42C
:0200000490600A
:0100000001FE
:00000001FF