:4000000000200020110000000B0200000B02000038B51C4A1C4B1D4D1A601D4B1A681023134000D12B602B68802B29D1194B9C78E4B2012C14D90021052000F091F80121AA
:40004000041C052000F08CF8E4B2C0B2002C03D0041E05D0032403E0441EA0410224241A00230220211C2B6000F07AF8002807D0012C05D8211C022000F072F800F0C4F83B
:4000800000F0A2FC6588EDAC380003409800002054000340AC0000200000000000000000000000000000000000000000000000000000000000000000000000000000000096
:4000C0000000000000000000000000000000000000000000000000000000000000000000CD010310626E0200AD11041D04000000000000000000000000000000000000006A
:4001000010B5064C2378002B07D1054B002B02D0044800E000BF0123237010BDC8000020000000004017000008B5084B002B03D00748084900E000BF07480368002B00D10C
:4001400008BD064B002BFBD09847F9E70000000040170000CC000020A800002000000000013800B50B282FD8C901494201F0A2FA06080A0C0E10141216191B20164B13E079
:40018000164B16E0164B0AE0164B12E0164B0BE0164B09E0164B02E0164B00E0164BC91814E0164B05E0164BC9180878C0B211E0144BC9180A7848788B7800021B0418438E
:4001C000CB7810431B0604E001BE00210B7848780002184300BDC046C0FF0100C1FF0100C5FF0100C9FF0100D0FF0100D1FF0100D6FF0100D2FF0100D4FF0100D8FF01001D
:40020000DCFF0100E0FF01000047FEE70122014B1A707047E400002070B5827943791202817A1A43457AC37A090229431B040B43191C037B84781B060B434678C1782402BF
:400240003443090421430C1C017909062143062400293FD0002B3DD0D201111C1E4D8031CE18AE4236D80C1C0021803300789B189C4204D0267801348919C9B2F8E74942B4
:40028000C9B20624884225D1101C8130FF30C6798379A8421ED841780578090229430F4DA94217D134021C43017A00230A2C0BD08B32FF320019824204D0147801321B1900
:4002C000DBB2F8E75B42DBB2CB1A5A1E934106245B421C4060B270BDFFFF01005943000008B500F0FEFC002311491A018A18111C127B0C31002A0ED1FF230B700D4B1A79D1
:40030000013AD2B21A715A79013AD2B25A715A79002A04D009E00133202BE5D105E09B79002B02D18022044B1A6000F0DEFC08BDE4000020E402002080E100E0024B18681E
:400340008007C00F7047C046040204400223044940000A689A43D2B2034013430B607047000204403821034AC00013688B43184310607047080204400423044980000A68B5
:400380009A43D2B2034013430B6070470003044008B53023584300F09BFC08BD70B5074D074A2B6C11899BB2041C161C8B4202D06420FFF7EDFF2C64348170BD000003408F
:4003C000E40200200123F7B53B4E3C4C7364A3710096009BDD6B6289ABB292B22D042D0C9A4202D3802149026D180027AD1AADB2638133483A018318197B0190C9B2FF2950
:4004000020D0043358688446681D844502D95868401B00E000205860019B9B189868002810D1FF261A1C1E7323790C32013BDBB223716379013BDBB263715368002B01D064
:40044000536898470137202FD3D16379DBB2002B1ED000221B4801991301CB18197BFF2904D099680433814200D258680132202AF1D1009A6389D26B9BB291B21204120C3C
:400480008B4202D3802149025218D31A9BB200E00C48053398429CD380B2A0816389C01880B2FFF77BFF0023A3716379002B02D18022054B1A60F7BD00000340E402002022
:4004C000E4000020C0FF000080E100E0034A044913689BB20B4313607047C0460CED00E00400FA051F2318401E3B8340181C014B1860704700E100E0152800D901BE034BF3
:400500008000C318186819607047C046400000200023F7B59A003D49032B01D83C4989583C4801338150262BF4D172B6FF223A4B12041A600022394B394D1A60394B08328D
:400540001A60394B2C321A60384A394B1A601222384B1A6000F0C5FB02222B68019013404ED11F1C0722344C236893432360012F01D1324B00E0324B07267F201B78314A0C
:40058000DBB21360304A31491368B3431360304A0B6812788343024013430B604D3800F097FB052223683220B3431343236000F08FFB06222368B34313432360012F03D149
:4005C0002B68043A13432B60019800F08EFB8022204B52001A60204A204B1A600023204A1360204A1360204A1360204B1A68002A00D11A6001211E4A13680B431360F7BD79
:400600002B68012793432B60ACE7C0460B0200000000000000000020000302400002024024000C400802044000030440804102000803044030001040080F0340BFF1FF0FA0
:40064000FDF1FF0F0C0F0340100F0340180F0340E4F1FF0F0002014000FF0080000001402800034008010140A00000209800002000001040F0B5022087B000F04DFD62B6A1
:4006800000F042FD0023B74CB748A373FFF7C4FD002801D00423A373B448FFF7BDFD002803D00822A37B1343A373B14EB14A33689BB2934206D1002301223360A37B1343AD
:4006C000A37303E13168AC4B89B2C9184A424A413368D1B2A94A9BB29B1858425841A37BC0B21A0717D400281AD10422134017D100291BD1FF2252021278002A06D19B4AEF
:400700009949D069CD69A84213D202E0012A00D025E1954A0EE00422134000D11DE1D5E00123924A002901D1002803D00021944A0CE00123918A9348914A814201D1002160
:4007400004E09148814202D0FA21890011808C4A937013889BB20193002B04D180333360FFF7B4FEB2E00023884A1370FF201901511801330873202BF8D1002280218020DD
:40078000834B2271834D62711960834B7F39AB63EB6C00060B43EB64EB6A0343EB6269647E4B7F497F4819607F4B80495A501A507F4A80489850EA6B029592B20298C06B93
:4007C00080B28242FAD0734AD26B90B205225A5080275A587F023A42FAD0029AD26B92B2904200D93A43121A228200225A5000F078FA1F22FF2303906448110145182D7B10
:40080000D7B2FF2D00D13B1C4018017B002909D12279FBB2013AD2B222716279013AD2B2627103E0013AE7D2FF2B4CD06846574A80881B01D118888000205F4D0F1D0D6116
:400840000873218A019841437960A179002932D10299C96B60798DB200281DD06089090480B2090CA84202D380256D024919D218091A906889B2091891609168A3890432FB
:40088000994218D253689BB2A3816389A089C01880B2FFF783FD0EE065817868474B984200D9181C80B2A081401980B2FFF776FD8022434B1A6023790133DBB223716379C7
:4008C0000133DBB26371039800F00FFA0023A57B8020291C0493059300F004FB6B0703D5802704A9FF0007E01F4B5F683F023F0C0137F901E031BFB22B0703D5802504AA37
:40090000ED0007E0194B5D682D022D0C0135EA01E032ADB2E02000F0EBFA381C291C00F003FB3023274A6382154B9A80DA802F221A8100F033FB237D144DDB0703D5FFF72C
:40094000CFFC00232B702B78002BF2D0FFF7C8FC80233360FFF7BAFDEBE7034AE2E60123024AE7E6E4020020C0FF010040FF0100980000204C420000CFBDFFFFCEBDFFFF3E
:40098000AC00002059430000FFFF0000E400002080E100E0000003406588EDAC5C000020C503000018D00000001000E010D0000014D000007FBB00000D020000C0FF0000DB
:4009C00000E100E0FF03000070B50F490F4B01394A1C15D000221E685C689D68A018AA4203D0B058A0500432F8E7021CDC68151AA54202D0002520C2F9E710330139E7E767
:400A000000F062FEFFF736FE010000008C170000034B1B7D1840431E9841C0B27047C046E4020020014B9B6C03607047FCF0FF0F8021044B8000C258490493680B43936071
:400A40007047C0464417000008B50C4A031C107D0E22002810D0073A00290DD0084A10890722984208D20748834205D8081C7932D90100F04FFE002250B208BDE402002092
:400A8000AC000020FF030000F0B56C4BABB01A7D01930E23002A00D1CCE0073B002900D1C8E0019B5A8A0723824200D9C2E0644A9488844203D2D288824200D0BAE0614A49
:400AC00007238218032A00D8B4E05F4E0C1C051EB54201D15D4F03E05D4B984209D15D4F381CFFF799FB0023984200D1FB690133E365002302930393B54200D992E00AA873
:400B0000211C802200F006FE534B9D4201D8534B00E0534B08937F2308AF7B60514C524E524B27603360C04623681B0F0F2B02D12368DBB205E022680023120F0A2A00D016
:400B400023680293029B0093002B6DD100F0C9F80199474A04AB18310492019105912360444B404A3360C04623681B0F0F2B02D11368DBB207E013681B0F9C466146009B7B
:400B80000A2900D013680393039B002B12D13A49344A216039493160C0462168090F0F2902D11368DBB204E01168090F0A2900D013680293029B002B17D1314A2D040892A8
:400BC000089A154308952F4D2760264A3560C04625682D0F0F2D02D11368DBB204E015682D0F0A2D00D013680293039B002B16D1254A26490692019A06AD07922560194AC7
:400C00003160C0462168090F0F2902D11368DBB204E01168090F0A2900D01368039300F064F801E004230293029A0523511E8A415242134058B22BB0F0BDC046E402002074
:400C4000AC00002006FCFFFFFF03000040FF0100FE030000C0FF0100FF010000B6D70000B6D70001080010400400104004000080B6E9000016000080B6E8000015000080F2
:400C8000B6D8000005000080B6EA000017000080044A002803D001238B40137500E010757047C046E402002008B5012804D00723022807D1044800E00448FFF7ADFA031EE6
:400CC00000D0062358B208BD40FF0100C0FF01000230800803D00138FDD1C046C046C0467047EFF3108072B6704780F310887047F8B50C24194F4443051CFFF7F2FF3C1993
:400D0000A279061C3B1C002A23D02278D2B2002A1FD1A188A06841180878391C8A310870391C8B310A70A188013189B2A180A188072900D9A28001222270997CAA40151CBD
:400D40000D4300209D74FFF717FBA379013BDBB2A371301CFFF7C9FFF8BDC0461803002070B50126104C304216D00025FFF7B9FF2570A379DBB2AB4209D10C4AD268137006
:400D80005370A37CB343A374FFF7AFFF04E0FFF7ACFF281CFFF7ACFFA37C002B02D00020FFF7EAFA70BDC0461803002098040020F7B5151C474A071C537C161C464C0128A9
:400DC0005BD10F2118090B40022D25D800216161A161012D13D00D1C884279D1022B0CD13E4B117C1A88914272D23D4B80310C335918C03261619B180BE0002B68D1327CA6
:400E000053B2002B63DB364B191C0C318A186261CC33A36101255BE0002B15D0127C002849D1022B47D12D4B2D48023D1B888018ADB28C309B1A9D4200DD1D1C311CAAB28E
:400E4000123100F067FC36E0244B391C987800F009FA737C002B0AD1337C062B07D1204BB27C9B7C1A4202D0381CFFF785FA023D0123ADB22377E5831DE00025A8421BD1EF
:400E80006169A94218D0A269051C914214D2521A402A01D9402202E093B2002B0CD00F4B6D4607359878D2B22B1C00F0DFFB62692B78D31863610125217FC9B2002907D123
:400EC000301C81225200103000F02DFC00E00025281CFEBD9804002098050020B800002018030020014B18735973704718030020F8B50C4D031C0824281C0F1C161C191C0C
:400F0000221C1C3000F006FC281C391C221C243000F000FC281C311C221C2C3000F0FAFBF8BDC04618030020014B9886D98670471803002070B50C244443174B051C1C19C9
:400F40000E1CFFF7CEFEA279A368082A0DD161880722002902D06288013A92B29B1881221A70FFF7C2FE002015E062889B181E70638801339BB263806388072B01D900239A
:400F80006380A3790133DBB2A371FFF7AEFE281CFFF7AEFE012070BD18030020F8B5554D2B7F002B00D1A4E0534C544E637C1B0900D094E0207CEB8B0638DBB2062800D967
:400FC00093E000F077FB0492089234515F00A07CFFF7C6FE83E0012B00D886E0A37C522B00D082E0E17C002912D001297DD1081CFFF7C2F9B078002100F034F90520FFF761
:40100000C7F972B63E4B00221A60FFF75FFA66E03C4C0C22201C00F086FB2B1C2033A3600720FFF79DFEB07800F032F91AE02B1C28331F780A21002F4CD1A37C502B08D1F6
:40104000FE20FFF7E5FC0F21031E43D10120191C06E00120FFF7DCFC002846D0381C391CFFF716FE022135E02B1C28331B780A21002B2FD1A07CFFF717FE811CC9B20029CF
:401080002DD027E02A1C283212780A21002A21D1032B2AD9A37C462B27D1E37C012B09D1607D237D174900028C311843FFF7ECFC022101E002200521E37C002B08D1607D3C
:4010C000237D104900028C311843FFF7BDFC032100280CD10020021C031CFFF72BFF0021B078297700F0BEF803E00521F2E70721F0E7F8BD9805002098040020B800002012
:40110000980000201803002008B500208021021C031CFFF70FFF08BDF0B5304E304D314C314F324BB0708122281C87B00021520010307B6100F0F7FA00210C22201C00F0F5
:40114000F2FA3B1C2033A36005A8FFF76BFC28480021802200F0E7FA059B2937E38173892382224B3C78EB60002C01D0347321E0082302203373FFF7F5F80120FFF7E6F8E7
:401180000520FFF705F9FFF7D9F8402300280DD00320FFF7E7F8201CFFF7D8F80520FFF7F7F8FFF7CBF8002801D0422333730020FFF7D8F8FE22B078337B00920D4A10351C
:4011C000019281225200039201210222029500F0A5F90320FFF72CFC07B0F0BDB8000020980400201803002098050020A203002024030020B10D0000021C1820F0B55043DE
:40120000164D28188468838A002C02D10C70201C23E0134896003658C22080003758FFB2381C402F00D9402080B20870C118182050432818878989B200208F420DD38B42C4
:4012400006D2D02080003058E05401339BB2F6E718214A43AD18AB820120F0BDC405002058170000084B1A1C60321154002909D164331A5C002A05D01954044B8000C35848
:401280000122DA667047C046C40500205817000030B5144B8200D35813491A681025520052081A6018225043104A10180222027100225A5082820121F820494200011950A7
:4012C0000B481C58AC431C50F42000011950FC2000011950DA661968802212060A431A6030BDC04658170000880F0000C4050020480F0000F0B5754B85B082006946D45856
:401300000F3100230B70724B061CE25801231A4206D0704AA0589843A050E8221201A3506D4B0125E3580193019A0223FF331A4202D0002301931D1C019AD20644D518274B
:401340007743664AD7193B79042B0CD0301CFFF753FF051E0CD00521BA8A3B69012039719847051C04E03F690220191C0022B8471823734359490222CB181A7100229A8281
:4013800081239B00E258802149020A43E250E058534A1040E050C1239B00E0580143E150E1580A40E2504F4A0123A1589943A150F8221201A3504C4B1021E2588A43E2506F
:4013C000F42330221B01E250019A520639D5E8231B01E25801273A43E250182373433F4AD3181979022929D1626ED1060DD5042100201971021C1B69984700281ED0F823D7
:401400001B01E750374BE75003E005221A71002D14D0F42330221B01E250334B1021E25801250A43E2502D4B60339B5D002B01D1E56606E0294B64339D5502E00223E36637
:401440000025F423019A1B01E250002D03D1301CFFF71EFF38E0254B0127E35801933B421FD0182373431D4A0020D3181B690421021C9847002814D11A4B051CE258BA4329
:40148000E250F8231B01E75081239B00E158802252020A43E250E158114A0A40E2500223E366F82301991B01E150114BE758FA0705D56946301C0F31FFF79EFE051CFC239C
:4014C0001B01E750002DC2D005B0F0BD581700008C0E0000880E00004C0F0000C4050020FFFFFEFF880F0000480F00008C0F0000CC0F000008B50320FFF7FCFE08BD08B5E4
:401500000220FFF7F7FE08BD08B50120FFF7F2FE08BD08B50020FFF7EDFE08BDF0B585B001920AAA1278041C02920DAA128880000392424A825800201060814201D1404DF0
:4015400000E0404D1566812680256D02B600D0669551C126B60095513B4EF4279051012676423F01D651394FD051F8273F01D651374FD051FC20000116501068BC460029AC
:401580000DD0029F3E045F003E43C427BF00D651029EFE2E00D0284380256D00284308258026FF35B6009551C026B600955180252D062843106018206043264D019F4155DA
:4015C0002818022101710C99C77081600299039E0B9F0025437081708123C1219B0089008582868107610420D050505055581A48154E05405550D15867460840D0504223A7
:40160000FF3393510123D351032C11D8201C00F051F80205080B0820104907E00920104904E00A200F4901E00F490B20FEF764FF0834E0B2FEF756FF05B0F0BD58170000B0
:401640008828000088280040480F0000880F0000C80F0000C4050020FFFFFEFF1315000009150000FF140000F514000070B5104C800004598220800020584025281AC0B2AE
:401680008125AD00904203D901206051101C01E0042262510A1C551AEDB2854205D216789025AD0066510132F5E7187070BDC0465817000002B4714649084900095C49000A
:4016C0008E4402BC7047C0460E4B70B500251E1C0D4CE41AA410A54204D0AB00F35898470135F8E700F040F8084B00251E1C084CE41AA410A54204D0AB00F358984701356A
:40170000F8E770BD7417000074170000741700007C170000002310B5934203D0CC5CC4540133F9E710BD031C8218934202D019700133FAE770470000001800005B00000090
:4017400000000000000004400001044000020440000304400004044000000540000006400000074000000840F8B5C046F8BC08BC9E4670472901000011050000F8B5C04638
:40178000F8BC08BC9E46704701010000A0170000A80000202000000068050000000000000000000032000200FF030004FF030000800002000000020000042F00080000000D
:4017C00000000000000000000000000000000000000000000000000000000000000000000000000000000000000000000000000000000000000000000000000000000000E9
:4018000000200020011D00004D9300004D9300000000000000000000000000000000000000000000000000000000000000000000000000000000000000000000000000008A
:401840000000000000000000000000000000000000000000000000000000000000000000000000000000000000000000000000000000000000000000000000000000000068
:401880000000000000000000000000000000000000000000000000000000000000000000000000000000000000000000000000000000000000000000000000000000000028
:4018C00000000000000000000000000000000000000000000000000000000000000000007A060132626E0200AD11041D000000000000000000000000000000000000000084
:401900005943040000200004B53C00000000010000020B000000000000000000000000000C0214000000000000000000200218000000000000000000E8030000000000009D
:40194000020102000000010001040F0203070101010101000100000000000000000000002C9101272CD102002CB104002C4106000000000000000000000000005A900126F2
:401980005A30429A00000000000000000000000000000000000000005A005A00000000000000000000000000030038023C0200000000000000000000000000000000000092
:4019C0003C000000000000000000000000000000000000000000000000000000000000000000000000000000000000000000000000000000000000000000000000000000AB
:401A000000000000000000000000000000000000000000000000000000000000000000000000000000000000000000000000000000000000000000000000000000000000A6
:401A40000000000000000000000000000000000000000000000000000000000000000000000000000000000000000000000000000000000000000000000000000000000066
:401A80000000000000000000000000000000000000000000000000000000000000000000000000000000000000000000000000000000000000000000000000000000000026
:401AC00000000000000000000000000000000000000000000000000000000000000000000000000000000000000000000000000000000000000000000000000000000000E6
:401B0000B40440F6437970726573730014000000418000FFB404009200000000000040F6B40440F6000000000101000000020000000000000001003C04140A0208140A02FF
:401B400000000A000000000000000000000000000000000000000000000000000000000000000000000000000000000000000000000000000000000000000000000000005B
:401B80000000000000000000000000000000000000000000000000000000000000000000000000000000000000000000000000000000000000000000000000000000000025
:401BC00000000000000000000000000000000000000000000000000000000000000000000000000000000000000000000000000000000000000000000000000000000000E5
:401C000000000000000000000000000000000000000000000000000000000000000000000000000000000000000000000000000000000000000000000000000000000000A4
:401C40000000000000000000000000000000000000000000000000000000000000000000000000000000000000000000000000000000000000000000000000000000000064
:401C80000000000000000000000000000000000000000000000000000000000000000000000000000000000000000000000000000000000000000000000000000000000024
:401CC00000000000000000000000000000000000000000000000000000000000000000000000000000000000000000000000000000000000000000000000000000000000E4
:401D000010B5044B83F30888034A044B1A6007F04FFDC046002000206588EDAC3800034010B5064C2378002B07D1054B002B02D0044800E000BF0123237010BD3001002027
:401D40000000000030050100084B10B5002B03D00749084800E000BF07480368002B00D110BD064B002BFBD09847F9E7000000003401002030050100A00000200000000004
:401D80001322F0B5DE4B93B01A60DE4ADE4BDF4D9A4201D8012300E00223DD4C2B70200004F008FB0294DB4C002814D1029BAA331A78029BAB331B781B021343029AD3184F
:401DC000002B08D0DB78237003F044FB002802D0C378A37009E02B78012B01D000F008FECD4804F0D9FA07F0A5FA02220121CB4B0C201A70CA4B1A70CA4B596240319962A2
:401E00000139D9621A63C84BBF311B68C74B1B68002302005A430133A21891741F2BF8D1C34C002123007C33197023008022012080257D331970BF4B2D061A60BE4ABF4BB5
:401E40009363D36C0343D364D36A2B43D3625064BB4BBC48BC4D1860BC4BBD4819505951BC4DBD495D501900D56BADB2D36B9BB29D42FBD0B04BDD6B05230B508023AEB200
:401E80005B020F581F42FCD0D26B93B29E4202D980225202134322005B1B7E32138000230B5062B638220225AC4CAD4E236805209343283A134323603368AA4FAB43DBB2F3
:401EC0002B43336007F030FA40223B68039601929B0717D52368083A9343203A13432360039B039A1B680520AB43DBB2136007F01BFA42223B6801925B08413A134201D1AF
:401F00000823019338222368974D934323606B4680221B7980262B702F27944B92021A600222934B00211E80924B93481F80934B01351A70924B934A1A60902252000EF069
:401F40005AFA914C1822002120000EF054FA8F4B2560E360882320255B0023828C4BA5808C4C9B6C32002000002104930EF043FA6B461B8AA780638023003A331D70864B69
:401F80002C342361012323700023844A1370844A1370029A533212789A4200D023705022002180480EF027FA594B7A4F47331A78D8235B00FA54564B002154331A78BA2388
:401FC000FF33FA54B93BFF3B9C466246B433FF33FA546A46674B127981209A70724B734A1960C1241A6680228000A4005202D9661A501A516E4AF42599500122FE2652428F
:402000002D015A516B4D36045951083D5A516A4D5951083D5A51019D1A686D003543C426B6009D510825113EFF35FF3E9D510136FF369D51614D66462A431A60604A150022
:4020400030352E701600022533363570160034363570951DE987484D6E46956390256D009587584D36791564150031352E70FE253232157004221A501A511D59524A1540F8
:402080001D511C583D4D22401A5042224848FF321A506046484A4D4C98504D4A4D4B80201A6080224C4BD2001A602B784004E3181B7D9B001A5993680343936007A808223D
:4020C0000EF099F9114B124A1B780192049502970594012B00D091E0404804F099F9404A431E98413F4BC0001A803F4A3F4B1A803F4A404B1A802F223F4B1A80812392E09E
:4021000030001040E0180000FF7F0000A8000020001900004C010020FF030000C1000020C0000020FC000140E80F00F0EC0F00F04C02002080E100E0000003406588EDAC11
:402140005C0000207565000018D00000001000E010D000007FBB000014D00000080204400002044004020440CC020020AC000020B0000020A400002010030020320400207E
:40218000BC080020B6040020780B0020C4080020FCF0FF0F3804002022030000D4090020D5090020C00500200000074088280040480F0000880F0000C80F000000010080FA
:4021C000180B00203D890000FFFFFEFF3405010011A100006800002000E100E040FF010015020000B2000020F9030000B4000020FE030000B6000020B8000020D04804F0F2
:4022000007F93021431E9841CE4BCF4A5B681180CE4A1B0A1380CE4ACE4B80001A802F22CD4B1A808223029A13705070430708D4C34B5A681202120C0132D501E03592B261
:4022400002E0802207ADD2000823184208D1BD4B5B681B021B0C0133D901E0319BB202E0802307A9DB00BD4FE0203E0090C890C6300050CD50C030C930C00299B8480A8503
:40228000B84A4B85B84B11681A600023814206D1B64D5168936849194C424C411B190021106051609360FF2B00D9FF23029AB049323213700122AF4B1A70019B0333DA7F89
:4022C000019B0433DB7F1B021343042B04D9043B8A1C9B10D37702E000228B1CDA77019B0133DA7F019B0233DB7F1B021343019A0433D3184B6213000733DA7F019B0833AE
:40230000DB7F1B0213430A002832042B02D9043B9B1000E000231370019B00200533DA7F019B64240633DB7F1B021343019A0433D318CB6213002A331A78019B2B331B7802
:402340001B0213430B86019B28331A78019B29331B781B021343019AD3184B630599183107F0EEFE002380211A00180006F018FD814B1B78002B01D000F0A8FB7F4B1B7888
:40238000002B25D00121202003F09EFF0722039B00219B6820209343013A1343039A936003F080FFFA22764B9200C021002004F071F9744B744AC221002004F06BF9029B34
:4023C0002C331B78DB075AD5002007F005FF56E0013C6E48E4B207F0A3FE002CC8D1D1E76B4A0321002008F091FA0F2808D002222378934323702378823A1343DBB223706B
:402400002B0038331B78002B44D15B4B1B78002B01D000F05BFB00245E4B2000C2211C6003F01CFF574B584AC221200004F032F907F07FFE584B04001A003C3210780222A9
:40244000104000D0D7E238331B78002B00D04DE2474DEB6B002B00D07FE2029B2D331B78002B00D18DE201250026200007F065FE002E01D007F0F0FE002D00D096E20020DB
:4024800007F0F0FE444D02222C003C3423781342B6D0A5E7002007F007FF404B1B78002B06D12821002003F0B7FE002811D0ACE7037C002B03D079300378002B03D02B0030
:4024C000012239331A702B0039331B78002B9CD0E7E7334C26782700701E062895D80DF05FFE070013009B00A501E4011001D001002003F0EDF800236370284B1A78022333
:40250000002A00D0FBE085E06578002007F0CCFE002D02D0012D47D0F0E01F22290091430A0001211F4B0A436384631CDA77A21DD577621DD57780225B18DA77CAE0C046CB
:40254000C0FF010040FF0100B2000020B4000020FF030000B6000020B800002048040020EFBEADDE001C0020BC000020F4CFFC3FCC020020AC080020140800209C0700208A
:40258000F967000041800000EE02000080BB00005D5C0000B00800201C0700202C110020900B002000FFFFFFC34B1B78002B00D1A4E0220000234532137022004632137069
:4025C000636BA360A36A6360437D002B1BD123002B331A7838231340282B04D1230034331B78DB060FD4030079331B78002B05D00300B9331A7818231A4204D17030017851
:40260000002004F0D5F93B002B331B785B0775D500236370033372E00020667807F044FE0500012E07D0002E02D0022E62D065E0310030004CE0A04B1A780523002A5ED0EF
:40264000E218D27F0392002A2FD1A26A013256D09A49039807F036FA002830D02B0079331B78002B27D02B00BC331B78002B22D02B007D331B78002B1DD0039802F0E4FDD4
:40268000061E09D17035297802F00EFE330037222821300003F0FEFF3B000020453318703B0046331870012112E0A36A013308D1238B002B10D00023637004331FE0010038
:4026C00006E07F49002007F0FDF90028F0D1310002F0F4FE062312E06B7D002BEBD12B00B933187818231840E5D17035297804F05FF9E0E7631DDB7F012BDCD00523237081
:4027000083E6704D631DDA7F2B00290034331A70A31DDB7F383101330B70236A6B64A31CDB7F694CDB092BD03F23791CC87F44350340CB77002A03D1644B3A331A7804E04E
:40274000002007F0B1FD7C3002780323602113405A016B788B4313436B70631CDA7F594BD206D20E4033052A03D0062A04D0042A04D12D221A7006E00022FBE71922F9E7A9
:40278000192340352B70A31DDB7F002B09D09A0000234C4DE018806A5919043388649342F8D1454B1B78012B2BD1464B34331B78022B26D1464B38331B78012B33D0002B61
:4027C00001D0022B1DD1022307AA13700F230020137308213F4B1071906008F05DF83C4B002807D009DB0E38C0B2012805D83833022204E03833012201E0032238331A7027
:4028000011E0443423780C21093B5A1E93412F4A002041321370304B304A08F03DF8431E984140420640284B1E70EEE5224B1A78244B1000411E8841190030310870284947
:40284000D9662149088A002A10D00522002814D0244A3B35DA6001225A70002268331A70019B0732C2331B782B7006E00522002803D1043A68331A70063200230A704B70A0
:40288000C3E5104B627868331B7800209B009B18154A9B00D3185B6F984720700638012800D9B2E500236370AFE5002002F036FF01233E352B70A8E52C110020A00B0020F2
:4028C000A80B0020A0070020900B00201C070020CC0200201D52000009500000D4070020B00B0020940B002034050100282103F093FC00287FD15F4B1B78072B7BD15E4A15
:40290000130068331B78002B75D05C4B40331B78DBB2002B6FD1110030310978D5698C4601210E00D8B2844513D92800D84030420DD098008018006A0778012F06D10530EB
:40294000C77F784278414042014000E000210133E8E7002900D07BE54DE02B004133197801238B4289413320494203F0ADFC444B1B78002B00D170E50021332003F092FC84
:402980006BE5404B1B78FF2B00D06CE53E4B1B78052B00D067E53D4B1B78002B00D062E53B4E3378002B00D05DE526E0334BDA6B002A00D163E5324A41331B781278DBB282
:4029C000002A00D15BE5334C334A012B01D9334B00E0334BA3670520E26706F0A5FCA26F304B0C211340A367332003F05BFC46E52D48FFF7F6F9002536E507F009FC002813
:402A000000D130E5294B7D331B78002B09D0284B04351B6CEA8F9BB2934202D0322006F083FC33780125002B22D10125049B1978204B8A00D258536E2B4219D118234B4349
:402A40001D49CB181B79022B12D11C4953582B43535007F06EFB0421194B1A4A1B889BB21360194A13680B43136030BF07F065FB2E00FAE4900B0020A0070020CC02002037
:402A8000A4080020BA000020BB0000201807002014080020FC000A40AFF44A01C2F14A41C2F14A40FFFFFFBFFE0300004C02002000000340D8070100180B0020880E000044
:402AC00052F1FF0F0400034010ED00E0F0B5C34EABB07078C24C03090493049B3578002B00D004E2238CEDB2DBB22C2D00D120E113D8082D56D005D8062D2DD0072D2ED0FF
:402B000000F01BFE0B2D00D17FE00C2D00D19DE00A2D01D000F011FE61E0302D00D198E109D8B6782E2D00D17AE100D97FE15534267000F0FFFD332D00D1B5E13B2D00D1D4
:402B4000C3E1312D01D000F0F8FD2300B27859331A7056342178A2E1B07800F0E2FD9F4B05259B784A2B03D19E4806F015FB05009A4B9B78412B00D0AFE19B4A1378012BDC
:402B800005D153681089403B181A984C02E05068974C403803F03CFC002801D000F0C4FD200097E1012B01D800F0C7FDB3780525522B00D096E1F378002B04D00498012BF4
:402BC00000D187E18EE1032006F08AF80334072006F0A4F8E07F06F0E9FF00F0ABFDB178221D0123502904D10534D377E37700F0A1FDD27F05251A4200D173E10023221D2A
:402C00006419D377E377033D6CE1774BB6781B78049DB34217D0012E04D00725022E12D1744800E0744803F0F3FB002801D000F05EFD012E01D000F050FD04220500063485
:402C4000E37F9343E3770235EDB24BE10525032B00D847E1614B9B78462B00D042E15F4BDB78012B3BD15D4B0E205D791B792D021D43231DDB7F002B35D05B4B59891A00D5
:402C8000A9422FD89989A94202D2DB89AB4229D15A4B9D4226D80AD11378022B05D0554803F0B6FB002398420FD1524B0CE0544B9D420ED11378012B05D04F4803F0A8FB4F
:402CC0000023984201D14C4BDB6922000133FC32136121002800B03103F00CFB03E00220052501E0072002253C4BDB78002B1BD13A4B072559791B7909021943231DDB7FA7
:402D0000002B00D1EEE0384B1B8A8B4200D3E9E03A4B994200D9E5E02000A940B03080220DF060FB043DDDE0002801D000F0FFFCD8E0B3780925012B00D9D3E0314F3E7A74
:402D4000F6B2002E00D0CCE0543403942278534001D100F0EFFC1A403A723A7A0124554255416D00234200D1B7E0387A204007D107F032FA039B1B781C43039B1C70ACE06F
:402D80002E21300003F048FA051E13D0752348373A782E2113403B70300003F05FFA3100300003F025FE2100300003F021FE210030000FE007F078FA8730007821000028CC
:402DC00008D0114A0321280007F0A0FD00281DD100F0A3FC06F036FA00F09FFC10030020100400204C420000A8000020324200003142000040FF0100C0FF0100FF030000C4
:402E0000FE0300001007002045920000C04BC04A1B7AA3431372137A002B62D000F044FC230056331E7059342278310037E008AC8822049920000DF0DEFA0720022E05D887
:402E4000FF200AA98000267203F054FA0230C5B243E0B3780925432B44D1AE4B1A78A31DDB7F012A03D15B070AD4AB4B02E01B0709D4AA4B5B681B021B0CDB01803303E056
:402E8000C0235B0100E0A64BB034C03307CB07C4250007CB07C506CB06C500F04BFC049807F084FD00F046FCB378522B04D1FA20800006F039FAFAE70925502B12D1B11C38
:402EC000802298480DF08EFA0CE0B3786334237000F030FC06F060F90500002D00D1E3E300E01225002329001A001800DAE3049B581E238CC7B2DBB23800059307F0D4F9A6
:402F00000390242D00D186E215D8052D00D166E106D8002D2DD0042D00D107E100F010FC1C2D00D1C2E2202D00D160E3062D01D000F006FCACE12A2D00D190E30BD8282DDA
:402F400000D181E3292D01D000F0FAFB502078432418DA349CE3302D00D185E3312D00D187E32C2D00D0EBE3502078432418DD348EE3543423783B41DB0700D4E0E30C20C9
:402F8000F178B378090219439B090A0A1B021343CDB29AB2054205D0032B01DC09247DE3043A92B28907890FCBB2032BF6D082235B009A42F2D808242C4003D19307EDD1E7
:402FC0001C2AEBD8059B012B00D8B9E32C20504B78431E0060368155002130180173E90601D41B210173002C49D02C211A004E4C7943200060325118FE003A022830B21892
:4030000082181000D930FF30007848701000DC30FF30DB320078FF32127800021043032248801540039A01D1943200E096321278012AB3D92C227A439A186032D278D209CA
:4030400007D0002D0CD1039A99321278002AA5D106E0002DA2D1039A99321278002A9DD02C227A439B183A02B6188122A6199200B6189E66274BF83ADB19FF3A24E02C211E
:40308000680726D5180079436030451896085B182E71254D9C66FB003C021C1910312835401829192C19DD31D934FF31FF340DF099F92278174B052A04D0062A06D1DB19CF
:4030C000112201E01022DB199A741AE0DB19FF22FAE71D00794360356818960806710C205B189C660B4B1031DB1998743B026818F900C9180C4B591880239B00C9180DF0E2
:4031000071F9044BDB199B7CFF2B00D07EE117E310070020A8000020C0FF010040FF0100800A010000000120100400203B02F800C018802324189B00E4182268BB4B002066
:403140009A420ED1221D130001001868002804D00131C9B204330729F7D1380007F0C2F8012000232360B24B99784B0600D115E7039B5A7A01235B4293400B405B0600D08B
:403180000CE7039B9D7A002802D18D4200D1D9E2380007F0BDF8039B72331B78002B00D1D0E2039B67331B78012B00D0CAE2A14B0022603319002C237B435A54CB181A7153
:4031C0001A739D4B3800DB199A7405F0C3FF041E00D169E22900380007F09AF85EE23B02F800C018802324189B00E4182268934B00209A420ED1221D130001001868002840
:4032000004D00131C9B204330729F7D1380007F089F8012000232360854B99784B0600D1BCE6039BDA7A01235B4293400B405B0600D0B3E6039B1D7B002802D18D4200D156
:4032400080E2380007F084F8039B75331B78002B00D177E2039B67331A78002A00D071E2744B3800603319002C237B435A54CB181A711A73704B0132DB199A7405F06AFF55
:40328000041E00D110E22900380007F061F805E2FF22694DEB199A74B278252A4BD810000CF074FF17171749493D3D2A363D3D3D3D3D3D3D134B3D3D93AE3D3D3D49494986
:4032C000AEAEAEAE4E5C6A717E8801225C4B1A7396E05C4B0A24995C039B5B7B0B41DB0700D48EE0EB19584A3800D97407F00EFB00285DD00D2484E0039B72331B78002BFA
:40330000F8D0039B38007033197801F0CDFF77E0039B38007033197803F04AFB70E02C20484B7843D91C8C5C4249233360319B5C4454E9198B740A2463E0EB190321D2E74A
:403340000024039B0894039A5B7A203200929B0008AA1021049806F04DFB52E001230893039B039ADB7A3C3200929B0008AA1021049806F03FFB1BE0039A039BD27A583369
:403380005200132111E03B02FA00D2188023A4189B00E218039B3800D97A06F0E3FF2FE018221421039B6D33FF33049805F0F8FC002426E03B02F900C918802364189B0012
:4033C000E118380007F0B6FB1AE026005434237828363B410524DB0713D43A02FB009B18D933FF33F018837842780178C07804340090380006F0CCFF002802D1073C00E070
:403400000224ED19AB7CFF2B00D145E1380005F0A1FE040040E1059B032B17D818000CF0BFFE910138002B001E00C046504352531003002010070020A8000020504B4E53DA
:4034400090070020C80501001992000050237B43BE4AE3185279D533FF3312061A6050237B43E318D533FF331A68120E1106B74A127912040A431A6050237B43E318D53395
:40348000FF331A68120C1104B04AD27812020A431A605020FF2378432418D534FF3422689A43AA4B9B78134323604BE125005434237828353B410524DB0700D4EEE0F27895
:4034C000B0783379120202431B0413431A00737974261B0613433902FA0052187E43D9329B48FF32AA58841994462200002140321278079006921A0C03921A04120E05921D
:403500000A00069DC8B2A84213D2656A0120CD4005420CD0079D8A009219AA18126B03985589854203D1D5790598854203D00131E7E7002000E00120864CE55D002D2ED064
:403540000124DEB226422AD0A643022E06D153347C43814B1C19473463469BE0062E1ED1002842D0D369002B3FD0531CDB7F002B3BD12300C9B28B40742519007D43744BF1
:4035800038005D19EB6A0B43EB62AB6A8B43AB62022378351370D36998472C70D2E0002823D0511CCC7F002C1FD0107801281CD1D907C90FC9B2A94217D18343DBB20A2BA5
:4035C00005D1D36A61463800984704000AE0082B0BD1002D09D0013B1370D369002B04D038009847002C00D0ACE00D2456E05434237805243B41DB0750D5F378B0783179EB
:403600001B02034309041A000B007179134309061943504B0A0EDB5D9A42E6D10B021B0E012B06D0022BE0D189B2380005F0EEF807E089B20429D8D8C9B20022380004F0A0
:40364000C7FF00287ED1D0E7502078432418B178D934FF342170380006F03AFE72E0502078432418DB3413E0502078432418E1340EE0502001237843B1782418E234FF346D
:403680004A0821701A401940380007F02BFA59E0B378FF34237055E0002C05D0002321001A00049805F07CFB90220021520027480CF0A1FE0022294B29491A71294B0333EE
:4036C000DB7FCA542849C85C90423DD0CA54274A9B009B580122DA6636E00500022E01D0FFF7B1FA08220634E37F934312E0012E07D104220634E37F06251343E377FFF779
:40370000A2FA0625022E01D0FFF79DFA08226419E37F1343E377FFF796FA012005F0E0FA022005F0FBFABFE70825FFF7DBFB0725FFF7D8FB0225FFF7D5FB0525FFF7D2FB8B
:403740000524ABE70224A9E72BB0F0BD10030020900700202C1100201007002010080020D90B002010040020DD0B0020D80701007047704770B554244443044D6359002BB0
:4037800002D098470023635170BDC0461C070020002806D1F622034952008B58013083438B50704700000A40002806D1F622034952008B58013003438B50704700000A40B5
:4037C00054235843014B1818C18670471C07002010B5040006F0ADFC002C3DD12049214B0A8E9A4238D006D81F4B9A4211D01F4B9A4226D130E01E4B9A422DD01D4C1E4BA1
:40380000A24212D01D4CA2421BD1FD2219680A4010E00221184C22688A43D3B20B432360FE2322681340236016E002241968A143CAB2224301241A601968A143CAB22243B3
:4038400009E0FD220E4B0B860B4B19680A401A60FE2219680A401A6006F06FFC10BDC0461C070020C832000028230000E02E0000384A0000204E000000000440983A000086
:403880008813000010B5040020221F2102F09EFC2000FFF76FFF2000012102F0C7FF80212000C90407F062F900221821200001F0D9FF10BD10B5041E01D106F039FA8021A4
:4038C0002000C90507F052F900221721200001F0C9FF10BDF8B554244443104B0E001C192186050006F0E0FC0700280002F0EEFDC823218E628E9B00914205D39E4208D03C
:40390000280002F0C9FD04E09E4202D03800723003782800FFF75CFFF8BDC0461C070020542343430B4A70B5D318998604000D00FFF72EFFF0236343074AD318A8331B782D
:40394000DB0705D5054B00222900200001F0D6FD70BDC0461C07002000190000B538000070B50400150006F033FD54236343074A0321D318002800D00421197354216143ED
:40398000083151182000A84770BDC0461C070020F0B591B0009001910E9206F085FC019B06905B780C93019B1B899B059B0D099303002C33FF331B78DB06DB0F0D93002344
:4039C000089307930593069B059A7F331B78934200D89FE1002302936B461B7A0A930A9A0C9B934200D891E1009806F05DFC059C05004A34A40003190393DE78019AB30935
:403A00000393059B7C335B00C3189888029B800502339B00D118CA78860D9209012A00D17BE0002A03D0022A00D1DAE06BE1019A142198580003830D1800133004930CF068
:403A4000EDFC049B1F1A1818039B012B2FD0002B02D0022B08D056E16359049A1B039B0D9A4200D04FE10CE063591B039B0D9F4200D248E12B195B889B049B0D984200D9EC
:403A800041E1635B31009B059B0D9E4200D21900029A019802329200125A9205920D914200D930E1009AC949920053500DE163591B039B0D9F4200D225E12B195B889B04B8
:403AC0009B0D984200D91EE1FA23605B5B008005800D584301383900C0190CF09FFC0400FA20400070437B1EC01839000CF096FC22000600844200D20200029B0199023333
:403B00009B005B5A9B059B0D9A4200D9FBE0009BAE4A9B009C500497D7E0019A4F889B58039ABF041B03BF0D9B0D012A36D0022A00D0E8E062591203920D934200D2E2E0CD
:403B40002B195B889B049B0D9F4200D9DBE0FA21605B49008005800D7843F430FF300CF05DFC04003000FA217843F430FF3049000CF054FC22000600844200D20200029B7D
:403B8000019902339B005B5A9B059B0D9A4200D9B9E0009B8D4A9B009C50F2E062591203920D934200D2AEE02B195B889B049B0D9F4200D9A7E0635B31009B059B0D9E421B
:403BC00000D21900029A019802329200125A9205920D914200D996E0009A7C4992005350CFE04A889204920D0492019A9858039B0003870D012B32D0022B00D083E0635931
:403C00001B039B0D9F4200D27DE02B195B88049A9B049B0D9A4276D8645B3200A405A40DA64200D22200029B019902339B005B5A9B059B0D9A4266D83800FA216043009BA2
:403C4000624D9B00F4300393FF30EB1849000F930CF0E4FB0F9B5860039B5C519AE063591B039B0D9F424ED32B195B88049A9B049B0D9A4247D8FA20645B4000A405A30D24
:403C800058437D1E3900401903930CF0C7FB0400FA2040007043390040190CF0BFFB22000600844200D20200029B019902339B005B5A9B059B0D9A4225D8009A434B920036
:403CC000039899184860D45064E0009A3F4B92000499D0589C18A1604843FA21F430FF3049000CF09BFBE6606060009B374A9B00D3185C68079AA24205D80D9A002A51D0A4
:403D00009B68642B4ED1029B013364E6059B0133DBB257E6089B002B25D1FA21069E2B4DFC36F36A49001803009B800D9C00B38D2F199B059B0DB8605843F4306351FF30DD
:403D400001930CF06BFB019B099A7860934200D96251012233882C19E36011000023009801F0D2FA0B905423009A194953430B98CA1808339060591800980E9B984711B040
:403D8000F0BD009B114A990053188A589F60DE605A60AAE7009B0D4A9B00D318049ADE609A60A2E7059B069A7C335B00D3180A999B880131DB0BC9B20022009801F0A4FA44
:403DC00001230B90079408939DE7C046180800201C070020F8B504000F0006F0AAF900210500200001F0DEFA002C01D105F0A0FF2000FFF7CDFC27222621200002F0E6F967
:403E0000134E002F1AD0200006F04EFA87300378002B13D02000FFF7C7FC54236343F3185F600C4FFA223B002621200002F032FC3B0001222721200002F02CFC54235C437B
:403E4000054B34192800A38606F077F9F8BDC0461C070020E542000088130000F7B50E0024221E21040002F0B1F9542363431F4D1F49EB185B8E8B4207D82000002102F093
:403E8000D5FC142005F050FA02E02000FFF722FD06F04FF95423C822634392001F00EB1801905A86002E19D0200006F0FDF987300378002B12D02000FFF776FC9622EE515C
:403EC0000C4D92002B002121200002F0E3FB2B0003222221200002F0DDFB03E00121200002F0A4FC019806F028F9F7BD1C07002088130000C1410000542343430F4A70B587
:403F0000D318C822040092001A860D00FFF760FC0121200002F08AFC002D09D020000022172101F09FFC06492000FFF797FF04E02A001F21200001F095FC70BD1C070020F6
:403F400073370000F7B50400009106F0ADF9050006F0EFF8242201901E21200002F036F92B0087331B78002B00D1C8E02B00A1331B78002B00D0C2E02B0076331B78002BA4
:403F800005D0AC235B00ED5AAD05AD0D03E0AB785D4A9B009D58F02363435C4AD318A8331B789B0771D55A495A4AA3002000995001F050FA07004078642168430CF02EFA31
:403FC0004519B879642168430CF028FA482801D9482002E00023092801D90A3843004A48BF78C018057B467B06F0A3F803239C466246494B49491A70E622494B52001F704D
:40400000484B36039F58484A1740C02217430A6C520052080A64AA0817433E4301222F0017407F423A008027FF051740E622774052009F50CC3AFF3A6D080E6C15406D42A3
:4040400075400F6CED0FED076F400F64FC210F2549005A58AA4365462A435A508122E7399200FF399950043A9A58013D2A4204D0F731FF315A582A435A508321022589006A
:404080005A582A435A5006F058F82000FFF780FB54236343254DEB183F331A78002A0AD101321A70002C06D105F042FE0A2005F03BF905F073FE009B002B20D05423634344
:4040C000EB181A00012142321170598E1B8E994204D9002320001370FFF766FB54236343009A1E21EA50124DFA222B00200002F0D1FA2B0001221F21200002F0CBFA019876
:4041000006F01BF8F7BDC046100601000019000085380000D8090020140B0020FC000A40150B002000000A40F80FFC3F1C070020C1410000F8B5040005F0FBFF0600200072
:40414000FFF726FB200006F0AFF887300378002B2DD0200006F0A8F8A1300378002B26D1002C24D1144F154DE133FF333978EC581A00C13BFF3B032901D09C4308239B20BA
:404180001C43AC50400005F0CFF83A784023032A01D09C4310231C43F02302215B00EC500433EA580A43EA50EA588A43EA50300005F0C3FFF8BDC046C000002000000A4042
:4041C0001E3970B504000800062900D982E00BF0DDFF04113C515A81770020221F21200001F0F4FF542363433B4AD318C82292005A8643E054226243374B384D9A1811008B
:40420000423109781E00002908D154236343F3181A0042321278002A0CD012E0118E14222000524201F00EFA0028EED02B000A22202141E0198E1422200001F003FA0028FE
:40424000F4D02B0001221F2136E0542565431E21200002F003F8204B20005D192B8E6B864235FFF795FA2B78002B30D1200002F013F92CE02221200001F0F0FF0121200044
:4042800002F0D4FA26E016490A22200001F0DAF9011E02D1200002F0C9FA1422C82152428900200001F0CEF90C4B002802D10A22242101E003222221200002F0EBF909E003
:4042C0002000212101F0CAFF2000FFF761FA2000FFF750FA70BDC0461C070020C14100008813000070B504000D00262902D0272907D021E0272101F0B1FF2000FFF748FAFE
:404300001AE000220D4901F09DF900280ED12621200001F0A3FF2000FFF73AFA54236343074A2000D3185B68984705E0054B01222900200002F0AEF970BDC0468813000016
:404340001C070020E54200005C2343430C4A10B5D0184C1C03D10023037643760EE0012302000163037654321278002A07D00200816543764C321278022A00D1837610BDCC
:404380002808002070B55C2444430F4B00251C1923003C331D70DD70A31CDD8740331D700E3BA56365641D702900FFF7CDFF23004A331D70013B1D702565013B54341D70DB
:4043C0001D71257070BDC046280800205C235843064B181803003E303D3302781B78012013400B4201D148424841704728080020F7B55C214143174C6218130034331E7847
:40440000002E26D01F250023354093601572FF2501276D4255814C3212780092321FD2B297429241524201926A4665181279ED182A7603226A70002B02D0102E00D16F70A8
:404440000133009ADBB29A42EED25C235843593B2354F7BD28080020F7B50F0E09020600090A012F0AD15C235E43264B01399E194B4259414B3631703D0040E00025022FA6
:404480003DD15C2444431F4B1C1923004B331B78AB4234D0062906D12300112234331A70A563290025E0062929D801238B4000936B461B7819000193FFF788FF051E1ED06F
:4044C000230039331A7800990025914217D0220011213432117069460979A56319703C2113798B4338390B4301398B431F431771A16B3000FFF728FF3000FFF779FF28009F
:40450000FEBDC046280800205C23434310B5074AD3189A1C42331B78002B06D0D18F023B19410323194004F071F910BD2808002089B210B504290FD15C234343074AD31866
:404540005A1CD27F002A07D042331A78002A03D0023A1A70FFF7D8FF10BDC046280800205C23434370B5204DEB189A1C42331C78062C37D8D38F0322C9091140022909D071
:4045800091420DD0013A01291FD19900130089B20B4302E09B009BB21343A21CD2B216E0002C06D01E00A21E164122003140012905D102229B009BB21343A218D2B29B0064
:4045C00099B2032302320B43E8E7012300245C2141436D18A91C4235CB872A70002C01D1FFF792FF70BDC0462808002010B50400FFF7C8FE0022074B20001A5502F09AF9EE
:40460000002C01D1044B1C605C2307225C43034BE25410BD0C03002008030020280800205C224243F8B54F4E0400B31819004B310F783500012F0ED10220591DCF772631BE
:404640000870196B0902080A996A090E090601439962975585E03032B15C0322186B8907904302000020890F0A435A649863D2B26030024205D0520666D5012248331A7046
:4046800062E018003C30007800280BD1012962DDD20603D54A331B78FF2B1DD15C236343EB1817E001294FDD10210A4008D019003F310978002903D14A331B78FF2B0BD192
:4046C0005C236343EB1819003F310978002942D0002A40D149331B785C226243AA18110039310B7011233432137000222000110003F06EFF5C236343EB1819009A6B3831A9
:40470000002A19D03C200A7882433838024301388243013802430A701A0054321278002A0AD01A004D321178143A12780A4203D1052234331A7014E05C236343ED18A96B86
:404740002000FFF701FE0CE05C2311226343EB1834331A70C9E75C235C4300232D1934352B70F8BD280800205C231A0070B542437D4D0400505D0138062800D9F3E00BF0E0
:4047800005FDB104F21CCCF2E20063437749EA18D16201211171190030316918D1601100042634310E700021101DC17758337049ED18D16115615561D2E06343EE18300050
:4047C000327A3430D206D20ED1B202700122EA54052900D1A8E002D8042905D0C3E0102918D011291CD0BEE00021200004F00EF80023B21C4236D38733709C4202D15D4AB7
:404800005D4B1A605C236343ED18102334352B700121A2E020004B36FFF702FF337879E033004B331B78012B0CD1721DD377330002222B331A70B36AFF321B0E1B06FF3287
:404840001343B3625C236343EB181A0039321278082A16D004D8002A1ED0042A05D020E0102A02D0202A0CD01BE05C236343EB18190001203C31087000213F3319700431C2
:4048800010E05C236343EB18180001213C303F3301701970023105E019003F333C310A701A7002215C266643AE19330035331970200003F08DFEB16B002900D0716C2000D1
:4048C000FFF74EFE5C2301226343EA54ED182B0048331A78002A46D0052234352A7000221A703DE01F226343EB18197A0A40062A39D11A003C321278002A03D0196B2000CC
:40490000FFF72EFE2000FFF78BFE5C236343ED184B352B78012B23D125E06343EA1834321178081F012803D82000FFF75FFE1AE01039012902D80523137011E0002111708A
:404940000122EA540FE06343ED182B00112234331A700123002148352B702000FFF7F4FC2000FFF745FD70BD28080020594400006947000031450000080300207423F7B584
:40498000060000251D2743430193019B164AD018030030331B78AB4220D93B0073435B1908339B009C58002C15D0104B9B5D002B01D1013300E004231F222370237A30003F
:4049C00093431A3A13432372E36998473022002120000BF010FD0135EDB2D6E7742200210BF009FD0520FEBDA00700202C1100207423F0B54343304A85B0D218D26E0700EC
:404A0000019209220026039202932B4A029BD318190030310978B1424BD9DB690121F3400B4243D01D237B439B1908339B009D582B78042B3AD10522019B06311B79EB1875
:404A40005A70019B5B780B401A006B7A8B4313436B72019B1B79002B01D1083303936B89EA79A4B21B04E4B212021C431443FE220021039B94435B001C43104BFD3ADB5D4E
:404A8000944313401C430C4A029B3800D31859661C66029B063160339A1804F001FA05232B70EB69002B01D0380098470136F6B2ABE7072005B0F0BDA00700202C110020C6
:404AC000FF23F7B58B700023CD7A07000C0000939D4200D009E10B780193012B1FD15B334343834E3022F3181800290000930BF082FCA5703800FFF745FC009B01964B334E
:404B00001D70E3689B68002B66D01A68002A63D01A78072313405FD10A2222745AE0019B0095022B00D0E0E08B794E798D701E43CB78072B36D03100FFF748FC00282FD0FB
:404B40000C231E422CD05C257D43694B5D192B004C3300930123009A13700322AA702A00543213702B004D331E702B6D9B681B68002B11D0380005F097FB7B300378042BD8
:404B80000AD12B6D9B681B781B0705D503236A46EB701279009B1A700723E370237401E00723E3705C237B43514AD31812E01A003E32117808224A33114243D105225C2321
:404BC0007B434B49CB1834331A70052A50D10B2323740023009388E05C237B43019AA168D3181D0000224935C9B2667AA07A2A706A70CA07E2D5F0227A433E4DAA18C03254
:404C000015781A003D3215703E334A0601D5187000E01E7004213800FFF7D8FB344E002805D05C237B43F318493304220AE010213800FFF7CBFB5C237B43F3180028B6D0B8
:404C4000102249335C257D4375191A702B003E331A7808234A351A4207D120213800FFF7B5FB2023002800D1FF232B700422A6E7380005F019FB7B300378E268042B0FD196
:404C800000211D480B0008335B00D3189B88002B27D0834202D00131C9B2F3E70123E3705C207843019B00211B181A651A004C321170190001245D1D0E3A3D3112780978D0
:404CC000EC7726352C7011409A6A1C71120E12060A439A620223019A13543800FFF744FD03E00723E3702374DAE70098FEBDC046280800200019000001FF0000F0B50A7ABE
:404D000087B0D2060190D70E48894A7A8B68520702906148520F140203402343039018040FD5032F01DC0026B3E07420019C019D60435A4C20185A4C3030665D741EA641C5
:404D400006707420019C6043844654481402604430300078049405900020059DC4B2A542E1D986004D4C66443419246A002C70D06689029DAE426CD16679964204D1601C18
:404D8000C67F002E12D1CEE7A61CF67F002EF6D1E61CF67F002E5CD0039D2B40049D2B437F251E04360EAE4353D1E8E71F2083433B4307273A401502AC46039D2B406546F9
:404DC0002B43029D9BB22D042B43A3604D781840AC4601256D42AC4465462576062809D1A01CC07F002805D01B0403D5637ABB431A4362724A78012A0AD9237901339A421E
:404E000006D8284B0C31D2189200E0680BF0EAFA012301982370E36998472378052B82D05420019D204B4543ED18637ADB0901D1A3682B612A00237E2C3201331370227EF5
:404E4000002A26D028009200E16814300BF0CAFA1FE01F25AB43039D3B432B40049D134E2B43134D1E40AE4211D16689029DAE420DD1661CF67F002E09D01F22237A019881
:404E80009343183A13432372E369984701E0013063E7300007B0F0BDFFF8FFFFA00700202C110020FFFFFF3F1C0700201F870000058700007423F7B5002543430F4C104E53
:404EC000E31830331B7801932B00019FECB2BC4210D2375C002F03D00A4FEB00DB1901E0002B05D01F888F4202D19F78974203D00135EAE7FF2000E02000FEBDA007002080
:404F00002C110020F007010074235843244B70B518180023C46E1600227163718B680D0023609300CB18DA68002A0BD08A19117E002907D020006171127ED9689200083055
:404F40000BF050FAEB1CDB7F002B26D18022072163785242134363706B790B401A0063788B43134363701F232A7A1340062B0AD1AB1CDB7F002B06D06B7A0B401A00637860
:404F80008B4313436370002E07D00721AB790B401A0063788B4313436370012070BDC046A00700207422424370B5154DAA18130030331978546993699C430023D3610122DA
:404FC0008B421BD22600DE40164215D00D4A9B009B1874225043002428180125A2009A5A002A04D02A00A240C6693243C2610134A142F3D8012002E00133E1E7002070BD88
:40500000A0070020F0070100F8B50B00040011007F4D042B00D099E0577A7B333E009E4300D189E0167A0B78B609F2B2002B10D1784B7F069C4654231800604360443A30DC
:405040000078BF0FB84200DD3800634363443A331870012A03D04823032A2AD04FE0742363436D4AD31840331B790A7ADB06D206D80E9A420AD1200000F0FAF9482300228A
:405080006343EB185E7044331A70AEE048236343EB181A0000211F26443211700231597020331A78B2431043187007205A7882433FE06343EA181000443001780131C9B27F
:4050C0000170092916D9002303701F20023353707233634350492032CB1840331B7903401900137883430B430721137053788B4353707AE00622EA5400232C326BE06343FD
:40510000EB181A0000214432117002221F205A7072326243404920338A1840321279024011001A7882430A4307211A705A788A4304390A435A7058E000F09AF94823012264
:405140006343EB185A7044331E704EE048224243AE1830001F21203007780F40062F10D1032B0BD1AF5C002F50D10931200001F075F8012373704436377036E0002B34D0A6
:4051800044E05F1E012F2BD84427BC46B444674661463F780137FFB20F70092F17D900220A701F2102327270723262431A4EB218403212790A40160002788A433243027023
:4051C00007224178134091430B4343700DE00623AB54002364222821200001F05BFA15E0002B13D10633AB5410E048235C432B1920331B78DB06DB0E012B03D0022B03D10E
:40520000032302E0022300E007232B55F8BDC046900B00201C070020A007002003290DD0074A042906D007490B5C0133DBB20B54022B01D9032300E0022313547047C046AD
:40524000040300208408002010B505F02DF8E22370300178044A5B00D058002901D1800700E04007C00F10BD00000A4010B50021040004F07DFA00222000110001F08AFDDE
:4052800003009A2040006043044A10180B22FE30C08A50435843000A80B210BDDC09002010B501F085FB10BDE22310B50A4A04005B00002902D1D158022001E00420D15802
:4052C0000143D1502000012105F042FC0221200005F03EFC10BDC04600000A4010B50400042905D1074B1B18597805F06DFC08E0032906D104F0D8FF024B9C301C19037846
:40530000637010BD84080020F7B50F0015001E00040004F0C9FF012341790200194009068C4629001940890680790191614618404006084307210F4001993F070143002072
:405340003943854200D1300003401248DB0601401943114BA400E5581048AD05AD0DAB02014019430E4B890AE35889029B059B0D1943080104D49D4202DD890A8902294304
:4053800094321378012B02D980231B0419430800FEBDC046FFFFFFF718080020FF03F0FF24080020F023584310B5204B1818A8300378DB0738D51E4B1E499B78022B15D1F7
:4053C000F422C02052008B58C000034201D01A4C00E01A4C23408B50F22252008B58034201D0154800E0154803408B50E4221448520004788B581000002C04D0114A1340DA
:40540000D022920002E0104A1340104A13430B508320042280000B5893430B5081239B00CA5000220A4B1A6010BDC046001900008408002000000A40FFFEFFFFFEFEFFFF50
:40544000AC0800203FF0FFFF3FE0FFFF40030040100B0020F0235843034BC0188C300088024BC0187047C04620190000001900004823434330B5104C8A68E3181A624A78A7
:405480009D1D013AEA770A780533DA774B78012B0FD91222002350434A789A4209D9DA1C92005558C2180A3292000133A550DBB2F2E7012030BDC046900B00204823584309
:4054C0000C4B30B51818002402001F250A4B0462203243841378AB431D3D2B43451DE97707211370537806308B4387390B43C477537030BD900B002000FFFFFFF7B50C001C
:40550000070001921E0004F014FEF0235F433C4B0500FF188A373A883A4B0120D31802221856394B60439A7064210AF043FE2018C343364ADB1718400023904214DD344A52
:405540003233904210DC334B984205D8324BFA21C0180AF063FF06E0FA21304B4900C0180AF05CFF1930C3B22D4A0421166081222C4C9200A1503C3AA0582B499B010840E1
:405580008021490108430343A350019B002B03D02032A358254903E0F2225200A358244908781100032804D1224A13400222FF3202E0214A1340214A1343FC22635052004D
:4055C000A1581F4B0A200B40E021C9000B43A35003F0AAFE80239B00E358124E1B0705D5822204219200B3580B43B350832204219200A35828000B43A35004F09EFDF7BD9E
:40560000201900000019000084080020BD0A0000FC5300002823000042F5FFFFD8DCFFFF100B002000000A403FF0FFBFC1000020C0000020FF3FFFFFFFCFFFFF01C1000027
:40564000FFF0FFFFF7B5160004000D00002104F08FF82A0000213300200001F041F9060004F067FD8023D224174D9B00019064001E432F592E5101260A2003F055FE2B5997
:405680000A20DB0B2F519E4303F04EFE80220F4B52001A62196B114211D0002F0FDB9A6929599201920F090407D5022A07D180219A6A49000A439A6201E0012AF7D0019856
:4056C00004F03BFD3000FEBD00000A40FC000A4070B5482444430E4B00251C192300060044331D705D709D7029001C22201D0AF082FE300004F0D8FD064BB8309D55064B9E
:40570000E060282130009D5500F0A8FD70BDC046900B00200403002084080020F8B5542545431F4B00265D192B002F003E331E7038373B780400B34230D0FFF7C9FF7423EB
:405740006343184A3D35D31868331B78164A1B01D318DB683E702E7020009847200004F0A3FD72300378B3420DD0200004F09CFDA13002780221D2B2B24201D03200310037
:40578000200002F025FF200001F0D4F80023074A1355074A1355074AA400A350F8BDC0461C070020A0070020A80501000C0300200D030020080300208B1E5A1E934107223E
:4057C000F0B504000D0085B0D31A019305F0E4F9214A224BE600D71CBF199819795D405D02920393884212D9200005F0CBF97B5D01990133DBB220007B5505F00DFA0028BF
:4058000020D000220421200005F080F81AE0200004F04AFD030072331B78002B03D067300378002B08D15423022163430C4AD3183C331A780A431A70200005F08DF92000EC
:40584000FFF76CFF029B03339B19585D039B9E19735D181A05B0F0BD840800204C0100201C070020F0B58FB004000091150004F01BFD00230293009B0700581E252800D9E6
:40588000E2E10AF08DFC9C0083009C00E600E600E101E101E101E1019C008D00E101E101F200E101E1010C018F00E101E1018F00160149014701E1019C002600E101E101F0
:4058C0005001E101E101E101E1016C00E101E10183016A373B78012B02D12000FEF72AFC0022C34BC348C4491A600860C348C4490860C4490A6080211A6809060A431A6073
:40590000EA22C14952008858C04B03408B50002C20D1032303AF38003C707B7004F088F9002817D0BA4BDC72BA4B5A1C16000D3301933300013B1B7838003B7033787B707B
:4059400004F076F9002805D0330002331E00019BB342EED154236343AF4AD31881E000220221200002F034FEA94B6F3719193A78097B914207D0D91CE0000F18BC46002735
:405980006646B77047541B191A735DE154236343A14AD318190000223E310A70393362E0012300E0002376371E003B780122002B03D0009F153F7A427A41170001E0002766
:4059C0003E002000FFF7AAFE002E05D000220221200002F0FDFD0AE0002F08D139003A00200002F0F5FD2921200000F037FC009B012B11D10023894A8549E0008218033146
:405A0000D75C002F04D00E18F65CB74200D81BE10133082BF4D10BE1009B032B01D01A2B12D1542363437C4AD3183C331B785BB2002B02DB200005F0BBF80021744BE200A2
:405A4000033398188170D154009B122B00D0FBE0EEE054236343704A0121D3181A003932117000223E331A70EEE02B78032B00D0EAE02000FFF752FE54236343664AD3187B
:405A80001F0038373878002800D0DDE0482201216243634E3E33915539701870D4E0542363435D4AD31841331B78002B00D0D0E0CAE0542363439437574A3978D3183A3338
:405AC000012901D9012100E00021197002212B798B43012B00D0B7E0524B1B5D002B07D054236343D3183E331B78002B00D0ABE054236343D218170038373878002800D0F0
:405B0000A2E0482301216343454E3E3299553970107099E0022100E000212000FFF74CFE02AD029090E0502363433F4AD318B333FF3319780223194000D08AE0EB79DA09B3
:405B40001DD01A205B061B0F01335843EA88D205D20D824213D9287803AA1070A87851800F310B40DB0075310B43D370284B5070103393601B23773913732C4B02E0002318
:405B800012211A00200004F017FE62E0687801285AD10222AB681B0E1A4002D113000F2121E000268446AA7A194913071B0E1209A7001343CA195661002B07D060460342D0
:405BC00004D150695B0801305061F5E70120143103AAC919002391600D2150801A301073173813705070200004F056FE2CE0C046000008407708008060000840070100809F
:405C0000000208400402084000000A401FFEFFFF840800209A0601001C0700204C010020900B00202C11002038040020DD52000054236343084AD3183C331B785BB2002B33
:405C400002DB200004F0B4FF2A000099200003F027F90FB0F0BDC0461C070020C82110B5002289000400FFF7EDFC002805D1200000F0A6FFFA22520009E054230821634349
:405C8000064AD3183C331A780A431A706422044B2E21200000F0FEFC10BDC0461C070020A55C0000C82170B5002289000400FFF7C9FC002824D1542308216343144AD31868
:405CC0003C331D780D4008D01A7820008A431A7000F076FFFA22520013E07F22197820000A401A7004F064FF2900200000F080FE2000012100F07CFE200004F06DFA05E06C
:405D00006422044B2E21200000F0C4FC70BDC0461C070020A55C00000122014B1A707047D80B00200C2359436933FF334343C9180C4B0D4A5918FF238B72135C013BDBB2CF
:405D400013540A4A1378013BDBB213701378002B06D1074B1B78002B02D18022054B1A607047C04654010020C8020020C90200209E08002080E100E0542370B5032543435D
:405D80000A000349CC18083325735918904770BD1C070020F0B585B00E000400039204F083FA94300378A94D009354236343EB181A0000212D3211703089A54901408020A1
:405DC0000002814200D027E1B2681A61727A3A335206920F1B78D0B2191C834200D9111C54236343EB181A003A321170CFB201210E3A11703F22197C0A40802149420A43BE
:405E00001A74944A125D0192002A03D0009A012A00D8DEE07378012B00D0B0E0307AC006C00E0138052800D9A9E00AF0AFF903385E9393A2FF2372891B029A4200D09EE0B8
:405E4000854B1A5D002A00D199E05421834BA000C35861439C469300029300236D182C352A707A4D62465818D25840190261029A043328009A42F5D1002F06D15423634393
:405E8000EB18D98A764A0A40DA8254236343C0183F23027C13404022134303746FE0FF2372891B029A426AD16E4B1B5D002B66D0542161436D182C356B4A2B70A0009B0003
:405EC00087589C460022614D8818BB584019043203616245F8D154236343ED183F232A7C1340402213432B7449E0604A6300D25C042A44D95E4BA0007189C058C588037855
:405F00008D420ED154256543504A043B51199B102C310B70DBB201339B0002930021944605E0D21AD2B2C018002AE7D127E0029B04318B4204D06F1843586744FB60F6E752
:405F400054236343D2183F23117C0B4040210B43137414E050236343464AD318B333FF331B78DB070BD554236343ED182D35022304E054236343ED1801232D352B70009B4A
:405F8000012B39D9019B314D002B12D01F23327A1A40111F3533012929D9062A04D16343ED1801232D352B7031002000FEF7A6FE22E031002000FEF7A1FE00281CD0542343
:405FC0006343ED183F232A7C1340402213432B7412E01F22317A0A40062A07D138331B78012B03D131002000FEF788FE54236343ED1801232D352B7054236343134A60200D
:40600000D31819003A331A78032313405A014B7C834313434B740FE0022313704E3363431449CB18B333FF331B78DB0704D4009B012B01D90323137054236343034910338E
:4060400059182000039B984705B0F0BD1C070020C080FFFF2C110020ED020020F00200207FFCFFFFF4020020F8020020FC020020000300203804002010B50C0004F014F999
:406080000423032C01D8054B1B5D94300278012A02D8102B00D10C3B180010BDA806010070B504000D0004F0FFF8C17906008906890F2000FFF7E0FF042801D0102804D138
:4060C0007D363378012B00D10320542363430449CA180833107359182000A84770BDC0461C070020F7B50500019104F0DDF8070067373B780400012B01D1867A00E0067B5B
:40610000280004F0D1F8943003780420012B03D92378022B00D00C3023006A331B78002B0ED12378022B0BD176B2002E02DA3B78002B05D1E17928000907890FFFF79CFF99
:4061400054236B430449CA180833107359182800019B9847F7BDC0461C07002070B504000D0004F0A1F8542262430C498A183D3213780E000122002B06D1C1790333194031
:406180002000FFF779FF020054236343F11808330A732000F118A84770BDC0461C070020F0235843014B2030C0187047001900000048704700190000002310B5920093428A
:4061C00003D0CC58C4500433F9E710BDF7B505000F00009203F0ADFFBA23060000245B006B4301930C236343019AE1B29B18094AD3189B7ADBB2BB4205D3009A934202D867
:406200002800FFF78FFD01341F2CEBD1300003F094FFF7BD5401002030B50023FF2911D0BA220C2552005043074C2A005A431218A218927A914204D001331F2BF5D100237E
:4062400000E00123180030BD5401002010B5914203D2FF2A01D0FFF7B9FF10BDF8B504000D0003F066FF0600FF2D11D00C22BA200023944640006043094F62465A431218E6
:40628000BA18927AD9B2954206D001331F2BF4D1300003F052FFF8BD2000FFF743FDF7E754010020074A03099B00D3180F22104080008240814010B55C6823689343194306
:4062C000216010BDA80601000F2203099B001040074A002905D0D158012383400A68134304E0D158012282400B6893430B6070473405010030B5204B1B78002B01D10520B6
:4063000038E030250C001D4B083C9A6A0439AA43203D2A439A621A4A22607F220A60194A904204D98021226849040A432260164A164994605160C046C046C04695682D0F4B
:4063400029070A2D0FD1124D000428432060114894605060C046C046C04692680020120F12078A4200D00C2030219A6A8A439A620028C4D130BDC0463404002000000340F4
:40638000B6D70000FF0100000000104004000080B6D800000500008010B50400A2B08822002168460AF027F802A92000FFF7A2FF22B010BD144B020030B506209A4222D879
:4063C00053781178114C1B020B43A3421BD11000D1799379090219430A30147A0A39031E0DD000231000994209D0851A8D4204D2857A01305B19DBB2F7E75B42DBB2062050
:406400009C4200D1002030BDFFFF0100594300000200F8B5817A447AD37A090221431B040B431900137B06201B060B4331D09479517924020C43E40121008031CD18AC465D
:40644000144DAC4525D89678557836022E43D5782D0435432E0015792D063543A94218D8AC4516D915780A1E0BD0002280331B19994204D0087801311218D2B2F8E7524216
:40648000D2B20620954204D120008130FF30FFF791FFF8BDFFFF0100F0234343084A10B5D3180122A8331B78134207D0542343430449CB18198E044BFFF720F810BDC046F0
:4064C000001900001C070020F93E0000F023434370B5174A0400D318A8331B789B0725D503F027FEE6228325124B1349520099501221AD005A598A435A518122920099500C
:406500000E4A11781A0002290AD1E731FF315B58F4352B4201D00A4D00E00A4D2B40535003F00BFE0022084BA400E25070BDC0460019000000000A4040000080140B002080
:40654000FFFBFFFFFEFBFFFFD809002070B5074D074A2B6C11889BB2040016008B4202D0642002F0E1FE2C64348070BD000003400E0300200123F7B53F4D404C6B642370A7
:406580000195019BDB6B628899B292B21B041B0C914202D8802040021B1800269B1A9BB2009361800C227243354B9918897A1F00C9B2FF2926D09858844600980530844527
:4065C00003D99858009D401B00E0002098500C2272439858002815D1BB18FF229A72294A944665461278013AD2B22A70264A944665461278013AD2B22A705A68002A01D09E
:406600005B68984701361F2ECCD11F4E3378DBB2002B1DD000231D480C225A43B918897AFF2903D0B958814200D2B85801331F2BF2D1019A6388D26B9BB291B21204120C3A
:406640008B4202D3802149025218D31A9BB200E00E480533834294D880B2A0806388C01880B2FFF773FF002323703378002B02D18022074B1A60F7BD000003409E08002010
:4066800054010020C8020020C9020020C0FF000080E100E0F0B585B007000C00160001930020FF2900D195E0824200D192E003F040FDFF2202901E230C20944675327A43D6
:4066C0000392BA22050052007A435D434249AA188A18927AFF2A01D1DAB294460C225A43039D521989188A7A94420CD13B4ADBB29C46D35D013BDBB2D355394A1378013B8C
:40670000DBB2137005E0013BDBD263460025FF2B5CD063460C225A43BA235B007B432E49D21801988B181E8158609C722D4B0D001B882B4C5E432C4B56501B78002B3BD1C4
:406740002A4BDB6B20789EB2002824D0264A1B0452881B0C92B2964202D8802149025B189B1A61460C2251436932FF327A438A18A9589BB25B18AB501B4BA858998888421F
:406780001AD2AA5892B29A8058889B88C01880B2FFF7DCFE10E0144B5E805058144B984200D91800104B80B29880301880B2FFF7CDFE80220F4B1A600125084AD35D01337F
:4067C000DBB2D35523780133DBB22370029803F0B4FC280005B0F0BD54010020C8020020C9020020CA0200209E08002000000340C0FF000000E100E0012110B5064B2020F7
:406800005B689943FFF760FDFA22044B9200C0210020FFF73FFF10BD00020440F967000010B50023FFF736FF10BD000054234343F7B5234A0600D31800223F3301911A702A
:4068400090422FD1F0231F4F1F4C39785B00E5581A00032902D11D4B1D4004E01C4B1D4080231B021D439B20A550400002F05CFD3B78032B02D1174B1D4004E0164B1D401B
:406880008023DB011D43F0235B00E5500833E158124A0A400221E250E2580A43E250E2588A43E250019B002B02D03000FCF770FF30000121FEF776FD3000FFF707FEF7BD31
:4068C0001C070020C100002000000A40FF7FFFFFFFDFFFFFFFBFFFFFFFEFFFFFFEF7FFFFF8B51E0005000C0010006421170009F061FC320042439A206843BA180419D0433B
:406900000B4B8834C0170B21640010401C1909F051FCA4880002A4B2210009F07FFD032803D9FE2802D9FE2000E00420C0B2F8BDDC09002070B5184B05001A5C1E00002A58
:4069400005D11B185B780C20002B24D003E000213320FFF7B9FCC022104B52001A65986D0F4A002402409A658022D2001A62186B0C4A0D4902401A630A680C4B33201340D0
:406980000B60AB00F3187455210075195C606C70FFF788FC200070BDA4080020FC000A407FFEFFFFFFFBFFFF00000A40FFFFFF9FE223064A5B00002902D1D158022001E09C
:4069C0000420D1588143D1500020704700000A40D823064A5B000420002902D1D158814301E0D1580143D1507047C04600000A40D8230A4A5B00D058002906D108490140B7
:406A00008020D150D158400305E0064901408020D150D15880030143D150704700000A40FFFFBFFFFFFF7FFFE02210B5142409485200835823438350103A8358002902D1D2
:406A4000A021C90301E0A02109040B4302490B40835010BD00000A40FFFFFFBFDA22034952008858024B03408B50704700000A40FFFBFFFFD823054A5B00D058002901D1AA
:406A8000034900E003490140D150704700000A40FFFFFFFEFFFFFFFDF7B5224B01911B78E52B05D1204B1B78AD2B01D11F4800E01F483F27E0251426BC461E4B6D005C595A
:406AC0006146B4435C51FF2424021D59083EB543194E1D519D598018BD439D51174D5F598F435F519F5901780F439F515E59007830435851022A04D108201A5902431A5115
:406B00000322D82040001D580D4C01992C4092062243002901D1822100E08421C9050A431A50F7BD80F2FF0F81F2FF0F82F2FF0F79F0FF0F00000A4004FF000008FF00007D
:406B4000FFFFFFF310B503F075FC030067331B78002B0ED1FF230C24064A1B02D1586830A143D1500178032903D10820D1580143D15010BD00000A40104B80201A0010B51D
:406B8000FC321062116B142481431163D82280205200995800060143E02099504000195821431950083819580C3C214319509958AF38FF3881439950002010BD00000A4002
:406BC000DC2108200B4B49005A5882435A50D822520099580230490049089950995801439950985804490140F0200004014399507047C04600000A40FFFFFFBFD8220E4BCB
:406C0000520098580D490140E020995099580003014399501A00FC3290690949014091619069084901409161E021142049005A5882435A500020704700000A40FFFFF1CFB0
:406C4000FFFFF3FFFFFF7FFB054B01201A68054B1A4203D1044BDB695B0A18407047C046A4000A4007001000FC000A409A235B005843024BC01804307047C046DC09002013
:406C80009A235B005843074B074A1B1800202D33FF331870054BD96A0A40DA62044ADA617047C046DC090020771FAEFFFC000A4088E05100054B064A196800200A401A6066
:406CC0001968044A0A401A607047C046F4000A40FFFFFEFFFFFFEFFF134B144A986D02409A65E02212011A65002908D11049114A086802400A60D96A0F4A0A400FE00129B8
:406D00000ED10B490B4A086802408020C00102430A60D96A084A0A40802189000A43DA62064A0020DA617047FC000A40FFF9FFFFE4000A40FF00F8FFFFF5DDEF000A2210B9
:406D40009A235B0043430F4A10B5D31800222E33FF331A700C4C0D4BE36103F06BFBE0231B012365943002782300012A04D98021A26D89000A43A265DA6A054900200A4344
:406D8000DA6210BDDC090020FC000A407F0A2210000A22100023F0B587B002920593994208D1C02380269B04284C294D18270093760007E0C02380261B275B05254C264D59
:406DC0000093B60003F0B5F9236803900193029B5A04C023DB021340802292001343236001232A681A432A602A681A4206D0059AC72A03D8059A01320592F5E7022002F0B7
:406E000093FA019B2D680A20236002F08DFA134A2D0C1662136BEDB2334211D0019B002B0EDB936900990B402168FB40090405D4012B05D1936A1E43966201E0022BF9D084
:406E4000039803F07AF9280007B0F0BDA4010A40A0010A40AC010A40A8010A40FC000A40F7B50F00160003F0E5FA0500019067352B780224012B00D034008822002352008E
:406E8000012F00D11300D8272D497F00C85910400022834209D0CA5994466046294A0240CA51CA5913430122CB512B78264F012B0AD1019B8B331B7898003B5C38185E0184
:406EC00043785B02334305E0BE19737B5802337B5B010343D82040000F58EE210901184E39408B4207D03158184A0A40325032581343335001E0002A02D0322002F014FA2C
:406F0000134B1A68C023DB0213408022D202934205D12C78013C624262410224A41A2A78012A04D15A1E93415B421C4006E0002A04D1C022D202934200D103242000FEBD07
:406F400000000A40EFFEFFFFC00601001FF1FFFFA4000A40F0B585B0060003F06BFA03006F331F78083B1A780B33050003AC1B78012A23D1002B05D0334B90351A6806233E
:406F80001A4225D1002F0CD0002230001100FFF767FF0022207001213000FFF761FF60704EE03A0001213000FFF75AFF3A00607039003000FFF754FF207041E00022019260
:406FC000012B2AD1204B1A6806231A4003D08E352B88238034E003009A3301931B78002B04D039003000FFF73BFFE055E35D002B03D1019B1B78002B05D10122390030003B
:40700000FFF72EFFE055002270352B78E25417E0019B01330193022B12D06B461D79002229003000FFF71CFF019BE0540028EFD0012229003000FFF713FF019BE054E7E742
:40704000208805B0F0BDC046A4000A40DC22082170B5D825124C5200A3586D008B43A350635952185B005B086351A3580C318B43A350322002F058F923008021FC3319625C
:407080001A6B00200A431A63E2225200A3587F390B43A3506359BB3AFF3A1343635170BD00000A40022210B5064CFF32E36B05201343E36302F038F9E26B034B1340E363DA
:4070C00010BDC046FC000A40FEFEFFFF70B5154B154CDC61DA6A2243144CDA628A00A21812691A60052907D08021114AC902136800200B43136013E0FFF7D4FF0A240D4B72
:407100000D4E1A681D00324206D0013C0A20E4B202F00AF9002CF2D12B680F203342E3D070BDC046FC000A4000010400C0060100F4000A40A4000A4007001000802210B551
:40714000074C5203236832201343236002F0ECF880222368520213430020236010BDC046F4000A40F7B5070003F064F9AD4B01905A6B1E00002A00D1DCE15B6B9B050FD5DF
:407180009A2300205B007B43A749CA182D32FF325B58107008213800984788239B00F3618023726B1A4209D09E4AD361B4337B439D4AD31801222D33FF331A70F36D9B05E3
:4071C00030D5984B98491A6D9A235B007B43520504D5C9182E31FF3100231FE0CB181A0001202E32FF321070904A2F33D26DFF33D201D20D03329210D2B21A701A78412A37
:4072000001D941221A709A235B007B43C9180A0000233032FF3231311370FF310B70C023DB0033658024736BA403234204D0380000F03EFA7B4BDC61736B7A4ADB007DD596
