:400000000020002011000000670200006702000038B51C4A1C4B1D4D1A601D4B1A681023134000D12B602B68802B29D1194B1C79E4B2012C14D90021052000F0BFF8012143
:40004000041C052000F0BAF8E4B2C0B2002C03D0041E05D0032403E0441EA0410224241A00230220211C2B6000F0A8F8002807D0012C05D8211C022000F0A0F800F0F2F883
:4000800001F0BCF86588EDAC3800034088000020540003409C000020000000000000000000000000000000000000000000000000000000000000000000000000000000009F
:4000C000000000000000000000000000000000000000000000000000000000000000000065020030626E0100AF12001F0000000000000000000000000000000000000000B8
:4001000010B5064C2378002B07D1054B002B02D0044800E000BF0123237010BDA800002000000000FC12000008B5084B002B03D00748084900E000BF07480368002B00D175
:4001400008BD064B002BFBD09847F9E700000000FC120000AC000020980000200000000018234343F0B5134CE3189D689A8A002D01D10D701CE0104B8600F658C2239B0012
:40018000F7581F231F403B1C082F00D908239BB20B709B189BB29A4206D2D02189007158A954013292B2F6E7182358432418A282F0BDC046C400002000130000013800B5DF
:4001C0000B282FD80902494201F03CF806080A0C0E10141216191B20164B13E0164B16E0164B0AE0164B12E0164B0BE0164B09E0164B02E0164B00E0164BC91814E0164B3E
:4002000005E0164BC9180878C0B211E0144BC9180A7848788B7800021B041843CB7810431B0604E001BE00210B7848780002184300BDC046C0FF0100C1FF0100C5FF01008F
:40024000C9FF0100D0FF0100D1FF0100D6FF0100D2FF0100D4FF0100D8FF0100DCFF0100E0FF01000047FEE70122024B60331A707047C046C4000020021CF0B58179437931
:40028000457A0902807A1943D37A000228431B040343181C137BD47D1B0603432B4E907D240204430120B4424FD1957854782D022543D47824042C43251C147924062C43A1
:4002C00043D0002B41D009024C1CFF34204FE518BD423AD81278251C944600220133FF335B189C4204D0207801341218D2B2F8E75242D2B20120944527D12C1C0135FF3425
:40030000FF35227AE379BD421FD8A57867782D023D43B54219D112021A43607A00230A2A0ED080250B4CAD000C1949198A18944204D0217801345B18DBB2F8E75B42DBB23C
:40034000C01A031C581E8341D8B2F0BD59430000FFFF01000A020000F0B5244A244B85B0D15802920393CB033ED50024261C0025E3B201930F231F486343011C5B19643168
:400380001B01CA18117AC9B2FF291BD0C3189F6E181CBC4601277F42BC44674664309F66406800280ED1FF30107213486C334430025D013AD2B202555A68002A02D05B6815
:4003C0000198984701350F2DD4D10B4B44331B5D002B00D00126012C01D00124C7E7002E02D1029B039A9E5005B0F0BD001000E010D00000C4000020C4020020134B820031
:40040000D35830B51A68F821520052081A60182250430F4A102510180222027100200D4A0D4C98500122090152425A501959A9431951F42109015A5080315A508021D866E3
:400440001A6809060A431A6030BDC04600130000C4000020880F0000480F0000644B8200F0B5D458002385B002AAD371614B061CE25801231A4206D05F4962589A436250B3
:40048000E8221201A3505D4B0125E7580223FF331F4201D000273D1CFB0641D518237343574AD31800931B790192042B0CD002ABD91D301CFFF754FE0521009B012019711A
:4004C0009A8A1B699847051C18237343019A8020D31802221A7100229A8281239B00E25840020243E250E158464A1140E1500133FF33E1580143E150E1580A40E2500122E7
:400500004149635893436350F82310211B01E2503E4AA3588B43A350F42330221B01E2507B063AD5E82201211201A3580B43A35018237343324AD3181A79022A2AD1626E6B
:40054000D2060ED5002003311971021C1B69984700281FD0F82301221B01E2502A4BE25003E005221A71002D14D0F423302210211B01E250254A0125A3580B43A350244B49
:400580001A1C4632925D002A01D1E56605E04A339D5502E002230025E366F4231B01E750002D03D1301CFFF729FF1EE0194BE758FB0709D5182300207343114A0421D318BC
:4005C0001B69021C9847051CF8231B01E750124BE758FB0704D502AB301CD91DFFF7C0FDFC231B01E750002DDCD005B0F0BDC046001300008C0E0000880E00004C0F000081
:40060000C4000020FFFFFEFF880F0000480F0000C40200208C0F0000CC0F000008B50020FFF71CFF08BD0000F7B500F02BFE1F4B0190191C1F1C4E31FF31CA7D4E37002A09
:400640002FD04C7C002C2CD1E62084464D33FF33DE8ABA195278BE5D0092154A9444604606706846151C01260078E732107068354E74AA790F493243AA71FB220D682A4086
:400680000A601021DA8AFF31223292B28A4201D8DA8200E0DC82054B4E33FF33DA7D013ADA75019800F0F2FDF7BDC046C4020020C403002000020440F0B500253B4BCBB040
:4006C0000295039598426CD8802239490190E8310AA8520000F0C0FD364B08AF0893FF23354C7B60354E364B2760336023681B0F0A2B02D00F2325681D400295029D002D84
:4007000051D100F0BFFD2F4A04AB04922E4A6832059223602D4B336023681B0F0A2B03D0254B1D680F231D400395039B002B0CD127492160274931602168090F0A2903D0DE
:400740001D4B19680F230B400293029B002B12D12149019D089108992D04294308911F49276031602168090F0A2903D0124B19680F230B400293039B002B0FD1184D06A987
:4007800006950792174A216032602268120F0A2A03D0094B1A680F231340039300F076FD01E00423029302984BB0F0BDFF010000C4030020B6D7000008001040040010408C
:4007C00004000080B6E900004405002016000080B6E8000015000080B6D8000005000080B6EA00001700008008B500F04BFD0021124B0A0164339B181A1C1B7A0832002B62
:4008000008D1FF3313700E4A44321378013BDBB2137002E001310F29EAD1094B44331A78002A03D15B78DBB2002B02D000F02EFD08BD044A04498B50F8E7C046C4000020A7
:40084000C402002010D00000001000E0F8B5051C00F018FD1E4B041C1A1C191C1F1C4E32FF32D07D4D31FF314E378A8A082815D1002A02D11132FF328A82191C4D33FF3301
:400880009A8A0025223A93B281224E31CA54CB18201C5D7000F0FAFC281C17E00026BD54551CADB27E551025223292B2FF35AA4201D88A8200E08E824E330130FF33D87534
:4008C000FFF7B2FE201C00F0E1FC0120F8BDC046C4020020012170B5144D084213D00022134B4E33FF335A74DB7D934209D1114A1268137053702A1C683293798B439371D1
:4009000001E0FFF791FE04260B4C68352368B343DBB233432360AB79002B06D0782000F0A7FC2368B343DBB2236070BDC4030020C4020020C405002000020440F8B5374EF0
:400940007579341C01283AD10F232F092B40022A15D8012A0BD00025AF425CD1022B04D133792F4AD318E83305E0002B53D12C4B227968339B182B4A012593604BE0002B29
:4009800014D03179051C002F3BD1022B39D12448023A4018FE3392B2E830591A8A4200D90A1CA11D00F058FC01252AE01E4B023A463318701B4B92B21873DA81F4E70025E3
:4009C00004291ED1822319499B00CD58EA3BFF3B2B400825134AEB1ADBB290681E1CAB4200D92E1CF3B2061C351AEDB29D4205D290253778AD004F510136F5E7C3189360EF
:400A0000D2E7084B197BC9B2002904D18122201D520000F067FC281CF8BDC046C4050020C4030020C4060020C402002000000540F7B50122314C23689343236000239A0047
:400A40002F49032B01D82F4989582F4801338150222BF4D172B6FF27002503222B4B2C4E1F602C4B1D602C4B1A602C4B21321A602B4B1C321A602B4B3C3A1A602A4B7D3218
:400A8000FF321A601223336000F0FCFB0722274901900B68264893430B6026490B680078BB4303437F200B6023490B6893430B60224A23490B6812788343024013430B602A
:400AC0004D3800F0D5FB019800F0E0FB1D4B1E4A1D601E4B1A601E4B1D601E4B1D60112333601D4B1D601D4B1A68AA4200D11A600122236813432360F7BDC04600001040F3
:400B00006702000000000000000000200000024030001040000102400000044008000440080104400002044008020440080F034065F3FF0F0C0F0340100F03404CF3FF0FE9
:400B4000180F03400002014000FF00800000014028000340000101409000002088000020F0B5DE4C8122251CDD4EDE4B87B0E635301D002152009D6000F0B4FB8C22DA487E
:400B8000002152004E3000F0ADFB271C082368379C468D333B70F8235B017B801323211C0120BB800822002394310870211CCF487A70BB71FB71BB72FB723B813B857B859B
:400BC000A444271DF867A0676046E7310B70C8496367C167E167211C8C3488312B7023600B60C44BC44C1A702368C44A35601340802204251343C24E23603368C14FAB4329
:400C0000DBB22B433360782000F032FB3B68BB4A00922B4201D1402310E02368009A78201340C022134323603368AB43DBB2336000F01EFB3B682B4202D04223AD4A137067
:400C400000272368009AC12113402360A94BAE4C1878AE4B276080222366812389009B005202E766E2506250A94AF425A7500122FE2652422D016251A64D36046751083D11
:400C80006251A54D6751083D625145003543C426B6002268A5518025AD00AC4608256646FF35A5510136FF36A5519C4D9C4E2A4322600222F2703271894A01250432B2602D
:400CC00081225200B281974A70703261FE22B270FA3A3570B782E25062506058924A10406050E1580A40E2504223894AFF33A350894B8E4AE5508E4B1A6062468D4B1A606C
:400D00008D4A8E4B91680B40802149040B43936062B68020FFF79AFD724D89482F74FFF7ABFA00950394734D0196B84202D00423009A13748348FFF79FFA002805D0082265
:400D4000009B1B7C1343009A13747F4B7F491A68181C92B28A4208D100221A60009B01321B7C1343009A1374A7E01B68784A9BB29B18594259410368CAB276499BB25B18BA
:400D80005C425C41009BE6B21B7C19070FD4002E15D104210B400FD1002A1ED16949684CCB69E669B34200D30AE2131C10E004242340191E05D080E0002A00D100E20123FA
:400DC0000BE0002A00D0E8E1131C002E05D1331C5B4A928A60498A4201D1002204E05F498A4202D0FA2292006A802B716B889BB20293002B08D18033594A0360136859498C
:400E00009BB20B43136058E00023019A60321370FF2401991A0164318A18013314720F2BF6D10025304B504E44331D704F4A504B504FF551F250504A504B1A6000F022FA77
:400E4000019A2B016432D218127AE9B2FF2A00D10C1C019A6432D3181B7A002B07D1224A0C1C44321378013BDBB2137004E001350F2DE5D1FF2C1ED06B46019A1B896432A2
:400E80002401A352019B3E4D1B19141900221D672272029A9A66144A131C44331978002904D15B78DBB2002B00D178E1443213780133DBB2137000F0E9F900230749942034
:400EC0000A1C04930593009B68321B7C107053705A0757D5802204AC92005BE0C4030020C4050020C4060020C402002065020030626E01009C000020080104403FFEFFFF96
:400F000000010440040104400000054088280040480F0000880F0000C80F000000010080C40000203D090000FFFFFEFF1D0600006400002000E100E000000440FFFFFFF8E2
:400F4000C0FF0100C0FE0100880000204C420000CFBDFFFFCEBDFFFF59430000FFFF00000CED00E00400FA05001000E0BF5D000014D0000010D00000590300003C000020AB
:400F800069020000904A52681202120C01321402E03492B21B0703D5802304A89B0007E08A4B5B681B021B0C01331802E0309BB20F1C0E1CE0256837019778369C4688CD97
:400FC00088C60D1C803548CC48C5883118C818C1019B7F4D1A8562465A851423009A538213227C4B6A81EB802B810193009B1B7B002B00D1B5E0784C63791B0900D09AE09C
:40100000009B2079DB890638DBB2062800D9D5E000F018F904D408D42E374000A079FFF759FC88E0012B00D8C8E0A3790522522B00D07DE0E479002C13D0012C78D10420CC
:4010400066490A688243D3B203430B6072B60022634B64491A60644A13689BB20B43136069E00720FFF736FC201CFFF7C7F906E0A3790522502B5BD1009A4F3B13750222D4
:4010800056E0A379012B00D18EE00922022B4FD14E488AE00522032B4AD9A379462B47D1E379012B2ED1009A667A127D237A002A00D181E036021E43009B5B8AB3427BD8F4
:4010C000EB88B34202D22B89B34275D1019B9E4201D13E4F04E0FF235B009E420CD13A4F381CFFF7C9F80023984200D1FB69E2223E49013352008B50301CFFF7DDFA0028D9
:401100005AD10222E379002B12D1009A617A107D237A072200280BD0090219436B898B4206D23248F9320902E83000F095F80322101CFFF78BFB8122274B0021181D52005C
:4011400000F0D0F80022009B1A73294B191C4A3346310A701978914203D01A700123039AD366009B234C1B7D002B05D0FFF73CFB231C002260331A7060342378002B00D123
:4011800034E7FFF731FB8022154B16491A60164A13689BB20B43136028E70B1C1DE6164973500723F35181E60748FFF765F802220028BDD00632BBE70722A3E70522B7E731
:4011C0000123024A05E6C046C0FF0100C0FE01009C000020FF010000C405002000020440880000200400FA050CED00E0C4030020C4020020C400002018D0000070B50F498A
:401200000F4B01394A1C15D000221E685C689D68A018AA4203D0B058A0500432F8E7021CDC68151AA54202D0002520C2F9E710330139E7E700F030F8FFF792FC01000000C1
:401240003413000002B4714649084900095C49008E4402BC7047C046002310B5934203D0CC5CC4540133F9E710BD0000000000000230800804D0C0460138FDD1C046C046CD
:40128000C0467047EFF3108072B6704780F310887047C046C046C0460E4B70B500251E1C0D4CE41AA410A54204D0AB00F35898470135F8E700F02CF8084B00251E1C084CA5
:4012C000E41AA410A54204D0AB00F35898470135F8E770BD1C1300001C1300001C13000024130000031C8218934202D019700133FAE7704700140000490000000000000094
:4013000000000540000006400000074000000840F8B5C046F8BC08BC9E46704729010000310A0000F8B5C046F8BC08BC9E467047010100004813000098000020100000007D
:40134000380600000000000000000000080032000200FF010002FF0100000000000000000000000000000000000000000000000000000000000000000000000000000000F1
:40138000000000000000000000000000000000000000000000000000000000000000000000000000000000000000000000000000000000000000000000000000000000002D
:4013C00000000000000000000000000000000000000000000000000000000000000000000000000000000000000000000000000000000000000000000000000000000000ED
:4014000000000000000000000000000000000000000000000000000000000000000000000000000000000000000000000000000000000000000000000000000000000000AC
:40144000000000000000000000000000000000000000000000000000000000000000000000000000000000000000000000000000000000000000000000000000000000006C
:020000040001F9
:40FFC00000000000000000000000000000000000000000000200000000000000000000000000000000000000000000000000000000000000000000000000000000000000FF
:0200000490303A
:020000003D1DA4
:0200000490402A
:4000000000000000000000000000000000000000000000000000000000000000000000000000000000000000000000000000000000000000000000000000000000000000C0
:0200000490501A
:0C00000000021F0011AF00001F064ECCD4
:0200000490600A
:0100000001FE
:00000001FF